{"contracts/ImperfectFormPredictionMarketV2Fixed.sol":{"ImperfectFormPredictionMarketV2Fixed":{"abi":[{"inputs":[{"internalType":"address","name":"_charityAddress","type":"address"},{"internalType":"address","name":"_maintenanceAddress","type":"address"},{"internalType":"uint256","name":"_initialCharityFee","type":"uint256"},{"internalType":"uint256","name":"_initialMaintenanceFee","type":"uint256"}],"stateMutability":"nonpayable","type":"constructor"},{"anonymous":false,"inputs":[{"indexed":true,"internalType":"uint256","name":"predictionId","type":"uint256"},{"indexed":true,"internalType":"address","name":"charityAddress","type":"address"},{"indexed":false,"internalType":"uint256","name":"amount","type":"uint256"}],"name":"CharityDonation","type":"event"},{"anonymous":false,"inputs":[{"indexed":false,"internalType":"uint256","name":"newCharityFeePercentage","type":"uint256"},{"indexed":false,"internalType":"uint256","name":"newMaintenanceFeePercentage","type":"uint256"}],"name":"FeesUpdated","type":"event"},{"anonymous":false,"inputs":[{"indexed":true,"internalType":"uint256","name":"predictionId","type":"uint256"},{"indexed":true,"internalType":"address","name":"maintenanceAddress","type":"address"},{"indexed":false,"internalType":"uint256","name":"amount","type":"uint256"}],"name":"MaintenanceFee","type":"event"},{"anonymous":false,"inputs":[{"indexed":true,"internalType":"address","name":"previousOwner","type":"address"},{"indexed":true,"internalType":"address","name":"newOwner","type":"address"}],"name":"OwnershipTransferred","type":"event"},{"anonymous":false,"inputs":[{"indexed":true,"internalType":"uint256","name":"predictionId","type":"uint256"}],"name":"PredictionCancelled","type":"event"},{"anonymous":false,"inputs":[{"indexed":true,"internalType":"uint256","name":"id","type":"uint256"},{"indexed":true,"internalType":"address","name":"creator","type":"address"},{"indexed":false,"internalType":"string","name":"title","type":"string"},{"indexed":false,"internalType":"uint256","name":"targetDate","type":"uint256"},{"indexed":false,"internalType":"uint8","name":"category","type":"uint8"},{"indexed":false,"internalType":"string","name":"network","type":"string"},{"indexed":false,"internalType":"bool","name":"autoResolvable","type":"bool"}],"name":"PredictionCreated","type":"event"},{"anonymous":false,"inputs":[{"indexed":true,"internalType":"uint256","name":"predictionId","type":"uint256"},{"indexed":false,"internalType":"uint8","name":"outcome","type":"uint8"}],"name":"PredictionResolved","type":"event"},{"anonymous":false,"inputs":[{"indexed":true,"internalType":"uint256","name":"predictionId","type":"uint256"},{"indexed":false,"internalType":"uint256","name":"currentValue","type":"uint256"}],"name":"PredictionUpdated","type":"event"},{"anonymous":false,"inputs":[{"indexed":true,"internalType":"uint256","name":"predictionId","type":"uint256"},{"indexed":true,"internalType":"address","name":"user","type":"address"},{"indexed":false,"internalType":"uint256","name":"amount","type":"uint256"}],"name":"RefundClaimed","type":"event"},{"anonymous":false,"inputs":[{"indexed":true,"internalType":"uint256","name":"predictionId","type":"uint256"},{"indexed":true,"internalType":"address","name":"user","type":"address"},{"indexed":false,"internalType":"uint256","name":"amount","type":"uint256"}],"name":"RewardClaimed","type":"event"},{"anonymous":false,"inputs":[{"indexed":true,"internalType":"uint256","name":"predictionId","type":"uint256"},{"indexed":true,"internalType":"address","name":"voter","type":"address"},{"indexed":false,"internalType":"bool","name":"isYes","type":"bool"},{"indexed":false,"internalType":"uint256","name":"amountStakedNow","type":"uint256"},{"indexed":false,"internalType":"uint256","name":"totalUserStake","type":"uint256"}],"name":"VoteCast","type":"event"},{"inputs":[],"name":"MAX_FEE_PERCENTAGE","outputs":[{"internalType":"uint256","name":"","type":"uint256"}],"stateMutability":"view","type":"function"},{"inputs":[],"name":"PERCENTAGE_BASE","outputs":[{"internalType":"uint256","name":"","type":"uint256"}],"stateMutability":"view","type":"function"},{"inputs":[{"internalType":"uint256","name":"_predictionId","type":"uint256"}],"name":"autoResolvePrediction","outputs":[],"stateMutability":"nonpayable","type":"function"},{"inputs":[{"internalType":"uint256","name":"_predictionId","type":"uint256"}],"name":"cancelPrediction","outputs":[],"stateMutability":"nonpayable","type":"function"},{"inputs":[],"name":"charityAddress","outputs":[{"internalType":"address","name":"","type":"address"}],"stateMutability":"view","type":"function"},{"inputs":[],"name":"charityFeePercentage","outputs":[{"internalType":"uint256","name":"","type":"uint256"}],"stateMutability":"view","type":"function"},{"inputs":[{"internalType":"uint256","name":"_predictionId","type":"uint256"}],"name":"claimRefund","outputs":[],"stateMutability":"nonpayable","type":"function"},{"inputs":[{"internalType":"uint256","name":"_predictionId","type":"uint256"}],"name":"claimReward","outputs":[],"stateMutability":"nonpayable","type":"function"},{"inputs":[{"internalType":"string","name":"_title","type":"string"},{"internalType":"string","name":"_description","type":"string"},{"internalType":"uint256","name":"_targetDate","type":"uint256"},{"internalType":"uint256","name":"_targetValue","type":"uint256"},{"internalType":"enum ImperfectFormPredictionMarketV2Fixed.Category","name":"_category","type":"uint8"},{"internalType":"string","name":"_network","type":"string"},{"internalType":"string","name":"_emoji","type":"string"},{"internalType":"bool","name":"_autoResolvable","type":"bool"}],"name":"createPrediction","outputs":[{"internalType":"uint256","name":"","type":"uint256"}],"stateMutability":"nonpayable","type":"function"},{"inputs":[{"internalType":"uint256","name":"_predictionId","type":"uint256"}],"name":"getParticipants","outputs":[{"internalType":"address[]","name":"","type":"address[]"}],"stateMutability":"view","type":"function"},{"inputs":[{"internalType":"uint256","name":"_predictionId","type":"uint256"}],"name":"getPrediction","outputs":[{"components":[{"internalType":"uint256","name":"id","type":"uint256"},{"internalType":"address","name":"creator","type":"address"},{"internalType":"string","name":"title","type":"string"},{"internalType":"string","name":"description","type":"string"},{"internalType":"uint256","name":"targetDate","type":"uint256"},{"internalType":"uint256","name":"targetValue","type":"uint256"},{"internalType":"uint256","name":"currentValue","type":"uint256"},{"internalType":"enum ImperfectFormPredictionMarketV2Fixed.Category","name":"category","type":"uint8"},{"internalType":"string","name":"network","type":"string"},{"internalType":"string","name":"emoji","type":"string"},{"internalType":"uint256","name":"totalStaked","type":"uint256"},{"internalType":"uint256","name":"yesVotes","type":"uint256"},{"internalType":"uint256","name":"noVotes","type":"uint256"},{"internalType":"enum ImperfectFormPredictionMarketV2Fixed.Status","name":"status","type":"uint8"},{"internalType":"enum ImperfectFormPredictionMarketV2Fixed.Outcome","name":"outcome","type":"uint8"},{"internalType":"uint256","name":"createdAt","type":"uint256"},{"internalType":"bool","name":"autoResolvable","type":"bool"}],"internalType":"struct ImperfectFormPredictionMarketV2Fixed.Prediction","name":"","type":"tuple"}],"stateMutability":"view","type":"function"},{"inputs":[],"name":"getTotalFeePercentage","outputs":[{"internalType":"uint256","name":"","type":"uint256"}],"stateMutability":"view","type":"function"},{"inputs":[],"name":"getTotalPredictions","outputs":[{"internalType":"uint256","name":"","type":"uint256"}],"stateMutability":"view","type":"function"},{"inputs":[{"internalType":"uint256","name":"_predictionId","type":"uint256"},{"internalType":"address","name":"_user","type":"address"}],"name":"getUserVote","outputs":[{"components":[{"internalType":"bool","name":"isYes","type":"bool"},{"internalType":"uint256","name":"amount","type":"uint256"},{"internalType":"bool","name":"claimed","type":"bool"}],"internalType":"struct ImperfectFormPredictionMarketV2Fixed.Vote","name":"","type":"tuple"}],"stateMutability":"view","type":"function"},{"inputs":[],"name":"maintenanceAddress","outputs":[{"internalType":"address","name":"","type":"address"}],"stateMutability":"view","type":"function"},{"inputs":[],"name":"maintenanceFeePercentage","outputs":[{"internalType":"uint256","name":"","type":"uint256"}],"stateMutability":"view","type":"function"},{"inputs":[],"name":"nextPredictionId","outputs":[{"internalType":"uint256","name":"","type":"uint256"}],"stateMutability":"view","type":"function"},{"inputs":[],"name":"owner","outputs":[{"internalType":"address","name":"","type":"address"}],"stateMutability":"view","type":"function"},{"inputs":[{"internalType":"uint256","name":"","type":"uint256"},{"internalType":"uint256","name":"","type":"uint256"}],"name":"participants","outputs":[{"internalType":"address","name":"","type":"address"}],"stateMutability":"view","type":"function"},{"inputs":[{"internalType":"uint256","name":"","type":"uint256"}],"name":"predictions","outputs":[{"internalType":"uint256","name":"id","type":"uint256"},{"internalType":"address","name":"creator","type":"address"},{"internalType":"string","name":"title","type":"string"},{"internalType":"string","name":"description","type":"string"},{"internalType":"uint256","name":"targetDate","type":"uint256"},{"internalType":"uint256","name":"targetValue","type":"uint256"},{"internalType":"uint256","name":"currentValue","type":"uint256"},{"internalType":"enum ImperfectFormPredictionMarketV2Fixed.Category","name":"category","type":"uint8"},{"internalType":"string","name":"network","type":"string"},{"internalType":"string","name":"emoji","type":"string"},{"internalType":"uint256","name":"totalStaked","type":"uint256"},{"internalType":"uint256","name":"yesVotes","type":"uint256"},{"internalType":"uint256","name":"noVotes","type":"uint256"},{"internalType":"enum ImperfectFormPredictionMarketV2Fixed.Status","name":"status","type":"uint8"},{"internalType":"enum ImperfectFormPredictionMarketV2Fixed.Outcome","name":"outcome","type":"uint8"},{"internalType":"uint256","name":"createdAt","type":"uint256"},{"internalType":"bool","name":"autoResolvable","type":"bool"}],"stateMutability":"view","type":"function"},{"inputs":[{"internalType":"uint256","name":"_predictionId","type":"uint256"},{"internalType":"enum ImperfectFormPredictionMarketV2Fixed.Outcome","name":"_outcome","type":"uint8"}],"name":"resolvePrediction","outputs":[],"stateMutability":"nonpayable","type":"function"},{"inputs":[{"internalType":"address","name":"_newOwner","type":"address"}],"name":"transferOwnership","outputs":[],"stateMutability":"nonpayable","type":"function"},{"inputs":[{"internalType":"address","name":"_newCharityAddress","type":"address"}],"name":"updateCharityAddress","outputs":[],"stateMutability":"nonpayable","type":"function"},{"inputs":[{"internalType":"uint256","name":"_newCharityFeePercentage","type":"uint256"},{"internalType":"uint256","name":"_newMaintenanceFeePercentage","type":"uint256"}],"name":"updateFeePercentages","outputs":[],"stateMutability":"nonpayable","type":"function"},{"inputs":[{"internalType":"address","name":"_newMaintenanceAddress","type":"address"}],"name":"updateMaintenanceAddress","outputs":[],"stateMutability":"nonpayable","type":"function"},{"inputs":[{"internalType":"uint256","name":"_predictionId","type":"uint256"},{"internalType":"uint256","name":"_currentValue","type":"uint256"}],"name":"updatePredictionValue","outputs":[],"stateMutability":"nonpayable","type":"function"},{"inputs":[{"internalType":"uint256","name":"_predictionId","type":"uint256"},{"internalType":"bool","name":"_isYes","type":"bool"}],"name":"vote","outputs":[],"stateMutability":"payable","type":"function"},{"inputs":[{"internalType":"uint256","name":"","type":"uint256"},{"internalType":"address","name":"","type":"address"}],"name":"votes","outputs":[{"internalType":"bool","name":"isYes","type":"bool"},{"internalType":"uint256","name":"amount","type":"uint256"},{"internalType":"bool","name":"claimed","type":"bool"}],"stateMutability":"view","type":"function"}],"evm":{"bytecode":{"linkReferences":{},"object":"6080346200027657601f62002a9a38819003918201601f191683019291906001600160401b038411838510176200027b5781608092849260409687528339810103126200027657620000518162000291565b90620000606020820162000291565b8382015160609092015160008054336001600160a01b031991821617909155600160055590936001600160a01b039081169283156200021c5716918215620001be5781600154161760015560025416176002556032620000c18383620002a6565b1162000170576064620000d58383620002a6565b10156200011757600355600455513360007f8be0079c531659141344cd1fd0a4f28419497f9722a3daafe3b4186f6b6457e08180a36127af9081620002cb8239f35b825162461bcd60e51b8152602060048201526038602482015260008051602062002a7a83398151915260448201527f732063616e6e6f742062652031303025206f72206d6f726500000000000000006064820152608490fd5b825162461bcd60e51b8152602060048201526032602482015260008051602062002a7a8339815191526044820152711cc8195e18d95959081b585e081b1a5b5a5d60721b6064820152608490fd5b855162461bcd60e51b815260206004820152603160248201527f496d70657266656374466f726d3a204d61696e74656e616e636520616464726560448201527073732063616e6e6f74206265207a65726f60781b6064820152608490fd5b865162461bcd60e51b815260206004820152602d60248201527f496d70657266656374466f726d3a20436861726974792061646472657373206360448201526c616e6e6f74206265207a65726f60981b6064820152608490fd5b600080fd5b634e487b7160e01b600052604160045260246000fd5b51906001600160a01b03821682036200027657565b91908201809211620002b457565b634e487b7160e01b600052601160045260246000fdfe60a0604052600436101561001257600080fd5b60003560e01c80624fbbb014611d9457806303c7881a14611cd3578063064367bb14611cb1578063275893a914611c0057806337a5025614611b5f578063558e44d314611b435780635b7baf64146119585780635c5800611461191c5780636896e930146118fe5780636aaea6dc146117db578063719d5f83146117b257806378578bb31461167c57806381fb1fb41461163257806387c139431461161657806389296738146114495780638da5cb5b14611420578063ae169a501461137a578063ae5a17a7146112cd578063afcf2fc4146112a4578063c1e3bd3e146111cf578063c9d27afe14610e13578063d23254b414610daa578063d424e5a014610cfa578063d8d9292e14610cdc578063e8460ed914610544578063e9e3e1ae14610526578063f2fde38b146104575763fe83bece1461014f57600080fd5b3461045257602036600319011261045257600435600061020060405161017481611f7d565b828152826020820152606060408201526060808201528260808201528260a08201528260c08201528260e082015260606101008201526060610120820152826101408201528261016082015282610180820152826101a0820152826101c0820152826101e08201520152600554811080610449575b6101f2906121e8565b600052600660205260406000206040519061020c82611f7d565b8054825260018101546001600160a01b0316602083015261022f60028201611fbc565b604083015261024060038201611fbc565b606083015260048101546080830152600581015460a0830152600681015460c083015260ff60078201541660048110156104335760ff91600f9160e085015261028b60088201611fbc565b61010085015261029d60098201611fbc565b610120850152600a810154610140850152600b810154610160850152600c81015461018085015282600d8201546102d58282166120af565b8181166101a08701526102ec828260081c166120af565b60081c166101c0850152600e8101546101e085015201541615156102008201526040518091602082528051602083015260018060a01b0360208201511660408301526102006103cc61034f60408401516102206060870152610240860190612062565b6103b561036e606086015192601f1993848983030160808a0152612062565b608086015160a088015260a086015160c088015260c086015160e088015261039f60e08701516101008901906120a2565b6101008601518388830301610120890152612062565b906101208501519086830301610140870152612062565b916101408101516101608501526101608101516101808501526101808101516101a08501526101a0810151610400816120af565b6101c08501526101c0810151610415816120af565b6101e08501526101e081015182850152015115156102208301520390f35b634e487b7160e01b600052602160045260246000fd5b508015156101e9565b600080fd5b34610452576020366003190112610452576104706120cf565b6000546001600160a01b038082169261048a338514612180565b169182156104c95782907f8be0079c531659141344cd1fd0a4f28419497f9722a3daafe3b4186f6b6457e0600080a36001600160a01b03191617600055005b60405162461bcd60e51b815260206004820152602f60248201527f496d70657266656374466f726d3a204e6577206f776e65722063616e6e6f742060448201526e6265207a65726f206164647265737360881b6064820152608490fd5b34610452576000366003190112610452576020600354604051908152f35b34610452576101003660031901126104525760043567ffffffffffffffff811161045257610576903690600401612129565b60243567ffffffffffffffff811161045257610596903690600401612129565b600460843510156104525760a43567ffffffffffffffff8111610452576105c1903690600401612129565b9160c43567ffffffffffffffff8111610452576105e2903690600401612129565b9160e435151560e4350361045257815115610c8b57426044351115610c2d57600554926000198414610c17576001840160055583600052600660205260406000209184835560018301336001600160601b0360a01b825416179055835167ffffffffffffffff81116109b35761065b6002850154611f27565b601f8111610bd0575b50806020601f8211600114610b6357600091610b58575b508160011b916000199060031b1c19161760028401555b80519067ffffffffffffffff82116109b35781906106b36003860154611f27565b601f8111610b05575b50602090601f8311600114610a9357600092610a88575b50508160011b916000199060031b1c19161760038301555b6044356004830155606435600583015560ff1960078301541660ff60843516176007830155845167ffffffffffffffff81116109b35761072e6008840154611f27565b601f8111610a41575b50806020601f82116001146109d4576000916109c9575b508160011b916000199060031b1c19161760088301555b80519067ffffffffffffffff82116109b3576107846009840154611f27565b601f811161096c575b50916020959185938790601f83116001146108d25792827fc5b70e84363d6544e1390754a4cb2da48e3414541dd74c3591668481fa7a365b959361081993610870966000926108c7575b50508160011b916000199060031b1c19161760098201555b600d810160ff19815416905542600e820155600f60e43591019060ff801983541691151516179055565b8360005260098752604060002033600052875260ff6040600020541615610889575b6108506040519560a0875260a0870190612062565b906044358887015260ff6084351660408701528582036060870152612062565b9260e435151560808201528033940390a3604051908152f35b836000526008875261089f3360406000206122ae565b836000526009875260406000203360005287526040600020600160ff1982541617905561083b565b015190508b806107d7565b9060098401600052886000209160005b601f19851681106109525750836108199361087096936001937fc5b70e84363d6544e1390754a4cb2da48e3414541dd74c3591668481fa7a365b9997601f19811610610939575b505050811b0160098201556107ef565b015160001960f88460031b161c191690558b8080610929565b818301518455899750600190930192918a01918a016108e2565b600984016000526020600020601f840160051c8101602085106109ac575b601f830160051c820181106109a057505061078d565b6000815560010161098a565b508061098a565b634e487b7160e01b600052604160045260246000fd5b90508601518761074e565b91506008840160005260206000206000925b601f1983168410610a29576001935082601f19811610610a10575b5050811b016008830155610765565b88015160001960f88460031b161c191690558780610a01565b888101518255602093840193600190920191016109e6565b600884016000526020600020601f830160051c810160208410610a81575b601f830160051c82018110610a75575050610737565b60008155600101610a5f565b5080610a5f565b0151905087806106d3565b9250600385016000526020600020906000935b601f1984168510610aea576001945083601f19811610610ad1575b505050811b0160038301556106eb565b015160001960f88460031b161c19169055878080610ac1565b81810151835560209485019460019093019290910190610aa6565b909150600385016000526020600020601f840160051c810160208510610b51575b90849392915b601f830160051c82018110610b425750506106bc565b60008155859450600101610b2c565b5080610b26565b90508501518861067b565b91506002850160005260206000206000925b601f1983168410610bb8576001935082601f19811610610b9f575b5050811b016002840155610692565b87015160001960f88460031b161c191690558880610b90565b87810151825560209384019360019092019101610b75565b600285016000526020600020601f830160051c810160208410610c10575b601f830160051c82018110610c04575050610664565b60008155600101610bee565b5080610bee565b634e487b7160e01b600052601160045260246000fd5b60405162461bcd60e51b815260206004820152603060248201527f496d70657266656374466f726d3a205461726765742064617465206d7573742060448201526f626520696e207468652066757475726560801b6064820152608490fd5b60405162461bcd60e51b8152602060048201526024808201527f496d70657266656374466f726d3a205469746c652063616e6e6f7420626520656044820152636d70747960e01b6064820152608490fd5b34610452576000366003190112610452576020600554604051908152f35b3461045257602036600319011261045257600435610d2360018060a01b03600054163314612180565b600554811080610da1575b610d37906121e8565b806000526006602052610d5e60ff600d6040600020015416610d58816120af565b15612245565b806000526006602052600d604060002001600260ff198254161790557faf9d749692c27edb73692839024a98f047b114c6fd450acf3c702120928a2be2600080a2005b50801515610d2e565b3461045257604036600319011261045257610dc36120b9565b600435600052600760205260406000209060018060a01b03166000526020526060604060002060ff8154169060ff6002600183015492015416906040519215158352602083015215156040820152f35b6040366003190112610452576004356024359081151591828103610452576005548210806111c6575b610e45906121e8565b8160005260209060068252610e6860ff600d6040600020015416610d58816120af565b826000526006825260046040600020015442101561116857341561110d5782600052600682526040600020906007835260406000203360005283526040600020906001820192835490600a8101610ec03482546121db565b905582156110f757600b8101610ed73482546121db565b90555b811515806110e7575b610fb2575b5050815490151560ff1660ff19919091161781556002905b610f0b3484546121db565b83550160ff19908181541690558360005260098352604060002033600052835260ff6040600020541615610f75575b505490604051938452349084015260408301527f77a255f45c79d26605c257d8dfc37f9a619f53963ddbed1e95aa0aab1c801cee60603393a3005b8360005260088352610f8b3360406000206122ae565b83600052600983526040600020336000528352600160406000209182541617905584610f3a565b835460ff161561105957600b81018054838110610ff757600c60029695938593610fe2610f0097610fed956122ee565b9055019182546121db565b90555b9192610ee8565b60405162461bcd60e51b815260048101899052603460248201527f496d70657266656374466f726d3a20496e73756666696369656e742059455320604482015273706f6f6c20666f7220766f7465206368616e676560601b6064820152608490fd5b600c8101805483811061108657600b60029695938593610fe2610f009761107f956122ee565b9055610ff0565b60405162461bcd60e51b815260048101899052603360248201527f496d70657266656374466f726d3a20496e73756666696369656e74204e4f20706044820152726f6f6c20666f7220766f7465206368616e676560681b6064820152608490fd5b508760ff85541615151415610ee3565b600c81016111063482546121db565b9055610eda565b60405162461bcd60e51b815260048101839052602d60248201527f496d70657266656374466f726d3a204d757374207374616b6520736f6d65206160448201526c6d6f756e7420746f20766f746560981b6064820152608490fd5b60405162461bcd60e51b815260048101839052603060248201527f496d70657266656374466f726d3a2050726564696374696f6e2068617320657860448201526f706972656420666f7220766f74696e6760801b6064820152608490fd5b50811515610e3c565b34610452576020806003193601126104525760043560055481108061129b575b6111f8906121e8565b60005260088152604060002060405190818382549182815201908192600052846000209060005b8682821061127e57868661123582880383611f9a565b604051928392818401908285525180915260408401929160005b82811061125e57505050500390f35b83516001600160a01b03168552869550938101939281019260010161124f565b83546001600160a01b03168552909301926001928301920161121f565b508015156111ef565b34610452576000366003190112610452576001546040516001600160a01b039091168152602090f35b34610452576020366003190112610452576112e66120cf565b6000546001600160a01b0391906113009083163314612180565b16801561131f576001600160601b0360a01b6001541617600155600080f35b60405162461bcd60e51b815260206004820152602d60248201527f496d70657266656374466f726d3a20436861726974792061646472657373206360448201526c616e6e6f74206265207a65726f60981b6064820152608490fd5b3461045257602036600319011261045257600435600554811080611417575b6113a2906121e8565b806000526006602052600160ff600d60406000200154166113c2816120af565b036113d2576113d09061230e565b005b60405162461bcd60e51b8152602060048201526029602482015260008051602061275a833981519152604482015268081c995cdbdb1d995960ba1b6064820152608490fd5b50801515611399565b34610452576000366003190112610452576000546040516001600160a01b039091168152602090f35b3461045257602080600319360112610452576004359060055482108061160d575b611473906121e8565b816000526006815261149360ff600d6040600020015416610d58816120af565b816000526006815260406000209060ff600f83015416156115c257600482015442111561156857600260ff600784015416926004841015610433577fa04cc8b95d889d00fb177cca0ed67477aef48c963dfbc778e45e8e8b8dfcc59d93158061155b575b611529575b81600d6115149201600160ff1982541617815561228f565b61151d816120af565b60ff60405191168152a2005b80600d92600661151493015460058301541115600014611553575060019283915b925050506114fc565b92839161154a565b50600581015415156114f7565b6084906040519062461bcd60e51b82526004820152602d60248201527f496d70657266656374466f726d3a20546172676574206461746520686173206e60448201526c1bdd081c185cdcd959081e595d609a1b6064820152fd5b6084906040519062461bcd60e51b825260048201526030602482015260008051602061275a83398151915260448201526f206175746f2d7265736f6c7661626c6560801b6064820152fd5b5081151561146a565b3461045257600036600319011261045257602060405160648152f35b3461045257611640366120e5565b9060005260086020526040600020805482101561045257602091611663916120fb565b905460405160039290921b1c6001600160a01b03168152f35b346104525761168a366120e5565b61169f60018060a01b03600054163314612180565b60326116ab82846121db565b1161175a5760646116bc82846121db565b10156116fc57816040917f5c6323bf1c2d7aaea2c091a4751c1c87af7f2864650c336507a77d0557af37a1936003558060045582519182526020820152a1005b60405162461bcd60e51b815260206004820152603060248201527f496d70657266656374466f726d3a20546f74616c20666565732063616e6e6f7460448201526f2062652031303025206f72206d6f726560801b6064820152608490fd5b60405162461bcd60e51b815260206004820152602a60248201527f496d70657266656374466f726d3a20546f74616c206665657320657863656564604482015269081b585e081b1a5b5a5d60b21b6064820152608490fd5b34610452576000366003190112610452576002546040516001600160a01b039091168152602090f35b346104525760403660031901126104525760043560243560038110156104525761181060018060a01b03600054163314612180565b6005548210806118f5575b611824906121e8565b81600052600660205261184560ff600d6040600020015416610d58816120af565b61184e816120af565b801561189c5760207fa04cc8b95d889d00fb177cca0ed67477aef48c963dfbc778e45e8e8b8dfcc59d91836000526006825261151481600d604060002001600160ff1982541617815561228f565b60405162461bcd60e51b815260206004820152602b60248201527f496d70657266656374466f726d3a2043616e6e6f74207265736f6c766520746f60448201526a081553949154d3d315915160aa1b6064820152608490fd5b5081151561181b565b34610452576000366003190112610452576020600454604051908152f35b3461045257600036600319011261045257600554801561194e576000198101908111610c17576020905b604051908152f35b5060206000611946565b346104525760208060031936011261045257600435600554811080611b3a575b611981906121e8565b8060005260068252600260ff600d60406000200154166119a0816120af565b03611af457806000526007825260406000203360005282526040600020916001830154928315611a9257600201805460ff8116611a275760ff191660011790556000808080863382f115611a1b577ff3f402280ef0a7905e124aa621b65eaeb2725c343e8b36d398ed78c29daf285c906040519384523393a3005b6040513d6000823e3d90fd5b60405162461bcd60e51b815260048101849052603960248201527f496d70657266656374466f726d3a20526566756e6420616c726561647920636c60448201527f61696d6564206f72207265776172642070726f636573736564000000000000006064820152608490fd5b60405162461bcd60e51b815260048101839052603460248201527f496d70657266656374466f726d3a204e6f20766f746520666f756e6420666f72604482015273081d1a1a5cc81d5cd95c881d1bc81c99599d5b9960621b6064820152608490fd5b60405162461bcd60e51b815260048101839052602a602482015260008051602061275a8339815191526044820152690818d85b98d95b1b195960b21b6064820152608490fd5b50801515611978565b3461045257600036600319011261045257602060405160328152f35b346104525760207fa3a65c2c82e33077bfdc2c14360c64d9b5ef2aaf53c60c614b4d63922dbbd93e611b90366120e5565b611ba860018060a09694961b03600054163314612180565b600554841080611bf7575b611bbc906121e8565b8360005260068252611bdc60ff600d6040600020015416610d58816120af565b836000526006825280600660406000200155604051908152a2005b50831515611bb3565b3461045257602036600319011261045257611c196120cf565b6000546001600160a01b039190611c339083163314612180565b168015611c52576001600160601b0360a01b6002541617600255600080f35b60405162461bcd60e51b815260206004820152603160248201527f496d70657266656374466f726d3a204d61696e74656e616e636520616464726560448201527073732063616e6e6f74206265207a65726f60781b6064820152608490fd5b34610452576000366003190112610452576020611946600354600454906121db565b3461045257604036600319011261045257600435611cef6120b9565b90600060408051611cff81611f61565b8281528260208201520152600554811080611d8b575b611d1e906121e8565b600052600760205260406000209060018060a01b031660005260205260606040600020604051611d4d81611f61565b60ff825416151591828252604060ff600260018401549360208601948552015416920191151582526040519283525160208301525115156040820152f35b50801515611d15565b34610452576020366003190112610452576004356000908152600660205260409020805460018201546001600160a01b031691611dd360028201611fbc565b92611de060038301611fbc565b93600483015494600584015495600685015490600786015460ff169060088701611e0990611fbc565b91611e1660098901611fbc565b93600a8901549a600b8a015496600c8b015498600d8c01549a600e8d01549c600f015460ff169d604051806080525260805160200152610220806080516040015260805101611e6491612062565b6080518082039060600152611e7891612062565b936080516080015260805160a0015260805160c0015260805160e001611e9d916120a2565b608051808203906101000152611eb291612062565b608051808203906101200152611ec791612062565b9560805161014001526080516101600152608051610180015260ff8116611eed816120af565b6080516101a0015260081c60ff16611f04816120af565b6080516101c001526080516101e001521515608051610200015260805180910390f35b90600182811c92168015611f57575b6020831014611f4157565b634e487b7160e01b600052602260045260246000fd5b91607f1691611f36565b6060810190811067ffffffffffffffff8211176109b357604052565b610220810190811067ffffffffffffffff8211176109b357604052565b90601f8019910116810190811067ffffffffffffffff8211176109b357604052565b9060405191826000825492611fd084611f27565b90818452600194858116908160001461203f5750600114611ffc575b5050611ffa92500383611f9a565b565b9093915060005260209081600020936000915b818310612027575050611ffa93508201013880611fec565b8554888401850152948501948794509183019161200f565b915050611ffa94506020925060ff191682840152151560051b8201013880611fec565b919082519283825260005b84811061208e575050826000602080949584010152601f8019910116010190565b60208183018101518483018201520161206d565b9060048210156104335752565b6003111561043357565b602435906001600160a01b038216820361045257565b600435906001600160a01b038216820361045257565b6040906003190112610452576004359060243590565b80548210156121135760005260206000200190600090565b634e487b7160e01b600052603260045260246000fd5b81601f820112156104525780359067ffffffffffffffff82116109b3576040519261215e601f8401601f191660200185611f9a565b8284526020838301011161045257816000926020809301838601378301015290565b1561218757565b60405162461bcd60e51b815260206004820152602660248201527f496d70657266656374466f726d3a2043616c6c6572206973206e6f74207468656044820152651037bbb732b960d11b6064820152608490fd5b91908201809211610c1757565b156121ef57565b60405162461bcd60e51b815260206004820152602860248201527f496d70657266656374466f726d3a2050726564696374696f6e20646f6573206e6044820152671bdd08195e1a5cdd60c21b6064820152608490fd5b1561224c57565b60405162461bcd60e51b8152602060048201526027602482015260008051602061275a8339815191526044820152662061637469766560c81b6064820152608490fd5b90612299816120af565b61ff0082549160081b169061ff001916179055565b8054680100000000000000008110156109b3576122d0916001820181556120fb565b819291549060031b9160018060a01b03809116831b921b1916179055565b91908203918211610c1757565b81810292918115918404141715610c1757565b600090808252602060068152604080842093600783528181203382528352818120946001958681015490811561270257600281019081549160ff83166126985789600d86019360ff855460081c1693612366856120af565b828514948561268c575b851561265f575b505060ff19161790551561262e5760ff88915460081c16612397816120af565b0361262357600b820154915b821561259e57600a01546123b6916122fb565b0460646123c5600354836122fb565b0460646123d4600454846122fb565b04916123e083836121db565b9081811061254657906123f2916122ee565b9681159081156124de575b50505080158015612475575b505084158015612442575b5050907f24b5efa61dd1cfc659205a97fb8ed868f3cb8c81922bab2b96423e5de1de2cb791519384523393a3565b819086829161246b575b8280929181923390f1156124605780612414565b9051903d90823e3d90fd5b6108fc915061244c565b828080808560018060a01b039586600254169083906124d5575bf1156124cb577f4f74fd430ecc4bc832d1c0f6568d7ecf27f3e0abcf81385ef346c93b2ef7588e85879260025416938651908152a33880612409565b83513d84823e3d90fd5b506108fc61248f565b848080808660018060a01b03968787541690839061253d575bf115612533578688927fa83b61ed3e79e291a0126b12792f207ce9b4fe8d4098b8ccee67291d9ce9d92f925416938751908152a33880806123fd565b85513d86823e3d90fd5b506108fc6124f7565b855162461bcd60e51b815260048101889052602b60248201527f496d70657266656374466f726d3a2046656573206578636565642063616c637560448201526a6c6174656420736861726560a81b6064820152608490fd5b845162461bcd60e51b815260048101879052605260248201527f496d70657266656374466f726d3a204e6f2077696e6e696e67207374616b657360448201527f20706f6f6c202873686f756c64206e6f742068617070656e206966207573657260648201527120636c61696d7320636f72726563746c792960701b608482015260a490fd5b600c820154916123a3565b5050509350907f24b5efa61dd1cfc659205a97fb8ed868f3cb8c81922bab2b96423e5de1de2cb791519384523393a3565b60029192955061266e816120af565b14908161267f575b50923880612377565b60ff915054161538612676565b815460ff169550612370565b865162461bcd60e51b815260048101899052603960248201527f496d70657266656374466f726d3a2052657761726420616c726561647920636c60448201527f61696d6564206f7220726566756e642070726f636573736564000000000000006064820152608490fd5b845162461bcd60e51b815260048101879052602a60248201527f496d70657266656374466f726d3a204e6f20766f746520666f756e6420666f72604482015269103a3434b9903ab9b2b960b11b6064820152608490fdfe496d70657266656374466f726d3a2050726564696374696f6e206973206e6f74a264697066735822122048cea881e06c8f42b1be3790052a1af5f37e0dcd3ad4aab442153dbb2c9499be64736f6c63430008130033496d70657266656374466f726d3a20496e697469616c20746f74616c20666565","opcodes":"PUSH1 0x80 CALLVALUE PUSH3 0x276 JUMPI PUSH1 0x1F PUSH3 0x2A9A CODESIZE DUP2 SWAP1 SUB SWAP2 DUP3 ADD PUSH1 0x1F NOT AND DUP4 ADD SWAP3 SWAP2 SWAP1 PUSH1 0x1 PUSH1 0x1 PUSH1 0x40 SHL SUB DUP5 GT DUP4 DUP6 LT OR PUSH3 0x27B JUMPI DUP2 PUSH1 0x80 SWAP3 DUP5 SWAP3 PUSH1 0x40 SWAP7 DUP8 MSTORE DUP4 CODECOPY DUP2 ADD SUB SLT PUSH3 0x276 JUMPI PUSH3 0x51 DUP2 PUSH3 0x291 JUMP JUMPDEST SWAP1 PUSH3 0x60 PUSH1 0x20 DUP3 ADD PUSH3 0x291 JUMP JUMPDEST DUP4 DUP3 ADD MLOAD PUSH1 0x60 SWAP1 SWAP3 ADD MLOAD PUSH1 0x0 DUP1 SLOAD CALLER PUSH1 0x1 PUSH1 0x1 PUSH1 0xA0 SHL SUB NOT SWAP2 DUP3 AND OR SWAP1 SWAP2 SSTORE PUSH1 0x1 PUSH1 0x5 SSTORE SWAP1 SWAP4 PUSH1 0x1 PUSH1 0x1 PUSH1 0xA0 SHL SUB SWAP1 DUP2 AND SWAP3 DUP4 ISZERO PUSH3 0x21C JUMPI AND SWAP2 DUP3 ISZERO PUSH3 0x1BE JUMPI DUP2 PUSH1 0x1 SLOAD AND OR PUSH1 0x1 SSTORE PUSH1 0x2 SLOAD AND OR PUSH1 0x2 SSTORE PUSH1 0x32 PUSH3 0xC1 DUP4 DUP4 PUSH3 0x2A6 JUMP JUMPDEST GT PUSH3 0x170 JUMPI PUSH1 0x64 PUSH3 0xD5 DUP4 DUP4 PUSH3 0x2A6 JUMP JUMPDEST LT ISZERO PUSH3 0x117 JUMPI PUSH1 0x3 SSTORE PUSH1 0x4 SSTORE MLOAD CALLER PUSH1 0x0 PUSH32 0x8BE0079C531659141344CD1FD0A4F28419497F9722A3DAAFE3B4186F6B6457E0 DUP2 DUP1 LOG3 PUSH2 0x27AF SWAP1 DUP2 PUSH3 0x2CB DUP3 CODECOPY RETURN JUMPDEST DUP3 MLOAD PUSH3 0x461BCD PUSH1 0xE5 SHL DUP2 MSTORE PUSH1 0x20 PUSH1 0x4 DUP3 ADD MSTORE PUSH1 0x38 PUSH1 0x24 DUP3 ADD MSTORE PUSH1 0x0 DUP1 MLOAD PUSH1 0x20 PUSH3 0x2A7A DUP4 CODECOPY DUP2 MLOAD SWAP2 MSTORE PUSH1 0x44 DUP3 ADD MSTORE PUSH32 0x732063616E6E6F742062652031303025206F72206D6F72650000000000000000 PUSH1 0x64 DUP3 ADD MSTORE PUSH1 0x84 SWAP1 REVERT JUMPDEST DUP3 MLOAD PUSH3 0x461BCD PUSH1 0xE5 SHL DUP2 MSTORE PUSH1 0x20 PUSH1 0x4 DUP3 ADD MSTORE PUSH1 0x32 PUSH1 0x24 DUP3 ADD MSTORE PUSH1 0x0 DUP1 MLOAD PUSH1 0x20 PUSH3 0x2A7A DUP4 CODECOPY DUP2 MLOAD SWAP2 MSTORE PUSH1 0x44 DUP3 ADD MSTORE PUSH18 0x1CC8195E18D95959081B585E081B1A5B5A5D PUSH1 0x72 SHL PUSH1 0x64 DUP3 ADD MSTORE PUSH1 0x84 SWAP1 REVERT JUMPDEST DUP6 MLOAD PUSH3 0x461BCD PUSH1 0xE5 SHL DUP2 MSTORE PUSH1 0x20 PUSH1 0x4 DUP3 ADD MSTORE PUSH1 0x31 PUSH1 0x24 DUP3 ADD MSTORE PUSH32 0x496D70657266656374466F726D3A204D61696E74656E616E6365206164647265 PUSH1 0x44 DUP3 ADD MSTORE PUSH17 0x73732063616E6E6F74206265207A65726F PUSH1 0x78 SHL PUSH1 0x64 DUP3 ADD MSTORE PUSH1 0x84 SWAP1 REVERT JUMPDEST DUP7 MLOAD PUSH3 0x461BCD PUSH1 0xE5 SHL DUP2 MSTORE PUSH1 0x20 PUSH1 0x4 DUP3 ADD MSTORE PUSH1 0x2D PUSH1 0x24 DUP3 ADD MSTORE PUSH32 0x496D70657266656374466F726D3A204368617269747920616464726573732063 PUSH1 0x44 DUP3 ADD MSTORE PUSH13 0x616E6E6F74206265207A65726F PUSH1 0x98 SHL PUSH1 0x64 DUP3 ADD MSTORE PUSH1 0x84 SWAP1 REVERT JUMPDEST PUSH1 0x0 DUP1 REVERT JUMPDEST PUSH4 0x4E487B71 PUSH1 0xE0 SHL PUSH1 0x0 MSTORE PUSH1 0x41 PUSH1 0x4 MSTORE PUSH1 0x24 PUSH1 0x0 REVERT JUMPDEST MLOAD SWAP1 PUSH1 0x1 PUSH1 0x1 PUSH1 0xA0 SHL SUB DUP3 AND DUP3 SUB PUSH3 0x276 JUMPI JUMP JUMPDEST SWAP2 SWAP1 DUP3 ADD DUP1 SWAP3 GT PUSH3 0x2B4 JUMPI JUMP JUMPDEST PUSH4 0x4E487B71 PUSH1 0xE0 SHL PUSH1 0x0 MSTORE PUSH1 0x11 PUSH1 0x4 MSTORE PUSH1 0x24 PUSH1 0x0 REVERT INVALID PUSH1 0xA0 PUSH1 0x40 MSTORE PUSH1 0x4 CALLDATASIZE LT ISZERO PUSH2 0x12 JUMPI PUSH1 0x0 DUP1 REVERT JUMPDEST PUSH1 0x0 CALLDATALOAD PUSH1 0xE0 SHR DUP1 PUSH3 0x4FBBB0 EQ PUSH2 0x1D94 JUMPI DUP1 PUSH4 0x3C7881A EQ PUSH2 0x1CD3 JUMPI DUP1 PUSH4 0x64367BB EQ PUSH2 0x1CB1 JUMPI DUP1 PUSH4 0x275893A9 EQ PUSH2 0x1C00 JUMPI DUP1 PUSH4 0x37A50256 EQ PUSH2 0x1B5F JUMPI DUP1 PUSH4 0x558E44D3 EQ PUSH2 0x1B43 JUMPI DUP1 PUSH4 0x5B7BAF64 EQ PUSH2 0x1958 JUMPI DUP1 PUSH4 0x5C580061 EQ PUSH2 0x191C JUMPI DUP1 PUSH4 0x6896E930 EQ PUSH2 0x18FE JUMPI DUP1 PUSH4 0x6AAEA6DC EQ PUSH2 0x17DB JUMPI DUP1 PUSH4 0x719D5F83 EQ PUSH2 0x17B2 JUMPI DUP1 PUSH4 0x78578BB3 EQ PUSH2 0x167C JUMPI DUP1 PUSH4 0x81FB1FB4 EQ PUSH2 0x1632 JUMPI DUP1 PUSH4 0x87C13943 EQ PUSH2 0x1616 JUMPI DUP1 PUSH4 0x89296738 EQ PUSH2 0x1449 JUMPI DUP1 PUSH4 0x8DA5CB5B EQ PUSH2 0x1420 JUMPI DUP1 PUSH4 0xAE169A50 EQ PUSH2 0x137A JUMPI DUP1 PUSH4 0xAE5A17A7 EQ PUSH2 0x12CD JUMPI DUP1 PUSH4 0xAFCF2FC4 EQ PUSH2 0x12A4 JUMPI DUP1 PUSH4 0xC1E3BD3E EQ PUSH2 0x11CF JUMPI DUP1 PUSH4 0xC9D27AFE EQ PUSH2 0xE13 JUMPI DUP1 PUSH4 0xD23254B4 EQ PUSH2 0xDAA JUMPI DUP1 PUSH4 0xD424E5A0 EQ PUSH2 0xCFA JUMPI DUP1 PUSH4 0xD8D9292E EQ PUSH2 0xCDC JUMPI DUP1 PUSH4 0xE8460ED9 EQ PUSH2 0x544 JUMPI DUP1 PUSH4 0xE9E3E1AE EQ PUSH2 0x526 JUMPI DUP1 PUSH4 0xF2FDE38B EQ PUSH2 0x457 JUMPI PUSH4 0xFE83BECE EQ PUSH2 0x14F JUMPI PUSH1 0x0 DUP1 REVERT JUMPDEST CALLVALUE PUSH2 0x452 JUMPI PUSH1 0x20 CALLDATASIZE PUSH1 0x3 NOT ADD SLT PUSH2 0x452 JUMPI PUSH1 0x4 CALLDATALOAD PUSH1 0x0 PUSH2 0x200 PUSH1 0x40 MLOAD PUSH2 0x174 DUP2 PUSH2 0x1F7D JUMP JUMPDEST DUP3 DUP2 MSTORE DUP3 PUSH1 0x20 DUP3 ADD MSTORE PUSH1 0x60 PUSH1 0x40 DUP3 ADD MSTORE PUSH1 0x60 DUP1 DUP3 ADD MSTORE DUP3 PUSH1 0x80 DUP3 ADD MSTORE DUP3 PUSH1 0xA0 DUP3 ADD MSTORE DUP3 PUSH1 0xC0 DUP3 ADD MSTORE DUP3 PUSH1 0xE0 DUP3 ADD MSTORE PUSH1 0x60 PUSH2 0x100 DUP3 ADD MSTORE PUSH1 0x60 PUSH2 0x120 DUP3 ADD MSTORE DUP3 PUSH2 0x140 DUP3 ADD MSTORE DUP3 PUSH2 0x160 DUP3 ADD MSTORE DUP3 PUSH2 0x180 DUP3 ADD MSTORE DUP3 PUSH2 0x1A0 DUP3 ADD MSTORE DUP3 PUSH2 0x1C0 DUP3 ADD MSTORE DUP3 PUSH2 0x1E0 DUP3 ADD MSTORE ADD MSTORE PUSH1 0x5 SLOAD DUP2 LT DUP1 PUSH2 0x449 JUMPI JUMPDEST PUSH2 0x1F2 SWAP1 PUSH2 0x21E8 JUMP JUMPDEST PUSH1 0x0 MSTORE PUSH1 0x6 PUSH1 0x20 MSTORE PUSH1 0x40 PUSH1 0x0 KECCAK256 PUSH1 0x40 MLOAD SWAP1 PUSH2 0x20C DUP3 PUSH2 0x1F7D JUMP JUMPDEST DUP1 SLOAD DUP3 MSTORE PUSH1 0x1 DUP2 ADD SLOAD PUSH1 0x1 PUSH1 0x1 PUSH1 0xA0 SHL SUB AND PUSH1 0x20 DUP4 ADD MSTORE PUSH2 0x22F PUSH1 0x2 DUP3 ADD PUSH2 0x1FBC JUMP JUMPDEST PUSH1 0x40 DUP4 ADD MSTORE PUSH2 0x240 PUSH1 0x3 DUP3 ADD PUSH2 0x1FBC JUMP JUMPDEST PUSH1 0x60 DUP4 ADD MSTORE PUSH1 0x4 DUP2 ADD SLOAD PUSH1 0x80 DUP4 ADD MSTORE PUSH1 0x5 DUP2 ADD SLOAD PUSH1 0xA0 DUP4 ADD MSTORE PUSH1 0x6 DUP2 ADD SLOAD PUSH1 0xC0 DUP4 ADD MSTORE PUSH1 0xFF PUSH1 0x7 DUP3 ADD SLOAD AND PUSH1 0x4 DUP2 LT ISZERO PUSH2 0x433 JUMPI PUSH1 0xFF SWAP2 PUSH1 0xF SWAP2 PUSH1 0xE0 DUP6 ADD MSTORE PUSH2 0x28B PUSH1 0x8 DUP3 ADD PUSH2 0x1FBC JUMP JUMPDEST PUSH2 0x100 DUP6 ADD MSTORE PUSH2 0x29D PUSH1 0x9 DUP3 ADD PUSH2 0x1FBC JUMP JUMPDEST PUSH2 0x120 DUP6 ADD MSTORE PUSH1 0xA DUP2 ADD SLOAD PUSH2 0x140 DUP6 ADD MSTORE PUSH1 0xB DUP2 ADD SLOAD PUSH2 0x160 DUP6 ADD MSTORE PUSH1 0xC DUP2 ADD SLOAD PUSH2 0x180 DUP6 ADD MSTORE DUP3 PUSH1 0xD DUP3 ADD SLOAD PUSH2 0x2D5 DUP3 DUP3 AND PUSH2 0x20AF JUMP JUMPDEST DUP2 DUP2 AND PUSH2 0x1A0 DUP8 ADD MSTORE PUSH2 0x2EC DUP3 DUP3 PUSH1 0x8 SHR AND PUSH2 0x20AF JUMP JUMPDEST PUSH1 0x8 SHR AND PUSH2 0x1C0 DUP6 ADD MSTORE PUSH1 0xE DUP2 ADD SLOAD PUSH2 0x1E0 DUP6 ADD MSTORE ADD SLOAD AND ISZERO ISZERO PUSH2 0x200 DUP3 ADD MSTORE PUSH1 0x40 MLOAD DUP1 SWAP2 PUSH1 0x20 DUP3 MSTORE DUP1 MLOAD PUSH1 0x20 DUP4 ADD MSTORE PUSH1 0x1 DUP1 PUSH1 0xA0 SHL SUB PUSH1 0x20 DUP3 ADD MLOAD AND PUSH1 0x40 DUP4 ADD MSTORE PUSH2 0x200 PUSH2 0x3CC PUSH2 0x34F PUSH1 0x40 DUP5 ADD MLOAD PUSH2 0x220 PUSH1 0x60 DUP8 ADD MSTORE PUSH2 0x240 DUP7 ADD SWAP1 PUSH2 0x2062 JUMP JUMPDEST PUSH2 0x3B5 PUSH2 0x36E PUSH1 0x60 DUP7 ADD MLOAD SWAP3 PUSH1 0x1F NOT SWAP4 DUP5 DUP10 DUP4 SUB ADD PUSH1 0x80 DUP11 ADD MSTORE PUSH2 0x2062 JUMP JUMPDEST PUSH1 0x80 DUP7 ADD MLOAD PUSH1 0xA0 DUP9 ADD MSTORE PUSH1 0xA0 DUP7 ADD MLOAD PUSH1 0xC0 DUP9 ADD MSTORE PUSH1 0xC0 DUP7 ADD MLOAD PUSH1 0xE0 DUP9 ADD MSTORE PUSH2 0x39F PUSH1 0xE0 DUP8 ADD MLOAD PUSH2 0x100 DUP10 ADD SWAP1 PUSH2 0x20A2 JUMP JUMPDEST PUSH2 0x100 DUP7 ADD MLOAD DUP4 DUP9 DUP4 SUB ADD PUSH2 0x120 DUP10 ADD MSTORE PUSH2 0x2062 JUMP JUMPDEST SWAP1 PUSH2 0x120 DUP6 ADD MLOAD SWAP1 DUP7 DUP4 SUB ADD PUSH2 0x140 DUP8 ADD MSTORE PUSH2 0x2062 JUMP JUMPDEST SWAP2 PUSH2 0x140 DUP2 ADD MLOAD PUSH2 0x160 DUP6 ADD MSTORE PUSH2 0x160 DUP2 ADD MLOAD PUSH2 0x180 DUP6 ADD MSTORE PUSH2 0x180 DUP2 ADD MLOAD PUSH2 0x1A0 DUP6 ADD MSTORE PUSH2 0x1A0 DUP2 ADD MLOAD PUSH2 0x400 DUP2 PUSH2 0x20AF JUMP JUMPDEST PUSH2 0x1C0 DUP6 ADD MSTORE PUSH2 0x1C0 DUP2 ADD MLOAD PUSH2 0x415 DUP2 PUSH2 0x20AF JUMP JUMPDEST PUSH2 0x1E0 DUP6 ADD MSTORE PUSH2 0x1E0 DUP2 ADD MLOAD DUP3 DUP6 ADD MSTORE ADD MLOAD ISZERO ISZERO PUSH2 0x220 DUP4 ADD MSTORE SUB SWAP1 RETURN JUMPDEST PUSH4 0x4E487B71 PUSH1 0xE0 SHL PUSH1 0x0 MSTORE PUSH1 0x21 PUSH1 0x4 MSTORE PUSH1 0x24 PUSH1 0x0 REVERT JUMPDEST POP DUP1 ISZERO ISZERO PUSH2 0x1E9 JUMP JUMPDEST PUSH1 0x0 DUP1 REVERT JUMPDEST CALLVALUE PUSH2 0x452 JUMPI PUSH1 0x20 CALLDATASIZE PUSH1 0x3 NOT ADD SLT PUSH2 0x452 JUMPI PUSH2 0x470 PUSH2 0x20CF JUMP JUMPDEST PUSH1 0x0 SLOAD PUSH1 0x1 PUSH1 0x1 PUSH1 0xA0 SHL SUB DUP1 DUP3 AND SWAP3 PUSH2 0x48A CALLER DUP6 EQ PUSH2 0x2180 JUMP JUMPDEST AND SWAP2 DUP3 ISZERO PUSH2 0x4C9 JUMPI DUP3 SWAP1 PUSH32 0x8BE0079C531659141344CD1FD0A4F28419497F9722A3DAAFE3B4186F6B6457E0 PUSH1 0x0 DUP1 LOG3 PUSH1 0x1 PUSH1 0x1 PUSH1 0xA0 SHL SUB NOT AND OR PUSH1 0x0 SSTORE STOP JUMPDEST PUSH1 0x40 MLOAD PUSH3 0x461BCD PUSH1 0xE5 SHL DUP2 MSTORE PUSH1 0x20 PUSH1 0x4 DUP3 ADD MSTORE PUSH1 0x2F PUSH1 0x24 DUP3 ADD MSTORE PUSH32 0x496D70657266656374466F726D3A204E6577206F776E65722063616E6E6F7420 PUSH1 0x44 DUP3 ADD MSTORE PUSH15 0x6265207A65726F2061646472657373 PUSH1 0x88 SHL PUSH1 0x64 DUP3 ADD MSTORE PUSH1 0x84 SWAP1 REVERT JUMPDEST CALLVALUE PUSH2 0x452 JUMPI PUSH1 0x0 CALLDATASIZE PUSH1 0x3 NOT ADD SLT PUSH2 0x452 JUMPI PUSH1 0x20 PUSH1 0x3 SLOAD PUSH1 0x40 MLOAD SWAP1 DUP2 MSTORE RETURN JUMPDEST CALLVALUE PUSH2 0x452 JUMPI PUSH2 0x100 CALLDATASIZE PUSH1 0x3 NOT ADD SLT PUSH2 0x452 JUMPI PUSH1 0x4 CALLDATALOAD PUSH8 0xFFFFFFFFFFFFFFFF DUP2 GT PUSH2 0x452 JUMPI PUSH2 0x576 SWAP1 CALLDATASIZE SWAP1 PUSH1 0x4 ADD PUSH2 0x2129 JUMP JUMPDEST PUSH1 0x24 CALLDATALOAD PUSH8 0xFFFFFFFFFFFFFFFF DUP2 GT PUSH2 0x452 JUMPI PUSH2 0x596 SWAP1 CALLDATASIZE SWAP1 PUSH1 0x4 ADD PUSH2 0x2129 JUMP JUMPDEST PUSH1 0x4 PUSH1 0x84 CALLDATALOAD LT ISZERO PUSH2 0x452 JUMPI PUSH1 0xA4 CALLDATALOAD PUSH8 0xFFFFFFFFFFFFFFFF DUP2 GT PUSH2 0x452 JUMPI PUSH2 0x5C1 SWAP1 CALLDATASIZE SWAP1 PUSH1 0x4 ADD PUSH2 0x2129 JUMP JUMPDEST SWAP2 PUSH1 0xC4 CALLDATALOAD PUSH8 0xFFFFFFFFFFFFFFFF DUP2 GT PUSH2 0x452 JUMPI PUSH2 0x5E2 SWAP1 CALLDATASIZE SWAP1 PUSH1 0x4 ADD PUSH2 0x2129 JUMP JUMPDEST SWAP2 PUSH1 0xE4 CALLDATALOAD ISZERO ISZERO PUSH1 0xE4 CALLDATALOAD SUB PUSH2 0x452 JUMPI DUP2 MLOAD ISZERO PUSH2 0xC8B JUMPI TIMESTAMP PUSH1 0x44 CALLDATALOAD GT ISZERO PUSH2 0xC2D JUMPI PUSH1 0x5 SLOAD SWAP3 PUSH1 0x0 NOT DUP5 EQ PUSH2 0xC17 JUMPI PUSH1 0x1 DUP5 ADD PUSH1 0x5 SSTORE DUP4 PUSH1 0x0 MSTORE PUSH1 0x6 PUSH1 0x20 MSTORE PUSH1 0x40 PUSH1 0x0 KECCAK256 SWAP2 DUP5 DUP4 SSTORE PUSH1 0x1 DUP4 ADD CALLER PUSH1 0x1 PUSH1 0x1 PUSH1 0x60 SHL SUB PUSH1 0xA0 SHL DUP3 SLOAD AND OR SWAP1 SSTORE DUP4 MLOAD PUSH8 0xFFFFFFFFFFFFFFFF DUP2 GT PUSH2 0x9B3 JUMPI PUSH2 0x65B PUSH1 0x2 DUP6 ADD SLOAD PUSH2 0x1F27 JUMP JUMPDEST PUSH1 0x1F DUP2 GT PUSH2 0xBD0 JUMPI JUMPDEST POP DUP1 PUSH1 0x20 PUSH1 0x1F DUP3 GT PUSH1 0x1 EQ PUSH2 0xB63 JUMPI PUSH1 0x0 SWAP2 PUSH2 0xB58 JUMPI JUMPDEST POP DUP2 PUSH1 0x1 SHL SWAP2 PUSH1 0x0 NOT SWAP1 PUSH1 0x3 SHL SHR NOT AND OR PUSH1 0x2 DUP5 ADD SSTORE JUMPDEST DUP1 MLOAD SWAP1 PUSH8 0xFFFFFFFFFFFFFFFF DUP3 GT PUSH2 0x9B3 JUMPI DUP2 SWAP1 PUSH2 0x6B3 PUSH1 0x3 DUP7 ADD SLOAD PUSH2 0x1F27 JUMP JUMPDEST PUSH1 0x1F DUP2 GT PUSH2 0xB05 JUMPI JUMPDEST POP PUSH1 0x20 SWAP1 PUSH1 0x1F DUP4 GT PUSH1 0x1 EQ PUSH2 0xA93 JUMPI PUSH1 0x0 SWAP3 PUSH2 0xA88 JUMPI JUMPDEST POP POP DUP2 PUSH1 0x1 SHL SWAP2 PUSH1 0x0 NOT SWAP1 PUSH1 0x3 SHL SHR NOT AND OR PUSH1 0x3 DUP4 ADD SSTORE JUMPDEST PUSH1 0x44 CALLDATALOAD PUSH1 0x4 DUP4 ADD SSTORE PUSH1 0x64 CALLDATALOAD PUSH1 0x5 DUP4 ADD SSTORE PUSH1 0xFF NOT PUSH1 0x7 DUP4 ADD SLOAD AND PUSH1 0xFF PUSH1 0x84 CALLDATALOAD AND OR PUSH1 0x7 DUP4 ADD SSTORE DUP5 MLOAD PUSH8 0xFFFFFFFFFFFFFFFF DUP2 GT PUSH2 0x9B3 JUMPI PUSH2 0x72E PUSH1 0x8 DUP5 ADD SLOAD PUSH2 0x1F27 JUMP JUMPDEST PUSH1 0x1F DUP2 GT PUSH2 0xA41 JUMPI JUMPDEST POP DUP1 PUSH1 0x20 PUSH1 0x1F DUP3 GT PUSH1 0x1 EQ PUSH2 0x9D4 JUMPI PUSH1 0x0 SWAP2 PUSH2 0x9C9 JUMPI JUMPDEST POP DUP2 PUSH1 0x1 SHL SWAP2 PUSH1 0x0 NOT SWAP1 PUSH1 0x3 SHL SHR NOT AND OR PUSH1 0x8 DUP4 ADD SSTORE JUMPDEST DUP1 MLOAD SWAP1 PUSH8 0xFFFFFFFFFFFFFFFF DUP3 GT PUSH2 0x9B3 JUMPI PUSH2 0x784 PUSH1 0x9 DUP5 ADD SLOAD PUSH2 0x1F27 JUMP JUMPDEST PUSH1 0x1F DUP2 GT PUSH2 0x96C JUMPI JUMPDEST POP SWAP2 PUSH1 0x20 SWAP6 SWAP2 DUP6 SWAP4 DUP8 SWAP1 PUSH1 0x1F DUP4 GT PUSH1 0x1 EQ PUSH2 0x8D2 JUMPI SWAP3 DUP3 PUSH32 0xC5B70E84363D6544E1390754A4CB2DA48E3414541DD74C3591668481FA7A365B SWAP6 SWAP4 PUSH2 0x819 SWAP4 PUSH2 0x870 SWAP7 PUSH1 0x0 SWAP3 PUSH2 0x8C7 JUMPI JUMPDEST POP POP DUP2 PUSH1 0x1 SHL SWAP2 PUSH1 0x0 NOT SWAP1 PUSH1 0x3 SHL SHR NOT AND OR PUSH1 0x9 DUP3 ADD SSTORE JUMPDEST PUSH1 0xD DUP2 ADD PUSH1 0xFF NOT DUP2 SLOAD AND SWAP1 SSTORE TIMESTAMP PUSH1 0xE DUP3 ADD SSTORE PUSH1 0xF PUSH1 0xE4 CALLDATALOAD SWAP2 ADD SWAP1 PUSH1 0xFF DUP1 NOT DUP4 SLOAD AND SWAP2 ISZERO ISZERO AND OR SWAP1 SSTORE JUMP JUMPDEST DUP4 PUSH1 0x0 MSTORE PUSH1 0x9 DUP8 MSTORE PUSH1 0x40 PUSH1 0x0 KECCAK256 CALLER PUSH1 0x0 MSTORE DUP8 MSTORE PUSH1 0xFF PUSH1 0x40 PUSH1 0x0 KECCAK256 SLOAD AND ISZERO PUSH2 0x889 JUMPI JUMPDEST PUSH2 0x850 PUSH1 0x40 MLOAD SWAP6 PUSH1 0xA0 DUP8 MSTORE PUSH1 0xA0 DUP8 ADD SWAP1 PUSH2 0x2062 JUMP JUMPDEST SWAP1 PUSH1 0x44 CALLDATALOAD DUP9 DUP8 ADD MSTORE PUSH1 0xFF PUSH1 0x84 CALLDATALOAD AND PUSH1 0x40 DUP8 ADD MSTORE DUP6 DUP3 SUB PUSH1 0x60 DUP8 ADD MSTORE PUSH2 0x2062 JUMP JUMPDEST SWAP3 PUSH1 0xE4 CALLDATALOAD ISZERO ISZERO PUSH1 0x80 DUP3 ADD MSTORE DUP1 CALLER SWAP5 SUB SWAP1 LOG3 PUSH1 0x40 MLOAD SWAP1 DUP2 MSTORE RETURN JUMPDEST DUP4 PUSH1 0x0 MSTORE PUSH1 0x8 DUP8 MSTORE PUSH2 0x89F CALLER PUSH1 0x40 PUSH1 0x0 KECCAK256 PUSH2 0x22AE JUMP JUMPDEST DUP4 PUSH1 0x0 MSTORE PUSH1 0x9 DUP8 MSTORE PUSH1 0x40 PUSH1 0x0 KECCAK256 CALLER PUSH1 0x0 MSTORE DUP8 MSTORE PUSH1 0x40 PUSH1 0x0 KECCAK256 PUSH1 0x1 PUSH1 0xFF NOT DUP3 SLOAD AND OR SWAP1 SSTORE PUSH2 0x83B JUMP JUMPDEST ADD MLOAD SWAP1 POP DUP12 DUP1 PUSH2 0x7D7 JUMP JUMPDEST SWAP1 PUSH1 0x9 DUP5 ADD PUSH1 0x0 MSTORE DUP9 PUSH1 0x0 KECCAK256 SWAP2 PUSH1 0x0 JUMPDEST PUSH1 0x1F NOT DUP6 AND DUP2 LT PUSH2 0x952 JUMPI POP DUP4 PUSH2 0x819 SWAP4 PUSH2 0x870 SWAP7 SWAP4 PUSH1 0x1 SWAP4 PUSH32 0xC5B70E84363D6544E1390754A4CB2DA48E3414541DD74C3591668481FA7A365B SWAP10 SWAP8 PUSH1 0x1F NOT DUP2 AND LT PUSH2 0x939 JUMPI JUMPDEST POP POP POP DUP2 SHL ADD PUSH1 0x9 DUP3 ADD SSTORE PUSH2 0x7EF JUMP JUMPDEST ADD MLOAD PUSH1 0x0 NOT PUSH1 0xF8 DUP5 PUSH1 0x3 SHL AND SHR NOT AND SWAP1 SSTORE DUP12 DUP1 DUP1 PUSH2 0x929 JUMP JUMPDEST DUP2 DUP4 ADD MLOAD DUP5 SSTORE DUP10 SWAP8 POP PUSH1 0x1 SWAP1 SWAP4 ADD SWAP3 SWAP2 DUP11 ADD SWAP2 DUP11 ADD PUSH2 0x8E2 JUMP JUMPDEST PUSH1 0x9 DUP5 ADD PUSH1 0x0 MSTORE PUSH1 0x20 PUSH1 0x0 KECCAK256 PUSH1 0x1F DUP5 ADD PUSH1 0x5 SHR DUP2 ADD PUSH1 0x20 DUP6 LT PUSH2 0x9AC JUMPI JUMPDEST PUSH1 0x1F DUP4 ADD PUSH1 0x5 SHR DUP3 ADD DUP2 LT PUSH2 0x9A0 JUMPI POP POP PUSH2 0x78D JUMP JUMPDEST PUSH1 0x0 DUP2 SSTORE PUSH1 0x1 ADD PUSH2 0x98A JUMP JUMPDEST POP DUP1 PUSH2 0x98A JUMP JUMPDEST PUSH4 0x4E487B71 PUSH1 0xE0 SHL PUSH1 0x0 MSTORE PUSH1 0x41 PUSH1 0x4 MSTORE PUSH1 0x24 PUSH1 0x0 REVERT JUMPDEST SWAP1 POP DUP7 ADD MLOAD DUP8 PUSH2 0x74E JUMP JUMPDEST SWAP2 POP PUSH1 0x8 DUP5 ADD PUSH1 0x0 MSTORE PUSH1 0x20 PUSH1 0x0 KECCAK256 PUSH1 0x0 SWAP3 JUMPDEST PUSH1 0x1F NOT DUP4 AND DUP5 LT PUSH2 0xA29 JUMPI PUSH1 0x1 SWAP4 POP DUP3 PUSH1 0x1F NOT DUP2 AND LT PUSH2 0xA10 JUMPI JUMPDEST POP POP DUP2 SHL ADD PUSH1 0x8 DUP4 ADD SSTORE PUSH2 0x765 JUMP JUMPDEST DUP9 ADD MLOAD PUSH1 0x0 NOT PUSH1 0xF8 DUP5 PUSH1 0x3 SHL AND SHR NOT AND SWAP1 SSTORE DUP8 DUP1 PUSH2 0xA01 JUMP JUMPDEST DUP9 DUP2 ADD MLOAD DUP3 SSTORE PUSH1 0x20 SWAP4 DUP5 ADD SWAP4 PUSH1 0x1 SWAP1 SWAP3 ADD SWAP2 ADD PUSH2 0x9E6 JUMP JUMPDEST PUSH1 0x8 DUP5 ADD PUSH1 0x0 MSTORE PUSH1 0x20 PUSH1 0x0 KECCAK256 PUSH1 0x1F DUP4 ADD PUSH1 0x5 SHR DUP2 ADD PUSH1 0x20 DUP5 LT PUSH2 0xA81 JUMPI JUMPDEST PUSH1 0x1F DUP4 ADD PUSH1 0x5 SHR DUP3 ADD DUP2 LT PUSH2 0xA75 JUMPI POP POP PUSH2 0x737 JUMP JUMPDEST PUSH1 0x0 DUP2 SSTORE PUSH1 0x1 ADD PUSH2 0xA5F JUMP JUMPDEST POP DUP1 PUSH2 0xA5F JUMP JUMPDEST ADD MLOAD SWAP1 POP DUP8 DUP1 PUSH2 0x6D3 JUMP JUMPDEST SWAP3 POP PUSH1 0x3 DUP6 ADD PUSH1 0x0 MSTORE PUSH1 0x20 PUSH1 0x0 KECCAK256 SWAP1 PUSH1 0x0 SWAP4 JUMPDEST PUSH1 0x1F NOT DUP5 AND DUP6 LT PUSH2 0xAEA JUMPI PUSH1 0x1 SWAP5 POP DUP4 PUSH1 0x1F NOT DUP2 AND LT PUSH2 0xAD1 JUMPI JUMPDEST POP POP POP DUP2 SHL ADD PUSH1 0x3 DUP4 ADD SSTORE PUSH2 0x6EB JUMP JUMPDEST ADD MLOAD PUSH1 0x0 NOT PUSH1 0xF8 DUP5 PUSH1 0x3 SHL AND SHR NOT AND SWAP1 SSTORE DUP8 DUP1 DUP1 PUSH2 0xAC1 JUMP JUMPDEST DUP2 DUP2 ADD MLOAD DUP4 SSTORE PUSH1 0x20 SWAP5 DUP6 ADD SWAP5 PUSH1 0x1 SWAP1 SWAP4 ADD SWAP3 SWAP1 SWAP2 ADD SWAP1 PUSH2 0xAA6 JUMP JUMPDEST SWAP1 SWAP2 POP PUSH1 0x3 DUP6 ADD PUSH1 0x0 MSTORE PUSH1 0x20 PUSH1 0x0 KECCAK256 PUSH1 0x1F DUP5 ADD PUSH1 0x5 SHR DUP2 ADD PUSH1 0x20 DUP6 LT PUSH2 0xB51 JUMPI JUMPDEST SWAP1 DUP5 SWAP4 SWAP3 SWAP2 JUMPDEST PUSH1 0x1F DUP4 ADD PUSH1 0x5 SHR DUP3 ADD DUP2 LT PUSH2 0xB42 JUMPI POP POP PUSH2 0x6BC JUMP JUMPDEST PUSH1 0x0 DUP2 SSTORE DUP6 SWAP5 POP PUSH1 0x1 ADD PUSH2 0xB2C JUMP JUMPDEST POP DUP1 PUSH2 0xB26 JUMP JUMPDEST SWAP1 POP DUP6 ADD MLOAD DUP9 PUSH2 0x67B JUMP JUMPDEST SWAP2 POP PUSH1 0x2 DUP6 ADD PUSH1 0x0 MSTORE PUSH1 0x20 PUSH1 0x0 KECCAK256 PUSH1 0x0 SWAP3 JUMPDEST PUSH1 0x1F NOT DUP4 AND DUP5 LT PUSH2 0xBB8 JUMPI PUSH1 0x1 SWAP4 POP DUP3 PUSH1 0x1F NOT DUP2 AND LT PUSH2 0xB9F JUMPI JUMPDEST POP POP DUP2 SHL ADD PUSH1 0x2 DUP5 ADD SSTORE PUSH2 0x692 JUMP JUMPDEST DUP8 ADD MLOAD PUSH1 0x0 NOT PUSH1 0xF8 DUP5 PUSH1 0x3 SHL AND SHR NOT AND SWAP1 SSTORE DUP9 DUP1 PUSH2 0xB90 JUMP JUMPDEST DUP8 DUP2 ADD MLOAD DUP3 SSTORE PUSH1 0x20 SWAP4 DUP5 ADD SWAP4 PUSH1 0x1 SWAP1 SWAP3 ADD SWAP2 ADD PUSH2 0xB75 JUMP JUMPDEST PUSH1 0x2 DUP6 ADD PUSH1 0x0 MSTORE PUSH1 0x20 PUSH1 0x0 KECCAK256 PUSH1 0x1F DUP4 ADD PUSH1 0x5 SHR DUP2 ADD PUSH1 0x20 DUP5 LT PUSH2 0xC10 JUMPI JUMPDEST PUSH1 0x1F DUP4 ADD PUSH1 0x5 SHR DUP3 ADD DUP2 LT PUSH2 0xC04 JUMPI POP POP PUSH2 0x664 JUMP JUMPDEST PUSH1 0x0 DUP2 SSTORE PUSH1 0x1 ADD PUSH2 0xBEE JUMP JUMPDEST POP DUP1 PUSH2 0xBEE JUMP JUMPDEST PUSH4 0x4E487B71 PUSH1 0xE0 SHL PUSH1 0x0 MSTORE PUSH1 0x11 PUSH1 0x4 MSTORE PUSH1 0x24 PUSH1 0x0 REVERT JUMPDEST PUSH1 0x40 MLOAD PUSH3 0x461BCD PUSH1 0xE5 SHL DUP2 MSTORE PUSH1 0x20 PUSH1 0x4 DUP3 ADD MSTORE PUSH1 0x30 PUSH1 0x24 DUP3 ADD MSTORE PUSH32 0x496D70657266656374466F726D3A205461726765742064617465206D75737420 PUSH1 0x44 DUP3 ADD MSTORE PUSH16 0x626520696E2074686520667574757265 PUSH1 0x80 SHL PUSH1 0x64 DUP3 ADD MSTORE PUSH1 0x84 SWAP1 REVERT JUMPDEST PUSH1 0x40 MLOAD PUSH3 0x461BCD PUSH1 0xE5 SHL DUP2 MSTORE PUSH1 0x20 PUSH1 0x4 DUP3 ADD MSTORE PUSH1 0x24 DUP1 DUP3 ADD MSTORE PUSH32 0x496D70657266656374466F726D3A205469746C652063616E6E6F742062652065 PUSH1 0x44 DUP3 ADD MSTORE PUSH4 0x6D707479 PUSH1 0xE0 SHL PUSH1 0x64 DUP3 ADD MSTORE PUSH1 0x84 SWAP1 REVERT JUMPDEST CALLVALUE PUSH2 0x452 JUMPI PUSH1 0x0 CALLDATASIZE PUSH1 0x3 NOT ADD SLT PUSH2 0x452 JUMPI PUSH1 0x20 PUSH1 0x5 SLOAD PUSH1 0x40 MLOAD SWAP1 DUP2 MSTORE RETURN JUMPDEST CALLVALUE PUSH2 0x452 JUMPI PUSH1 0x20 CALLDATASIZE PUSH1 0x3 NOT ADD SLT PUSH2 0x452 JUMPI PUSH1 0x4 CALLDATALOAD PUSH2 0xD23 PUSH1 0x1 DUP1 PUSH1 0xA0 SHL SUB PUSH1 0x0 SLOAD AND CALLER EQ PUSH2 0x2180 JUMP JUMPDEST PUSH1 0x5 SLOAD DUP2 LT DUP1 PUSH2 0xDA1 JUMPI JUMPDEST PUSH2 0xD37 SWAP1 PUSH2 0x21E8 JUMP JUMPDEST DUP1 PUSH1 0x0 MSTORE PUSH1 0x6 PUSH1 0x20 MSTORE PUSH2 0xD5E PUSH1 0xFF PUSH1 0xD PUSH1 0x40 PUSH1 0x0 KECCAK256 ADD SLOAD AND PUSH2 0xD58 DUP2 PUSH2 0x20AF JUMP JUMPDEST ISZERO PUSH2 0x2245 JUMP JUMPDEST DUP1 PUSH1 0x0 MSTORE PUSH1 0x6 PUSH1 0x20 MSTORE PUSH1 0xD PUSH1 0x40 PUSH1 0x0 KECCAK256 ADD PUSH1 0x2 PUSH1 0xFF NOT DUP3 SLOAD AND OR SWAP1 SSTORE PUSH32 0xAF9D749692C27EDB73692839024A98F047B114C6FD450ACF3C702120928A2BE2 PUSH1 0x0 DUP1 LOG2 STOP JUMPDEST POP DUP1 ISZERO ISZERO PUSH2 0xD2E JUMP JUMPDEST CALLVALUE PUSH2 0x452 JUMPI PUSH1 0x40 CALLDATASIZE PUSH1 0x3 NOT ADD SLT PUSH2 0x452 JUMPI PUSH2 0xDC3 PUSH2 0x20B9 JUMP JUMPDEST PUSH1 0x4 CALLDATALOAD PUSH1 0x0 MSTORE PUSH1 0x7 PUSH1 0x20 MSTORE PUSH1 0x40 PUSH1 0x0 KECCAK256 SWAP1 PUSH1 0x1 DUP1 PUSH1 0xA0 SHL SUB AND PUSH1 0x0 MSTORE PUSH1 0x20 MSTORE PUSH1 0x60 PUSH1 0x40 PUSH1 0x0 KECCAK256 PUSH1 0xFF DUP2 SLOAD AND SWAP1 PUSH1 0xFF PUSH1 0x2 PUSH1 0x1 DUP4 ADD SLOAD SWAP3 ADD SLOAD AND SWAP1 PUSH1 0x40 MLOAD SWAP3 ISZERO ISZERO DUP4 MSTORE PUSH1 0x20 DUP4 ADD MSTORE ISZERO ISZERO PUSH1 0x40 DUP3 ADD MSTORE RETURN JUMPDEST PUSH1 0x40 CALLDATASIZE PUSH1 0x3 NOT ADD SLT PUSH2 0x452 JUMPI PUSH1 0x4 CALLDATALOAD PUSH1 0x24 CALLDATALOAD SWAP1 DUP2 ISZERO ISZERO SWAP2 DUP3 DUP2 SUB PUSH2 0x452 JUMPI PUSH1 0x5 SLOAD DUP3 LT DUP1 PUSH2 0x11C6 JUMPI JUMPDEST PUSH2 0xE45 SWAP1 PUSH2 0x21E8 JUMP JUMPDEST DUP2 PUSH1 0x0 MSTORE PUSH1 0x20 SWAP1 PUSH1 0x6 DUP3 MSTORE PUSH2 0xE68 PUSH1 0xFF PUSH1 0xD PUSH1 0x40 PUSH1 0x0 KECCAK256 ADD SLOAD AND PUSH2 0xD58 DUP2 PUSH2 0x20AF JUMP JUMPDEST DUP3 PUSH1 0x0 MSTORE PUSH1 0x6 DUP3 MSTORE PUSH1 0x4 PUSH1 0x40 PUSH1 0x0 KECCAK256 ADD SLOAD TIMESTAMP LT ISZERO PUSH2 0x1168 JUMPI CALLVALUE ISZERO PUSH2 0x110D JUMPI DUP3 PUSH1 0x0 MSTORE PUSH1 0x6 DUP3 MSTORE PUSH1 0x40 PUSH1 0x0 KECCAK256 SWAP1 PUSH1 0x7 DUP4 MSTORE PUSH1 0x40 PUSH1 0x0 KECCAK256 CALLER PUSH1 0x0 MSTORE DUP4 MSTORE PUSH1 0x40 PUSH1 0x0 KECCAK256 SWAP1 PUSH1 0x1 DUP3 ADD SWAP3 DUP4 SLOAD SWAP1 PUSH1 0xA DUP2 ADD PUSH2 0xEC0 CALLVALUE DUP3 SLOAD PUSH2 0x21DB JUMP JUMPDEST SWAP1 SSTORE DUP3 ISZERO PUSH2 0x10F7 JUMPI PUSH1 0xB DUP2 ADD PUSH2 0xED7 CALLVALUE DUP3 SLOAD PUSH2 0x21DB JUMP JUMPDEST SWAP1 SSTORE JUMPDEST DUP2 ISZERO ISZERO DUP1 PUSH2 0x10E7 JUMPI JUMPDEST PUSH2 0xFB2 JUMPI JUMPDEST POP POP DUP2 SLOAD SWAP1 ISZERO ISZERO PUSH1 0xFF AND PUSH1 0xFF NOT SWAP2 SWAP1 SWAP2 AND OR DUP2 SSTORE PUSH1 0x2 SWAP1 JUMPDEST PUSH2 0xF0B CALLVALUE DUP5 SLOAD PUSH2 0x21DB JUMP JUMPDEST DUP4 SSTORE ADD PUSH1 0xFF NOT SWAP1 DUP2 DUP2 SLOAD AND SWAP1 SSTORE DUP4 PUSH1 0x0 MSTORE PUSH1 0x9 DUP4 MSTORE PUSH1 0x40 PUSH1 0x0 KECCAK256 CALLER PUSH1 0x0 MSTORE DUP4 MSTORE PUSH1 0xFF PUSH1 0x40 PUSH1 0x0 KECCAK256 SLOAD AND ISZERO PUSH2 0xF75 JUMPI JUMPDEST POP SLOAD SWAP1 PUSH1 0x40 MLOAD SWAP4 DUP5 MSTORE CALLVALUE SWAP1 DUP5 ADD MSTORE PUSH1 0x40 DUP4 ADD MSTORE PUSH32 0x77A255F45C79D26605C257D8DFC37F9A619F53963DDBED1E95AA0AAB1C801CEE PUSH1 0x60 CALLER SWAP4 LOG3 STOP JUMPDEST DUP4 PUSH1 0x0 MSTORE PUSH1 0x8 DUP4 MSTORE PUSH2 0xF8B CALLER PUSH1 0x40 PUSH1 0x0 KECCAK256 PUSH2 0x22AE JUMP JUMPDEST DUP4 PUSH1 0x0 MSTORE PUSH1 0x9 DUP4 MSTORE PUSH1 0x40 PUSH1 0x0 KECCAK256 CALLER PUSH1 0x0 MSTORE DUP4 MSTORE PUSH1 0x1 PUSH1 0x40 PUSH1 0x0 KECCAK256 SWAP2 DUP3 SLOAD AND OR SWAP1 SSTORE DUP5 PUSH2 0xF3A JUMP JUMPDEST DUP4 SLOAD PUSH1 0xFF AND ISZERO PUSH2 0x1059 JUMPI PUSH1 0xB DUP2 ADD DUP1 SLOAD DUP4 DUP2 LT PUSH2 0xFF7 JUMPI PUSH1 0xC PUSH1 0x2 SWAP7 SWAP6 SWAP4 DUP6 SWAP4 PUSH2 0xFE2 PUSH2 0xF00 SWAP8 PUSH2 0xFED SWAP6 PUSH2 0x22EE JUMP JUMPDEST SWAP1 SSTORE ADD SWAP2 DUP3 SLOAD PUSH2 0x21DB JUMP JUMPDEST SWAP1 SSTORE JUMPDEST SWAP2 SWAP3 PUSH2 0xEE8 JUMP JUMPDEST PUSH1 0x40 MLOAD PUSH3 0x461BCD PUSH1 0xE5 SHL DUP2 MSTORE PUSH1 0x4 DUP2 ADD DUP10 SWAP1 MSTORE PUSH1 0x34 PUSH1 0x24 DUP3 ADD MSTORE PUSH32 0x496D70657266656374466F726D3A20496E73756666696369656E742059455320 PUSH1 0x44 DUP3 ADD MSTORE PUSH20 0x706F6F6C20666F7220766F7465206368616E6765 PUSH1 0x60 SHL PUSH1 0x64 DUP3 ADD MSTORE PUSH1 0x84 SWAP1 REVERT JUMPDEST PUSH1 0xC DUP2 ADD DUP1 SLOAD DUP4 DUP2 LT PUSH2 0x1086 JUMPI PUSH1 0xB PUSH1 0x2 SWAP7 SWAP6 SWAP4 DUP6 SWAP4 PUSH2 0xFE2 PUSH2 0xF00 SWAP8 PUSH2 0x107F SWAP6 PUSH2 0x22EE JUMP JUMPDEST SWAP1 SSTORE PUSH2 0xFF0 JUMP JUMPDEST PUSH1 0x40 MLOAD PUSH3 0x461BCD PUSH1 0xE5 SHL DUP2 MSTORE PUSH1 0x4 DUP2 ADD DUP10 SWAP1 MSTORE PUSH1 0x33 PUSH1 0x24 DUP3 ADD MSTORE PUSH32 0x496D70657266656374466F726D3A20496E73756666696369656E74204E4F2070 PUSH1 0x44 DUP3 ADD MSTORE PUSH19 0x6F6F6C20666F7220766F7465206368616E6765 PUSH1 0x68 SHL PUSH1 0x64 DUP3 ADD MSTORE PUSH1 0x84 SWAP1 REVERT JUMPDEST POP DUP8 PUSH1 0xFF DUP6 SLOAD AND ISZERO ISZERO EQ ISZERO PUSH2 0xEE3 JUMP JUMPDEST PUSH1 0xC DUP2 ADD PUSH2 0x1106 CALLVALUE DUP3 SLOAD PUSH2 0x21DB JUMP JUMPDEST SWAP1 SSTORE PUSH2 0xEDA JUMP JUMPDEST PUSH1 0x40 MLOAD PUSH3 0x461BCD PUSH1 0xE5 SHL DUP2 MSTORE PUSH1 0x4 DUP2 ADD DUP4 SWAP1 MSTORE PUSH1 0x2D PUSH1 0x24 DUP3 ADD MSTORE PUSH32 0x496D70657266656374466F726D3A204D757374207374616B6520736F6D652061 PUSH1 0x44 DUP3 ADD MSTORE PUSH13 0x6D6F756E7420746F20766F7465 PUSH1 0x98 SHL PUSH1 0x64 DUP3 ADD MSTORE PUSH1 0x84 SWAP1 REVERT JUMPDEST PUSH1 0x40 MLOAD PUSH3 0x461BCD PUSH1 0xE5 SHL DUP2 MSTORE PUSH1 0x4 DUP2 ADD DUP4 SWAP1 MSTORE PUSH1 0x30 PUSH1 0x24 DUP3 ADD MSTORE PUSH32 0x496D70657266656374466F726D3A2050726564696374696F6E20686173206578 PUSH1 0x44 DUP3 ADD MSTORE PUSH16 0x706972656420666F7220766F74696E67 PUSH1 0x80 SHL PUSH1 0x64 DUP3 ADD MSTORE PUSH1 0x84 SWAP1 REVERT JUMPDEST POP DUP2 ISZERO ISZERO PUSH2 0xE3C JUMP JUMPDEST CALLVALUE PUSH2 0x452 JUMPI PUSH1 0x20 DUP1 PUSH1 0x3 NOT CALLDATASIZE ADD SLT PUSH2 0x452 JUMPI PUSH1 0x4 CALLDATALOAD PUSH1 0x5 SLOAD DUP2 LT DUP1 PUSH2 0x129B JUMPI JUMPDEST PUSH2 0x11F8 SWAP1 PUSH2 0x21E8 JUMP JUMPDEST PUSH1 0x0 MSTORE PUSH1 0x8 DUP2 MSTORE PUSH1 0x40 PUSH1 0x0 KECCAK256 PUSH1 0x40 MLOAD SWAP1 DUP2 DUP4 DUP3 SLOAD SWAP2 DUP3 DUP2 MSTORE ADD SWAP1 DUP2 SWAP3 PUSH1 0x0 MSTORE DUP5 PUSH1 0x0 KECCAK256 SWAP1 PUSH1 0x0 JUMPDEST DUP7 DUP3 DUP3 LT PUSH2 0x127E JUMPI DUP7 DUP7 PUSH2 0x1235 DUP3 DUP9 SUB DUP4 PUSH2 0x1F9A JUMP JUMPDEST PUSH1 0x40 MLOAD SWAP3 DUP4 SWAP3 DUP2 DUP5 ADD SWAP1 DUP3 DUP6 MSTORE MLOAD DUP1 SWAP2 MSTORE PUSH1 0x40 DUP5 ADD SWAP3 SWAP2 PUSH1 0x0 JUMPDEST DUP3 DUP2 LT PUSH2 0x125E JUMPI POP POP POP POP SUB SWAP1 RETURN JUMPDEST DUP4 MLOAD PUSH1 0x1 PUSH1 0x1 PUSH1 0xA0 SHL SUB AND DUP6 MSTORE DUP7 SWAP6 POP SWAP4 DUP2 ADD SWAP4 SWAP3 DUP2 ADD SWAP3 PUSH1 0x1 ADD PUSH2 0x124F JUMP JUMPDEST DUP4 SLOAD PUSH1 0x1 PUSH1 0x1 PUSH1 0xA0 SHL SUB AND DUP6 MSTORE SWAP1 SWAP4 ADD SWAP3 PUSH1 0x1 SWAP3 DUP4 ADD SWAP3 ADD PUSH2 0x121F JUMP JUMPDEST POP DUP1 ISZERO ISZERO PUSH2 0x11EF JUMP JUMPDEST CALLVALUE PUSH2 0x452 JUMPI PUSH1 0x0 CALLDATASIZE PUSH1 0x3 NOT ADD SLT PUSH2 0x452 JUMPI PUSH1 0x1 SLOAD PUSH1 0x40 MLOAD PUSH1 0x1 PUSH1 0x1 PUSH1 0xA0 SHL SUB SWAP1 SWAP2 AND DUP2 MSTORE PUSH1 0x20 SWAP1 RETURN JUMPDEST CALLVALUE PUSH2 0x452 JUMPI PUSH1 0x20 CALLDATASIZE PUSH1 0x3 NOT ADD SLT PUSH2 0x452 JUMPI PUSH2 0x12E6 PUSH2 0x20CF JUMP JUMPDEST PUSH1 0x0 SLOAD PUSH1 0x1 PUSH1 0x1 PUSH1 0xA0 SHL SUB SWAP2 SWAP1 PUSH2 0x1300 SWAP1 DUP4 AND CALLER EQ PUSH2 0x2180 JUMP JUMPDEST AND DUP1 ISZERO PUSH2 0x131F JUMPI PUSH1 0x1 PUSH1 0x1 PUSH1 0x60 SHL SUB PUSH1 0xA0 SHL PUSH1 0x1 SLOAD AND OR PUSH1 0x1 SSTORE PUSH1 0x0 DUP1 RETURN JUMPDEST PUSH1 0x40 MLOAD PUSH3 0x461BCD PUSH1 0xE5 SHL DUP2 MSTORE PUSH1 0x20 PUSH1 0x4 DUP3 ADD MSTORE PUSH1 0x2D PUSH1 0x24 DUP3 ADD MSTORE PUSH32 0x496D70657266656374466F726D3A204368617269747920616464726573732063 PUSH1 0x44 DUP3 ADD MSTORE PUSH13 0x616E6E6F74206265207A65726F PUSH1 0x98 SHL PUSH1 0x64 DUP3 ADD MSTORE PUSH1 0x84 SWAP1 REVERT JUMPDEST CALLVALUE PUSH2 0x452 JUMPI PUSH1 0x20 CALLDATASIZE PUSH1 0x3 NOT ADD SLT PUSH2 0x452 JUMPI PUSH1 0x4 CALLDATALOAD PUSH1 0x5 SLOAD DUP2 LT DUP1 PUSH2 0x1417 JUMPI JUMPDEST PUSH2 0x13A2 SWAP1 PUSH2 0x21E8 JUMP JUMPDEST DUP1 PUSH1 0x0 MSTORE PUSH1 0x6 PUSH1 0x20 MSTORE PUSH1 0x1 PUSH1 0xFF PUSH1 0xD PUSH1 0x40 PUSH1 0x0 KECCAK256 ADD SLOAD AND PUSH2 0x13C2 DUP2 PUSH2 0x20AF JUMP JUMPDEST SUB PUSH2 0x13D2 JUMPI PUSH2 0x13D0 SWAP1 PUSH2 0x230E JUMP JUMPDEST STOP JUMPDEST PUSH1 0x40 MLOAD PUSH3 0x461BCD PUSH1 0xE5 SHL DUP2 MSTORE PUSH1 0x20 PUSH1 0x4 DUP3 ADD MSTORE PUSH1 0x29 PUSH1 0x24 DUP3 ADD MSTORE PUSH1 0x0 DUP1 MLOAD PUSH1 0x20 PUSH2 0x275A DUP4 CODECOPY DUP2 MLOAD SWAP2 MSTORE PUSH1 0x44 DUP3 ADD MSTORE PUSH9 0x81C995CDBDB1D9959 PUSH1 0xBA SHL PUSH1 0x64 DUP3 ADD MSTORE PUSH1 0x84 SWAP1 REVERT JUMPDEST POP DUP1 ISZERO ISZERO PUSH2 0x1399 JUMP JUMPDEST CALLVALUE PUSH2 0x452 JUMPI PUSH1 0x0 CALLDATASIZE PUSH1 0x3 NOT ADD SLT PUSH2 0x452 JUMPI PUSH1 0x0 SLOAD PUSH1 0x40 MLOAD PUSH1 0x1 PUSH1 0x1 PUSH1 0xA0 SHL SUB SWAP1 SWAP2 AND DUP2 MSTORE PUSH1 0x20 SWAP1 RETURN JUMPDEST CALLVALUE PUSH2 0x452 JUMPI PUSH1 0x20 DUP1 PUSH1 0x3 NOT CALLDATASIZE ADD SLT PUSH2 0x452 JUMPI PUSH1 0x4 CALLDATALOAD SWAP1 PUSH1 0x5 SLOAD DUP3 LT DUP1 PUSH2 0x160D JUMPI JUMPDEST PUSH2 0x1473 SWAP1 PUSH2 0x21E8 JUMP JUMPDEST DUP2 PUSH1 0x0 MSTORE PUSH1 0x6 DUP2 MSTORE PUSH2 0x1493 PUSH1 0xFF PUSH1 0xD PUSH1 0x40 PUSH1 0x0 KECCAK256 ADD SLOAD AND PUSH2 0xD58 DUP2 PUSH2 0x20AF JUMP JUMPDEST DUP2 PUSH1 0x0 MSTORE PUSH1 0x6 DUP2 MSTORE PUSH1 0x40 PUSH1 0x0 KECCAK256 SWAP1 PUSH1 0xFF PUSH1 0xF DUP4 ADD SLOAD AND ISZERO PUSH2 0x15C2 JUMPI PUSH1 0x4 DUP3 ADD SLOAD TIMESTAMP GT ISZERO PUSH2 0x1568 JUMPI PUSH1 0x2 PUSH1 0xFF PUSH1 0x7 DUP5 ADD SLOAD AND SWAP3 PUSH1 0x4 DUP5 LT ISZERO PUSH2 0x433 JUMPI PUSH32 0xA04CC8B95D889D00FB177CCA0ED67477AEF48C963DFBC778E45E8E8B8DFCC59D SWAP4 ISZERO DUP1 PUSH2 0x155B JUMPI JUMPDEST PUSH2 0x1529 JUMPI JUMPDEST DUP2 PUSH1 0xD PUSH2 0x1514 SWAP3 ADD PUSH1 0x1 PUSH1 0xFF NOT DUP3 SLOAD AND OR DUP2 SSTORE PUSH2 0x228F JUMP JUMPDEST PUSH2 0x151D DUP2 PUSH2 0x20AF JUMP JUMPDEST PUSH1 0xFF PUSH1 0x40 MLOAD SWAP2 AND DUP2 MSTORE LOG2 STOP JUMPDEST DUP1 PUSH1 0xD SWAP3 PUSH1 0x6 PUSH2 0x1514 SWAP4 ADD SLOAD PUSH1 0x5 DUP4 ADD SLOAD GT ISZERO PUSH1 0x0 EQ PUSH2 0x1553 JUMPI POP PUSH1 0x1 SWAP3 DUP4 SWAP2 JUMPDEST SWAP3 POP POP POP PUSH2 0x14FC JUMP JUMPDEST SWAP3 DUP4 SWAP2 PUSH2 0x154A JUMP JUMPDEST POP PUSH1 0x5 DUP2 ADD SLOAD ISZERO ISZERO PUSH2 0x14F7 JUMP JUMPDEST PUSH1 0x84 SWAP1 PUSH1 0x40 MLOAD SWAP1 PUSH3 0x461BCD PUSH1 0xE5 SHL DUP3 MSTORE PUSH1 0x4 DUP3 ADD MSTORE PUSH1 0x2D PUSH1 0x24 DUP3 ADD MSTORE PUSH32 0x496D70657266656374466F726D3A20546172676574206461746520686173206E PUSH1 0x44 DUP3 ADD MSTORE PUSH13 0x1BDD081C185CDCD959081E595D PUSH1 0x9A SHL PUSH1 0x64 DUP3 ADD MSTORE REVERT JUMPDEST PUSH1 0x84 SWAP1 PUSH1 0x40 MLOAD SWAP1 PUSH3 0x461BCD PUSH1 0xE5 SHL DUP3 MSTORE PUSH1 0x4 DUP3 ADD MSTORE PUSH1 0x30 PUSH1 0x24 DUP3 ADD MSTORE PUSH1 0x0 DUP1 MLOAD PUSH1 0x20 PUSH2 0x275A DUP4 CODECOPY DUP2 MLOAD SWAP2 MSTORE PUSH1 0x44 DUP3 ADD MSTORE PUSH16 0x206175746F2D7265736F6C7661626C65 PUSH1 0x80 SHL PUSH1 0x64 DUP3 ADD MSTORE REVERT JUMPDEST POP DUP2 ISZERO ISZERO PUSH2 0x146A JUMP JUMPDEST CALLVALUE PUSH2 0x452 JUMPI PUSH1 0x0 CALLDATASIZE PUSH1 0x3 NOT ADD SLT PUSH2 0x452 JUMPI PUSH1 0x20 PUSH1 0x40 MLOAD PUSH1 0x64 DUP2 MSTORE RETURN JUMPDEST CALLVALUE PUSH2 0x452 JUMPI PUSH2 0x1640 CALLDATASIZE PUSH2 0x20E5 JUMP JUMPDEST SWAP1 PUSH1 0x0 MSTORE PUSH1 0x8 PUSH1 0x20 MSTORE PUSH1 0x40 PUSH1 0x0 KECCAK256 DUP1 SLOAD DUP3 LT ISZERO PUSH2 0x452 JUMPI PUSH1 0x20 SWAP2 PUSH2 0x1663 SWAP2 PUSH2 0x20FB JUMP JUMPDEST SWAP1 SLOAD PUSH1 0x40 MLOAD PUSH1 0x3 SWAP3 SWAP1 SWAP3 SHL SHR PUSH1 0x1 PUSH1 0x1 PUSH1 0xA0 SHL SUB AND DUP2 MSTORE RETURN JUMPDEST CALLVALUE PUSH2 0x452 JUMPI PUSH2 0x168A CALLDATASIZE PUSH2 0x20E5 JUMP JUMPDEST PUSH2 0x169F PUSH1 0x1 DUP1 PUSH1 0xA0 SHL SUB PUSH1 0x0 SLOAD AND CALLER EQ PUSH2 0x2180 JUMP JUMPDEST PUSH1 0x32 PUSH2 0x16AB DUP3 DUP5 PUSH2 0x21DB JUMP JUMPDEST GT PUSH2 0x175A JUMPI PUSH1 0x64 PUSH2 0x16BC DUP3 DUP5 PUSH2 0x21DB JUMP JUMPDEST LT ISZERO PUSH2 0x16FC JUMPI DUP2 PUSH1 0x40 SWAP2 PUSH32 0x5C6323BF1C2D7AAEA2C091A4751C1C87AF7F2864650C336507A77D0557AF37A1 SWAP4 PUSH1 0x3 SSTORE DUP1 PUSH1 0x4 SSTORE DUP3 MLOAD SWAP2 DUP3 MSTORE PUSH1 0x20 DUP3 ADD MSTORE LOG1 STOP JUMPDEST PUSH1 0x40 MLOAD PUSH3 0x461BCD PUSH1 0xE5 SHL DUP2 MSTORE PUSH1 0x20 PUSH1 0x4 DUP3 ADD MSTORE PUSH1 0x30 PUSH1 0x24 DUP3 ADD MSTORE PUSH32 0x496D70657266656374466F726D3A20546F74616C20666565732063616E6E6F74 PUSH1 0x44 DUP3 ADD MSTORE PUSH16 0x2062652031303025206F72206D6F7265 PUSH1 0x80 SHL PUSH1 0x64 DUP3 ADD MSTORE PUSH1 0x84 SWAP1 REVERT JUMPDEST PUSH1 0x40 MLOAD PUSH3 0x461BCD PUSH1 0xE5 SHL DUP2 MSTORE PUSH1 0x20 PUSH1 0x4 DUP3 ADD MSTORE PUSH1 0x2A PUSH1 0x24 DUP3 ADD MSTORE PUSH32 0x496D70657266656374466F726D3A20546F74616C206665657320657863656564 PUSH1 0x44 DUP3 ADD MSTORE PUSH10 0x81B585E081B1A5B5A5D PUSH1 0xB2 SHL PUSH1 0x64 DUP3 ADD MSTORE PUSH1 0x84 SWAP1 REVERT JUMPDEST CALLVALUE PUSH2 0x452 JUMPI PUSH1 0x0 CALLDATASIZE PUSH1 0x3 NOT ADD SLT PUSH2 0x452 JUMPI PUSH1 0x2 SLOAD PUSH1 0x40 MLOAD PUSH1 0x1 PUSH1 0x1 PUSH1 0xA0 SHL SUB SWAP1 SWAP2 AND DUP2 MSTORE PUSH1 0x20 SWAP1 RETURN JUMPDEST CALLVALUE PUSH2 0x452 JUMPI PUSH1 0x40 CALLDATASIZE PUSH1 0x3 NOT ADD SLT PUSH2 0x452 JUMPI PUSH1 0x4 CALLDATALOAD PUSH1 0x24 CALLDATALOAD PUSH1 0x3 DUP2 LT ISZERO PUSH2 0x452 JUMPI PUSH2 0x1810 PUSH1 0x1 DUP1 PUSH1 0xA0 SHL SUB PUSH1 0x0 SLOAD AND CALLER EQ PUSH2 0x2180 JUMP JUMPDEST PUSH1 0x5 SLOAD DUP3 LT DUP1 PUSH2 0x18F5 JUMPI JUMPDEST PUSH2 0x1824 SWAP1 PUSH2 0x21E8 JUMP JUMPDEST DUP2 PUSH1 0x0 MSTORE PUSH1 0x6 PUSH1 0x20 MSTORE PUSH2 0x1845 PUSH1 0xFF PUSH1 0xD PUSH1 0x40 PUSH1 0x0 KECCAK256 ADD SLOAD AND PUSH2 0xD58 DUP2 PUSH2 0x20AF JUMP JUMPDEST PUSH2 0x184E DUP2 PUSH2 0x20AF JUMP JUMPDEST DUP1 ISZERO PUSH2 0x189C JUMPI PUSH1 0x20 PUSH32 0xA04CC8B95D889D00FB177CCA0ED67477AEF48C963DFBC778E45E8E8B8DFCC59D SWAP2 DUP4 PUSH1 0x0 MSTORE PUSH1 0x6 DUP3 MSTORE PUSH2 0x1514 DUP2 PUSH1 0xD PUSH1 0x40 PUSH1 0x0 KECCAK256 ADD PUSH1 0x1 PUSH1 0xFF NOT DUP3 SLOAD AND OR DUP2 SSTORE PUSH2 0x228F JUMP JUMPDEST PUSH1 0x40 MLOAD PUSH3 0x461BCD PUSH1 0xE5 SHL DUP2 MSTORE PUSH1 0x20 PUSH1 0x4 DUP3 ADD MSTORE PUSH1 0x2B PUSH1 0x24 DUP3 ADD MSTORE PUSH32 0x496D70657266656374466F726D3A2043616E6E6F74207265736F6C766520746F PUSH1 0x44 DUP3 ADD MSTORE PUSH11 0x81553949154D3D3159151 PUSH1 0xAA SHL PUSH1 0x64 DUP3 ADD MSTORE PUSH1 0x84 SWAP1 REVERT JUMPDEST POP DUP2 ISZERO ISZERO PUSH2 0x181B JUMP JUMPDEST CALLVALUE PUSH2 0x452 JUMPI PUSH1 0x0 CALLDATASIZE PUSH1 0x3 NOT ADD SLT PUSH2 0x452 JUMPI PUSH1 0x20 PUSH1 0x4 SLOAD PUSH1 0x40 MLOAD SWAP1 DUP2 MSTORE RETURN JUMPDEST CALLVALUE PUSH2 0x452 JUMPI PUSH1 0x0 CALLDATASIZE PUSH1 0x3 NOT ADD SLT PUSH2 0x452 JUMPI PUSH1 0x5 SLOAD DUP1 ISZERO PUSH2 0x194E JUMPI PUSH1 0x0 NOT DUP2 ADD SWAP1 DUP2 GT PUSH2 0xC17 JUMPI PUSH1 0x20 SWAP1 JUMPDEST PUSH1 0x40 MLOAD SWAP1 DUP2 MSTORE RETURN JUMPDEST POP PUSH1 0x20 PUSH1 0x0 PUSH2 0x1946 JUMP JUMPDEST CALLVALUE PUSH2 0x452 JUMPI PUSH1 0x20 DUP1 PUSH1 0x3 NOT CALLDATASIZE ADD SLT PUSH2 0x452 JUMPI PUSH1 0x4 CALLDATALOAD PUSH1 0x5 SLOAD DUP2 LT DUP1 PUSH2 0x1B3A JUMPI JUMPDEST PUSH2 0x1981 SWAP1 PUSH2 0x21E8 JUMP JUMPDEST DUP1 PUSH1 0x0 MSTORE PUSH1 0x6 DUP3 MSTORE PUSH1 0x2 PUSH1 0xFF PUSH1 0xD PUSH1 0x40 PUSH1 0x0 KECCAK256 ADD SLOAD AND PUSH2 0x19A0 DUP2 PUSH2 0x20AF JUMP JUMPDEST SUB PUSH2 0x1AF4 JUMPI DUP1 PUSH1 0x0 MSTORE PUSH1 0x7 DUP3 MSTORE PUSH1 0x40 PUSH1 0x0 KECCAK256 CALLER PUSH1 0x0 MSTORE DUP3 MSTORE PUSH1 0x40 PUSH1 0x0 KECCAK256 SWAP2 PUSH1 0x1 DUP4 ADD SLOAD SWAP3 DUP4 ISZERO PUSH2 0x1A92 JUMPI PUSH1 0x2 ADD DUP1 SLOAD PUSH1 0xFF DUP2 AND PUSH2 0x1A27 JUMPI PUSH1 0xFF NOT AND PUSH1 0x1 OR SWAP1 SSTORE PUSH1 0x0 DUP1 DUP1 DUP1 DUP7 CALLER DUP3 CALL ISZERO PUSH2 0x1A1B JUMPI PUSH32 0xF3F402280EF0A7905E124AA621B65EAEB2725C343E8B36D398ED78C29DAF285C SWAP1 PUSH1 0x40 MLOAD SWAP4 DUP5 MSTORE CALLER SWAP4 LOG3 STOP JUMPDEST PUSH1 0x40 MLOAD RETURNDATASIZE PUSH1 0x0 DUP3 RETURNDATACOPY RETURNDATASIZE SWAP1 REVERT JUMPDEST PUSH1 0x40 MLOAD PUSH3 0x461BCD PUSH1 0xE5 SHL DUP2 MSTORE PUSH1 0x4 DUP2 ADD DUP5 SWAP1 MSTORE PUSH1 0x39 PUSH1 0x24 DUP3 ADD MSTORE PUSH32 0x496D70657266656374466F726D3A20526566756E6420616C726561647920636C PUSH1 0x44 DUP3 ADD MSTORE PUSH32 0x61696D6564206F72207265776172642070726F63657373656400000000000000 PUSH1 0x64 DUP3 ADD MSTORE PUSH1 0x84 SWAP1 REVERT JUMPDEST PUSH1 0x40 MLOAD PUSH3 0x461BCD PUSH1 0xE5 SHL DUP2 MSTORE PUSH1 0x4 DUP2 ADD DUP4 SWAP1 MSTORE PUSH1 0x34 PUSH1 0x24 DUP3 ADD MSTORE PUSH32 0x496D70657266656374466F726D3A204E6F20766F746520666F756E6420666F72 PUSH1 0x44 DUP3 ADD MSTORE PUSH20 0x81D1A1A5CC81D5CD95C881D1BC81C99599D5B99 PUSH1 0x62 SHL PUSH1 0x64 DUP3 ADD MSTORE PUSH1 0x84 SWAP1 REVERT JUMPDEST PUSH1 0x40 MLOAD PUSH3 0x461BCD PUSH1 0xE5 SHL DUP2 MSTORE PUSH1 0x4 DUP2 ADD DUP4 SWAP1 MSTORE PUSH1 0x2A PUSH1 0x24 DUP3 ADD MSTORE PUSH1 0x0 DUP1 MLOAD PUSH1 0x20 PUSH2 0x275A DUP4 CODECOPY DUP2 MLOAD SWAP2 MSTORE PUSH1 0x44 DUP3 ADD MSTORE PUSH10 0x818D85B98D95B1B1959 PUSH1 0xB2 SHL PUSH1 0x64 DUP3 ADD MSTORE PUSH1 0x84 SWAP1 REVERT JUMPDEST POP DUP1 ISZERO ISZERO PUSH2 0x1978 JUMP JUMPDEST CALLVALUE PUSH2 0x452 JUMPI PUSH1 0x0 CALLDATASIZE PUSH1 0x3 NOT ADD SLT PUSH2 0x452 JUMPI PUSH1 0x20 PUSH1 0x40 MLOAD PUSH1 0x32 DUP2 MSTORE RETURN JUMPDEST CALLVALUE PUSH2 0x452 JUMPI PUSH1 0x20 PUSH32 0xA3A65C2C82E33077BFDC2C14360C64D9B5EF2AAF53C60C614B4D63922DBBD93E PUSH2 0x1B90 CALLDATASIZE PUSH2 0x20E5 JUMP JUMPDEST PUSH2 0x1BA8 PUSH1 0x1 DUP1 PUSH1 0xA0 SWAP7 SWAP5 SWAP7 SHL SUB PUSH1 0x0 SLOAD AND CALLER EQ PUSH2 0x2180 JUMP JUMPDEST PUSH1 0x5 SLOAD DUP5 LT DUP1 PUSH2 0x1BF7 JUMPI JUMPDEST PUSH2 0x1BBC SWAP1 PUSH2 0x21E8 JUMP JUMPDEST DUP4 PUSH1 0x0 MSTORE PUSH1 0x6 DUP3 MSTORE PUSH2 0x1BDC PUSH1 0xFF PUSH1 0xD PUSH1 0x40 PUSH1 0x0 KECCAK256 ADD SLOAD AND PUSH2 0xD58 DUP2 PUSH2 0x20AF JUMP JUMPDEST DUP4 PUSH1 0x0 MSTORE PUSH1 0x6 DUP3 MSTORE DUP1 PUSH1 0x6 PUSH1 0x40 PUSH1 0x0 KECCAK256 ADD SSTORE PUSH1 0x40 MLOAD SWAP1 DUP2 MSTORE LOG2 STOP JUMPDEST POP DUP4 ISZERO ISZERO PUSH2 0x1BB3 JUMP JUMPDEST CALLVALUE PUSH2 0x452 JUMPI PUSH1 0x20 CALLDATASIZE PUSH1 0x3 NOT ADD SLT PUSH2 0x452 JUMPI PUSH2 0x1C19 PUSH2 0x20CF JUMP JUMPDEST PUSH1 0x0 SLOAD PUSH1 0x1 PUSH1 0x1 PUSH1 0xA0 SHL SUB SWAP2 SWAP1 PUSH2 0x1C33 SWAP1 DUP4 AND CALLER EQ PUSH2 0x2180 JUMP JUMPDEST AND DUP1 ISZERO PUSH2 0x1C52 JUMPI PUSH1 0x1 PUSH1 0x1 PUSH1 0x60 SHL SUB PUSH1 0xA0 SHL PUSH1 0x2 SLOAD AND OR PUSH1 0x2 SSTORE PUSH1 0x0 DUP1 RETURN JUMPDEST PUSH1 0x40 MLOAD PUSH3 0x461BCD PUSH1 0xE5 SHL DUP2 MSTORE PUSH1 0x20 PUSH1 0x4 DUP3 ADD MSTORE PUSH1 0x31 PUSH1 0x24 DUP3 ADD MSTORE PUSH32 0x496D70657266656374466F726D3A204D61696E74656E616E6365206164647265 PUSH1 0x44 DUP3 ADD MSTORE PUSH17 0x73732063616E6E6F74206265207A65726F PUSH1 0x78 SHL PUSH1 0x64 DUP3 ADD MSTORE PUSH1 0x84 SWAP1 REVERT JUMPDEST CALLVALUE PUSH2 0x452 JUMPI PUSH1 0x0 CALLDATASIZE PUSH1 0x3 NOT ADD SLT PUSH2 0x452 JUMPI PUSH1 0x20 PUSH2 0x1946 PUSH1 0x3 SLOAD PUSH1 0x4 SLOAD SWAP1 PUSH2 0x21DB JUMP JUMPDEST CALLVALUE PUSH2 0x452 JUMPI PUSH1 0x40 CALLDATASIZE PUSH1 0x3 NOT ADD SLT PUSH2 0x452 JUMPI PUSH1 0x4 CALLDATALOAD PUSH2 0x1CEF PUSH2 0x20B9 JUMP JUMPDEST SWAP1 PUSH1 0x0 PUSH1 0x40 DUP1 MLOAD PUSH2 0x1CFF DUP2 PUSH2 0x1F61 JUMP JUMPDEST DUP3 DUP2 MSTORE DUP3 PUSH1 0x20 DUP3 ADD MSTORE ADD MSTORE PUSH1 0x5 SLOAD DUP2 LT DUP1 PUSH2 0x1D8B JUMPI JUMPDEST PUSH2 0x1D1E SWAP1 PUSH2 0x21E8 JUMP JUMPDEST PUSH1 0x0 MSTORE PUSH1 0x7 PUSH1 0x20 MSTORE PUSH1 0x40 PUSH1 0x0 KECCAK256 SWAP1 PUSH1 0x1 DUP1 PUSH1 0xA0 SHL SUB AND PUSH1 0x0 MSTORE PUSH1 0x20 MSTORE PUSH1 0x60 PUSH1 0x40 PUSH1 0x0 KECCAK256 PUSH1 0x40 MLOAD PUSH2 0x1D4D DUP2 PUSH2 0x1F61 JUMP JUMPDEST PUSH1 0xFF DUP3 SLOAD AND ISZERO ISZERO SWAP2 DUP3 DUP3 MSTORE PUSH1 0x40 PUSH1 0xFF PUSH1 0x2 PUSH1 0x1 DUP5 ADD SLOAD SWAP4 PUSH1 0x20 DUP7 ADD SWAP5 DUP6 MSTORE ADD SLOAD AND SWAP3 ADD SWAP2 ISZERO ISZERO DUP3 MSTORE PUSH1 0x40 MLOAD SWAP3 DUP4 MSTORE MLOAD PUSH1 0x20 DUP4 ADD MSTORE MLOAD ISZERO ISZERO PUSH1 0x40 DUP3 ADD MSTORE RETURN JUMPDEST POP DUP1 ISZERO ISZERO PUSH2 0x1D15 JUMP JUMPDEST CALLVALUE PUSH2 0x452 JUMPI PUSH1 0x20 CALLDATASIZE PUSH1 0x3 NOT ADD SLT PUSH2 0x452 JUMPI PUSH1 0x4 CALLDATALOAD PUSH1 0x0 SWAP1 DUP2 MSTORE PUSH1 0x6 PUSH1 0x20 MSTORE PUSH1 0x40 SWAP1 KECCAK256 DUP1 SLOAD PUSH1 0x1 DUP3 ADD SLOAD PUSH1 0x1 PUSH1 0x1 PUSH1 0xA0 SHL SUB AND SWAP2 PUSH2 0x1DD3 PUSH1 0x2 DUP3 ADD PUSH2 0x1FBC JUMP JUMPDEST SWAP3 PUSH2 0x1DE0 PUSH1 0x3 DUP4 ADD PUSH2 0x1FBC JUMP JUMPDEST SWAP4 PUSH1 0x4 DUP4 ADD SLOAD SWAP5 PUSH1 0x5 DUP5 ADD SLOAD SWAP6 PUSH1 0x6 DUP6 ADD SLOAD SWAP1 PUSH1 0x7 DUP7 ADD SLOAD PUSH1 0xFF AND SWAP1 PUSH1 0x8 DUP8 ADD PUSH2 0x1E09 SWAP1 PUSH2 0x1FBC JUMP JUMPDEST SWAP2 PUSH2 0x1E16 PUSH1 0x9 DUP10 ADD PUSH2 0x1FBC JUMP JUMPDEST SWAP4 PUSH1 0xA DUP10 ADD SLOAD SWAP11 PUSH1 0xB DUP11 ADD SLOAD SWAP7 PUSH1 0xC DUP12 ADD SLOAD SWAP9 PUSH1 0xD DUP13 ADD SLOAD SWAP11 PUSH1 0xE DUP14 ADD SLOAD SWAP13 PUSH1 0xF ADD SLOAD PUSH1 0xFF AND SWAP14 PUSH1 0x40 MLOAD DUP1 PUSH1 0x80 MSTORE MSTORE PUSH1 0x80 MLOAD PUSH1 0x20 ADD MSTORE PUSH2 0x220 DUP1 PUSH1 0x80 MLOAD PUSH1 0x40 ADD MSTORE PUSH1 0x80 MLOAD ADD PUSH2 0x1E64 SWAP2 PUSH2 0x2062 JUMP JUMPDEST PUSH1 0x80 MLOAD DUP1 DUP3 SUB SWAP1 PUSH1 0x60 ADD MSTORE PUSH2 0x1E78 SWAP2 PUSH2 0x2062 JUMP JUMPDEST SWAP4 PUSH1 0x80 MLOAD PUSH1 0x80 ADD MSTORE PUSH1 0x80 MLOAD PUSH1 0xA0 ADD MSTORE PUSH1 0x80 MLOAD PUSH1 0xC0 ADD MSTORE PUSH1 0x80 MLOAD PUSH1 0xE0 ADD PUSH2 0x1E9D SWAP2 PUSH2 0x20A2 JUMP JUMPDEST PUSH1 0x80 MLOAD DUP1 DUP3 SUB SWAP1 PUSH2 0x100 ADD MSTORE PUSH2 0x1EB2 SWAP2 PUSH2 0x2062 JUMP JUMPDEST PUSH1 0x80 MLOAD DUP1 DUP3 SUB SWAP1 PUSH2 0x120 ADD MSTORE PUSH2 0x1EC7 SWAP2 PUSH2 0x2062 JUMP JUMPDEST SWAP6 PUSH1 0x80 MLOAD PUSH2 0x140 ADD MSTORE PUSH1 0x80 MLOAD PUSH2 0x160 ADD MSTORE PUSH1 0x80 MLOAD PUSH2 0x180 ADD MSTORE PUSH1 0xFF DUP2 AND PUSH2 0x1EED DUP2 PUSH2 0x20AF JUMP JUMPDEST PUSH1 0x80 MLOAD PUSH2 0x1A0 ADD MSTORE PUSH1 0x8 SHR PUSH1 0xFF AND PUSH2 0x1F04 DUP2 PUSH2 0x20AF JUMP JUMPDEST PUSH1 0x80 MLOAD PUSH2 0x1C0 ADD MSTORE PUSH1 0x80 MLOAD PUSH2 0x1E0 ADD MSTORE ISZERO ISZERO PUSH1 0x80 MLOAD PUSH2 0x200 ADD MSTORE PUSH1 0x80 MLOAD DUP1 SWAP2 SUB SWAP1 RETURN JUMPDEST SWAP1 PUSH1 0x1 DUP3 DUP2 SHR SWAP3 AND DUP1 ISZERO PUSH2 0x1F57 JUMPI JUMPDEST PUSH1 0x20 DUP4 LT EQ PUSH2 0x1F41 JUMPI JUMP JUMPDEST PUSH4 0x4E487B71 PUSH1 0xE0 SHL PUSH1 0x0 MSTORE PUSH1 0x22 PUSH1 0x4 MSTORE PUSH1 0x24 PUSH1 0x0 REVERT JUMPDEST SWAP2 PUSH1 0x7F AND SWAP2 PUSH2 0x1F36 JUMP JUMPDEST PUSH1 0x60 DUP2 ADD SWAP1 DUP2 LT PUSH8 0xFFFFFFFFFFFFFFFF DUP3 GT OR PUSH2 0x9B3 JUMPI PUSH1 0x40 MSTORE JUMP JUMPDEST PUSH2 0x220 DUP2 ADD SWAP1 DUP2 LT PUSH8 0xFFFFFFFFFFFFFFFF DUP3 GT OR PUSH2 0x9B3 JUMPI PUSH1 0x40 MSTORE JUMP JUMPDEST SWAP1 PUSH1 0x1F DUP1 NOT SWAP2 ADD AND DUP2 ADD SWAP1 DUP2 LT PUSH8 0xFFFFFFFFFFFFFFFF DUP3 GT OR PUSH2 0x9B3 JUMPI PUSH1 0x40 MSTORE JUMP JUMPDEST SWAP1 PUSH1 0x40 MLOAD SWAP2 DUP3 PUSH1 0x0 DUP3 SLOAD SWAP3 PUSH2 0x1FD0 DUP5 PUSH2 0x1F27 JUMP JUMPDEST SWAP1 DUP2 DUP5 MSTORE PUSH1 0x1 SWAP5 DUP6 DUP2 AND SWAP1 DUP2 PUSH1 0x0 EQ PUSH2 0x203F JUMPI POP PUSH1 0x1 EQ PUSH2 0x1FFC JUMPI JUMPDEST POP POP PUSH2 0x1FFA SWAP3 POP SUB DUP4 PUSH2 0x1F9A JUMP JUMPDEST JUMP JUMPDEST SWAP1 SWAP4 SWAP2 POP PUSH1 0x0 MSTORE PUSH1 0x20 SWAP1 DUP2 PUSH1 0x0 KECCAK256 SWAP4 PUSH1 0x0 SWAP2 JUMPDEST DUP2 DUP4 LT PUSH2 0x2027 JUMPI POP POP PUSH2 0x1FFA SWAP4 POP DUP3 ADD ADD CODESIZE DUP1 PUSH2 0x1FEC JUMP JUMPDEST DUP6 SLOAD DUP9 DUP5 ADD DUP6 ADD MSTORE SWAP5 DUP6 ADD SWAP5 DUP8 SWAP5 POP SWAP2 DUP4 ADD SWAP2 PUSH2 0x200F JUMP JUMPDEST SWAP2 POP POP PUSH2 0x1FFA SWAP5 POP PUSH1 0x20 SWAP3 POP PUSH1 0xFF NOT AND DUP3 DUP5 ADD MSTORE ISZERO ISZERO PUSH1 0x5 SHL DUP3 ADD ADD CODESIZE DUP1 PUSH2 0x1FEC JUMP JUMPDEST SWAP2 SWAP1 DUP3 MLOAD SWAP3 DUP4 DUP3 MSTORE PUSH1 0x0 JUMPDEST DUP5 DUP2 LT PUSH2 0x208E JUMPI POP POP DUP3 PUSH1 0x0 PUSH1 0x20 DUP1 SWAP5 SWAP6 DUP5 ADD ADD MSTORE PUSH1 0x1F DUP1 NOT SWAP2 ADD AND ADD ADD SWAP1 JUMP JUMPDEST PUSH1 0x20 DUP2 DUP4 ADD DUP2 ADD MLOAD DUP5 DUP4 ADD DUP3 ADD MSTORE ADD PUSH2 0x206D JUMP JUMPDEST SWAP1 PUSH1 0x4 DUP3 LT ISZERO PUSH2 0x433 JUMPI MSTORE JUMP JUMPDEST PUSH1 0x3 GT ISZERO PUSH2 0x433 JUMPI JUMP JUMPDEST PUSH1 0x24 CALLDATALOAD SWAP1 PUSH1 0x1 PUSH1 0x1 PUSH1 0xA0 SHL SUB DUP3 AND DUP3 SUB PUSH2 0x452 JUMPI JUMP JUMPDEST PUSH1 0x4 CALLDATALOAD SWAP1 PUSH1 0x1 PUSH1 0x1 PUSH1 0xA0 SHL SUB DUP3 AND DUP3 SUB PUSH2 0x452 JUMPI JUMP JUMPDEST PUSH1 0x40 SWAP1 PUSH1 0x3 NOT ADD SLT PUSH2 0x452 JUMPI PUSH1 0x4 CALLDATALOAD SWAP1 PUSH1 0x24 CALLDATALOAD SWAP1 JUMP JUMPDEST DUP1 SLOAD DUP3 LT ISZERO PUSH2 0x2113 JUMPI PUSH1 0x0 MSTORE PUSH1 0x20 PUSH1 0x0 KECCAK256 ADD SWAP1 PUSH1 0x0 SWAP1 JUMP JUMPDEST PUSH4 0x4E487B71 PUSH1 0xE0 SHL PUSH1 0x0 MSTORE PUSH1 0x32 PUSH1 0x4 MSTORE PUSH1 0x24 PUSH1 0x0 REVERT JUMPDEST DUP2 PUSH1 0x1F DUP3 ADD SLT ISZERO PUSH2 0x452 JUMPI DUP1 CALLDATALOAD SWAP1 PUSH8 0xFFFFFFFFFFFFFFFF DUP3 GT PUSH2 0x9B3 JUMPI PUSH1 0x40 MLOAD SWAP3 PUSH2 0x215E PUSH1 0x1F DUP5 ADD PUSH1 0x1F NOT AND PUSH1 0x20 ADD DUP6 PUSH2 0x1F9A JUMP JUMPDEST DUP3 DUP5 MSTORE PUSH1 0x20 DUP4 DUP4 ADD ADD GT PUSH2 0x452 JUMPI DUP2 PUSH1 0x0 SWAP3 PUSH1 0x20 DUP1 SWAP4 ADD DUP4 DUP7 ADD CALLDATACOPY DUP4 ADD ADD MSTORE SWAP1 JUMP JUMPDEST ISZERO PUSH2 0x2187 JUMPI JUMP JUMPDEST PUSH1 0x40 MLOAD PUSH3 0x461BCD PUSH1 0xE5 SHL DUP2 MSTORE PUSH1 0x20 PUSH1 0x4 DUP3 ADD MSTORE PUSH1 0x26 PUSH1 0x24 DUP3 ADD MSTORE PUSH32 0x496D70657266656374466F726D3A2043616C6C6572206973206E6F7420746865 PUSH1 0x44 DUP3 ADD MSTORE PUSH6 0x1037BBB732B9 PUSH1 0xD1 SHL PUSH1 0x64 DUP3 ADD MSTORE PUSH1 0x84 SWAP1 REVERT JUMPDEST SWAP2 SWAP1 DUP3 ADD DUP1 SWAP3 GT PUSH2 0xC17 JUMPI JUMP JUMPDEST ISZERO PUSH2 0x21EF JUMPI JUMP JUMPDEST PUSH1 0x40 MLOAD PUSH3 0x461BCD PUSH1 0xE5 SHL DUP2 MSTORE PUSH1 0x20 PUSH1 0x4 DUP3 ADD MSTORE PUSH1 0x28 PUSH1 0x24 DUP3 ADD MSTORE PUSH32 0x496D70657266656374466F726D3A2050726564696374696F6E20646F6573206E PUSH1 0x44 DUP3 ADD MSTORE PUSH8 0x1BDD08195E1A5CDD PUSH1 0xC2 SHL PUSH1 0x64 DUP3 ADD MSTORE PUSH1 0x84 SWAP1 REVERT JUMPDEST ISZERO PUSH2 0x224C JUMPI JUMP JUMPDEST PUSH1 0x40 MLOAD PUSH3 0x461BCD PUSH1 0xE5 SHL DUP2 MSTORE PUSH1 0x20 PUSH1 0x4 DUP3 ADD MSTORE PUSH1 0x27 PUSH1 0x24 DUP3 ADD MSTORE PUSH1 0x0 DUP1 MLOAD PUSH1 0x20 PUSH2 0x275A DUP4 CODECOPY DUP2 MLOAD SWAP2 MSTORE PUSH1 0x44 DUP3 ADD MSTORE PUSH7 0x20616374697665 PUSH1 0xC8 SHL PUSH1 0x64 DUP3 ADD MSTORE PUSH1 0x84 SWAP1 REVERT JUMPDEST SWAP1 PUSH2 0x2299 DUP2 PUSH2 0x20AF JUMP JUMPDEST PUSH2 0xFF00 DUP3 SLOAD SWAP2 PUSH1 0x8 SHL AND SWAP1 PUSH2 0xFF00 NOT AND OR SWAP1 SSTORE JUMP JUMPDEST DUP1 SLOAD PUSH9 0x10000000000000000 DUP2 LT ISZERO PUSH2 0x9B3 JUMPI PUSH2 0x22D0 SWAP2 PUSH1 0x1 DUP3 ADD DUP2 SSTORE PUSH2 0x20FB JUMP JUMPDEST DUP2 SWAP3 SWAP2 SLOAD SWAP1 PUSH1 0x3 SHL SWAP2 PUSH1 0x1 DUP1 PUSH1 0xA0 SHL SUB DUP1 SWAP2 AND DUP4 SHL SWAP3 SHL NOT AND OR SWAP1 SSTORE JUMP JUMPDEST SWAP2 SWAP1 DUP3 SUB SWAP2 DUP3 GT PUSH2 0xC17 JUMPI JUMP JUMPDEST DUP2 DUP2 MUL SWAP3 SWAP2 DUP2 ISZERO SWAP2 DUP5 DIV EQ OR ISZERO PUSH2 0xC17 JUMPI JUMP JUMPDEST PUSH1 0x0 SWAP1 DUP1 DUP3 MSTORE PUSH1 0x20 PUSH1 0x6 DUP2 MSTORE PUSH1 0x40 DUP1 DUP5 KECCAK256 SWAP4 PUSH1 0x7 DUP4 MSTORE DUP2 DUP2 KECCAK256 CALLER DUP3 MSTORE DUP4 MSTORE DUP2 DUP2 KECCAK256 SWAP5 PUSH1 0x1 SWAP6 DUP7 DUP2 ADD SLOAD SWAP1 DUP2 ISZERO PUSH2 0x2702 JUMPI PUSH1 0x2 DUP2 ADD SWAP1 DUP2 SLOAD SWAP2 PUSH1 0xFF DUP4 AND PUSH2 0x2698 JUMPI DUP10 PUSH1 0xD DUP7 ADD SWAP4 PUSH1 0xFF DUP6 SLOAD PUSH1 0x8 SHR AND SWAP4 PUSH2 0x2366 DUP6 PUSH2 0x20AF JUMP JUMPDEST DUP3 DUP6 EQ SWAP5 DUP6 PUSH2 0x268C JUMPI JUMPDEST DUP6 ISZERO PUSH2 0x265F JUMPI JUMPDEST POP POP PUSH1 0xFF NOT AND OR SWAP1 SSTORE ISZERO PUSH2 0x262E JUMPI PUSH1 0xFF DUP9 SWAP2 SLOAD PUSH1 0x8 SHR AND PUSH2 0x2397 DUP2 PUSH2 0x20AF JUMP JUMPDEST SUB PUSH2 0x2623 JUMPI PUSH1 0xB DUP3 ADD SLOAD SWAP2 JUMPDEST DUP3 ISZERO PUSH2 0x259E JUMPI PUSH1 0xA ADD SLOAD PUSH2 0x23B6 SWAP2 PUSH2 0x22FB JUMP JUMPDEST DIV PUSH1 0x64 PUSH2 0x23C5 PUSH1 0x3 SLOAD DUP4 PUSH2 0x22FB JUMP JUMPDEST DIV PUSH1 0x64 PUSH2 0x23D4 PUSH1 0x4 SLOAD DUP5 PUSH2 0x22FB JUMP JUMPDEST DIV SWAP2 PUSH2 0x23E0 DUP4 DUP4 PUSH2 0x21DB JUMP JUMPDEST SWAP1 DUP2 DUP2 LT PUSH2 0x2546 JUMPI SWAP1 PUSH2 0x23F2 SWAP2 PUSH2 0x22EE JUMP JUMPDEST SWAP7 DUP2 ISZERO SWAP1 DUP2 ISZERO PUSH2 0x24DE JUMPI JUMPDEST POP POP POP DUP1 ISZERO DUP1 ISZERO PUSH2 0x2475 JUMPI JUMPDEST POP POP DUP5 ISZERO DUP1 ISZERO PUSH2 0x2442 JUMPI JUMPDEST POP POP SWAP1 PUSH32 0x24B5EFA61DD1CFC659205A97FB8ED868F3CB8C81922BAB2B96423E5DE1DE2CB7 SWAP2 MLOAD SWAP4 DUP5 MSTORE CALLER SWAP4 LOG3 JUMP JUMPDEST DUP2 SWAP1 DUP7 DUP3 SWAP2 PUSH2 0x246B JUMPI JUMPDEST DUP3 DUP1 SWAP3 SWAP2 DUP2 SWAP3 CALLER SWAP1 CALL ISZERO PUSH2 0x2460 JUMPI DUP1 PUSH2 0x2414 JUMP JUMPDEST SWAP1 MLOAD SWAP1 RETURNDATASIZE SWAP1 DUP3 RETURNDATACOPY RETURNDATASIZE SWAP1 REVERT JUMPDEST PUSH2 0x8FC SWAP2 POP PUSH2 0x244C JUMP JUMPDEST DUP3 DUP1 DUP1 DUP1 DUP6 PUSH1 0x1 DUP1 PUSH1 0xA0 SHL SUB SWAP6 DUP7 PUSH1 0x2 SLOAD AND SWAP1 DUP4 SWAP1 PUSH2 0x24D5 JUMPI JUMPDEST CALL ISZERO PUSH2 0x24CB JUMPI PUSH32 0x4F74FD430ECC4BC832D1C0F6568D7ECF27F3E0ABCF81385EF346C93B2EF7588E DUP6 DUP8 SWAP3 PUSH1 0x2 SLOAD AND SWAP4 DUP7 MLOAD SWAP1 DUP2 MSTORE LOG3 CODESIZE DUP1 PUSH2 0x2409 JUMP JUMPDEST DUP4 MLOAD RETURNDATASIZE DUP5 DUP3 RETURNDATACOPY RETURNDATASIZE SWAP1 REVERT JUMPDEST POP PUSH2 0x8FC PUSH2 0x248F JUMP JUMPDEST DUP5 DUP1 DUP1 DUP1 DUP7 PUSH1 0x1 DUP1 PUSH1 0xA0 SHL SUB SWAP7 DUP8 DUP8 SLOAD AND SWAP1 DUP4 SWAP1 PUSH2 0x253D JUMPI JUMPDEST CALL ISZERO PUSH2 0x2533 JUMPI DUP7 DUP9 SWAP3 PUSH32 0xA83B61ED3E79E291A0126B12792F207CE9B4FE8D4098B8CCEE67291D9CE9D92F SWAP3 SLOAD AND SWAP4 DUP8 MLOAD SWAP1 DUP2 MSTORE LOG3 CODESIZE DUP1 DUP1 PUSH2 0x23FD JUMP JUMPDEST DUP6 MLOAD RETURNDATASIZE DUP7 DUP3 RETURNDATACOPY RETURNDATASIZE SWAP1 REVERT JUMPDEST POP PUSH2 0x8FC PUSH2 0x24F7 JUMP JUMPDEST DUP6 MLOAD PUSH3 0x461BCD PUSH1 0xE5 SHL DUP2 MSTORE PUSH1 0x4 DUP2 ADD DUP9 SWAP1 MSTORE PUSH1 0x2B PUSH1 0x24 DUP3 ADD MSTORE PUSH32 0x496D70657266656374466F726D3A2046656573206578636565642063616C6375 PUSH1 0x44 DUP3 ADD MSTORE PUSH11 0x6C61746564207368617265 PUSH1 0xA8 SHL PUSH1 0x64 DUP3 ADD MSTORE PUSH1 0x84 SWAP1 REVERT JUMPDEST DUP5 MLOAD PUSH3 0x461BCD PUSH1 0xE5 SHL DUP2 MSTORE PUSH1 0x4 DUP2 ADD DUP8 SWAP1 MSTORE PUSH1 0x52 PUSH1 0x24 DUP3 ADD MSTORE PUSH32 0x496D70657266656374466F726D3A204E6F2077696E6E696E67207374616B6573 PUSH1 0x44 DUP3 ADD MSTORE PUSH32 0x20706F6F6C202873686F756C64206E6F742068617070656E2069662075736572 PUSH1 0x64 DUP3 ADD MSTORE PUSH18 0x20636C61696D7320636F72726563746C7929 PUSH1 0x70 SHL PUSH1 0x84 DUP3 ADD MSTORE PUSH1 0xA4 SWAP1 REVERT JUMPDEST PUSH1 0xC DUP3 ADD SLOAD SWAP2 PUSH2 0x23A3 JUMP JUMPDEST POP POP POP SWAP4 POP SWAP1 PUSH32 0x24B5EFA61DD1CFC659205A97FB8ED868F3CB8C81922BAB2B96423E5DE1DE2CB7 SWAP2 MLOAD SWAP4 DUP5 MSTORE CALLER SWAP4 LOG3 JUMP JUMPDEST PUSH1 0x2 SWAP2 SWAP3 SWAP6 POP PUSH2 0x266E DUP2 PUSH2 0x20AF JUMP JUMPDEST EQ SWAP1 DUP2 PUSH2 0x267F JUMPI JUMPDEST POP SWAP3 CODESIZE DUP1 PUSH2 0x2377 JUMP JUMPDEST PUSH1 0xFF SWAP2 POP SLOAD AND ISZERO CODESIZE PUSH2 0x2676 JUMP JUMPDEST DUP2 SLOAD PUSH1 0xFF AND SWAP6 POP PUSH2 0x2370 JUMP JUMPDEST DUP7 MLOAD PUSH3 0x461BCD PUSH1 0xE5 SHL DUP2 MSTORE PUSH1 0x4 DUP2 ADD DUP10 SWAP1 MSTORE PUSH1 0x39 PUSH1 0x24 DUP3 ADD MSTORE PUSH32 0x496D70657266656374466F726D3A2052657761726420616C726561647920636C PUSH1 0x44 DUP3 ADD MSTORE PUSH32 0x61696D6564206F7220726566756E642070726F63657373656400000000000000 PUSH1 0x64 DUP3 ADD MSTORE PUSH1 0x84 SWAP1 REVERT JUMPDEST DUP5 MLOAD PUSH3 0x461BCD PUSH1 0xE5 SHL DUP2 MSTORE PUSH1 0x4 DUP2 ADD DUP8 SWAP1 MSTORE PUSH1 0x2A PUSH1 0x24 DUP3 ADD MSTORE PUSH32 0x496D70657266656374466F726D3A204E6F20766F746520666F756E6420666F72 PUSH1 0x44 DUP3 ADD MSTORE PUSH10 0x103A3434B9903AB9B2B9 PUSH1 0xB1 SHL PUSH1 0x64 DUP3 ADD MSTORE PUSH1 0x84 SWAP1 REVERT INVALID 0x49 PUSH14 0x70657266656374466F726D3A2050 PUSH19 0x6564696374696F6E206973206E6F74A2646970 PUSH7 0x735822122048CE 0xA8 DUP2 0xE0 PUSH13 0x8F42B1BE3790052A1AF5F37E0D 0xCD GASPRICE 0xD4 0xAA 0xB4 TIMESTAMP ISZERO RETURNDATASIZE 0xBB 0x2C SWAP5 SWAP10 0xBE PUSH5 0x736F6C6343 STOP ADDMOD SGT STOP CALLER 0x49 PUSH14 0x70657266656374466F726D3A2049 PUSH15 0x697469616C20746F74616C20666565 "},"methodIdentifiers":{"MAX_FEE_PERCENTAGE()":"558e44d3","PERCENTAGE_BASE()":"87c13943","autoResolvePrediction(uint256)":"89296738","cancelPrediction(uint256)":"d424e5a0","charityAddress()":"afcf2fc4","charityFeePercentage()":"e9e3e1ae","claimRefund(uint256)":"5b7baf64","claimReward(uint256)":"ae169a50","createPrediction(string,string,uint256,uint256,uint8,string,string,bool)":"e8460ed9","getParticipants(uint256)":"c1e3bd3e","getPrediction(uint256)":"fe83bece","getTotalFeePercentage()":"064367bb","getTotalPredictions()":"5c580061","getUserVote(uint256,address)":"03c7881a","maintenanceAddress()":"719d5f83","maintenanceFeePercentage()":"6896e930","nextPredictionId()":"d8d9292e","owner()":"8da5cb5b","participants(uint256,uint256)":"81fb1fb4","predictions(uint256)":"004fbbb0","resolvePrediction(uint256,uint8)":"6aaea6dc","transferOwnership(address)":"f2fde38b","updateCharityAddress(address)":"ae5a17a7","updateFeePercentages(uint256,uint256)":"78578bb3","updateMaintenanceAddress(address)":"275893a9","updatePredictionValue(uint256,uint256)":"37a50256","vote(uint256,bool)":"c9d27afe","votes(uint256,address)":"d23254b4"}}}}}