{"contracts/UnifiedPredictionMarket.sol":{"UnifiedPredictionMarket":{"abi":[{"inputs":[{"internalType":"address","name":"_charityAddress","type":"address"},{"internalType":"address","name":"_maintenanceAddress","type":"address"}],"stateMutability":"nonpayable","type":"constructor"},{"anonymous":false,"inputs":[{"indexed":true,"internalType":"uint256","name":"predictionId","type":"uint256"},{"indexed":true,"internalType":"address","name":"creator","type":"address"},{"indexed":false,"internalType":"string","name":"title","type":"string"},{"indexed":false,"internalType":"uint256","name":"targetDate","type":"uint256"},{"indexed":false,"internalType":"uint256","name":"targetValue","type":"uint256"}],"name":"PredictionCreated","type":"event"},{"anonymous":false,"inputs":[{"indexed":true,"internalType":"uint256","name":"predictionId","type":"uint256"},{"indexed":false,"internalType":"bool","name":"outcome","type":"bool"},{"indexed":false,"internalType":"uint256","name":"totalPool","type":"uint256"},{"indexed":false,"internalType":"uint256","name":"winningPool","type":"uint256"}],"name":"PredictionResolved","type":"event"},{"anonymous":false,"inputs":[{"indexed":true,"internalType":"uint256","name":"predictionId","type":"uint256"},{"indexed":true,"internalType":"address","name":"claimer","type":"address"},{"indexed":false,"internalType":"uint256","name":"amount","type":"uint256"}],"name":"RewardClaimed","type":"event"},{"anonymous":false,"inputs":[{"indexed":true,"internalType":"uint256","name":"predictionId","type":"uint256"},{"indexed":true,"internalType":"address","name":"user","type":"address"},{"indexed":false,"internalType":"uint256","name":"amount","type":"uint256"}],"name":"SweatEquityFundsReleased","type":"event"},{"anonymous":false,"inputs":[{"indexed":true,"internalType":"uint256","name":"predictionId","type":"uint256"},{"indexed":true,"internalType":"address","name":"voter","type":"address"},{"indexed":false,"internalType":"bool","name":"isYes","type":"bool"},{"indexed":false,"internalType":"uint256","name":"amount","type":"uint256"}],"name":"VoteCast","type":"event"},{"inputs":[],"name":"charityAddress","outputs":[{"internalType":"address","name":"","type":"address"}],"stateMutability":"view","type":"function"},{"inputs":[],"name":"charityFeePercentage","outputs":[{"internalType":"uint256","name":"","type":"uint256"}],"stateMutability":"view","type":"function"},{"inputs":[{"internalType":"uint256","name":"predictionId","type":"uint256"}],"name":"claimReward","outputs":[],"stateMutability":"nonpayable","type":"function"},{"inputs":[{"internalType":"string","name":"_title","type":"string"},{"internalType":"string","name":"_description","type":"string"},{"internalType":"uint256","name":"_targetDate","type":"uint256"},{"internalType":"uint256","name":"_targetValue","type":"uint256"},{"internalType":"uint8","name":"_category","type":"uint8"},{"internalType":"string","name":"_network","type":"string"},{"internalType":"string","name":"_emoji","type":"string"},{"internalType":"bool","name":"_autoResolvable","type":"bool"}],"name":"createPrediction","outputs":[{"internalType":"uint256","name":"","type":"uint256"}],"stateMutability":"nonpayable","type":"function"},{"inputs":[{"internalType":"uint256","name":"predictionId","type":"uint256"}],"name":"getPrediction","outputs":[{"components":[{"internalType":"uint256","name":"id","type":"uint256"},{"internalType":"address","name":"creator","type":"address"},{"internalType":"string","name":"title","type":"string"},{"internalType":"string","name":"description","type":"string"},{"internalType":"uint256","name":"targetDate","type":"uint256"},{"internalType":"uint256","name":"targetValue","type":"uint256"},{"internalType":"uint256","name":"currentValue","type":"uint256"},{"internalType":"uint8","name":"category","type":"uint8"},{"internalType":"string","name":"network","type":"string"},{"internalType":"string","name":"emoji","type":"string"},{"internalType":"uint256","name":"totalStaked","type":"uint256"},{"internalType":"uint256","name":"yesVotes","type":"uint256"},{"internalType":"uint256","name":"noVotes","type":"uint256"},{"internalType":"uint8","name":"status","type":"uint8"},{"internalType":"uint8","name":"outcome","type":"uint8"},{"internalType":"uint256","name":"createdAt","type":"uint256"},{"internalType":"bool","name":"autoResolvable","type":"bool"}],"internalType":"struct UnifiedPredictionMarket.Prediction","name":"","type":"tuple"}],"stateMutability":"view","type":"function"},{"inputs":[{"internalType":"uint256","name":"predictionId","type":"uint256"}],"name":"getPredictionDetails","outputs":[{"internalType":"uint256","name":"id","type":"uint256"},{"internalType":"address","name":"creator","type":"address"},{"internalType":"string","name":"title","type":"string"},{"internalType":"string","name":"description","type":"string"},{"internalType":"uint256","name":"targetDate","type":"uint256"},{"internalType":"uint256","name":"targetValue","type":"uint256"},{"internalType":"uint256","name":"currentValue","type":"uint256"},{"internalType":"uint8","name":"category","type":"uint8"},{"internalType":"string","name":"network","type":"string"},{"internalType":"string","name":"emoji","type":"string"},{"internalType":"uint256","name":"totalStaked","type":"uint256"},{"internalType":"uint256","name":"yesVotes","type":"uint256"},{"internalType":"uint256","name":"noVotes","type":"uint256"},{"internalType":"uint8","name":"status","type":"uint8"},{"internalType":"bool","name":"outcome","type":"bool"},{"internalType":"uint256","name":"createdAt","type":"uint256"},{"internalType":"bool","name":"autoResolvable","type":"bool"}],"stateMutability":"view","type":"function"},{"inputs":[],"name":"getTotalFeePercentage","outputs":[{"internalType":"uint256","name":"","type":"uint256"}],"stateMutability":"view","type":"function"},{"inputs":[],"name":"getTotalPredictions","outputs":[{"internalType":"uint256","name":"","type":"uint256"}],"stateMutability":"view","type":"function"},{"inputs":[{"internalType":"address","name":"user","type":"address"}],"name":"getUserPredictions","outputs":[{"internalType":"uint256[]","name":"","type":"uint256[]"}],"stateMutability":"view","type":"function"},{"inputs":[{"internalType":"uint256","name":"predictionId","type":"uint256"},{"internalType":"address","name":"user","type":"address"}],"name":"getUserStake","outputs":[{"internalType":"uint256","name":"","type":"uint256"},{"internalType":"bool","name":"","type":"bool"}],"stateMutability":"view","type":"function"},{"inputs":[{"internalType":"uint256","name":"predictionId","type":"uint256"},{"internalType":"address","name":"user","type":"address"}],"name":"getUserVote","outputs":[{"components":[{"internalType":"bool","name":"isYes","type":"bool"},{"internalType":"uint256","name":"amount","type":"uint256"},{"internalType":"bool","name":"claimed","type":"bool"},{"internalType":"uint256","name":"timestamp","type":"uint256"}],"internalType":"struct UnifiedPredictionMarket.Vote","name":"","type":"tuple"}],"stateMutability":"view","type":"function"},{"inputs":[],"name":"maintenanceAddress","outputs":[{"internalType":"address","name":"","type":"address"}],"stateMutability":"view","type":"function"},{"inputs":[],"name":"maintenanceFeePercentage","outputs":[{"internalType":"uint256","name":"","type":"uint256"}],"stateMutability":"view","type":"function"},{"inputs":[],"name":"nextPredictionId","outputs":[{"internalType":"uint256","name":"","type":"uint256"}],"stateMutability":"view","type":"function"},{"inputs":[],"name":"owner","outputs":[{"internalType":"address","name":"","type":"address"}],"stateMutability":"view","type":"function"},{"inputs":[{"internalType":"uint256","name":"","type":"uint256"}],"name":"predictions","outputs":[{"internalType":"uint256","name":"id","type":"uint256"},{"internalType":"address","name":"creator","type":"address"},{"internalType":"string","name":"title","type":"string"},{"internalType":"string","name":"description","type":"string"},{"internalType":"uint256","name":"targetDate","type":"uint256"},{"internalType":"uint256","name":"targetValue","type":"uint256"},{"internalType":"uint256","name":"currentValue","type":"uint256"},{"internalType":"uint8","name":"category","type":"uint8"},{"internalType":"string","name":"network","type":"string"},{"internalType":"string","name":"emoji","type":"string"},{"internalType":"uint256","name":"totalStaked","type":"uint256"},{"internalType":"uint256","name":"yesVotes","type":"uint256"},{"internalType":"uint256","name":"noVotes","type":"uint256"},{"internalType":"uint8","name":"status","type":"uint8"},{"internalType":"uint8","name":"outcome","type":"uint8"},{"internalType":"uint256","name":"createdAt","type":"uint256"},{"internalType":"bool","name":"autoResolvable","type":"bool"}],"stateMutability":"view","type":"function"},{"inputs":[{"internalType":"uint256","name":"predictionId","type":"uint256"},{"internalType":"address","name":"user","type":"address"},{"internalType":"uint256","name":"amount","type":"uint256"}],"name":"releaseSweatEquityFunds","outputs":[],"stateMutability":"nonpayable","type":"function"},{"inputs":[{"internalType":"uint256","name":"predictionId","type":"uint256"},{"internalType":"bool","name":"outcome","type":"bool"}],"name":"resolvePrediction","outputs":[],"stateMutability":"nonpayable","type":"function"},{"inputs":[{"internalType":"address","name":"_sweatEquityBot","type":"address"}],"name":"setSweatEquityBot","outputs":[],"stateMutability":"nonpayable","type":"function"},{"inputs":[],"name":"sweatEquityBot","outputs":[{"internalType":"address","name":"","type":"address"}],"stateMutability":"view","type":"function"},{"inputs":[],"name":"totalFeePercentage","outputs":[{"internalType":"uint256","name":"","type":"uint256"}],"stateMutability":"view","type":"function"},{"inputs":[],"name":"totalPredictions","outputs":[{"internalType":"uint256","name":"","type":"uint256"}],"stateMutability":"view","type":"function"},{"inputs":[{"internalType":"address","name":"newOwner","type":"address"}],"name":"transferOwnership","outputs":[],"stateMutability":"nonpayable","type":"function"},{"inputs":[{"internalType":"address","name":"_charityAddress","type":"address"},{"internalType":"address","name":"_maintenanceAddress","type":"address"}],"name":"updateAddresses","outputs":[],"stateMutability":"nonpayable","type":"function"},{"inputs":[{"internalType":"uint256","name":"_charityFeePercentage","type":"uint256"},{"internalType":"uint256","name":"_maintenanceFeePercentage","type":"uint256"}],"name":"updateFees","outputs":[],"stateMutability":"nonpayable","type":"function"},{"inputs":[{"internalType":"address","name":"","type":"address"},{"internalType":"uint256","name":"","type":"uint256"}],"name":"userPredictions","outputs":[{"internalType":"uint256","name":"","type":"uint256"}],"stateMutability":"view","type":"function"},{"inputs":[{"internalType":"uint256","name":"","type":"uint256"},{"internalType":"address","name":"","type":"address"}],"name":"userVotes","outputs":[{"internalType":"bool","name":"isYes","type":"bool"},{"internalType":"uint256","name":"amount","type":"uint256"},{"internalType":"bool","name":"claimed","type":"bool"},{"internalType":"uint256","name":"timestamp","type":"uint256"}],"stateMutability":"view","type":"function"},{"inputs":[{"internalType":"uint256","name":"predictionId","type":"uint256"},{"internalType":"bool","name":"isYes","type":"bool"}],"name":"vote","outputs":[],"stateMutability":"payable","type":"function"}],"evm":{"bytecode":{"linkReferences":{},"object":"608034620000b457601f620023b138819003918201601f19168301916001600160401b03831184841017620000b9578084926040948552833981010312620000b4576200005a60206200005283620000cf565b9201620000cf565b9060016003556000600455600f6005556005600655601460075560018060a01b0319913383600a541617600a5560018060a01b03809216836008541617600855169060095416176009556040516122cc9081620000e58239f35b600080fd5b634e487b7160e01b600052604160045260246000fd5b51906001600160a01b0382168203620000b45756fe60c0604052600436101561001257600080fd5b60003560e01c80624fbbb014611bc257806303c7881a14611b06578063064367bb14611ae85780631a47817414611ae85780635c580061146117525780636896e93014611aca5780636db7943714611a32578063719d5f8314611a0957806376f3450114611770578063779bd562146117525780638da5cb5b146117295780638f888338146114e95780639626a23014611447578063a163bc9c1461141e578063ae169a50146113e3578063afcf2fc4146113ba578063b584d1b114611315578063c1d11037146112b4578063c285f85314611200578063c9d27afe14610f85578063d8d9292e14610f67578063e8460ed914610723578063e9e3e1ae14610705578063f2fde38b14610676578063f6c331791461061e578063fe5b3e3b146105aa578063fe678c211461040b5763fe83bece1461014f57600080fd5b3461040657602036600319011261040657600061020060405161017181611d91565b828152826020820152606060408201526060808201528260808201528260a08201528260c08201528260e082015260606101008201526060610120820152826101408201528261016082015282610180820152826101a0820152826101c0820152826101e08201520152600435801515806103fb575b6101f090611f9b565b6000526000602052604060002060ff600f6040519261020e84611d91565b8054845260018101546001600160a01b0316602085015261023160028201611dd0565b604085015261024260038201611dd0565b606085015260048101546080850152600581015460a0850152600681015460c08501528260078201541660e085015261027d60088201611dd0565b61010085015261028f60098201611dd0565b610120850152600a810154610140850152600b810154610160850152600c81015461018085015282600d8201548181166101a087015260081c166101c0850152600e8101546101e085015201541615156102008201526040518091602082528051602083015260018060a01b0360208201511660408301526102006103a061032860408401516102206060870152610240860190611e76565b610389610347606086015192601f1993848983030160808a0152611e76565b608086015160a088015260a086015160c088015260c086015160e088015260ff60e0870151166101008801526101008601518388830301610120890152611e76565b906101208501519086830301610140870152611e76565b916101408101516101608501526101608101516101808501526101808101516101a085015260ff6101a0820151166101c085015260ff6101c0820151166101e08501526101e081015182850152015115156102208301520390f35b5060035481106101e7565b600080fd5b3461040657606036600319011261040657600435610427611eb6565b600b5460443592916001600160a01b0391821633036105525782151580610547575b61045290611f9b565b826000526000602052600160ff600d6040600020015416036105025783156104bd5716916000808080848782f1156104b15760207fcf70897a47e336d9ad7a3a8bf691257f75bffddece6c7d1a88b2759dbebac59191604051908152a3005b6040513d6000823e3d90fd5b60405162461bcd60e51b815260206004820152601d60248201527f416d6f756e74206d7573742062652067726561746572207468616e20300000006044820152606490fd5b60405162461bcd60e51b815260206004820152601760248201527f50726564696374696f6e206e6f74207265736f6c7665640000000000000000006044820152606490fd5b506003548310610449565b60405162461bcd60e51b815260206004820152602a60248201527f4f6e6c79205377656174457175697479426f742063616e2063616c6c207468696044820152693990333ab731ba34b7b760b11b6064820152608490fd5b34610406576040366003190112610406576105c3611eb6565b600435600052600160205260406000209060018060a01b03166000526020526080604060002060ff81541690600181015490600360ff6002830154169101549160405193151584526020840152151560408301526060820152f35b3461040657604036600319011261040657610637611ecc565b6001600160a01b03166000908152600260205260409020805460243591908210156104065760209161066891611f48565b90546040519160031b1c8152f35b346104065760203660031901126104065761068f611ecc565b600a54906001600160a01b03906106a93383851614612240565b169081156106c1576001600160a01b03191617600a55005b606460405162461bcd60e51b815260206004820152602060248201527f4e6577206f776e65722063616e6e6f74206265207a65726f20616464726573736044820152fd5b34610406576000366003190112610406576020600554604051908152f35b34610406576101003660031901126104065760043567ffffffffffffffff811161040657610755903690600401611ef1565b60243567ffffffffffffffff811161040657610775903690600401611ef1565b6084359060ff821682036104065760a43567ffffffffffffffff8111610406576107a3903690600401611ef1565b60c43567ffffffffffffffff8111610406576107c3903690600401611ef1565b60e43591821515830361040657855115610f2a57426044351115610edb5760ff600354956107f087611f76565b6003556040519561080087611d91565b8787523360208801528860408801526060870152604435608087015260643560a0870152600060c08701521660e085015261010084015261012083015260006101408301526000610160830152600061018083015260006101a083015260006101c0830152426101e08301521515610200820152816000526000602052604060002090805182556001820160018060a01b036020830151166001600160601b0360a01b825416179055604081015180519067ffffffffffffffff8211610b895781906108cf6002860154611d3b565b601f8111610e88575b50602090601f8311600114610e1657600092610e0b575b50508160011b916000199060031b1c19161760028301555b606081015180519067ffffffffffffffff8211610b8957819061092d6003860154611d3b565b601f8111610db8575b50602090601f8311600114610d4657600092610d3b575b50508160011b916000199060031b1c19161760038301555b6080810151600483015560a0810151600583015560c081015160068301556007820160ff60e08301511660ff1982541617905561010081015180519067ffffffffffffffff8211610b895781906109bf6008860154611d3b565b601f8111610ce8575b50602090601f8311600114610c7657600092610c6b575b50508160011b916000199060031b1c19161760088301555b61012081015180519067ffffffffffffffff8211610b8957610a1c6009850154611d3b565b601f8111610c24575b50602090601f8311600114610baa579282600f9361020093610adc9796600092610b9f575b50508160011b916000199060031b1c19161760098501555b610140810151600a850155610160810151600b850155610180810151600c850155610aba600d850160ff6101a08401511660ff1982541617815560ff6101c08401511661ff0082549160081b169061ff001916179055565b6101e0810151600e8501550151151591019060ff801983541691151516179055565b33600052600260205260406000209182549268010000000000000000841015610b895783610b11916001602096018155611f48565b81549060031b9084821b91600019901b1916179055610b31600454611f76565b600455817f37f3edf7ed237f91fd6999d49411c7e10b3602f2e561a5adf21934775659c61a610b6b60405193606085526060850190611e76565b926044358682015260643560408201528033940390a3604051908152f35b634e487b7160e01b600052604160045260246000fd5b015190508980610a4a565b906009850160005260206000209160005b601f1985168110610c0c57508361020093610adc979693600193600f97601f19811610610bf3575b505050811b016009850155610a62565b015160001960f88460031b161c19169055898080610be3565b91926020600181928685015181550194019201610bbb565b600985016000526020600020601f840160051c810160208510610c64575b601f830160051c82018110610c58575050610a25565b60008155600101610c42565b5080610c42565b0151905086806109df565b9250600885016000526020600020906000935b601f1984168510610ccd576001945083601f19811610610cb4575b505050811b0160088301556109f7565b015160001960f88460031b161c19169055868080610ca4565b81810151835560209485019460019093019290910190610c89565b909150600885016000526020600020601f840160051c810160208510610d34575b90849392915b601f830160051c82018110610d255750506109c8565b60008155859450600101610d0f565b5080610d09565b01519050868061094d565b9250600385016000526020600020906000935b601f1984168510610d9d576001945083601f19811610610d84575b505050811b016003830155610965565b015160001960f88460031b161c19169055868080610d74565b81810151835560209485019460019093019290910190610d59565b909150600385016000526020600020601f840160051c810160208510610e04575b90849392915b601f830160051c82018110610df5575050610936565b60008155859450600101610ddf565b5080610dd9565b0151905086806108ef565b9250600285016000526020600020906000935b601f1984168510610e6d576001945083601f19811610610e54575b505050811b016002830155610907565b015160001960f88460031b161c19169055868080610e44565b81810151835560209485019460019093019290910190610e29565b909150600285016000526020600020601f840160051c810160208510610ed4575b90849392915b601f830160051c82018110610ec55750506108d8565b60008155859450600101610eaf565b5080610ea9565b60405162461bcd60e51b815260206004820152602160248201527f5461726765742064617465206d75737420626520696e207468652066757475726044820152606560f81b6064820152608490fd5b60405162461bcd60e51b81526020600482015260156024820152745469746c652063616e6e6f7420626520656d70747960581b6044820152606490fd5b34610406576000366003190112610406576020600354604051908152f35b604036600319011261040657600435610f9c611ee2565b90801515806111f5575b610faf90611f9b565b8060005260206000815260ff600d60406000200154166111b15781600052600081526004604060002001544210156111745734156111255781600052600081526040600020600182526040600020336000528252604060002060018101908154156000146110ac57805460ff191660ff871515161781556003429101555b611038348254611fdf565b9055600a8101611049348254611fdf565b9055831561109757600b0161105f348254611fdf565b90555b604051921515835234908301527fcbdf6214089cba887ecbf35a0b6a734589959c9763342c756bb2a80ca2bc9f6e60403393a3005b600c016110a5348254611fdf565b9055611062565b5460ff1615158515151461102d5760405162461bcd60e51b815260048101849052603860248201527f43616e6e6f74206368616e676520766f746520646972656374696f6e2e20436c60448201527f61696d206578697374696e6720766f74652066697273742e00000000000000006064820152608490fd5b6084906040519062461bcd60e51b82526004820152602260248201527f566f746520616d6f756e74206d7573742062652067726561746572207468616e604482015261020360f41b6064820152fd5b6064906040519062461bcd60e51b825260048201526016602482015275141c99591a58dd1a5bdb881a185cc8195e1c1a5c995960521b6044820152fd5b6064906040519062461bcd60e51b82526004820152601860248201527f50726564696374696f6e206973206e6f742061637469766500000000000000006044820152fd5b506003548110610fa6565b3461040657602080600319360112610406576001600160a01b03611222611ecc565b1660005260028152604060002060405190818382549182815201908192600052846000209060005b868282106112a057868661126082880383611dae565b604051928392818401908285525180915260408401929160005b82811061128957505050500390f35b83518552869550938101939281019260010161127a565b83548552909301926001928301920161124a565b34610406576040366003190112610406576112cd611ecc565b6112d5611eb6565b600a546001600160a01b0391906112ef9083163314612240565b816001600160601b0360a01b931683600854161760085516906009541617600955600080f35b346104065760203660031901126104065761132e611ecc565b600a546001600160a01b0391906113489083163314612240565b168015611367576001600160601b0360a01b600b541617600b55600080f35b60405162461bcd60e51b815260206004820152602560248201527f5377656174457175697479426f742063616e6e6f74206265207a65726f206164604482015264647265737360d81b6064820152608490fd5b34610406576000366003190112610406576008546040516001600160a01b039091168152602090f35b346104065760203660031901126104065761141160043580151580611413575b61140c90611f9b565b611fff565b005b506003548110611403565b3461040657600036600319011261040657600b546040516001600160a01b039091168152602090f35b3461040657604036600319011261040657600435611463611eb6565b90801515806114de575b61147690611f9b565b600052600160205260406000209060018060a01b031660005260205260408060002081516114a381611d75565b60ff825416151581526060600360018401549384602085015260ff600282015416151586850152015491015281519080825215156020820152f35b50600354811061146d565b34610406576020366003190112610406576004358015158061171e575b61150f90611f9b565b6000526000602052604060002060405161152881611d91565b8154815260018201546001600160a01b0316602082015261154b60028301611dd0565b604082015261155c60038301611dd0565b606082015260048201546080820152600582015460a0820152600682015460c082015260ff60078301541660e082015261159860088301611dd0565b6101008201526101e0600160ff6115b160098601611dd0565b9485610120860152600a8101549586610140870152600b820154806101608801526116d4600c84015492836101808a01526116c286600f600d880154978c6101a0848b169101528c6101c0848b60081c169101528c600e8201549c8d9101520154161515998a6102008201528051898060a01b036020830151169160408101519260608201519361169560808401519561168460a08601519360c08701519560ff6101009060e08a0151169801519860405180608052526020608051015261022080604060805101526080510190611e76565b906080516060818403910152611e76565b9460808051015260a0608051015260c0608051015260e06080510152608051610100818403910152611e76565b90608051610120818403910152611e76565b976101406080510152610160608051015261018060805101528181166101a0608051015260081c16146101c060805101526101e06080510152610200608051015260805180910390f35b506003548110611506565b3461040657600036600319011261040657600a546040516001600160a01b039091168152602090f35b34610406576000366003190112610406576020600454604051908152f35b346104065760403660031901126104065760043561178c611ee2565b811515806119fe575b61179e90611f9b565b81600052600060205260406000209060018060a01b039182600a5416331480156119ef575b156119a057600d810180549060ff821661195b576004830154421061190c5760016118069260ff1916178155836000146118fd57805461ff001916610100179055565b600a8101549261181860075485611fec565b50606461182760055486611fec565b0490606461183760065487611fec565b0491801580156118d3575b505081159081156118a4575b505050907f1ee447de28c6ff53bc0403bdbc8f4114866f73b12fc451b0605fc923b02b65bf926060928260001461189a57600b0154905b604051921515835260208301526040820152a2005b600c015490611885565b6000809381938293600998979854169083906118ca575bf1156104b1579084808061184e565b506108fc6118bb565b6000808093819386600854169083906118f4575bf1156104b1578680611842565b506108fc6118e7565b805461ff001916610200179055565b60405162461bcd60e51b815260206004820152602160248201527f43616e6e6f74207265736f6c7665206265666f726520746172676574206461746044820152606560f81b6064820152608490fd5b60405162461bcd60e51b815260206004820152601b60248201527f50726564696374696f6e20616c7265616479207265736f6c76656400000000006044820152606490fd5b60405162461bcd60e51b815260206004820152602160248201527f4f6e6c79206f776e6572206f722063726561746f722063616e207265736f6c766044820152606560f81b6064820152608490fd5b508260018201541633146117c3565b506003548210611795565b34610406576000366003190112610406576009546040516001600160a01b039091168152602090f35b3461040657604036600319011261040657600435602435611a5e60018060a01b03600a54163314612240565b601e611a6a8284611fdf565b11611a855781611a809260055581600655611fdf565b600755005b60405162461bcd60e51b815260206004820152601c60248201527f546f74616c20666565732063616e6e6f742065786365656420333025000000006044820152606490fd5b34610406576000366003190112610406576020600654604051908152f35b34610406576000366003190112610406576020600754604051908152f35b3461040657604036600319011261040657611b1f611eb6565b60006060604051611b2f81611d75565b8281528260208201528260408201520152600435600052600160205260406000209060018060a01b031660005260205260806040600020604051611b7281611d75565b60ff8254161515918282526001810154602083019081526060600360ff60028501541693604086019415158552015493019283526040519384525160208401525115156040830152516060820152f35b34610406576020366003190112610406576004356000908152602081905260409020805460018201546001600160a01b031691611c0160028201611dd0565b92611c0e60038301611dd0565b93600483015494600584015495600685015490600786015460ff169060088701611c3790611dd0565b91611c4460098901611dd0565b93600a8901549a600b8a015496600c8b015498600d8c01549a600e8d01549c600f015460ff169d6040518060a0525260a051602001526102208060a0516040015260a05101611c9291611e76565b60a0518082039060600152611ca691611e76565b9360a0516080015260a05160a0015260a05160c0015260a05160e0015260a051808203906101000152611cd891611e76565b60a051808203906101200152611ced91611e76565b9560a051610140015260a051610160015260a051610180015260ff811660a0516101a0015260081c60ff1660a0516101c0015260a0516101e00152151560a051610200015260a05180910390f35b90600182811c92168015611d6b575b6020831014611d5557565b634e487b7160e01b600052602260045260246000fd5b91607f1691611d4a565b6080810190811067ffffffffffffffff821117610b8957604052565b610220810190811067ffffffffffffffff821117610b8957604052565b90601f8019910116810190811067ffffffffffffffff821117610b8957604052565b9060405191826000825492611de484611d3b565b908184526001948581169081600014611e535750600114611e10575b5050611e0e92500383611dae565b565b9093915060005260209081600020936000915b818310611e3b575050611e0e93508201013880611e00565b85548884018501529485019487945091830191611e23565b915050611e0e94506020925060ff191682840152151560051b8201013880611e00565b919082519283825260005b848110611ea2575050826000602080949584010152601f8019910116010190565b602081830181015184830182015201611e81565b602435906001600160a01b038216820361040657565b600435906001600160a01b038216820361040657565b60243590811515820361040657565b81601f820112156104065780359067ffffffffffffffff8211610b895760405192611f26601f8401601f191660200185611dae565b8284526020838301011161040657816000926020809301838601378301015290565b8054821015611f605760005260206000200190600090565b634e487b7160e01b600052603260045260246000fd5b6000198114611f855760010190565b634e487b7160e01b600052601160045260246000fd5b15611fa257565b60405162461bcd60e51b8152602060048201526015602482015274125b9d985b1a59081c1c99591a58dd1a5bdb881251605a1b6044820152606490fd5b91908201809211611f8557565b81810292918115918404141715611f8557565b6000908082526020828152604080842093600194858452828220338352845282822090600d810180549160ff89818516036121fc57898501549384156121c857600286019586549183831661218b57839060081c1690838d83149283612180575b831561215e575b5050501561214a5750600a82015492606461208460075486611fec565b048403938411612136576120ad9392918b915460081c161460001461212c57600b015492611fec565b811561211857049560ff19825416179055808086801561210e575b8280929181923390f1156121035750907f24b5efa61dd1cfc659205a97fb8ed868f3cb8c81922bab2b96423e5de1de2cb791519384523393a3565b9051903d90823e3d90fd5b6108fc91506120c8565b634e487b7160e01b84526012600452602484fd5b600c015492611fec565b634e487b7160e01b87526011600452602487fd5b60ff19169099179093555050505050505050565b60021492509082612174575b5050388381612067565b5416159050823861216a565b825482169350612060565b895162461bcd60e51b8152600481018c9052601660248201527514995dd85c9908185b1c9958591e4818db185a5b595960521b6044820152606490fd5b875162461bcd60e51b8152600481018a9052600d60248201526c139bc81d9bdd1948199bdd5b99609a1b6044820152606490fd5b865162461bcd60e51b815260048101899052601b60248201527f50726564696374696f6e206e6f74207265736f6c7665642079657400000000006044820152606490fd5b1561224757565b60405162461bcd60e51b815260206004820152602160248201527f4f6e6c79206f776e65722063616e2063616c6c20746869732066756e6374696f6044820152603760f91b6064820152608490fdfea26469706673582212206281fdcbf575221a3f997156e56bb50612d3de1547e693345140f634d600796164736f6c63430008140033","opcodes":"PUSH1 0x80 CALLVALUE PUSH3 0xB4 JUMPI PUSH1 0x1F PUSH3 0x23B1 CODESIZE DUP2 SWAP1 SUB SWAP2 DUP3 ADD PUSH1 0x1F NOT AND DUP4 ADD SWAP2 PUSH1 0x1 PUSH1 0x1 PUSH1 0x40 SHL SUB DUP4 GT DUP5 DUP5 LT OR PUSH3 0xB9 JUMPI DUP1 DUP5 SWAP3 PUSH1 0x40 SWAP5 DUP6 MSTORE DUP4 CODECOPY DUP2 ADD SUB SLT PUSH3 0xB4 JUMPI PUSH3 0x5A PUSH1 0x20 PUSH3 0x52 DUP4 PUSH3 0xCF JUMP JUMPDEST SWAP3 ADD PUSH3 0xCF JUMP JUMPDEST SWAP1 PUSH1 0x1 PUSH1 0x3 SSTORE PUSH1 0x0 PUSH1 0x4 SSTORE PUSH1 0xF PUSH1 0x5 SSTORE PUSH1 0x5 PUSH1 0x6 SSTORE PUSH1 0x14 PUSH1 0x7 SSTORE PUSH1 0x1 DUP1 PUSH1 0xA0 SHL SUB NOT SWAP2 CALLER DUP4 PUSH1 0xA SLOAD AND OR PUSH1 0xA SSTORE PUSH1 0x1 DUP1 PUSH1 0xA0 SHL SUB DUP1 SWAP3 AND DUP4 PUSH1 0x8 SLOAD AND OR PUSH1 0x8 SSTORE AND SWAP1 PUSH1 0x9 SLOAD AND OR PUSH1 0x9 SSTORE PUSH1 0x40 MLOAD PUSH2 0x22CC SWAP1 DUP2 PUSH3 0xE5 DUP3 CODECOPY RETURN JUMPDEST PUSH1 0x0 DUP1 REVERT JUMPDEST PUSH4 0x4E487B71 PUSH1 0xE0 SHL PUSH1 0x0 MSTORE PUSH1 0x41 PUSH1 0x4 MSTORE PUSH1 0x24 PUSH1 0x0 REVERT JUMPDEST MLOAD SWAP1 PUSH1 0x1 PUSH1 0x1 PUSH1 0xA0 SHL SUB DUP3 AND DUP3 SUB PUSH3 0xB4 JUMPI JUMP INVALID PUSH1 0xC0 PUSH1 0x40 MSTORE PUSH1 0x4 CALLDATASIZE LT ISZERO PUSH2 0x12 JUMPI PUSH1 0x0 DUP1 REVERT JUMPDEST PUSH1 0x0 CALLDATALOAD PUSH1 0xE0 SHR DUP1 PUSH3 0x4FBBB0 EQ PUSH2 0x1BC2 JUMPI DUP1 PUSH4 0x3C7881A EQ PUSH2 0x1B06 JUMPI DUP1 PUSH4 0x64367BB EQ PUSH2 0x1AE8 JUMPI DUP1 PUSH4 0x1A478174 EQ PUSH2 0x1AE8 JUMPI DUP1 PUSH4 0x5C580061 EQ PUSH2 0x1752 JUMPI DUP1 PUSH4 0x6896E930 EQ PUSH2 0x1ACA JUMPI DUP1 PUSH4 0x6DB79437 EQ PUSH2 0x1A32 JUMPI DUP1 PUSH4 0x719D5F83 EQ PUSH2 0x1A09 JUMPI DUP1 PUSH4 0x76F34501 EQ PUSH2 0x1770 JUMPI DUP1 PUSH4 0x779BD562 EQ PUSH2 0x1752 JUMPI DUP1 PUSH4 0x8DA5CB5B EQ PUSH2 0x1729 JUMPI DUP1 PUSH4 0x8F888338 EQ PUSH2 0x14E9 JUMPI DUP1 PUSH4 0x9626A230 EQ PUSH2 0x1447 JUMPI DUP1 PUSH4 0xA163BC9C EQ PUSH2 0x141E JUMPI DUP1 PUSH4 0xAE169A50 EQ PUSH2 0x13E3 JUMPI DUP1 PUSH4 0xAFCF2FC4 EQ PUSH2 0x13BA JUMPI DUP1 PUSH4 0xB584D1B1 EQ PUSH2 0x1315 JUMPI DUP1 PUSH4 0xC1D11037 EQ PUSH2 0x12B4 JUMPI DUP1 PUSH4 0xC285F853 EQ PUSH2 0x1200 JUMPI DUP1 PUSH4 0xC9D27AFE EQ PUSH2 0xF85 JUMPI DUP1 PUSH4 0xD8D9292E EQ PUSH2 0xF67 JUMPI DUP1 PUSH4 0xE8460ED9 EQ PUSH2 0x723 JUMPI DUP1 PUSH4 0xE9E3E1AE EQ PUSH2 0x705 JUMPI DUP1 PUSH4 0xF2FDE38B EQ PUSH2 0x676 JUMPI DUP1 PUSH4 0xF6C33179 EQ PUSH2 0x61E JUMPI DUP1 PUSH4 0xFE5B3E3B EQ PUSH2 0x5AA JUMPI DUP1 PUSH4 0xFE678C21 EQ PUSH2 0x40B JUMPI PUSH4 0xFE83BECE EQ PUSH2 0x14F JUMPI PUSH1 0x0 DUP1 REVERT JUMPDEST CALLVALUE PUSH2 0x406 JUMPI PUSH1 0x20 CALLDATASIZE PUSH1 0x3 NOT ADD SLT PUSH2 0x406 JUMPI PUSH1 0x0 PUSH2 0x200 PUSH1 0x40 MLOAD PUSH2 0x171 DUP2 PUSH2 0x1D91 JUMP JUMPDEST DUP3 DUP2 MSTORE DUP3 PUSH1 0x20 DUP3 ADD MSTORE PUSH1 0x60 PUSH1 0x40 DUP3 ADD MSTORE PUSH1 0x60 DUP1 DUP3 ADD MSTORE DUP3 PUSH1 0x80 DUP3 ADD MSTORE DUP3 PUSH1 0xA0 DUP3 ADD MSTORE DUP3 PUSH1 0xC0 DUP3 ADD MSTORE DUP3 PUSH1 0xE0 DUP3 ADD MSTORE PUSH1 0x60 PUSH2 0x100 DUP3 ADD MSTORE PUSH1 0x60 PUSH2 0x120 DUP3 ADD MSTORE DUP3 PUSH2 0x140 DUP3 ADD MSTORE DUP3 PUSH2 0x160 DUP3 ADD MSTORE DUP3 PUSH2 0x180 DUP3 ADD MSTORE DUP3 PUSH2 0x1A0 DUP3 ADD MSTORE DUP3 PUSH2 0x1C0 DUP3 ADD MSTORE DUP3 PUSH2 0x1E0 DUP3 ADD MSTORE ADD MSTORE PUSH1 0x4 CALLDATALOAD DUP1 ISZERO ISZERO DUP1 PUSH2 0x3FB JUMPI JUMPDEST PUSH2 0x1F0 SWAP1 PUSH2 0x1F9B JUMP JUMPDEST PUSH1 0x0 MSTORE PUSH1 0x0 PUSH1 0x20 MSTORE PUSH1 0x40 PUSH1 0x0 KECCAK256 PUSH1 0xFF PUSH1 0xF PUSH1 0x40 MLOAD SWAP3 PUSH2 0x20E DUP5 PUSH2 0x1D91 JUMP JUMPDEST DUP1 SLOAD DUP5 MSTORE PUSH1 0x1 DUP2 ADD SLOAD PUSH1 0x1 PUSH1 0x1 PUSH1 0xA0 SHL SUB AND PUSH1 0x20 DUP6 ADD MSTORE PUSH2 0x231 PUSH1 0x2 DUP3 ADD PUSH2 0x1DD0 JUMP JUMPDEST PUSH1 0x40 DUP6 ADD MSTORE PUSH2 0x242 PUSH1 0x3 DUP3 ADD PUSH2 0x1DD0 JUMP JUMPDEST PUSH1 0x60 DUP6 ADD MSTORE PUSH1 0x4 DUP2 ADD SLOAD PUSH1 0x80 DUP6 ADD MSTORE PUSH1 0x5 DUP2 ADD SLOAD PUSH1 0xA0 DUP6 ADD MSTORE PUSH1 0x6 DUP2 ADD SLOAD PUSH1 0xC0 DUP6 ADD MSTORE DUP3 PUSH1 0x7 DUP3 ADD SLOAD AND PUSH1 0xE0 DUP6 ADD MSTORE PUSH2 0x27D PUSH1 0x8 DUP3 ADD PUSH2 0x1DD0 JUMP JUMPDEST PUSH2 0x100 DUP6 ADD MSTORE PUSH2 0x28F PUSH1 0x9 DUP3 ADD PUSH2 0x1DD0 JUMP JUMPDEST PUSH2 0x120 DUP6 ADD MSTORE PUSH1 0xA DUP2 ADD SLOAD PUSH2 0x140 DUP6 ADD MSTORE PUSH1 0xB DUP2 ADD SLOAD PUSH2 0x160 DUP6 ADD MSTORE PUSH1 0xC DUP2 ADD SLOAD PUSH2 0x180 DUP6 ADD MSTORE DUP3 PUSH1 0xD DUP3 ADD SLOAD DUP2 DUP2 AND PUSH2 0x1A0 DUP8 ADD MSTORE PUSH1 0x8 SHR AND PUSH2 0x1C0 DUP6 ADD MSTORE PUSH1 0xE DUP2 ADD SLOAD PUSH2 0x1E0 DUP6 ADD MSTORE ADD SLOAD AND ISZERO ISZERO PUSH2 0x200 DUP3 ADD MSTORE PUSH1 0x40 MLOAD DUP1 SWAP2 PUSH1 0x20 DUP3 MSTORE DUP1 MLOAD PUSH1 0x20 DUP4 ADD MSTORE PUSH1 0x1 DUP1 PUSH1 0xA0 SHL SUB PUSH1 0x20 DUP3 ADD MLOAD AND PUSH1 0x40 DUP4 ADD MSTORE PUSH2 0x200 PUSH2 0x3A0 PUSH2 0x328 PUSH1 0x40 DUP5 ADD MLOAD PUSH2 0x220 PUSH1 0x60 DUP8 ADD MSTORE PUSH2 0x240 DUP7 ADD SWAP1 PUSH2 0x1E76 JUMP JUMPDEST PUSH2 0x389 PUSH2 0x347 PUSH1 0x60 DUP7 ADD MLOAD SWAP3 PUSH1 0x1F NOT SWAP4 DUP5 DUP10 DUP4 SUB ADD PUSH1 0x80 DUP11 ADD MSTORE PUSH2 0x1E76 JUMP JUMPDEST PUSH1 0x80 DUP7 ADD MLOAD PUSH1 0xA0 DUP9 ADD MSTORE PUSH1 0xA0 DUP7 ADD MLOAD PUSH1 0xC0 DUP9 ADD MSTORE PUSH1 0xC0 DUP7 ADD MLOAD PUSH1 0xE0 DUP9 ADD MSTORE PUSH1 0xFF PUSH1 0xE0 DUP8 ADD MLOAD AND PUSH2 0x100 DUP9 ADD MSTORE PUSH2 0x100 DUP7 ADD MLOAD DUP4 DUP9 DUP4 SUB ADD PUSH2 0x120 DUP10 ADD MSTORE PUSH2 0x1E76 JUMP JUMPDEST SWAP1 PUSH2 0x120 DUP6 ADD MLOAD SWAP1 DUP7 DUP4 SUB ADD PUSH2 0x140 DUP8 ADD MSTORE PUSH2 0x1E76 JUMP JUMPDEST SWAP2 PUSH2 0x140 DUP2 ADD MLOAD PUSH2 0x160 DUP6 ADD MSTORE PUSH2 0x160 DUP2 ADD MLOAD PUSH2 0x180 DUP6 ADD MSTORE PUSH2 0x180 DUP2 ADD MLOAD PUSH2 0x1A0 DUP6 ADD MSTORE PUSH1 0xFF PUSH2 0x1A0 DUP3 ADD MLOAD AND PUSH2 0x1C0 DUP6 ADD MSTORE PUSH1 0xFF PUSH2 0x1C0 DUP3 ADD MLOAD AND PUSH2 0x1E0 DUP6 ADD MSTORE PUSH2 0x1E0 DUP2 ADD MLOAD DUP3 DUP6 ADD MSTORE ADD MLOAD ISZERO ISZERO PUSH2 0x220 DUP4 ADD MSTORE SUB SWAP1 RETURN JUMPDEST POP PUSH1 0x3 SLOAD DUP2 LT PUSH2 0x1E7 JUMP JUMPDEST PUSH1 0x0 DUP1 REVERT JUMPDEST CALLVALUE PUSH2 0x406 JUMPI PUSH1 0x60 CALLDATASIZE PUSH1 0x3 NOT ADD SLT PUSH2 0x406 JUMPI PUSH1 0x4 CALLDATALOAD PUSH2 0x427 PUSH2 0x1EB6 JUMP JUMPDEST PUSH1 0xB SLOAD PUSH1 0x44 CALLDATALOAD SWAP3 SWAP2 PUSH1 0x1 PUSH1 0x1 PUSH1 0xA0 SHL SUB SWAP2 DUP3 AND CALLER SUB PUSH2 0x552 JUMPI DUP3 ISZERO ISZERO DUP1 PUSH2 0x547 JUMPI JUMPDEST PUSH2 0x452 SWAP1 PUSH2 0x1F9B JUMP JUMPDEST DUP3 PUSH1 0x0 MSTORE PUSH1 0x0 PUSH1 0x20 MSTORE PUSH1 0x1 PUSH1 0xFF PUSH1 0xD PUSH1 0x40 PUSH1 0x0 KECCAK256 ADD SLOAD AND SUB PUSH2 0x502 JUMPI DUP4 ISZERO PUSH2 0x4BD JUMPI AND SWAP2 PUSH1 0x0 DUP1 DUP1 DUP1 DUP5 DUP8 DUP3 CALL ISZERO PUSH2 0x4B1 JUMPI PUSH1 0x20 PUSH32 0xCF70897A47E336D9AD7A3A8BF691257F75BFFDDECE6C7D1A88B2759DBEBAC591 SWAP2 PUSH1 0x40 MLOAD SWAP1 DUP2 MSTORE LOG3 STOP JUMPDEST PUSH1 0x40 MLOAD RETURNDATASIZE PUSH1 0x0 DUP3 RETURNDATACOPY RETURNDATASIZE SWAP1 REVERT JUMPDEST PUSH1 0x40 MLOAD PUSH3 0x461BCD PUSH1 0xE5 SHL DUP2 MSTORE PUSH1 0x20 PUSH1 0x4 DUP3 ADD MSTORE PUSH1 0x1D PUSH1 0x24 DUP3 ADD MSTORE PUSH32 0x416D6F756E74206D7573742062652067726561746572207468616E2030000000 PUSH1 0x44 DUP3 ADD MSTORE PUSH1 0x64 SWAP1 REVERT JUMPDEST PUSH1 0x40 MLOAD PUSH3 0x461BCD PUSH1 0xE5 SHL DUP2 MSTORE PUSH1 0x20 PUSH1 0x4 DUP3 ADD MSTORE PUSH1 0x17 PUSH1 0x24 DUP3 ADD MSTORE PUSH32 0x50726564696374696F6E206E6F74207265736F6C766564000000000000000000 PUSH1 0x44 DUP3 ADD MSTORE PUSH1 0x64 SWAP1 REVERT JUMPDEST POP PUSH1 0x3 SLOAD DUP4 LT PUSH2 0x449 JUMP JUMPDEST PUSH1 0x40 MLOAD PUSH3 0x461BCD PUSH1 0xE5 SHL DUP2 MSTORE PUSH1 0x20 PUSH1 0x4 DUP3 ADD MSTORE PUSH1 0x2A PUSH1 0x24 DUP3 ADD MSTORE PUSH32 0x4F6E6C79205377656174457175697479426F742063616E2063616C6C20746869 PUSH1 0x44 DUP3 ADD MSTORE PUSH10 0x3990333AB731BA34B7B7 PUSH1 0xB1 SHL PUSH1 0x64 DUP3 ADD MSTORE PUSH1 0x84 SWAP1 REVERT JUMPDEST CALLVALUE PUSH2 0x406 JUMPI PUSH1 0x40 CALLDATASIZE PUSH1 0x3 NOT ADD SLT PUSH2 0x406 JUMPI PUSH2 0x5C3 PUSH2 0x1EB6 JUMP JUMPDEST PUSH1 0x4 CALLDATALOAD PUSH1 0x0 MSTORE PUSH1 0x1 PUSH1 0x20 MSTORE PUSH1 0x40 PUSH1 0x0 KECCAK256 SWAP1 PUSH1 0x1 DUP1 PUSH1 0xA0 SHL SUB AND PUSH1 0x0 MSTORE PUSH1 0x20 MSTORE PUSH1 0x80 PUSH1 0x40 PUSH1 0x0 KECCAK256 PUSH1 0xFF DUP2 SLOAD AND SWAP1 PUSH1 0x1 DUP2 ADD SLOAD SWAP1 PUSH1 0x3 PUSH1 0xFF PUSH1 0x2 DUP4 ADD SLOAD AND SWAP2 ADD SLOAD SWAP2 PUSH1 0x40 MLOAD SWAP4 ISZERO ISZERO DUP5 MSTORE PUSH1 0x20 DUP5 ADD MSTORE ISZERO ISZERO PUSH1 0x40 DUP4 ADD MSTORE PUSH1 0x60 DUP3 ADD MSTORE RETURN JUMPDEST CALLVALUE PUSH2 0x406 JUMPI PUSH1 0x40 CALLDATASIZE PUSH1 0x3 NOT ADD SLT PUSH2 0x406 JUMPI PUSH2 0x637 PUSH2 0x1ECC JUMP JUMPDEST PUSH1 0x1 PUSH1 0x1 PUSH1 0xA0 SHL SUB AND PUSH1 0x0 SWAP1 DUP2 MSTORE PUSH1 0x2 PUSH1 0x20 MSTORE PUSH1 0x40 SWAP1 KECCAK256 DUP1 SLOAD PUSH1 0x24 CALLDATALOAD SWAP2 SWAP1 DUP3 LT ISZERO PUSH2 0x406 JUMPI PUSH1 0x20 SWAP2 PUSH2 0x668 SWAP2 PUSH2 0x1F48 JUMP JUMPDEST SWAP1 SLOAD PUSH1 0x40 MLOAD SWAP2 PUSH1 0x3 SHL SHR DUP2 MSTORE RETURN JUMPDEST CALLVALUE PUSH2 0x406 JUMPI PUSH1 0x20 CALLDATASIZE PUSH1 0x3 NOT ADD SLT PUSH2 0x406 JUMPI PUSH2 0x68F PUSH2 0x1ECC JUMP JUMPDEST PUSH1 0xA SLOAD SWAP1 PUSH1 0x1 PUSH1 0x1 PUSH1 0xA0 SHL SUB SWAP1 PUSH2 0x6A9 CALLER DUP4 DUP6 AND EQ PUSH2 0x2240 JUMP JUMPDEST AND SWAP1 DUP2 ISZERO PUSH2 0x6C1 JUMPI PUSH1 0x1 PUSH1 0x1 PUSH1 0xA0 SHL SUB NOT AND OR PUSH1 0xA SSTORE STOP JUMPDEST PUSH1 0x64 PUSH1 0x40 MLOAD PUSH3 0x461BCD PUSH1 0xE5 SHL DUP2 MSTORE PUSH1 0x20 PUSH1 0x4 DUP3 ADD MSTORE PUSH1 0x20 PUSH1 0x24 DUP3 ADD MSTORE PUSH32 0x4E6577206F776E65722063616E6E6F74206265207A65726F2061646472657373 PUSH1 0x44 DUP3 ADD MSTORE REVERT JUMPDEST CALLVALUE PUSH2 0x406 JUMPI PUSH1 0x0 CALLDATASIZE PUSH1 0x3 NOT ADD SLT PUSH2 0x406 JUMPI PUSH1 0x20 PUSH1 0x5 SLOAD PUSH1 0x40 MLOAD SWAP1 DUP2 MSTORE RETURN JUMPDEST CALLVALUE PUSH2 0x406 JUMPI PUSH2 0x100 CALLDATASIZE PUSH1 0x3 NOT ADD SLT PUSH2 0x406 JUMPI PUSH1 0x4 CALLDATALOAD PUSH8 0xFFFFFFFFFFFFFFFF DUP2 GT PUSH2 0x406 JUMPI PUSH2 0x755 SWAP1 CALLDATASIZE SWAP1 PUSH1 0x4 ADD PUSH2 0x1EF1 JUMP JUMPDEST PUSH1 0x24 CALLDATALOAD PUSH8 0xFFFFFFFFFFFFFFFF DUP2 GT PUSH2 0x406 JUMPI PUSH2 0x775 SWAP1 CALLDATASIZE SWAP1 PUSH1 0x4 ADD PUSH2 0x1EF1 JUMP JUMPDEST PUSH1 0x84 CALLDATALOAD SWAP1 PUSH1 0xFF DUP3 AND DUP3 SUB PUSH2 0x406 JUMPI PUSH1 0xA4 CALLDATALOAD PUSH8 0xFFFFFFFFFFFFFFFF DUP2 GT PUSH2 0x406 JUMPI PUSH2 0x7A3 SWAP1 CALLDATASIZE SWAP1 PUSH1 0x4 ADD PUSH2 0x1EF1 JUMP JUMPDEST PUSH1 0xC4 CALLDATALOAD PUSH8 0xFFFFFFFFFFFFFFFF DUP2 GT PUSH2 0x406 JUMPI PUSH2 0x7C3 SWAP1 CALLDATASIZE SWAP1 PUSH1 0x4 ADD PUSH2 0x1EF1 JUMP JUMPDEST PUSH1 0xE4 CALLDATALOAD SWAP2 DUP3 ISZERO ISZERO DUP4 SUB PUSH2 0x406 JUMPI DUP6 MLOAD ISZERO PUSH2 0xF2A JUMPI TIMESTAMP PUSH1 0x44 CALLDATALOAD GT ISZERO PUSH2 0xEDB JUMPI PUSH1 0xFF PUSH1 0x3 SLOAD SWAP6 PUSH2 0x7F0 DUP8 PUSH2 0x1F76 JUMP JUMPDEST PUSH1 0x3 SSTORE PUSH1 0x40 MLOAD SWAP6 PUSH2 0x800 DUP8 PUSH2 0x1D91 JUMP JUMPDEST DUP8 DUP8 MSTORE CALLER PUSH1 0x20 DUP9 ADD MSTORE DUP9 PUSH1 0x40 DUP9 ADD MSTORE PUSH1 0x60 DUP8 ADD MSTORE PUSH1 0x44 CALLDATALOAD PUSH1 0x80 DUP8 ADD MSTORE PUSH1 0x64 CALLDATALOAD PUSH1 0xA0 DUP8 ADD MSTORE PUSH1 0x0 PUSH1 0xC0 DUP8 ADD MSTORE AND PUSH1 0xE0 DUP6 ADD MSTORE PUSH2 0x100 DUP5 ADD MSTORE PUSH2 0x120 DUP4 ADD MSTORE PUSH1 0x0 PUSH2 0x140 DUP4 ADD MSTORE PUSH1 0x0 PUSH2 0x160 DUP4 ADD MSTORE PUSH1 0x0 PUSH2 0x180 DUP4 ADD MSTORE PUSH1 0x0 PUSH2 0x1A0 DUP4 ADD MSTORE PUSH1 0x0 PUSH2 0x1C0 DUP4 ADD MSTORE TIMESTAMP PUSH2 0x1E0 DUP4 ADD MSTORE ISZERO ISZERO PUSH2 0x200 DUP3 ADD MSTORE DUP2 PUSH1 0x0 MSTORE PUSH1 0x0 PUSH1 0x20 MSTORE PUSH1 0x40 PUSH1 0x0 KECCAK256 SWAP1 DUP1 MLOAD DUP3 SSTORE PUSH1 0x1 DUP3 ADD PUSH1 0x1 DUP1 PUSH1 0xA0 SHL SUB PUSH1 0x20 DUP4 ADD MLOAD AND PUSH1 0x1 PUSH1 0x1 PUSH1 0x60 SHL SUB PUSH1 0xA0 SHL DUP3 SLOAD AND OR SWAP1 SSTORE PUSH1 0x40 DUP2 ADD MLOAD DUP1 MLOAD SWAP1 PUSH8 0xFFFFFFFFFFFFFFFF DUP3 GT PUSH2 0xB89 JUMPI DUP2 SWAP1 PUSH2 0x8CF PUSH1 0x2 DUP7 ADD SLOAD PUSH2 0x1D3B JUMP JUMPDEST PUSH1 0x1F DUP2 GT PUSH2 0xE88 JUMPI JUMPDEST POP PUSH1 0x20 SWAP1 PUSH1 0x1F DUP4 GT PUSH1 0x1 EQ PUSH2 0xE16 JUMPI PUSH1 0x0 SWAP3 PUSH2 0xE0B JUMPI JUMPDEST POP POP DUP2 PUSH1 0x1 SHL SWAP2 PUSH1 0x0 NOT SWAP1 PUSH1 0x3 SHL SHR NOT AND OR PUSH1 0x2 DUP4 ADD SSTORE JUMPDEST PUSH1 0x60 DUP2 ADD MLOAD DUP1 MLOAD SWAP1 PUSH8 0xFFFFFFFFFFFFFFFF DUP3 GT PUSH2 0xB89 JUMPI DUP2 SWAP1 PUSH2 0x92D PUSH1 0x3 DUP7 ADD SLOAD PUSH2 0x1D3B JUMP JUMPDEST PUSH1 0x1F DUP2 GT PUSH2 0xDB8 JUMPI JUMPDEST POP PUSH1 0x20 SWAP1 PUSH1 0x1F DUP4 GT PUSH1 0x1 EQ PUSH2 0xD46 JUMPI PUSH1 0x0 SWAP3 PUSH2 0xD3B JUMPI JUMPDEST POP POP DUP2 PUSH1 0x1 SHL SWAP2 PUSH1 0x0 NOT SWAP1 PUSH1 0x3 SHL SHR NOT AND OR PUSH1 0x3 DUP4 ADD SSTORE JUMPDEST PUSH1 0x80 DUP2 ADD MLOAD PUSH1 0x4 DUP4 ADD SSTORE PUSH1 0xA0 DUP2 ADD MLOAD PUSH1 0x5 DUP4 ADD SSTORE PUSH1 0xC0 DUP2 ADD MLOAD PUSH1 0x6 DUP4 ADD SSTORE PUSH1 0x7 DUP3 ADD PUSH1 0xFF PUSH1 0xE0 DUP4 ADD MLOAD AND PUSH1 0xFF NOT DUP3 SLOAD AND OR SWAP1 SSTORE PUSH2 0x100 DUP2 ADD MLOAD DUP1 MLOAD SWAP1 PUSH8 0xFFFFFFFFFFFFFFFF DUP3 GT PUSH2 0xB89 JUMPI DUP2 SWAP1 PUSH2 0x9BF PUSH1 0x8 DUP7 ADD SLOAD PUSH2 0x1D3B JUMP JUMPDEST PUSH1 0x1F DUP2 GT PUSH2 0xCE8 JUMPI JUMPDEST POP PUSH1 0x20 SWAP1 PUSH1 0x1F DUP4 GT PUSH1 0x1 EQ PUSH2 0xC76 JUMPI PUSH1 0x0 SWAP3 PUSH2 0xC6B JUMPI JUMPDEST POP POP DUP2 PUSH1 0x1 SHL SWAP2 PUSH1 0x0 NOT SWAP1 PUSH1 0x3 SHL SHR NOT AND OR PUSH1 0x8 DUP4 ADD SSTORE JUMPDEST PUSH2 0x120 DUP2 ADD MLOAD DUP1 MLOAD SWAP1 PUSH8 0xFFFFFFFFFFFFFFFF DUP3 GT PUSH2 0xB89 JUMPI PUSH2 0xA1C PUSH1 0x9 DUP6 ADD SLOAD PUSH2 0x1D3B JUMP JUMPDEST PUSH1 0x1F DUP2 GT PUSH2 0xC24 JUMPI JUMPDEST POP PUSH1 0x20 SWAP1 PUSH1 0x1F DUP4 GT PUSH1 0x1 EQ PUSH2 0xBAA JUMPI SWAP3 DUP3 PUSH1 0xF SWAP4 PUSH2 0x200 SWAP4 PUSH2 0xADC SWAP8 SWAP7 PUSH1 0x0 SWAP3 PUSH2 0xB9F JUMPI JUMPDEST POP POP DUP2 PUSH1 0x1 SHL SWAP2 PUSH1 0x0 NOT SWAP1 PUSH1 0x3 SHL SHR NOT AND OR PUSH1 0x9 DUP6 ADD SSTORE JUMPDEST PUSH2 0x140 DUP2 ADD MLOAD PUSH1 0xA DUP6 ADD SSTORE PUSH2 0x160 DUP2 ADD MLOAD PUSH1 0xB DUP6 ADD SSTORE PUSH2 0x180 DUP2 ADD MLOAD PUSH1 0xC DUP6 ADD SSTORE PUSH2 0xABA PUSH1 0xD DUP6 ADD PUSH1 0xFF PUSH2 0x1A0 DUP5 ADD MLOAD AND PUSH1 0xFF NOT DUP3 SLOAD AND OR DUP2 SSTORE PUSH1 0xFF PUSH2 0x1C0 DUP5 ADD MLOAD AND PUSH2 0xFF00 DUP3 SLOAD SWAP2 PUSH1 0x8 SHL AND SWAP1 PUSH2 0xFF00 NOT AND OR SWAP1 SSTORE JUMP JUMPDEST PUSH2 0x1E0 DUP2 ADD MLOAD PUSH1 0xE DUP6 ADD SSTORE ADD MLOAD ISZERO ISZERO SWAP2 ADD SWAP1 PUSH1 0xFF DUP1 NOT DUP4 SLOAD AND SWAP2 ISZERO ISZERO AND OR SWAP1 SSTORE JUMP JUMPDEST CALLER PUSH1 0x0 MSTORE PUSH1 0x2 PUSH1 0x20 MSTORE PUSH1 0x40 PUSH1 0x0 KECCAK256 SWAP2 DUP3 SLOAD SWAP3 PUSH9 0x10000000000000000 DUP5 LT ISZERO PUSH2 0xB89 JUMPI DUP4 PUSH2 0xB11 SWAP2 PUSH1 0x1 PUSH1 0x20 SWAP7 ADD DUP2 SSTORE PUSH2 0x1F48 JUMP JUMPDEST DUP2 SLOAD SWAP1 PUSH1 0x3 SHL SWAP1 DUP5 DUP3 SHL SWAP2 PUSH1 0x0 NOT SWAP1 SHL NOT AND OR SWAP1 SSTORE PUSH2 0xB31 PUSH1 0x4 SLOAD PUSH2 0x1F76 JUMP JUMPDEST PUSH1 0x4 SSTORE DUP2 PUSH32 0x37F3EDF7ED237F91FD6999D49411C7E10B3602F2E561A5ADF21934775659C61A PUSH2 0xB6B PUSH1 0x40 MLOAD SWAP4 PUSH1 0x60 DUP6 MSTORE PUSH1 0x60 DUP6 ADD SWAP1 PUSH2 0x1E76 JUMP JUMPDEST SWAP3 PUSH1 0x44 CALLDATALOAD DUP7 DUP3 ADD MSTORE PUSH1 0x64 CALLDATALOAD PUSH1 0x40 DUP3 ADD MSTORE DUP1 CALLER SWAP5 SUB SWAP1 LOG3 PUSH1 0x40 MLOAD SWAP1 DUP2 MSTORE RETURN JUMPDEST PUSH4 0x4E487B71 PUSH1 0xE0 SHL PUSH1 0x0 MSTORE PUSH1 0x41 PUSH1 0x4 MSTORE PUSH1 0x24 PUSH1 0x0 REVERT JUMPDEST ADD MLOAD SWAP1 POP DUP10 DUP1 PUSH2 0xA4A JUMP JUMPDEST SWAP1 PUSH1 0x9 DUP6 ADD PUSH1 0x0 MSTORE PUSH1 0x20 PUSH1 0x0 KECCAK256 SWAP2 PUSH1 0x0 JUMPDEST PUSH1 0x1F NOT DUP6 AND DUP2 LT PUSH2 0xC0C JUMPI POP DUP4 PUSH2 0x200 SWAP4 PUSH2 0xADC SWAP8 SWAP7 SWAP4 PUSH1 0x1 SWAP4 PUSH1 0xF SWAP8 PUSH1 0x1F NOT DUP2 AND LT PUSH2 0xBF3 JUMPI JUMPDEST POP POP POP DUP2 SHL ADD PUSH1 0x9 DUP6 ADD SSTORE PUSH2 0xA62 JUMP JUMPDEST ADD MLOAD PUSH1 0x0 NOT PUSH1 0xF8 DUP5 PUSH1 0x3 SHL AND SHR NOT AND SWAP1 SSTORE DUP10 DUP1 DUP1 PUSH2 0xBE3 JUMP JUMPDEST SWAP2 SWAP3 PUSH1 0x20 PUSH1 0x1 DUP2 SWAP3 DUP7 DUP6 ADD MLOAD DUP2 SSTORE ADD SWAP5 ADD SWAP3 ADD PUSH2 0xBBB JUMP JUMPDEST PUSH1 0x9 DUP6 ADD PUSH1 0x0 MSTORE PUSH1 0x20 PUSH1 0x0 KECCAK256 PUSH1 0x1F DUP5 ADD PUSH1 0x5 SHR DUP2 ADD PUSH1 0x20 DUP6 LT PUSH2 0xC64 JUMPI JUMPDEST PUSH1 0x1F DUP4 ADD PUSH1 0x5 SHR DUP3 ADD DUP2 LT PUSH2 0xC58 JUMPI POP POP PUSH2 0xA25 JUMP JUMPDEST PUSH1 0x0 DUP2 SSTORE PUSH1 0x1 ADD PUSH2 0xC42 JUMP JUMPDEST POP DUP1 PUSH2 0xC42 JUMP JUMPDEST ADD MLOAD SWAP1 POP DUP7 DUP1 PUSH2 0x9DF JUMP JUMPDEST SWAP3 POP PUSH1 0x8 DUP6 ADD PUSH1 0x0 MSTORE PUSH1 0x20 PUSH1 0x0 KECCAK256 SWAP1 PUSH1 0x0 SWAP4 JUMPDEST PUSH1 0x1F NOT DUP5 AND DUP6 LT PUSH2 0xCCD JUMPI PUSH1 0x1 SWAP5 POP DUP4 PUSH1 0x1F NOT DUP2 AND LT PUSH2 0xCB4 JUMPI JUMPDEST POP POP POP DUP2 SHL ADD PUSH1 0x8 DUP4 ADD SSTORE PUSH2 0x9F7 JUMP JUMPDEST ADD MLOAD PUSH1 0x0 NOT PUSH1 0xF8 DUP5 PUSH1 0x3 SHL AND SHR NOT AND SWAP1 SSTORE DUP7 DUP1 DUP1 PUSH2 0xCA4 JUMP JUMPDEST DUP2 DUP2 ADD MLOAD DUP4 SSTORE PUSH1 0x20 SWAP5 DUP6 ADD SWAP5 PUSH1 0x1 SWAP1 SWAP4 ADD SWAP3 SWAP1 SWAP2 ADD SWAP1 PUSH2 0xC89 JUMP JUMPDEST SWAP1 SWAP2 POP PUSH1 0x8 DUP6 ADD PUSH1 0x0 MSTORE PUSH1 0x20 PUSH1 0x0 KECCAK256 PUSH1 0x1F DUP5 ADD PUSH1 0x5 SHR DUP2 ADD PUSH1 0x20 DUP6 LT PUSH2 0xD34 JUMPI JUMPDEST SWAP1 DUP5 SWAP4 SWAP3 SWAP2 JUMPDEST PUSH1 0x1F DUP4 ADD PUSH1 0x5 SHR DUP3 ADD DUP2 LT PUSH2 0xD25 JUMPI POP POP PUSH2 0x9C8 JUMP JUMPDEST PUSH1 0x0 DUP2 SSTORE DUP6 SWAP5 POP PUSH1 0x1 ADD PUSH2 0xD0F JUMP JUMPDEST POP DUP1 PUSH2 0xD09 JUMP JUMPDEST ADD MLOAD SWAP1 POP DUP7 DUP1 PUSH2 0x94D JUMP JUMPDEST SWAP3 POP PUSH1 0x3 DUP6 ADD PUSH1 0x0 MSTORE PUSH1 0x20 PUSH1 0x0 KECCAK256 SWAP1 PUSH1 0x0 SWAP4 JUMPDEST PUSH1 0x1F NOT DUP5 AND DUP6 LT PUSH2 0xD9D JUMPI PUSH1 0x1 SWAP5 POP DUP4 PUSH1 0x1F NOT DUP2 AND LT PUSH2 0xD84 JUMPI JUMPDEST POP POP POP DUP2 SHL ADD PUSH1 0x3 DUP4 ADD SSTORE PUSH2 0x965 JUMP JUMPDEST ADD MLOAD PUSH1 0x0 NOT PUSH1 0xF8 DUP5 PUSH1 0x3 SHL AND SHR NOT AND SWAP1 SSTORE DUP7 DUP1 DUP1 PUSH2 0xD74 JUMP JUMPDEST DUP2 DUP2 ADD MLOAD DUP4 SSTORE PUSH1 0x20 SWAP5 DUP6 ADD SWAP5 PUSH1 0x1 SWAP1 SWAP4 ADD SWAP3 SWAP1 SWAP2 ADD SWAP1 PUSH2 0xD59 JUMP JUMPDEST SWAP1 SWAP2 POP PUSH1 0x3 DUP6 ADD PUSH1 0x0 MSTORE PUSH1 0x20 PUSH1 0x0 KECCAK256 PUSH1 0x1F DUP5 ADD PUSH1 0x5 SHR DUP2 ADD PUSH1 0x20 DUP6 LT PUSH2 0xE04 JUMPI JUMPDEST SWAP1 DUP5 SWAP4 SWAP3 SWAP2 JUMPDEST PUSH1 0x1F DUP4 ADD PUSH1 0x5 SHR DUP3 ADD DUP2 LT PUSH2 0xDF5 JUMPI POP POP PUSH2 0x936 JUMP JUMPDEST PUSH1 0x0 DUP2 SSTORE DUP6 SWAP5 POP PUSH1 0x1 ADD PUSH2 0xDDF JUMP JUMPDEST POP DUP1 PUSH2 0xDD9 JUMP JUMPDEST ADD MLOAD SWAP1 POP DUP7 DUP1 PUSH2 0x8EF JUMP JUMPDEST SWAP3 POP PUSH1 0x2 DUP6 ADD PUSH1 0x0 MSTORE PUSH1 0x20 PUSH1 0x0 KECCAK256 SWAP1 PUSH1 0x0 SWAP4 JUMPDEST PUSH1 0x1F NOT DUP5 AND DUP6 LT PUSH2 0xE6D JUMPI PUSH1 0x1 SWAP5 POP DUP4 PUSH1 0x1F NOT DUP2 AND LT PUSH2 0xE54 JUMPI JUMPDEST POP POP POP DUP2 SHL ADD PUSH1 0x2 DUP4 ADD SSTORE PUSH2 0x907 JUMP JUMPDEST ADD MLOAD PUSH1 0x0 NOT PUSH1 0xF8 DUP5 PUSH1 0x3 SHL AND SHR NOT AND SWAP1 SSTORE DUP7 DUP1 DUP1 PUSH2 0xE44 JUMP JUMPDEST DUP2 DUP2 ADD MLOAD DUP4 SSTORE PUSH1 0x20 SWAP5 DUP6 ADD SWAP5 PUSH1 0x1 SWAP1 SWAP4 ADD SWAP3 SWAP1 SWAP2 ADD SWAP1 PUSH2 0xE29 JUMP JUMPDEST SWAP1 SWAP2 POP PUSH1 0x2 DUP6 ADD PUSH1 0x0 MSTORE PUSH1 0x20 PUSH1 0x0 KECCAK256 PUSH1 0x1F DUP5 ADD PUSH1 0x5 SHR DUP2 ADD PUSH1 0x20 DUP6 LT PUSH2 0xED4 JUMPI JUMPDEST SWAP1 DUP5 SWAP4 SWAP3 SWAP2 JUMPDEST PUSH1 0x1F DUP4 ADD PUSH1 0x5 SHR DUP3 ADD DUP2 LT PUSH2 0xEC5 JUMPI POP POP PUSH2 0x8D8 JUMP JUMPDEST PUSH1 0x0 DUP2 SSTORE DUP6 SWAP5 POP PUSH1 0x1 ADD PUSH2 0xEAF JUMP JUMPDEST POP DUP1 PUSH2 0xEA9 JUMP JUMPDEST PUSH1 0x40 MLOAD PUSH3 0x461BCD PUSH1 0xE5 SHL DUP2 MSTORE PUSH1 0x20 PUSH1 0x4 DUP3 ADD MSTORE PUSH1 0x21 PUSH1 0x24 DUP3 ADD MSTORE PUSH32 0x5461726765742064617465206D75737420626520696E20746865206675747572 PUSH1 0x44 DUP3 ADD MSTORE PUSH1 0x65 PUSH1 0xF8 SHL PUSH1 0x64 DUP3 ADD MSTORE PUSH1 0x84 SWAP1 REVERT JUMPDEST PUSH1 0x40 MLOAD PUSH3 0x461BCD PUSH1 0xE5 SHL DUP2 MSTORE PUSH1 0x20 PUSH1 0x4 DUP3 ADD MSTORE PUSH1 0x15 PUSH1 0x24 DUP3 ADD MSTORE PUSH21 0x5469746C652063616E6E6F7420626520656D707479 PUSH1 0x58 SHL PUSH1 0x44 DUP3 ADD MSTORE PUSH1 0x64 SWAP1 REVERT JUMPDEST CALLVALUE PUSH2 0x406 JUMPI PUSH1 0x0 CALLDATASIZE PUSH1 0x3 NOT ADD SLT PUSH2 0x406 JUMPI PUSH1 0x20 PUSH1 0x3 SLOAD PUSH1 0x40 MLOAD SWAP1 DUP2 MSTORE RETURN JUMPDEST PUSH1 0x40 CALLDATASIZE PUSH1 0x3 NOT ADD SLT PUSH2 0x406 JUMPI PUSH1 0x4 CALLDATALOAD PUSH2 0xF9C PUSH2 0x1EE2 JUMP JUMPDEST SWAP1 DUP1 ISZERO ISZERO DUP1 PUSH2 0x11F5 JUMPI JUMPDEST PUSH2 0xFAF SWAP1 PUSH2 0x1F9B JUMP JUMPDEST DUP1 PUSH1 0x0 MSTORE PUSH1 0x20 PUSH1 0x0 DUP2 MSTORE PUSH1 0xFF PUSH1 0xD PUSH1 0x40 PUSH1 0x0 KECCAK256 ADD SLOAD AND PUSH2 0x11B1 JUMPI DUP2 PUSH1 0x0 MSTORE PUSH1 0x0 DUP2 MSTORE PUSH1 0x4 PUSH1 0x40 PUSH1 0x0 KECCAK256 ADD SLOAD TIMESTAMP LT ISZERO PUSH2 0x1174 JUMPI CALLVALUE ISZERO PUSH2 0x1125 JUMPI DUP2 PUSH1 0x0 MSTORE PUSH1 0x0 DUP2 MSTORE PUSH1 0x40 PUSH1 0x0 KECCAK256 PUSH1 0x1 DUP3 MSTORE PUSH1 0x40 PUSH1 0x0 KECCAK256 CALLER PUSH1 0x0 MSTORE DUP3 MSTORE PUSH1 0x40 PUSH1 0x0 KECCAK256 PUSH1 0x1 DUP2 ADD SWAP1 DUP2 SLOAD ISZERO PUSH1 0x0 EQ PUSH2 0x10AC JUMPI DUP1 SLOAD PUSH1 0xFF NOT AND PUSH1 0xFF DUP8 ISZERO ISZERO AND OR DUP2 SSTORE PUSH1 0x3 TIMESTAMP SWAP2 ADD SSTORE JUMPDEST PUSH2 0x1038 CALLVALUE DUP3 SLOAD PUSH2 0x1FDF JUMP JUMPDEST SWAP1 SSTORE PUSH1 0xA DUP2 ADD PUSH2 0x1049 CALLVALUE DUP3 SLOAD PUSH2 0x1FDF JUMP JUMPDEST SWAP1 SSTORE DUP4 ISZERO PUSH2 0x1097 JUMPI PUSH1 0xB ADD PUSH2 0x105F CALLVALUE DUP3 SLOAD PUSH2 0x1FDF JUMP JUMPDEST SWAP1 SSTORE JUMPDEST PUSH1 0x40 MLOAD SWAP3 ISZERO ISZERO DUP4 MSTORE CALLVALUE SWAP1 DUP4 ADD MSTORE PUSH32 0xCBDF6214089CBA887ECBF35A0B6A734589959C9763342C756BB2A80CA2BC9F6E PUSH1 0x40 CALLER SWAP4 LOG3 STOP JUMPDEST PUSH1 0xC ADD PUSH2 0x10A5 CALLVALUE DUP3 SLOAD PUSH2 0x1FDF JUMP JUMPDEST SWAP1 SSTORE PUSH2 0x1062 JUMP JUMPDEST SLOAD PUSH1 0xFF AND ISZERO ISZERO DUP6 ISZERO ISZERO EQ PUSH2 0x102D JUMPI PUSH1 0x40 MLOAD PUSH3 0x461BCD PUSH1 0xE5 SHL DUP2 MSTORE PUSH1 0x4 DUP2 ADD DUP5 SWAP1 MSTORE PUSH1 0x38 PUSH1 0x24 DUP3 ADD MSTORE PUSH32 0x43616E6E6F74206368616E676520766F746520646972656374696F6E2E20436C PUSH1 0x44 DUP3 ADD MSTORE PUSH32 0x61696D206578697374696E6720766F74652066697273742E0000000000000000 PUSH1 0x64 DUP3 ADD MSTORE PUSH1 0x84 SWAP1 REVERT JUMPDEST PUSH1 0x84 SWAP1 PUSH1 0x40 MLOAD SWAP1 PUSH3 0x461BCD PUSH1 0xE5 SHL DUP3 MSTORE PUSH1 0x4 DUP3 ADD MSTORE PUSH1 0x22 PUSH1 0x24 DUP3 ADD MSTORE PUSH32 0x566F746520616D6F756E74206D7573742062652067726561746572207468616E PUSH1 0x44 DUP3 ADD MSTORE PUSH2 0x203 PUSH1 0xF4 SHL PUSH1 0x64 DUP3 ADD MSTORE REVERT JUMPDEST PUSH1 0x64 SWAP1 PUSH1 0x40 MLOAD SWAP1 PUSH3 0x461BCD PUSH1 0xE5 SHL DUP3 MSTORE PUSH1 0x4 DUP3 ADD MSTORE PUSH1 0x16 PUSH1 0x24 DUP3 ADD MSTORE PUSH22 0x141C99591A58DD1A5BDB881A185CC8195E1C1A5C9959 PUSH1 0x52 SHL PUSH1 0x44 DUP3 ADD MSTORE REVERT JUMPDEST PUSH1 0x64 SWAP1 PUSH1 0x40 MLOAD SWAP1 PUSH3 0x461BCD PUSH1 0xE5 SHL DUP3 MSTORE PUSH1 0x4 DUP3 ADD MSTORE PUSH1 0x18 PUSH1 0x24 DUP3 ADD MSTORE PUSH32 0x50726564696374696F6E206973206E6F74206163746976650000000000000000 PUSH1 0x44 DUP3 ADD MSTORE REVERT JUMPDEST POP PUSH1 0x3 SLOAD DUP2 LT PUSH2 0xFA6 JUMP JUMPDEST CALLVALUE PUSH2 0x406 JUMPI PUSH1 0x20 DUP1 PUSH1 0x3 NOT CALLDATASIZE ADD SLT PUSH2 0x406 JUMPI PUSH1 0x1 PUSH1 0x1 PUSH1 0xA0 SHL SUB PUSH2 0x1222 PUSH2 0x1ECC JUMP JUMPDEST AND PUSH1 0x0 MSTORE PUSH1 0x2 DUP2 MSTORE PUSH1 0x40 PUSH1 0x0 KECCAK256 PUSH1 0x40 MLOAD SWAP1 DUP2 DUP4 DUP3 SLOAD SWAP2 DUP3 DUP2 MSTORE ADD SWAP1 DUP2 SWAP3 PUSH1 0x0 MSTORE DUP5 PUSH1 0x0 KECCAK256 SWAP1 PUSH1 0x0 JUMPDEST DUP7 DUP3 DUP3 LT PUSH2 0x12A0 JUMPI DUP7 DUP7 PUSH2 0x1260 DUP3 DUP9 SUB DUP4 PUSH2 0x1DAE JUMP JUMPDEST PUSH1 0x40 MLOAD SWAP3 DUP4 SWAP3 DUP2 DUP5 ADD SWAP1 DUP3 DUP6 MSTORE MLOAD DUP1 SWAP2 MSTORE PUSH1 0x40 DUP5 ADD SWAP3 SWAP2 PUSH1 0x0 JUMPDEST DUP3 DUP2 LT PUSH2 0x1289 JUMPI POP POP POP POP SUB SWAP1 RETURN JUMPDEST DUP4 MLOAD DUP6 MSTORE DUP7 SWAP6 POP SWAP4 DUP2 ADD SWAP4 SWAP3 DUP2 ADD SWAP3 PUSH1 0x1 ADD PUSH2 0x127A JUMP JUMPDEST DUP4 SLOAD DUP6 MSTORE SWAP1 SWAP4 ADD SWAP3 PUSH1 0x1 SWAP3 DUP4 ADD SWAP3 ADD PUSH2 0x124A JUMP JUMPDEST CALLVALUE PUSH2 0x406 JUMPI PUSH1 0x40 CALLDATASIZE PUSH1 0x3 NOT ADD SLT PUSH2 0x406 JUMPI PUSH2 0x12CD PUSH2 0x1ECC JUMP JUMPDEST PUSH2 0x12D5 PUSH2 0x1EB6 JUMP JUMPDEST PUSH1 0xA SLOAD PUSH1 0x1 PUSH1 0x1 PUSH1 0xA0 SHL SUB SWAP2 SWAP1 PUSH2 0x12EF SWAP1 DUP4 AND CALLER EQ PUSH2 0x2240 JUMP JUMPDEST DUP2 PUSH1 0x1 PUSH1 0x1 PUSH1 0x60 SHL SUB PUSH1 0xA0 SHL SWAP4 AND DUP4 PUSH1 0x8 SLOAD AND OR PUSH1 0x8 SSTORE AND SWAP1 PUSH1 0x9 SLOAD AND OR PUSH1 0x9 SSTORE PUSH1 0x0 DUP1 RETURN JUMPDEST CALLVALUE PUSH2 0x406 JUMPI PUSH1 0x20 CALLDATASIZE PUSH1 0x3 NOT ADD SLT PUSH2 0x406 JUMPI PUSH2 0x132E PUSH2 0x1ECC JUMP JUMPDEST PUSH1 0xA SLOAD PUSH1 0x1 PUSH1 0x1 PUSH1 0xA0 SHL SUB SWAP2 SWAP1 PUSH2 0x1348 SWAP1 DUP4 AND CALLER EQ PUSH2 0x2240 JUMP JUMPDEST AND DUP1 ISZERO PUSH2 0x1367 JUMPI PUSH1 0x1 PUSH1 0x1 PUSH1 0x60 SHL SUB PUSH1 0xA0 SHL PUSH1 0xB SLOAD AND OR PUSH1 0xB SSTORE PUSH1 0x0 DUP1 RETURN JUMPDEST PUSH1 0x40 MLOAD PUSH3 0x461BCD PUSH1 0xE5 SHL DUP2 MSTORE PUSH1 0x20 PUSH1 0x4 DUP3 ADD MSTORE PUSH1 0x25 PUSH1 0x24 DUP3 ADD MSTORE PUSH32 0x5377656174457175697479426F742063616E6E6F74206265207A65726F206164 PUSH1 0x44 DUP3 ADD MSTORE PUSH5 0x6472657373 PUSH1 0xD8 SHL PUSH1 0x64 DUP3 ADD MSTORE PUSH1 0x84 SWAP1 REVERT JUMPDEST CALLVALUE PUSH2 0x406 JUMPI PUSH1 0x0 CALLDATASIZE PUSH1 0x3 NOT ADD SLT PUSH2 0x406 JUMPI PUSH1 0x8 SLOAD PUSH1 0x40 MLOAD PUSH1 0x1 PUSH1 0x1 PUSH1 0xA0 SHL SUB SWAP1 SWAP2 AND DUP2 MSTORE PUSH1 0x20 SWAP1 RETURN JUMPDEST CALLVALUE PUSH2 0x406 JUMPI PUSH1 0x20 CALLDATASIZE PUSH1 0x3 NOT ADD SLT PUSH2 0x406 JUMPI PUSH2 0x1411 PUSH1 0x4 CALLDATALOAD DUP1 ISZERO ISZERO DUP1 PUSH2 0x1413 JUMPI JUMPDEST PUSH2 0x140C SWAP1 PUSH2 0x1F9B JUMP JUMPDEST PUSH2 0x1FFF JUMP JUMPDEST STOP JUMPDEST POP PUSH1 0x3 SLOAD DUP2 LT PUSH2 0x1403 JUMP JUMPDEST CALLVALUE PUSH2 0x406 JUMPI PUSH1 0x0 CALLDATASIZE PUSH1 0x3 NOT ADD SLT PUSH2 0x406 JUMPI PUSH1 0xB SLOAD PUSH1 0x40 MLOAD PUSH1 0x1 PUSH1 0x1 PUSH1 0xA0 SHL SUB SWAP1 SWAP2 AND DUP2 MSTORE PUSH1 0x20 SWAP1 RETURN JUMPDEST CALLVALUE PUSH2 0x406 JUMPI PUSH1 0x40 CALLDATASIZE PUSH1 0x3 NOT ADD SLT PUSH2 0x406 JUMPI PUSH1 0x4 CALLDATALOAD PUSH2 0x1463 PUSH2 0x1EB6 JUMP JUMPDEST SWAP1 DUP1 ISZERO ISZERO DUP1 PUSH2 0x14DE JUMPI JUMPDEST PUSH2 0x1476 SWAP1 PUSH2 0x1F9B JUMP JUMPDEST PUSH1 0x0 MSTORE PUSH1 0x1 PUSH1 0x20 MSTORE PUSH1 0x40 PUSH1 0x0 KECCAK256 SWAP1 PUSH1 0x1 DUP1 PUSH1 0xA0 SHL SUB AND PUSH1 0x0 MSTORE PUSH1 0x20 MSTORE PUSH1 0x40 DUP1 PUSH1 0x0 KECCAK256 DUP2 MLOAD PUSH2 0x14A3 DUP2 PUSH2 0x1D75 JUMP JUMPDEST PUSH1 0xFF DUP3 SLOAD AND ISZERO ISZERO DUP2 MSTORE PUSH1 0x60 PUSH1 0x3 PUSH1 0x1 DUP5 ADD SLOAD SWAP4 DUP5 PUSH1 0x20 DUP6 ADD MSTORE PUSH1 0xFF PUSH1 0x2 DUP3 ADD SLOAD AND ISZERO ISZERO DUP7 DUP6 ADD MSTORE ADD SLOAD SWAP2 ADD MSTORE DUP2 MLOAD SWAP1 DUP1 DUP3 MSTORE ISZERO ISZERO PUSH1 0x20 DUP3 ADD MSTORE RETURN JUMPDEST POP PUSH1 0x3 SLOAD DUP2 LT PUSH2 0x146D JUMP JUMPDEST CALLVALUE PUSH2 0x406 JUMPI PUSH1 0x20 CALLDATASIZE PUSH1 0x3 NOT ADD SLT PUSH2 0x406 JUMPI PUSH1 0x4 CALLDATALOAD DUP1 ISZERO ISZERO DUP1 PUSH2 0x171E JUMPI JUMPDEST PUSH2 0x150F SWAP1 PUSH2 0x1F9B JUMP JUMPDEST PUSH1 0x0 MSTORE PUSH1 0x0 PUSH1 0x20 MSTORE PUSH1 0x40 PUSH1 0x0 KECCAK256 PUSH1 0x40 MLOAD PUSH2 0x1528 DUP2 PUSH2 0x1D91 JUMP JUMPDEST DUP2 SLOAD DUP2 MSTORE PUSH1 0x1 DUP3 ADD SLOAD PUSH1 0x1 PUSH1 0x1 PUSH1 0xA0 SHL SUB AND PUSH1 0x20 DUP3 ADD MSTORE PUSH2 0x154B PUSH1 0x2 DUP4 ADD PUSH2 0x1DD0 JUMP JUMPDEST PUSH1 0x40 DUP3 ADD MSTORE PUSH2 0x155C PUSH1 0x3 DUP4 ADD PUSH2 0x1DD0 JUMP JUMPDEST PUSH1 0x60 DUP3 ADD MSTORE PUSH1 0x4 DUP3 ADD SLOAD PUSH1 0x80 DUP3 ADD MSTORE PUSH1 0x5 DUP3 ADD SLOAD PUSH1 0xA0 DUP3 ADD MSTORE PUSH1 0x6 DUP3 ADD SLOAD PUSH1 0xC0 DUP3 ADD MSTORE PUSH1 0xFF PUSH1 0x7 DUP4 ADD SLOAD AND PUSH1 0xE0 DUP3 ADD MSTORE PUSH2 0x1598 PUSH1 0x8 DUP4 ADD PUSH2 0x1DD0 JUMP JUMPDEST PUSH2 0x100 DUP3 ADD MSTORE PUSH2 0x1E0 PUSH1 0x1 PUSH1 0xFF PUSH2 0x15B1 PUSH1 0x9 DUP7 ADD PUSH2 0x1DD0 JUMP JUMPDEST SWAP5 DUP6 PUSH2 0x120 DUP7 ADD MSTORE PUSH1 0xA DUP2 ADD SLOAD SWAP6 DUP7 PUSH2 0x140 DUP8 ADD MSTORE PUSH1 0xB DUP3 ADD SLOAD DUP1 PUSH2 0x160 DUP9 ADD MSTORE PUSH2 0x16D4 PUSH1 0xC DUP5 ADD SLOAD SWAP3 DUP4 PUSH2 0x180 DUP11 ADD MSTORE PUSH2 0x16C2 DUP7 PUSH1 0xF PUSH1 0xD DUP9 ADD SLOAD SWAP8 DUP13 PUSH2 0x1A0 DUP5 DUP12 AND SWAP2 ADD MSTORE DUP13 PUSH2 0x1C0 DUP5 DUP12 PUSH1 0x8 SHR AND SWAP2 ADD MSTORE DUP13 PUSH1 0xE DUP3 ADD SLOAD SWAP13 DUP14 SWAP2 ADD MSTORE ADD SLOAD AND ISZERO ISZERO SWAP10 DUP11 PUSH2 0x200 DUP3 ADD MSTORE DUP1 MLOAD DUP10 DUP1 PUSH1 0xA0 SHL SUB PUSH1 0x20 DUP4 ADD MLOAD AND SWAP2 PUSH1 0x40 DUP2 ADD MLOAD SWAP3 PUSH1 0x60 DUP3 ADD MLOAD SWAP4 PUSH2 0x1695 PUSH1 0x80 DUP5 ADD MLOAD SWAP6 PUSH2 0x1684 PUSH1 0xA0 DUP7 ADD MLOAD SWAP4 PUSH1 0xC0 DUP8 ADD MLOAD SWAP6 PUSH1 0xFF PUSH2 0x100 SWAP1 PUSH1 0xE0 DUP11 ADD MLOAD AND SWAP9 ADD MLOAD SWAP9 PUSH1 0x40 MLOAD DUP1 PUSH1 0x80 MSTORE MSTORE PUSH1 0x20 PUSH1 0x80 MLOAD ADD MSTORE PUSH2 0x220 DUP1 PUSH1 0x40 PUSH1 0x80 MLOAD ADD MSTORE PUSH1 0x80 MLOAD ADD SWAP1 PUSH2 0x1E76 JUMP JUMPDEST SWAP1 PUSH1 0x80 MLOAD PUSH1 0x60 DUP2 DUP5 SUB SWAP2 ADD MSTORE PUSH2 0x1E76 JUMP JUMPDEST SWAP5 PUSH1 0x80 DUP1 MLOAD ADD MSTORE PUSH1 0xA0 PUSH1 0x80 MLOAD ADD MSTORE PUSH1 0xC0 PUSH1 0x80 MLOAD ADD MSTORE PUSH1 0xE0 PUSH1 0x80 MLOAD ADD MSTORE PUSH1 0x80 MLOAD PUSH2 0x100 DUP2 DUP5 SUB SWAP2 ADD MSTORE PUSH2 0x1E76 JUMP JUMPDEST SWAP1 PUSH1 0x80 MLOAD PUSH2 0x120 DUP2 DUP5 SUB SWAP2 ADD MSTORE PUSH2 0x1E76 JUMP JUMPDEST SWAP8 PUSH2 0x140 PUSH1 0x80 MLOAD ADD MSTORE PUSH2 0x160 PUSH1 0x80 MLOAD ADD MSTORE PUSH2 0x180 PUSH1 0x80 MLOAD ADD MSTORE DUP2 DUP2 AND PUSH2 0x1A0 PUSH1 0x80 MLOAD ADD MSTORE PUSH1 0x8 SHR AND EQ PUSH2 0x1C0 PUSH1 0x80 MLOAD ADD MSTORE PUSH2 0x1E0 PUSH1 0x80 MLOAD ADD MSTORE PUSH2 0x200 PUSH1 0x80 MLOAD ADD MSTORE PUSH1 0x80 MLOAD DUP1 SWAP2 SUB SWAP1 RETURN JUMPDEST POP PUSH1 0x3 SLOAD DUP2 LT PUSH2 0x1506 JUMP JUMPDEST CALLVALUE PUSH2 0x406 JUMPI PUSH1 0x0 CALLDATASIZE PUSH1 0x3 NOT ADD SLT PUSH2 0x406 JUMPI PUSH1 0xA SLOAD PUSH1 0x40 MLOAD PUSH1 0x1 PUSH1 0x1 PUSH1 0xA0 SHL SUB SWAP1 SWAP2 AND DUP2 MSTORE PUSH1 0x20 SWAP1 RETURN JUMPDEST CALLVALUE PUSH2 0x406 JUMPI PUSH1 0x0 CALLDATASIZE PUSH1 0x3 NOT ADD SLT PUSH2 0x406 JUMPI PUSH1 0x20 PUSH1 0x4 SLOAD PUSH1 0x40 MLOAD SWAP1 DUP2 MSTORE RETURN JUMPDEST CALLVALUE PUSH2 0x406 JUMPI PUSH1 0x40 CALLDATASIZE PUSH1 0x3 NOT ADD SLT PUSH2 0x406 JUMPI PUSH1 0x4 CALLDATALOAD PUSH2 0x178C PUSH2 0x1EE2 JUMP JUMPDEST DUP2 ISZERO ISZERO DUP1 PUSH2 0x19FE JUMPI JUMPDEST PUSH2 0x179E SWAP1 PUSH2 0x1F9B JUMP JUMPDEST DUP2 PUSH1 0x0 MSTORE PUSH1 0x0 PUSH1 0x20 MSTORE PUSH1 0x40 PUSH1 0x0 KECCAK256 SWAP1 PUSH1 0x1 DUP1 PUSH1 0xA0 SHL SUB SWAP2 DUP3 PUSH1 0xA SLOAD AND CALLER EQ DUP1 ISZERO PUSH2 0x19EF JUMPI JUMPDEST ISZERO PUSH2 0x19A0 JUMPI PUSH1 0xD DUP2 ADD DUP1 SLOAD SWAP1 PUSH1 0xFF DUP3 AND PUSH2 0x195B JUMPI PUSH1 0x4 DUP4 ADD SLOAD TIMESTAMP LT PUSH2 0x190C JUMPI PUSH1 0x1 PUSH2 0x1806 SWAP3 PUSH1 0xFF NOT AND OR DUP2 SSTORE DUP4 PUSH1 0x0 EQ PUSH2 0x18FD JUMPI DUP1 SLOAD PUSH2 0xFF00 NOT AND PUSH2 0x100 OR SWAP1 SSTORE JUMP JUMPDEST PUSH1 0xA DUP2 ADD SLOAD SWAP3 PUSH2 0x1818 PUSH1 0x7 SLOAD DUP6 PUSH2 0x1FEC JUMP JUMPDEST POP PUSH1 0x64 PUSH2 0x1827 PUSH1 0x5 SLOAD DUP7 PUSH2 0x1FEC JUMP JUMPDEST DIV SWAP1 PUSH1 0x64 PUSH2 0x1837 PUSH1 0x6 SLOAD DUP8 PUSH2 0x1FEC JUMP JUMPDEST DIV SWAP2 DUP1 ISZERO DUP1 ISZERO PUSH2 0x18D3 JUMPI JUMPDEST POP POP DUP2 ISZERO SWAP1 DUP2 ISZERO PUSH2 0x18A4 JUMPI JUMPDEST POP POP POP SWAP1 PUSH32 0x1EE447DE28C6FF53BC0403BDBC8F4114866F73B12FC451B0605FC923B02B65BF SWAP3 PUSH1 0x60 SWAP3 DUP3 PUSH1 0x0 EQ PUSH2 0x189A JUMPI PUSH1 0xB ADD SLOAD SWAP1 JUMPDEST PUSH1 0x40 MLOAD SWAP3 ISZERO ISZERO DUP4 MSTORE PUSH1 0x20 DUP4 ADD MSTORE PUSH1 0x40 DUP3 ADD MSTORE LOG2 STOP JUMPDEST PUSH1 0xC ADD SLOAD SWAP1 PUSH2 0x1885 JUMP JUMPDEST PUSH1 0x0 DUP1 SWAP4 DUP2 SWAP4 DUP3 SWAP4 PUSH1 0x9 SWAP9 SWAP8 SWAP9 SLOAD AND SWAP1 DUP4 SWAP1 PUSH2 0x18CA JUMPI JUMPDEST CALL ISZERO PUSH2 0x4B1 JUMPI SWAP1 DUP5 DUP1 DUP1 PUSH2 0x184E JUMP JUMPDEST POP PUSH2 0x8FC PUSH2 0x18BB JUMP JUMPDEST PUSH1 0x0 DUP1 DUP1 SWAP4 DUP2 SWAP4 DUP7 PUSH1 0x8 SLOAD AND SWAP1 DUP4 SWAP1 PUSH2 0x18F4 JUMPI JUMPDEST CALL ISZERO PUSH2 0x4B1 JUMPI DUP7 DUP1 PUSH2 0x1842 JUMP JUMPDEST POP PUSH2 0x8FC PUSH2 0x18E7 JUMP JUMPDEST DUP1 SLOAD PUSH2 0xFF00 NOT AND PUSH2 0x200 OR SWAP1 SSTORE JUMP JUMPDEST PUSH1 0x40 MLOAD PUSH3 0x461BCD PUSH1 0xE5 SHL DUP2 MSTORE PUSH1 0x20 PUSH1 0x4 DUP3 ADD MSTORE PUSH1 0x21 PUSH1 0x24 DUP3 ADD MSTORE PUSH32 0x43616E6E6F74207265736F6C7665206265666F72652074617267657420646174 PUSH1 0x44 DUP3 ADD MSTORE PUSH1 0x65 PUSH1 0xF8 SHL PUSH1 0x64 DUP3 ADD MSTORE PUSH1 0x84 SWAP1 REVERT JUMPDEST PUSH1 0x40 MLOAD PUSH3 0x461BCD PUSH1 0xE5 SHL DUP2 MSTORE PUSH1 0x20 PUSH1 0x4 DUP3 ADD MSTORE PUSH1 0x1B PUSH1 0x24 DUP3 ADD MSTORE PUSH32 0x50726564696374696F6E20616C7265616479207265736F6C7665640000000000 PUSH1 0x44 DUP3 ADD MSTORE PUSH1 0x64 SWAP1 REVERT JUMPDEST PUSH1 0x40 MLOAD PUSH3 0x461BCD PUSH1 0xE5 SHL DUP2 MSTORE PUSH1 0x20 PUSH1 0x4 DUP3 ADD MSTORE PUSH1 0x21 PUSH1 0x24 DUP3 ADD MSTORE PUSH32 0x4F6E6C79206F776E6572206F722063726561746F722063616E207265736F6C76 PUSH1 0x44 DUP3 ADD MSTORE PUSH1 0x65 PUSH1 0xF8 SHL PUSH1 0x64 DUP3 ADD MSTORE PUSH1 0x84 SWAP1 REVERT JUMPDEST POP DUP3 PUSH1 0x1 DUP3 ADD SLOAD AND CALLER EQ PUSH2 0x17C3 JUMP JUMPDEST POP PUSH1 0x3 SLOAD DUP3 LT PUSH2 0x1795 JUMP JUMPDEST CALLVALUE PUSH2 0x406 JUMPI PUSH1 0x0 CALLDATASIZE PUSH1 0x3 NOT ADD SLT PUSH2 0x406 JUMPI PUSH1 0x9 SLOAD PUSH1 0x40 MLOAD PUSH1 0x1 PUSH1 0x1 PUSH1 0xA0 SHL SUB SWAP1 SWAP2 AND DUP2 MSTORE PUSH1 0x20 SWAP1 RETURN JUMPDEST CALLVALUE PUSH2 0x406 JUMPI PUSH1 0x40 CALLDATASIZE PUSH1 0x3 NOT ADD SLT PUSH2 0x406 JUMPI PUSH1 0x4 CALLDATALOAD PUSH1 0x24 CALLDATALOAD PUSH2 0x1A5E PUSH1 0x1 DUP1 PUSH1 0xA0 SHL SUB PUSH1 0xA SLOAD AND CALLER EQ PUSH2 0x2240 JUMP JUMPDEST PUSH1 0x1E PUSH2 0x1A6A DUP3 DUP5 PUSH2 0x1FDF JUMP JUMPDEST GT PUSH2 0x1A85 JUMPI DUP2 PUSH2 0x1A80 SWAP3 PUSH1 0x5 SSTORE DUP2 PUSH1 0x6 SSTORE PUSH2 0x1FDF JUMP JUMPDEST PUSH1 0x7 SSTORE STOP JUMPDEST PUSH1 0x40 MLOAD PUSH3 0x461BCD PUSH1 0xE5 SHL DUP2 MSTORE PUSH1 0x20 PUSH1 0x4 DUP3 ADD MSTORE PUSH1 0x1C PUSH1 0x24 DUP3 ADD MSTORE PUSH32 0x546F74616C20666565732063616E6E6F74206578636565642033302500000000 PUSH1 0x44 DUP3 ADD MSTORE PUSH1 0x64 SWAP1 REVERT JUMPDEST CALLVALUE PUSH2 0x406 JUMPI PUSH1 0x0 CALLDATASIZE PUSH1 0x3 NOT ADD SLT PUSH2 0x406 JUMPI PUSH1 0x20 PUSH1 0x6 SLOAD PUSH1 0x40 MLOAD SWAP1 DUP2 MSTORE RETURN JUMPDEST CALLVALUE PUSH2 0x406 JUMPI PUSH1 0x0 CALLDATASIZE PUSH1 0x3 NOT ADD SLT PUSH2 0x406 JUMPI PUSH1 0x20 PUSH1 0x7 SLOAD PUSH1 0x40 MLOAD SWAP1 DUP2 MSTORE RETURN JUMPDEST CALLVALUE PUSH2 0x406 JUMPI PUSH1 0x40 CALLDATASIZE PUSH1 0x3 NOT ADD SLT PUSH2 0x406 JUMPI PUSH2 0x1B1F PUSH2 0x1EB6 JUMP JUMPDEST PUSH1 0x0 PUSH1 0x60 PUSH1 0x40 MLOAD PUSH2 0x1B2F DUP2 PUSH2 0x1D75 JUMP JUMPDEST DUP3 DUP2 MSTORE DUP3 PUSH1 0x20 DUP3 ADD MSTORE DUP3 PUSH1 0x40 DUP3 ADD MSTORE ADD MSTORE PUSH1 0x4 CALLDATALOAD PUSH1 0x0 MSTORE PUSH1 0x1 PUSH1 0x20 MSTORE PUSH1 0x40 PUSH1 0x0 KECCAK256 SWAP1 PUSH1 0x1 DUP1 PUSH1 0xA0 SHL SUB AND PUSH1 0x0 MSTORE PUSH1 0x20 MSTORE PUSH1 0x80 PUSH1 0x40 PUSH1 0x0 KECCAK256 PUSH1 0x40 MLOAD PUSH2 0x1B72 DUP2 PUSH2 0x1D75 JUMP JUMPDEST PUSH1 0xFF DUP3 SLOAD AND ISZERO ISZERO SWAP2 DUP3 DUP3 MSTORE PUSH1 0x1 DUP2 ADD SLOAD PUSH1 0x20 DUP4 ADD SWAP1 DUP2 MSTORE PUSH1 0x60 PUSH1 0x3 PUSH1 0xFF PUSH1 0x2 DUP6 ADD SLOAD AND SWAP4 PUSH1 0x40 DUP7 ADD SWAP5 ISZERO ISZERO DUP6 MSTORE ADD SLOAD SWAP4 ADD SWAP3 DUP4 MSTORE PUSH1 0x40 MLOAD SWAP4 DUP5 MSTORE MLOAD PUSH1 0x20 DUP5 ADD MSTORE MLOAD ISZERO ISZERO PUSH1 0x40 DUP4 ADD MSTORE MLOAD PUSH1 0x60 DUP3 ADD MSTORE RETURN JUMPDEST CALLVALUE PUSH2 0x406 JUMPI PUSH1 0x20 CALLDATASIZE PUSH1 0x3 NOT ADD SLT PUSH2 0x406 JUMPI PUSH1 0x4 CALLDATALOAD PUSH1 0x0 SWAP1 DUP2 MSTORE PUSH1 0x20 DUP2 SWAP1 MSTORE PUSH1 0x40 SWAP1 KECCAK256 DUP1 SLOAD PUSH1 0x1 DUP3 ADD SLOAD PUSH1 0x1 PUSH1 0x1 PUSH1 0xA0 SHL SUB AND SWAP2 PUSH2 0x1C01 PUSH1 0x2 DUP3 ADD PUSH2 0x1DD0 JUMP JUMPDEST SWAP3 PUSH2 0x1C0E PUSH1 0x3 DUP4 ADD PUSH2 0x1DD0 JUMP JUMPDEST SWAP4 PUSH1 0x4 DUP4 ADD SLOAD SWAP5 PUSH1 0x5 DUP5 ADD SLOAD SWAP6 PUSH1 0x6 DUP6 ADD SLOAD SWAP1 PUSH1 0x7 DUP7 ADD SLOAD PUSH1 0xFF AND SWAP1 PUSH1 0x8 DUP8 ADD PUSH2 0x1C37 SWAP1 PUSH2 0x1DD0 JUMP JUMPDEST SWAP2 PUSH2 0x1C44 PUSH1 0x9 DUP10 ADD PUSH2 0x1DD0 JUMP JUMPDEST SWAP4 PUSH1 0xA DUP10 ADD SLOAD SWAP11 PUSH1 0xB DUP11 ADD SLOAD SWAP7 PUSH1 0xC DUP12 ADD SLOAD SWAP9 PUSH1 0xD DUP13 ADD SLOAD SWAP11 PUSH1 0xE DUP14 ADD SLOAD SWAP13 PUSH1 0xF ADD SLOAD PUSH1 0xFF AND SWAP14 PUSH1 0x40 MLOAD DUP1 PUSH1 0xA0 MSTORE MSTORE PUSH1 0xA0 MLOAD PUSH1 0x20 ADD MSTORE PUSH2 0x220 DUP1 PUSH1 0xA0 MLOAD PUSH1 0x40 ADD MSTORE PUSH1 0xA0 MLOAD ADD PUSH2 0x1C92 SWAP2 PUSH2 0x1E76 JUMP JUMPDEST PUSH1 0xA0 MLOAD DUP1 DUP3 SUB SWAP1 PUSH1 0x60 ADD MSTORE PUSH2 0x1CA6 SWAP2 PUSH2 0x1E76 JUMP JUMPDEST SWAP4 PUSH1 0xA0 MLOAD PUSH1 0x80 ADD MSTORE PUSH1 0xA0 MLOAD PUSH1 0xA0 ADD MSTORE PUSH1 0xA0 MLOAD PUSH1 0xC0 ADD MSTORE PUSH1 0xA0 MLOAD PUSH1 0xE0 ADD MSTORE PUSH1 0xA0 MLOAD DUP1 DUP3 SUB SWAP1 PUSH2 0x100 ADD MSTORE PUSH2 0x1CD8 SWAP2 PUSH2 0x1E76 JUMP JUMPDEST PUSH1 0xA0 MLOAD DUP1 DUP3 SUB SWAP1 PUSH2 0x120 ADD MSTORE PUSH2 0x1CED SWAP2 PUSH2 0x1E76 JUMP JUMPDEST SWAP6 PUSH1 0xA0 MLOAD PUSH2 0x140 ADD MSTORE PUSH1 0xA0 MLOAD PUSH2 0x160 ADD MSTORE PUSH1 0xA0 MLOAD PUSH2 0x180 ADD MSTORE PUSH1 0xFF DUP2 AND PUSH1 0xA0 MLOAD PUSH2 0x1A0 ADD MSTORE PUSH1 0x8 SHR PUSH1 0xFF AND PUSH1 0xA0 MLOAD PUSH2 0x1C0 ADD MSTORE PUSH1 0xA0 MLOAD PUSH2 0x1E0 ADD MSTORE ISZERO ISZERO PUSH1 0xA0 MLOAD PUSH2 0x200 ADD MSTORE PUSH1 0xA0 MLOAD DUP1 SWAP2 SUB SWAP1 RETURN JUMPDEST SWAP1 PUSH1 0x1 DUP3 DUP2 SHR SWAP3 AND DUP1 ISZERO PUSH2 0x1D6B JUMPI JUMPDEST PUSH1 0x20 DUP4 LT EQ PUSH2 0x1D55 JUMPI JUMP JUMPDEST PUSH4 0x4E487B71 PUSH1 0xE0 SHL PUSH1 0x0 MSTORE PUSH1 0x22 PUSH1 0x4 MSTORE PUSH1 0x24 PUSH1 0x0 REVERT JUMPDEST SWAP2 PUSH1 0x7F AND SWAP2 PUSH2 0x1D4A JUMP JUMPDEST PUSH1 0x80 DUP2 ADD SWAP1 DUP2 LT PUSH8 0xFFFFFFFFFFFFFFFF DUP3 GT OR PUSH2 0xB89 JUMPI PUSH1 0x40 MSTORE JUMP JUMPDEST PUSH2 0x220 DUP2 ADD SWAP1 DUP2 LT PUSH8 0xFFFFFFFFFFFFFFFF DUP3 GT OR PUSH2 0xB89 JUMPI PUSH1 0x40 MSTORE JUMP JUMPDEST SWAP1 PUSH1 0x1F DUP1 NOT SWAP2 ADD AND DUP2 ADD SWAP1 DUP2 LT PUSH8 0xFFFFFFFFFFFFFFFF DUP3 GT OR PUSH2 0xB89 JUMPI PUSH1 0x40 MSTORE JUMP JUMPDEST SWAP1 PUSH1 0x40 MLOAD SWAP2 DUP3 PUSH1 0x0 DUP3 SLOAD SWAP3 PUSH2 0x1DE4 DUP5 PUSH2 0x1D3B JUMP JUMPDEST SWAP1 DUP2 DUP5 MSTORE PUSH1 0x1 SWAP5 DUP6 DUP2 AND SWAP1 DUP2 PUSH1 0x0 EQ PUSH2 0x1E53 JUMPI POP PUSH1 0x1 EQ PUSH2 0x1E10 JUMPI JUMPDEST POP POP PUSH2 0x1E0E SWAP3 POP SUB DUP4 PUSH2 0x1DAE JUMP JUMPDEST JUMP JUMPDEST SWAP1 SWAP4 SWAP2 POP PUSH1 0x0 MSTORE PUSH1 0x20 SWAP1 DUP2 PUSH1 0x0 KECCAK256 SWAP4 PUSH1 0x0 SWAP2 JUMPDEST DUP2 DUP4 LT PUSH2 0x1E3B JUMPI POP POP PUSH2 0x1E0E SWAP4 POP DUP3 ADD ADD CODESIZE DUP1 PUSH2 0x1E00 JUMP JUMPDEST DUP6 SLOAD DUP9 DUP5 ADD DUP6 ADD MSTORE SWAP5 DUP6 ADD SWAP5 DUP8 SWAP5 POP SWAP2 DUP4 ADD SWAP2 PUSH2 0x1E23 JUMP JUMPDEST SWAP2 POP POP PUSH2 0x1E0E SWAP5 POP PUSH1 0x20 SWAP3 POP PUSH1 0xFF NOT AND DUP3 DUP5 ADD MSTORE ISZERO ISZERO PUSH1 0x5 SHL DUP3 ADD ADD CODESIZE DUP1 PUSH2 0x1E00 JUMP JUMPDEST SWAP2 SWAP1 DUP3 MLOAD SWAP3 DUP4 DUP3 MSTORE PUSH1 0x0 JUMPDEST DUP5 DUP2 LT PUSH2 0x1EA2 JUMPI POP POP DUP3 PUSH1 0x0 PUSH1 0x20 DUP1 SWAP5 SWAP6 DUP5 ADD ADD MSTORE PUSH1 0x1F DUP1 NOT SWAP2 ADD AND ADD ADD SWAP1 JUMP JUMPDEST PUSH1 0x20 DUP2 DUP4 ADD DUP2 ADD MLOAD DUP5 DUP4 ADD DUP3 ADD MSTORE ADD PUSH2 0x1E81 JUMP JUMPDEST PUSH1 0x24 CALLDATALOAD SWAP1 PUSH1 0x1 PUSH1 0x1 PUSH1 0xA0 SHL SUB DUP3 AND DUP3 SUB PUSH2 0x406 JUMPI JUMP JUMPDEST PUSH1 0x4 CALLDATALOAD SWAP1 PUSH1 0x1 PUSH1 0x1 PUSH1 0xA0 SHL SUB DUP3 AND DUP3 SUB PUSH2 0x406 JUMPI JUMP JUMPDEST PUSH1 0x24 CALLDATALOAD SWAP1 DUP2 ISZERO ISZERO DUP3 SUB PUSH2 0x406 JUMPI JUMP JUMPDEST DUP2 PUSH1 0x1F DUP3 ADD SLT ISZERO PUSH2 0x406 JUMPI DUP1 CALLDATALOAD SWAP1 PUSH8 0xFFFFFFFFFFFFFFFF DUP3 GT PUSH2 0xB89 JUMPI PUSH1 0x40 MLOAD SWAP3 PUSH2 0x1F26 PUSH1 0x1F DUP5 ADD PUSH1 0x1F NOT AND PUSH1 0x20 ADD DUP6 PUSH2 0x1DAE JUMP JUMPDEST DUP3 DUP5 MSTORE PUSH1 0x20 DUP4 DUP4 ADD ADD GT PUSH2 0x406 JUMPI DUP2 PUSH1 0x0 SWAP3 PUSH1 0x20 DUP1 SWAP4 ADD DUP4 DUP7 ADD CALLDATACOPY DUP4 ADD ADD MSTORE SWAP1 JUMP JUMPDEST DUP1 SLOAD DUP3 LT ISZERO PUSH2 0x1F60 JUMPI PUSH1 0x0 MSTORE PUSH1 0x20 PUSH1 0x0 KECCAK256 ADD SWAP1 PUSH1 0x0 SWAP1 JUMP JUMPDEST PUSH4 0x4E487B71 PUSH1 0xE0 SHL PUSH1 0x0 MSTORE PUSH1 0x32 PUSH1 0x4 MSTORE PUSH1 0x24 PUSH1 0x0 REVERT JUMPDEST PUSH1 0x0 NOT DUP2 EQ PUSH2 0x1F85 JUMPI PUSH1 0x1 ADD SWAP1 JUMP JUMPDEST PUSH4 0x4E487B71 PUSH1 0xE0 SHL PUSH1 0x0 MSTORE PUSH1 0x11 PUSH1 0x4 MSTORE PUSH1 0x24 PUSH1 0x0 REVERT JUMPDEST ISZERO PUSH2 0x1FA2 JUMPI JUMP JUMPDEST PUSH1 0x40 MLOAD PUSH3 0x461BCD PUSH1 0xE5 SHL DUP2 MSTORE PUSH1 0x20 PUSH1 0x4 DUP3 ADD MSTORE PUSH1 0x15 PUSH1 0x24 DUP3 ADD MSTORE PUSH21 0x125B9D985B1A59081C1C99591A58DD1A5BDB881251 PUSH1 0x5A SHL PUSH1 0x44 DUP3 ADD MSTORE PUSH1 0x64 SWAP1 REVERT JUMPDEST SWAP2 SWAP1 DUP3 ADD DUP1 SWAP3 GT PUSH2 0x1F85 JUMPI JUMP JUMPDEST DUP2 DUP2 MUL SWAP3 SWAP2 DUP2 ISZERO SWAP2 DUP5 DIV EQ OR ISZERO PUSH2 0x1F85 JUMPI JUMP JUMPDEST PUSH1 0x0 SWAP1 DUP1 DUP3 MSTORE PUSH1 0x20 DUP3 DUP2 MSTORE PUSH1 0x40 DUP1 DUP5 KECCAK256 SWAP4 PUSH1 0x1 SWAP5 DUP6 DUP5 MSTORE DUP3 DUP3 KECCAK256 CALLER DUP4 MSTORE DUP5 MSTORE DUP3 DUP3 KECCAK256 SWAP1 PUSH1 0xD DUP2 ADD DUP1 SLOAD SWAP2 PUSH1 0xFF DUP10 DUP2 DUP6 AND SUB PUSH2 0x21FC JUMPI DUP10 DUP6 ADD SLOAD SWAP4 DUP5 ISZERO PUSH2 0x21C8 JUMPI PUSH1 0x2 DUP7 ADD SWAP6 DUP7 SLOAD SWAP2 DUP4 DUP4 AND PUSH2 0x218B JUMPI DUP4 SWAP1 PUSH1 0x8 SHR AND SWAP1 DUP4 DUP14 DUP4 EQ SWAP3 DUP4 PUSH2 0x2180 JUMPI JUMPDEST DUP4 ISZERO PUSH2 0x215E JUMPI JUMPDEST POP POP POP ISZERO PUSH2 0x214A JUMPI POP PUSH1 0xA DUP3 ADD SLOAD SWAP3 PUSH1 0x64 PUSH2 0x2084 PUSH1 0x7 SLOAD DUP7 PUSH2 0x1FEC JUMP JUMPDEST DIV DUP5 SUB SWAP4 DUP5 GT PUSH2 0x2136 JUMPI PUSH2 0x20AD SWAP4 SWAP3 SWAP2 DUP12 SWAP2 SLOAD PUSH1 0x8 SHR AND EQ PUSH1 0x0 EQ PUSH2 0x212C JUMPI PUSH1 0xB ADD SLOAD SWAP3 PUSH2 0x1FEC JUMP JUMPDEST DUP2 ISZERO PUSH2 0x2118 JUMPI DIV SWAP6 PUSH1 0xFF NOT DUP3 SLOAD AND OR SWAP1 SSTORE DUP1 DUP1 DUP7 DUP1 ISZERO PUSH2 0x210E JUMPI JUMPDEST DUP3 DUP1 SWAP3 SWAP2 DUP2 SWAP3 CALLER SWAP1 CALL ISZERO PUSH2 0x2103 JUMPI POP SWAP1 PUSH32 0x24B5EFA61DD1CFC659205A97FB8ED868F3CB8C81922BAB2B96423E5DE1DE2CB7 SWAP2 MLOAD SWAP4 DUP5 MSTORE CALLER SWAP4 LOG3 JUMP JUMPDEST SWAP1 MLOAD SWAP1 RETURNDATASIZE SWAP1 DUP3 RETURNDATACOPY RETURNDATASIZE SWAP1 REVERT JUMPDEST PUSH2 0x8FC SWAP2 POP PUSH2 0x20C8 JUMP JUMPDEST PUSH4 0x4E487B71 PUSH1 0xE0 SHL DUP5 MSTORE PUSH1 0x12 PUSH1 0x4 MSTORE PUSH1 0x24 DUP5 REVERT JUMPDEST PUSH1 0xC ADD SLOAD SWAP3 PUSH2 0x1FEC JUMP JUMPDEST PUSH4 0x4E487B71 PUSH1 0xE0 SHL DUP8 MSTORE PUSH1 0x11 PUSH1 0x4 MSTORE PUSH1 0x24 DUP8 REVERT JUMPDEST PUSH1 0xFF NOT AND SWAP1 SWAP10 OR SWAP1 SWAP4 SSTORE POP POP POP POP POP POP POP POP JUMP JUMPDEST PUSH1 0x2 EQ SWAP3 POP SWAP1 DUP3 PUSH2 0x2174 JUMPI JUMPDEST POP POP CODESIZE DUP4 DUP2 PUSH2 0x2067 JUMP JUMPDEST SLOAD AND ISZERO SWAP1 POP DUP3 CODESIZE PUSH2 0x216A JUMP JUMPDEST DUP3 SLOAD DUP3 AND SWAP4 POP PUSH2 0x2060 JUMP JUMPDEST DUP10 MLOAD PUSH3 0x461BCD PUSH1 0xE5 SHL DUP2 MSTORE PUSH1 0x4 DUP2 ADD DUP13 SWAP1 MSTORE PUSH1 0x16 PUSH1 0x24 DUP3 ADD MSTORE PUSH22 0x14995DD85C9908185B1C9958591E4818DB185A5B5959 PUSH1 0x52 SHL PUSH1 0x44 DUP3 ADD MSTORE PUSH1 0x64 SWAP1 REVERT JUMPDEST DUP8 MLOAD PUSH3 0x461BCD PUSH1 0xE5 SHL DUP2 MSTORE PUSH1 0x4 DUP2 ADD DUP11 SWAP1 MSTORE PUSH1 0xD PUSH1 0x24 DUP3 ADD MSTORE PUSH13 0x139BC81D9BDD1948199BDD5B99 PUSH1 0x9A SHL PUSH1 0x44 DUP3 ADD MSTORE PUSH1 0x64 SWAP1 REVERT JUMPDEST DUP7 MLOAD PUSH3 0x461BCD PUSH1 0xE5 SHL DUP2 MSTORE PUSH1 0x4 DUP2 ADD DUP10 SWAP1 MSTORE PUSH1 0x1B PUSH1 0x24 DUP3 ADD MSTORE PUSH32 0x50726564696374696F6E206E6F74207265736F6C766564207965740000000000 PUSH1 0x44 DUP3 ADD MSTORE PUSH1 0x64 SWAP1 REVERT JUMPDEST ISZERO PUSH2 0x2247 JUMPI JUMP JUMPDEST PUSH1 0x40 MLOAD PUSH3 0x461BCD PUSH1 0xE5 SHL DUP2 MSTORE PUSH1 0x20 PUSH1 0x4 DUP3 ADD MSTORE PUSH1 0x21 PUSH1 0x24 DUP3 ADD MSTORE PUSH32 0x4F6E6C79206F776E65722063616E2063616C6C20746869732066756E6374696F PUSH1 0x44 DUP3 ADD MSTORE PUSH1 0x37 PUSH1 0xF9 SHL PUSH1 0x64 DUP3 ADD MSTORE PUSH1 0x84 SWAP1 REVERT INVALID LOG2 PUSH5 0x6970667358 0x22 SLT KECCAK256 PUSH3 0x81FDCB CREATE2 PUSH22 0x221A3F997156E56BB50612D3DE1547E693345140F634 0xD6 STOP PUSH26 0x6164736F6C634300081400330000000000000000000000000000 "},"methodIdentifiers":{"charityAddress()":"afcf2fc4","charityFeePercentage()":"e9e3e1ae","claimReward(uint256)":"ae169a50","createPrediction(string,string,uint256,uint256,uint8,string,string,bool)":"e8460ed9","getPrediction(uint256)":"fe83bece","getPredictionDetails(uint256)":"8f888338","getTotalFeePercentage()":"064367bb","getTotalPredictions()":"5c580061","getUserPredictions(address)":"c285f853","getUserStake(uint256,address)":"9626a230","getUserVote(uint256,address)":"03c7881a","maintenanceAddress()":"719d5f83","maintenanceFeePercentage()":"6896e930","nextPredictionId()":"d8d9292e","owner()":"8da5cb5b","predictions(uint256)":"004fbbb0","releaseSweatEquityFunds(uint256,address,uint256)":"fe678c21","resolvePrediction(uint256,bool)":"76f34501","setSweatEquityBot(address)":"b584d1b1","sweatEquityBot()":"a163bc9c","totalFeePercentage()":"1a478174","totalPredictions()":"779bd562","transferOwnership(address)":"f2fde38b","updateAddresses(address,address)":"c1d11037","updateFees(uint256,uint256)":"6db79437","userPredictions(address,uint256)":"f6c33179","userVotes(uint256,address)":"fe5b3e3b","vote(uint256,bool)":"c9d27afe"}}}}}