{"contracts/PredictionBot.sol":{"PredictionBot":{"abi":[{"inputs":[{"internalType":"address","name":"_predictionMarketContract","type":"address"},{"internalType":"uint256","name":"_proposalFee","type":"uint256"}],"stateMutability":"nonpayable","type":"constructor"},{"anonymous":false,"inputs":[{"indexed":true,"internalType":"address","name":"bot","type":"address"},{"indexed":false,"internalType":"bool","name":"authorized","type":"bool"}],"name":"BotAuthorized","type":"event"},{"anonymous":false,"inputs":[{"indexed":false,"internalType":"bool","name":"paused","type":"bool"}],"name":"ContractPaused","type":"event"},{"anonymous":false,"inputs":[{"indexed":false,"internalType":"uint256","name":"oldFee","type":"uint256"},{"indexed":false,"internalType":"uint256","name":"newFee","type":"uint256"}],"name":"FeeUpdated","type":"event"},{"anonymous":false,"inputs":[{"indexed":true,"internalType":"address","name":"recipient","type":"address"},{"indexed":false,"internalType":"uint256","name":"amount","type":"uint256"}],"name":"FeesWithdrawn","type":"event"},{"anonymous":false,"inputs":[{"indexed":true,"internalType":"uint256","name":"predictionId","type":"uint256"},{"indexed":true,"internalType":"address","name":"proposer","type":"address"},{"indexed":true,"internalType":"address","name":"bot","type":"address"},{"indexed":false,"internalType":"string","name":"title","type":"string"},{"indexed":false,"internalType":"uint256","name":"fee","type":"uint256"}],"name":"PredictionProposed","type":"event"},{"inputs":[],"name":"MAX_PROPOSALS_PER_HOUR","outputs":[{"internalType":"uint256","name":"","type":"uint256"}],"stateMutability":"view","type":"function"},{"inputs":[],"name":"RATE_LIMIT_WINDOW","outputs":[{"internalType":"uint256","name":"","type":"uint256"}],"stateMutability":"view","type":"function"},{"inputs":[{"internalType":"address[]","name":"bots","type":"address[]"},{"internalType":"bool","name":"authorized","type":"bool"}],"name":"authorizeBots","outputs":[],"stateMutability":"nonpayable","type":"function"},{"inputs":[{"internalType":"address","name":"","type":"address"}],"name":"authorizedBots","outputs":[{"internalType":"bool","name":"","type":"bool"}],"stateMutability":"view","type":"function"},{"inputs":[{"internalType":"address","name":"user","type":"address"}],"name":"canUserPropose","outputs":[{"internalType":"bool","name":"","type":"bool"}],"stateMutability":"view","type":"function"},{"inputs":[],"name":"emergencyWithdraw","outputs":[],"stateMutability":"nonpayable","type":"function"},{"inputs":[],"name":"feeRecipient","outputs":[{"internalType":"address","name":"","type":"address"}],"stateMutability":"view","type":"function"},{"inputs":[],"name":"getPredictionMarketContract","outputs":[{"internalType":"address","name":"","type":"address"}],"stateMutability":"view","type":"function"},{"inputs":[{"internalType":"address","name":"user","type":"address"}],"name":"getUserRateLimit","outputs":[{"internalType":"uint256","name":"lastProposal","type":"uint256"},{"internalType":"uint256","name":"proposalCount","type":"uint256"}],"stateMutability":"view","type":"function"},{"inputs":[],"name":"owner","outputs":[{"internalType":"address","name":"","type":"address"}],"stateMutability":"view","type":"function"},{"inputs":[],"name":"paused","outputs":[{"internalType":"bool","name":"","type":"bool"}],"stateMutability":"view","type":"function"},{"inputs":[],"name":"predictionMarketContract","outputs":[{"internalType":"address","name":"","type":"address"}],"stateMutability":"view","type":"function"},{"inputs":[],"name":"proposalFee","outputs":[{"internalType":"uint256","name":"","type":"uint256"}],"stateMutability":"view","type":"function"},{"inputs":[{"internalType":"string","name":"title","type":"string"},{"internalType":"string","name":"description","type":"string"},{"internalType":"uint256","name":"targetDate","type":"uint256"},{"internalType":"uint256","name":"targetValue","type":"uint256"},{"internalType":"uint8","name":"category","type":"uint8"},{"internalType":"string","name":"network","type":"string"},{"internalType":"string","name":"emoji","type":"string"},{"internalType":"bool","name":"autoResolvable","type":"bool"},{"internalType":"address","name":"proposer","type":"address"}],"name":"proposePrediction","outputs":[{"internalType":"uint256","name":"","type":"uint256"}],"stateMutability":"payable","type":"function"},{"inputs":[{"internalType":"string","name":"predictionText","type":"string"},{"internalType":"address","name":"proposer","type":"address"}],"name":"proposePredictionFromText","outputs":[{"internalType":"uint256","name":"","type":"uint256"}],"stateMutability":"payable","type":"function"},{"inputs":[{"internalType":"address","name":"_feeRecipient","type":"address"}],"name":"setFeeRecipient","outputs":[],"stateMutability":"nonpayable","type":"function"},{"inputs":[{"internalType":"bool","name":"_paused","type":"bool"}],"name":"setPaused","outputs":[],"stateMutability":"nonpayable","type":"function"},{"inputs":[{"internalType":"uint256","name":"_newFee","type":"uint256"}],"name":"setProposalFee","outputs":[],"stateMutability":"nonpayable","type":"function"},{"inputs":[],"name":"totalFeesCollected","outputs":[{"internalType":"uint256","name":"","type":"uint256"}],"stateMutability":"view","type":"function"},{"inputs":[{"internalType":"address","name":"newOwner","type":"address"}],"name":"transferOwnership","outputs":[],"stateMutability":"nonpayable","type":"function"},{"inputs":[{"internalType":"address","name":"","type":"address"}],"name":"userLastProposal","outputs":[{"internalType":"uint256","name":"","type":"uint256"}],"stateMutability":"view","type":"function"},{"inputs":[{"internalType":"address","name":"","type":"address"}],"name":"userProposalCount","outputs":[{"internalType":"uint256","name":"","type":"uint256"}],"stateMutability":"view","type":"function"},{"inputs":[],"name":"withdrawFees","outputs":[],"stateMutability":"nonpayable","type":"function"},{"stateMutability":"payable","type":"receive"}],"evm":{"bytecode":{"linkReferences":{},"object":"6080346100d457601f61132738819003918201601f19168301916001600160401b038311848410176100d95780849260409485528339810103126100d45780516001600160a01b03811691908290036100d4576020015160018060a01b03199133836000541617600055826001541617600155600255339060085416176008553360005260046020526040600020600160ff19825416179055604051600181527f438f823d8c0ec910876fb79a928b3358ee7fec21cbcc944d2ff93233aa4eb98760203392a260405161123790816100f08239f35b600080fd5b634e487b7160e01b600052604160045260246000fdfe6080604052600436101561001b575b361561001957600080fd5b005b60003560e01c806310bf506814610ec157806316c38b3c14610e525780631cc53d4e14610e1857806320b1928e14610dfc578063211603c614610dc25780632f56c23014610a055780633ba8396e146109c6578063469048401461099d578063476343ee146108a65780635c975abb1461088357806360c6d8ae146108655780637130dfc9146108485780638da5cb5b1461081f57806397d9c14b146107d8578063b15a9dd21461023a578063ba98422d1461068f578063c27cabb514610671578063c320c327146105ee578063c4c3ab4c146102eb578063db2e21bc14610263578063e4b95fb21461023a578063e74b981b146101a65763f2fde38b0361000e57346101a15760203660031901126101a157610136610f22565b600054906001600160a01b0390610150338385161461116b565b16908115610168576001600160a01b03191617600055005b60405162461bcd60e51b815260206004820152601160248201527024b73b30b634b2103732bb9037bbb732b960791b6044820152606490fd5b600080fd5b346101a15760203660031901126101a1576101bf610f22565b6000546001600160a01b0391906101d9908316331461116b565b1680156101fd576bffffffffffffffffffffffff60a01b6008541617600855600080f35b60405162461bcd60e51b8152602060048201526015602482015274125b9d985b1a5908199959481c9958da5c1a595b9d605a1b6044820152606490fd5b346101a15760003660031901126101a1576001546040516001600160a01b039091168152602090f35b346101a15760003660031901126101a157600080548190819081906001600160a01b031661029233821461116b565b47905af161029e6111d1565b50156102a657005b60405162461bcd60e51b815260206004820152601b60248201527f456d657267656e6379207769746864726177616c206661696c656400000000006044820152606490fd5b6003196040368201126101a15760043567ffffffffffffffff81116101a157610318903690600401610f76565b6001600160a01b0391906024803584811691908290036101a157336000526020946004865261034e60ff60406000205416610fbd565b61035d60ff6003541615611001565b8260005260058652604060002054610e10908181018091116105d95742108015906105c2575b61038c9061104f565b61039a600254341015611091565b84511561057e576103ac8415156110d0565b836000526005875260406000205490810180911161056957421061054b578260005260068652600160406000205560058652426040600020555b6103f234600754611042565b600755600154169062278d00420194854211610536579161044b91600060808995604051998a96879563e8460ed960e01b8752610100600488015261043b61010488018d61112b565b908488830301908801528b61112b565b9060448601528360648601526003608486015284810391820160a486015260048152636261736560e01b88820152603c820160c486015260046040820152606063784fd24b60e11b9101528260e485015201925af192831561052a576000936104fb575b50827f0b36096524ff4c46f49a5811e01ea4e716749be63253dca5c2ac9dd2e706c7cf6104e76040519460408652604086019061112b565b9334878201528033950390a4604051908152f35b9092508381813d8311610523575b6105138183610f38565b810103126101a1575191846104af565b503d610509565b6040513d6000823e3d90fd5b50634e487b7160e01b60009081526011600452fd5b82600052600686526040600020610562815461111c565b90556103e6565b82634e487b7160e01b60005260116004526000fd5b60405162461bcd60e51b815260048101889052601f818501527f50726564696374696f6e20746578742063616e6e6f7420626520656d707479006044820152606490fd5b506000848152600688526040902054600511610383565b83634e487b7160e01b60005260116004526000fd5b346101a15760203660031901126101a1576001600160a01b0361060f610f22565b16806000526005602052604060002054610e10810180911161065b574210801590610642575b6020906040519015158152f35b5060005260066020526020600560406000205410610635565b634e487b7160e01b600052601160045260246000fd5b346101a15760003660031901126101a1576020600254604051908152f35b346101a15760403660031901126101a15760043567ffffffffffffffff8082116101a157366023830112156101a15781600401359081116107c2578060051b91604051926020926106e284830186610f38565b8452602483850191830101913683116101a157602401905b8282106107a3575050506024358015158091036101a1576000546001600160a01b03929061072b908416331461116b565b60ff82169060005b855181101561001957808561074b61079e93896111a7565b51166000526004835260406000208460ff198254161790558561076e82896111a7565b51167f438f823d8c0ec910876fb79a928b3358ee7fec21cbcc944d2ff93233aa4eb98784604051888152a261111c565b610733565b81356001600160a01b03811681036101a15781529083019083016106fa565b634e487b7160e01b600052604160045260246000fd5b346101a15760203660031901126101a1576001600160a01b036107f9610f22565b166000526005602052604080600020546006602052816000205482519182526020820152f35b346101a15760003660031901126101a1576000546040516001600160a01b039091168152602090f35b346101a15760003660031901126101a1576020604051610e108152f35b346101a15760003660031901126101a1576020600754604051908152f35b346101a15760003660031901126101a157602060ff600354166040519015158152f35b346101a15760003660031901126101a1576000546001600160a01b03906108d0908216331461116b565b479081156109625760008080808585600854165af16108ed6111d1565b50156109255760207fc0819c13be868895eb93e40eaceb96de976442fa1d404e5c55f14bb65a8c489a916008541692604051908152a2005b60405162461bcd60e51b8152602060048201526015602482015274119959481dda5d1a191c985dd85b0819985a5b1959605a1b6044820152606490fd5b60405162461bcd60e51b81526020600482015260136024820152724e6f206665657320746f20776974686472617760681b6044820152606490fd5b346101a15760003660031901126101a1576008546040516001600160a01b039091168152602090f35b346101a15760203660031901126101a1576001600160a01b036109e7610f22565b166000526004602052602060ff604060002054166040519015158152f35b6101203660031901126101a15767ffffffffffffffff6004358181116101a157610a33903690600401610f76565b6024358281116101a157610a4b903690600401610f76565b60843560ff811681036101a15760a4358481116101a157610a70903690600401610f76565b9360c4359081116101a157610a89903690600401610f76565b9060e4359283151584036101a15761010435936001600160a01b03851685036101a157336000526004602052610ac660ff60406000205416610fbd565b610ad560ff6003541615611001565b6001600160a01b038516600090815260056020526040902054610e108101811161065b57610e10014210801590610da0575b610b109061104f565b610b1e600254341015611091565b426044351115610d5157855115610d1457610b436001600160a01b03861615156110d0565b6001600160a01b038516600090815260056020526040902054610e108101811161065b57610e10014210610cea5760018060a01b038516600052600660205260016040600020556005602052426040600020555b3460075490610ba591611042565b60075560015460405163e8460ed960e01b81526101006004820152976001600160a01b039091169488948594919291610be261010487018b61112b565b868103600319016024880152610bf79161112b565b906044356044870152606435606487015260ff1660848601526003198582030160a4860152610c259161112b565b8381036003190160c4850152610c3a9161112b565b90151560e483015203815a602094600091f191821561052a57600092610cb5575b60209350827f0b36096524ff4c46f49a5811e01ea4e716749be63253dca5c2ac9dd2e706c7cf610c966040519360408552604085019061112b565b348785015233946001600160a01b0316939081900390a4604051908152f35b91506020833d602011610ce2575b81610cd060209383610f38565b810103126101a1576020925191610c5b565b3d9150610cc3565b6001600160a01b03851660009081526006602052604090208054610d0d9061111c565b9055610b97565b60405162461bcd60e51b81526020600482015260156024820152745469746c652063616e6e6f7420626520656d70747960581b6044820152606490fd5b60405162461bcd60e51b815260206004820152602160248201527f5461726765742064617465206d75737420626520696e207468652066757475726044820152606560f81b6064820152608490fd5b506001600160a01b038516600090815260066020526040902054600511610b07565b346101a15760203660031901126101a1576001600160a01b03610de3610f22565b1660005260066020526020604060002054604051908152f35b346101a15760003660031901126101a157602060405160058152f35b346101a15760203660031901126101a1576001600160a01b03610e39610f22565b1660005260056020526020604060002054604051908152f35b346101a15760203660031901126101a1576004358015158091036101a15760207f752d7e161ff5146f80e3820893176eb40532811e5e20400dfdde57455213706a91610ea960018060a01b0360005416331461116b565b60ff196003541660ff821617600355604051908152a1005b346101a15760203660031901126101a1577f528d9479e9f9889a87a3c30c7f7ba537e5e59c4c85a37733b16e57c62df613026040600435610f0d60018060a01b0360005416331461116b565b600254908060025582519182526020820152a1005b600435906001600160a01b03821682036101a157565b90601f8019910116810190811067ffffffffffffffff8211176107c257604052565b67ffffffffffffffff81116107c257601f01601f191660200190565b81601f820112156101a157803590610f8d82610f5a565b92610f9b6040519485610f38565b828452602083830101116101a157816000926020809301838601378301015290565b15610fc457565b60405162461bcd60e51b8152602060048201526015602482015274139bdd08185b88185d5d1a1bdc9a5e995908189bdd605a1b6044820152606490fd5b1561100857565b60405162461bcd60e51b815260206004820152601260248201527110dbdb9d1c9858dd081a5cc81c185d5cd95960721b6044820152606490fd5b9190820180921161065b57565b1561105657565b60405162461bcd60e51b815260206004820152601360248201527214985d19481b1a5b5a5d08195e18d959591959606a1b6044820152606490fd5b1561109857565b60405162461bcd60e51b815260206004820152601060248201526f496e73756666696369656e742066656560801b6044820152606490fd5b156110d757565b60405162461bcd60e51b815260206004820152601860248201527f496e76616c69642070726f706f736572206164647265737300000000000000006044820152606490fd5b600019811461065b5760010190565b919082519283825260005b848110611157575050826000602080949584010152601f8019910116010190565b602081830181015184830182015201611136565b1561117257565b60405162461bcd60e51b815260206004820152600d60248201526c2737ba103a34329037bbb732b960991b6044820152606490fd5b80518210156111bb5760209160051b010190565b634e487b7160e01b600052603260045260246000fd5b3d156111fc573d906111e282610f5a565b916111f06040519384610f38565b82523d6000602084013e565b60609056fea26469706673582212200dcdb565897f48c3412d6e9abe9a0440c2a8f28b6e6b30a66b69f08b71bd40ea64736f6c63430008140033","opcodes":"PUSH1 0x80 CALLVALUE PUSH2 0xD4 JUMPI PUSH1 0x1F PUSH2 0x1327 CODESIZE DUP2 SWAP1 SUB SWAP2 DUP3 ADD PUSH1 0x1F NOT AND DUP4 ADD SWAP2 PUSH1 0x1 PUSH1 0x1 PUSH1 0x40 SHL SUB DUP4 GT DUP5 DUP5 LT OR PUSH2 0xD9 JUMPI DUP1 DUP5 SWAP3 PUSH1 0x40 SWAP5 DUP6 MSTORE DUP4 CODECOPY DUP2 ADD SUB SLT PUSH2 0xD4 JUMPI DUP1 MLOAD PUSH1 0x1 PUSH1 0x1 PUSH1 0xA0 SHL SUB DUP2 AND SWAP2 SWAP1 DUP3 SWAP1 SUB PUSH2 0xD4 JUMPI PUSH1 0x20 ADD MLOAD PUSH1 0x1 DUP1 PUSH1 0xA0 SHL SUB NOT SWAP2 CALLER DUP4 PUSH1 0x0 SLOAD AND OR PUSH1 0x0 SSTORE DUP3 PUSH1 0x1 SLOAD AND OR PUSH1 0x1 SSTORE PUSH1 0x2 SSTORE CALLER SWAP1 PUSH1 0x8 SLOAD AND OR PUSH1 0x8 SSTORE CALLER PUSH1 0x0 MSTORE PUSH1 0x4 PUSH1 0x20 MSTORE PUSH1 0x40 PUSH1 0x0 KECCAK256 PUSH1 0x1 PUSH1 0xFF NOT DUP3 SLOAD AND OR SWAP1 SSTORE PUSH1 0x40 MLOAD PUSH1 0x1 DUP2 MSTORE PUSH32 0x438F823D8C0EC910876FB79A928B3358EE7FEC21CBCC944D2FF93233AA4EB987 PUSH1 0x20 CALLER SWAP3 LOG2 PUSH1 0x40 MLOAD PUSH2 0x1237 SWAP1 DUP2 PUSH2 0xF0 DUP3 CODECOPY RETURN JUMPDEST PUSH1 0x0 DUP1 REVERT JUMPDEST PUSH4 0x4E487B71 PUSH1 0xE0 SHL PUSH1 0x0 MSTORE PUSH1 0x41 PUSH1 0x4 MSTORE PUSH1 0x24 PUSH1 0x0 REVERT INVALID PUSH1 0x80 PUSH1 0x40 MSTORE PUSH1 0x4 CALLDATASIZE LT ISZERO PUSH2 0x1B JUMPI JUMPDEST CALLDATASIZE ISZERO PUSH2 0x19 JUMPI PUSH1 0x0 DUP1 REVERT JUMPDEST STOP JUMPDEST PUSH1 0x0 CALLDATALOAD PUSH1 0xE0 SHR DUP1 PUSH4 0x10BF5068 EQ PUSH2 0xEC1 JUMPI DUP1 PUSH4 0x16C38B3C EQ PUSH2 0xE52 JUMPI DUP1 PUSH4 0x1CC53D4E EQ PUSH2 0xE18 JUMPI DUP1 PUSH4 0x20B1928E EQ PUSH2 0xDFC JUMPI DUP1 PUSH4 0x211603C6 EQ PUSH2 0xDC2 JUMPI DUP1 PUSH4 0x2F56C230 EQ PUSH2 0xA05 JUMPI DUP1 PUSH4 0x3BA8396E EQ PUSH2 0x9C6 JUMPI DUP1 PUSH4 0x46904840 EQ PUSH2 0x99D JUMPI DUP1 PUSH4 0x476343EE EQ PUSH2 0x8A6 JUMPI DUP1 PUSH4 0x5C975ABB EQ PUSH2 0x883 JUMPI DUP1 PUSH4 0x60C6D8AE EQ PUSH2 0x865 JUMPI DUP1 PUSH4 0x7130DFC9 EQ PUSH2 0x848 JUMPI DUP1 PUSH4 0x8DA5CB5B EQ PUSH2 0x81F JUMPI DUP1 PUSH4 0x97D9C14B EQ PUSH2 0x7D8 JUMPI DUP1 PUSH4 0xB15A9DD2 EQ PUSH2 0x23A JUMPI DUP1 PUSH4 0xBA98422D EQ PUSH2 0x68F JUMPI DUP1 PUSH4 0xC27CABB5 EQ PUSH2 0x671 JUMPI DUP1 PUSH4 0xC320C327 EQ PUSH2 0x5EE JUMPI DUP1 PUSH4 0xC4C3AB4C EQ PUSH2 0x2EB JUMPI DUP1 PUSH4 0xDB2E21BC EQ PUSH2 0x263 JUMPI DUP1 PUSH4 0xE4B95FB2 EQ PUSH2 0x23A JUMPI DUP1 PUSH4 0xE74B981B EQ PUSH2 0x1A6 JUMPI PUSH4 0xF2FDE38B SUB PUSH2 0xE JUMPI CALLVALUE PUSH2 0x1A1 JUMPI PUSH1 0x20 CALLDATASIZE PUSH1 0x3 NOT ADD SLT PUSH2 0x1A1 JUMPI PUSH2 0x136 PUSH2 0xF22 JUMP JUMPDEST PUSH1 0x0 SLOAD SWAP1 PUSH1 0x1 PUSH1 0x1 PUSH1 0xA0 SHL SUB SWAP1 PUSH2 0x150 CALLER DUP4 DUP6 AND EQ PUSH2 0x116B JUMP JUMPDEST AND SWAP1 DUP2 ISZERO PUSH2 0x168 JUMPI PUSH1 0x1 PUSH1 0x1 PUSH1 0xA0 SHL SUB NOT AND OR PUSH1 0x0 SSTORE STOP JUMPDEST PUSH1 0x40 MLOAD PUSH3 0x461BCD PUSH1 0xE5 SHL DUP2 MSTORE PUSH1 0x20 PUSH1 0x4 DUP3 ADD MSTORE PUSH1 0x11 PUSH1 0x24 DUP3 ADD MSTORE PUSH17 0x24B73B30B634B2103732BB9037BBB732B9 PUSH1 0x79 SHL PUSH1 0x44 DUP3 ADD MSTORE PUSH1 0x64 SWAP1 REVERT JUMPDEST PUSH1 0x0 DUP1 REVERT JUMPDEST CALLVALUE PUSH2 0x1A1 JUMPI PUSH1 0x20 CALLDATASIZE PUSH1 0x3 NOT ADD SLT PUSH2 0x1A1 JUMPI PUSH2 0x1BF PUSH2 0xF22 JUMP JUMPDEST PUSH1 0x0 SLOAD PUSH1 0x1 PUSH1 0x1 PUSH1 0xA0 SHL SUB SWAP2 SWAP1 PUSH2 0x1D9 SWAP1 DUP4 AND CALLER EQ PUSH2 0x116B JUMP JUMPDEST AND DUP1 ISZERO PUSH2 0x1FD JUMPI PUSH12 0xFFFFFFFFFFFFFFFFFFFFFFFF PUSH1 0xA0 SHL PUSH1 0x8 SLOAD AND OR PUSH1 0x8 SSTORE PUSH1 0x0 DUP1 RETURN JUMPDEST PUSH1 0x40 MLOAD PUSH3 0x461BCD PUSH1 0xE5 SHL DUP2 MSTORE PUSH1 0x20 PUSH1 0x4 DUP3 ADD MSTORE PUSH1 0x15 PUSH1 0x24 DUP3 ADD MSTORE PUSH21 0x125B9D985B1A5908199959481C9958DA5C1A595B9D PUSH1 0x5A SHL PUSH1 0x44 DUP3 ADD MSTORE PUSH1 0x64 SWAP1 REVERT JUMPDEST CALLVALUE PUSH2 0x1A1 JUMPI PUSH1 0x0 CALLDATASIZE PUSH1 0x3 NOT ADD SLT PUSH2 0x1A1 JUMPI PUSH1 0x1 SLOAD PUSH1 0x40 MLOAD PUSH1 0x1 PUSH1 0x1 PUSH1 0xA0 SHL SUB SWAP1 SWAP2 AND DUP2 MSTORE PUSH1 0x20 SWAP1 RETURN JUMPDEST CALLVALUE PUSH2 0x1A1 JUMPI PUSH1 0x0 CALLDATASIZE PUSH1 0x3 NOT ADD SLT PUSH2 0x1A1 JUMPI PUSH1 0x0 DUP1 SLOAD DUP2 SWAP1 DUP2 SWAP1 DUP2 SWAP1 PUSH1 0x1 PUSH1 0x1 PUSH1 0xA0 SHL SUB AND PUSH2 0x292 CALLER DUP3 EQ PUSH2 0x116B JUMP JUMPDEST SELFBALANCE SWAP1 GAS CALL PUSH2 0x29E PUSH2 0x11D1 JUMP JUMPDEST POP ISZERO PUSH2 0x2A6 JUMPI STOP JUMPDEST PUSH1 0x40 MLOAD PUSH3 0x461BCD PUSH1 0xE5 SHL DUP2 MSTORE PUSH1 0x20 PUSH1 0x4 DUP3 ADD MSTORE PUSH1 0x1B PUSH1 0x24 DUP3 ADD MSTORE PUSH32 0x456D657267656E6379207769746864726177616C206661696C65640000000000 PUSH1 0x44 DUP3 ADD MSTORE PUSH1 0x64 SWAP1 REVERT JUMPDEST PUSH1 0x3 NOT PUSH1 0x40 CALLDATASIZE DUP3 ADD SLT PUSH2 0x1A1 JUMPI PUSH1 0x4 CALLDATALOAD PUSH8 0xFFFFFFFFFFFFFFFF DUP2 GT PUSH2 0x1A1 JUMPI PUSH2 0x318 SWAP1 CALLDATASIZE SWAP1 PUSH1 0x4 ADD PUSH2 0xF76 JUMP JUMPDEST PUSH1 0x1 PUSH1 0x1 PUSH1 0xA0 SHL SUB SWAP2 SWAP1 PUSH1 0x24 DUP1 CALLDATALOAD DUP5 DUP2 AND SWAP2 SWAP1 DUP3 SWAP1 SUB PUSH2 0x1A1 JUMPI CALLER PUSH1 0x0 MSTORE PUSH1 0x20 SWAP5 PUSH1 0x4 DUP7 MSTORE PUSH2 0x34E PUSH1 0xFF PUSH1 0x40 PUSH1 0x0 KECCAK256 SLOAD AND PUSH2 0xFBD JUMP JUMPDEST PUSH2 0x35D PUSH1 0xFF PUSH1 0x3 SLOAD AND ISZERO PUSH2 0x1001 JUMP JUMPDEST DUP3 PUSH1 0x0 MSTORE PUSH1 0x5 DUP7 MSTORE PUSH1 0x40 PUSH1 0x0 KECCAK256 SLOAD PUSH2 0xE10 SWAP1 DUP2 DUP2 ADD DUP1 SWAP2 GT PUSH2 0x5D9 JUMPI TIMESTAMP LT DUP1 ISZERO SWAP1 PUSH2 0x5C2 JUMPI JUMPDEST PUSH2 0x38C SWAP1 PUSH2 0x104F JUMP JUMPDEST PUSH2 0x39A PUSH1 0x2 SLOAD CALLVALUE LT ISZERO PUSH2 0x1091 JUMP JUMPDEST DUP5 MLOAD ISZERO PUSH2 0x57E JUMPI PUSH2 0x3AC DUP5 ISZERO ISZERO PUSH2 0x10D0 JUMP JUMPDEST DUP4 PUSH1 0x0 MSTORE PUSH1 0x5 DUP8 MSTORE PUSH1 0x40 PUSH1 0x0 KECCAK256 SLOAD SWAP1 DUP2 ADD DUP1 SWAP2 GT PUSH2 0x569 JUMPI TIMESTAMP LT PUSH2 0x54B JUMPI DUP3 PUSH1 0x0 MSTORE PUSH1 0x6 DUP7 MSTORE PUSH1 0x1 PUSH1 0x40 PUSH1 0x0 KECCAK256 SSTORE PUSH1 0x5 DUP7 MSTORE TIMESTAMP PUSH1 0x40 PUSH1 0x0 KECCAK256 SSTORE JUMPDEST PUSH2 0x3F2 CALLVALUE PUSH1 0x7 SLOAD PUSH2 0x1042 JUMP JUMPDEST PUSH1 0x7 SSTORE PUSH1 0x1 SLOAD AND SWAP1 PUSH3 0x278D00 TIMESTAMP ADD SWAP5 DUP6 TIMESTAMP GT PUSH2 0x536 JUMPI SWAP2 PUSH2 0x44B SWAP2 PUSH1 0x0 PUSH1 0x80 DUP10 SWAP6 PUSH1 0x40 MLOAD SWAP10 DUP11 SWAP7 DUP8 SWAP6 PUSH4 0xE8460ED9 PUSH1 0xE0 SHL DUP8 MSTORE PUSH2 0x100 PUSH1 0x4 DUP9 ADD MSTORE PUSH2 0x43B PUSH2 0x104 DUP9 ADD DUP14 PUSH2 0x112B JUMP JUMPDEST SWAP1 DUP5 DUP9 DUP4 SUB ADD SWAP1 DUP9 ADD MSTORE DUP12 PUSH2 0x112B JUMP JUMPDEST SWAP1 PUSH1 0x44 DUP7 ADD MSTORE DUP4 PUSH1 0x64 DUP7 ADD MSTORE PUSH1 0x3 PUSH1 0x84 DUP7 ADD MSTORE DUP5 DUP2 SUB SWAP2 DUP3 ADD PUSH1 0xA4 DUP7 ADD MSTORE PUSH1 0x4 DUP2 MSTORE PUSH4 0x62617365 PUSH1 0xE0 SHL DUP9 DUP3 ADD MSTORE PUSH1 0x3C DUP3 ADD PUSH1 0xC4 DUP7 ADD MSTORE PUSH1 0x4 PUSH1 0x40 DUP3 ADD MSTORE PUSH1 0x60 PUSH4 0x784FD24B PUSH1 0xE1 SHL SWAP2 ADD MSTORE DUP3 PUSH1 0xE4 DUP6 ADD MSTORE ADD SWAP3 GAS CALL SWAP3 DUP4 ISZERO PUSH2 0x52A JUMPI PUSH1 0x0 SWAP4 PUSH2 0x4FB JUMPI JUMPDEST POP DUP3 PUSH32 0xB36096524FF4C46F49A5811E01EA4E716749BE63253DCA5C2AC9DD2E706C7CF PUSH2 0x4E7 PUSH1 0x40 MLOAD SWAP5 PUSH1 0x40 DUP7 MSTORE PUSH1 0x40 DUP7 ADD SWAP1 PUSH2 0x112B JUMP JUMPDEST SWAP4 CALLVALUE DUP8 DUP3 ADD MSTORE DUP1 CALLER SWAP6 SUB SWAP1 LOG4 PUSH1 0x40 MLOAD SWAP1 DUP2 MSTORE RETURN JUMPDEST SWAP1 SWAP3 POP DUP4 DUP2 DUP2 RETURNDATASIZE DUP4 GT PUSH2 0x523 JUMPI JUMPDEST PUSH2 0x513 DUP2 DUP4 PUSH2 0xF38 JUMP JUMPDEST DUP2 ADD SUB SLT PUSH2 0x1A1 JUMPI MLOAD SWAP2 DUP5 PUSH2 0x4AF JUMP JUMPDEST POP RETURNDATASIZE PUSH2 0x509 JUMP JUMPDEST PUSH1 0x40 MLOAD RETURNDATASIZE PUSH1 0x0 DUP3 RETURNDATACOPY RETURNDATASIZE SWAP1 REVERT JUMPDEST POP PUSH4 0x4E487B71 PUSH1 0xE0 SHL PUSH1 0x0 SWAP1 DUP2 MSTORE PUSH1 0x11 PUSH1 0x4 MSTORE REVERT JUMPDEST DUP3 PUSH1 0x0 MSTORE PUSH1 0x6 DUP7 MSTORE PUSH1 0x40 PUSH1 0x0 KECCAK256 PUSH2 0x562 DUP2 SLOAD PUSH2 0x111C JUMP JUMPDEST SWAP1 SSTORE PUSH2 0x3E6 JUMP JUMPDEST DUP3 PUSH4 0x4E487B71 PUSH1 0xE0 SHL PUSH1 0x0 MSTORE PUSH1 0x11 PUSH1 0x4 MSTORE PUSH1 0x0 REVERT JUMPDEST PUSH1 0x40 MLOAD PUSH3 0x461BCD PUSH1 0xE5 SHL DUP2 MSTORE PUSH1 0x4 DUP2 ADD DUP9 SWAP1 MSTORE PUSH1 0x1F DUP2 DUP6 ADD MSTORE PUSH32 0x50726564696374696F6E20746578742063616E6E6F7420626520656D70747900 PUSH1 0x44 DUP3 ADD MSTORE PUSH1 0x64 SWAP1 REVERT JUMPDEST POP PUSH1 0x0 DUP5 DUP2 MSTORE PUSH1 0x6 DUP9 MSTORE PUSH1 0x40 SWAP1 KECCAK256 SLOAD PUSH1 0x5 GT PUSH2 0x383 JUMP JUMPDEST DUP4 PUSH4 0x4E487B71 PUSH1 0xE0 SHL PUSH1 0x0 MSTORE PUSH1 0x11 PUSH1 0x4 MSTORE PUSH1 0x0 REVERT JUMPDEST CALLVALUE PUSH2 0x1A1 JUMPI PUSH1 0x20 CALLDATASIZE PUSH1 0x3 NOT ADD SLT PUSH2 0x1A1 JUMPI PUSH1 0x1 PUSH1 0x1 PUSH1 0xA0 SHL SUB PUSH2 0x60F PUSH2 0xF22 JUMP JUMPDEST AND DUP1 PUSH1 0x0 MSTORE PUSH1 0x5 PUSH1 0x20 MSTORE PUSH1 0x40 PUSH1 0x0 KECCAK256 SLOAD PUSH2 0xE10 DUP2 ADD DUP1 SWAP2 GT PUSH2 0x65B JUMPI TIMESTAMP LT DUP1 ISZERO SWAP1 PUSH2 0x642 JUMPI JUMPDEST PUSH1 0x20 SWAP1 PUSH1 0x40 MLOAD SWAP1 ISZERO ISZERO DUP2 MSTORE RETURN JUMPDEST POP PUSH1 0x0 MSTORE PUSH1 0x6 PUSH1 0x20 MSTORE PUSH1 0x20 PUSH1 0x5 PUSH1 0x40 PUSH1 0x0 KECCAK256 SLOAD LT PUSH2 0x635 JUMP JUMPDEST PUSH4 0x4E487B71 PUSH1 0xE0 SHL PUSH1 0x0 MSTORE PUSH1 0x11 PUSH1 0x4 MSTORE PUSH1 0x24 PUSH1 0x0 REVERT JUMPDEST CALLVALUE PUSH2 0x1A1 JUMPI PUSH1 0x0 CALLDATASIZE PUSH1 0x3 NOT ADD SLT PUSH2 0x1A1 JUMPI PUSH1 0x20 PUSH1 0x2 SLOAD PUSH1 0x40 MLOAD SWAP1 DUP2 MSTORE RETURN JUMPDEST CALLVALUE PUSH2 0x1A1 JUMPI PUSH1 0x40 CALLDATASIZE PUSH1 0x3 NOT ADD SLT PUSH2 0x1A1 JUMPI PUSH1 0x4 CALLDATALOAD PUSH8 0xFFFFFFFFFFFFFFFF DUP1 DUP3 GT PUSH2 0x1A1 JUMPI CALLDATASIZE PUSH1 0x23 DUP4 ADD SLT ISZERO PUSH2 0x1A1 JUMPI DUP2 PUSH1 0x4 ADD CALLDATALOAD SWAP1 DUP2 GT PUSH2 0x7C2 JUMPI DUP1 PUSH1 0x5 SHL SWAP2 PUSH1 0x40 MLOAD SWAP3 PUSH1 0x20 SWAP3 PUSH2 0x6E2 DUP5 DUP4 ADD DUP7 PUSH2 0xF38 JUMP JUMPDEST DUP5 MSTORE PUSH1 0x24 DUP4 DUP6 ADD SWAP2 DUP4 ADD ADD SWAP2 CALLDATASIZE DUP4 GT PUSH2 0x1A1 JUMPI PUSH1 0x24 ADD SWAP1 JUMPDEST DUP3 DUP3 LT PUSH2 0x7A3 JUMPI POP POP POP PUSH1 0x24 CALLDATALOAD DUP1 ISZERO ISZERO DUP1 SWAP2 SUB PUSH2 0x1A1 JUMPI PUSH1 0x0 SLOAD PUSH1 0x1 PUSH1 0x1 PUSH1 0xA0 SHL SUB SWAP3 SWAP1 PUSH2 0x72B SWAP1 DUP5 AND CALLER EQ PUSH2 0x116B JUMP JUMPDEST PUSH1 0xFF DUP3 AND SWAP1 PUSH1 0x0 JUMPDEST DUP6 MLOAD DUP2 LT ISZERO PUSH2 0x19 JUMPI DUP1 DUP6 PUSH2 0x74B PUSH2 0x79E SWAP4 DUP10 PUSH2 0x11A7 JUMP JUMPDEST MLOAD AND PUSH1 0x0 MSTORE PUSH1 0x4 DUP4 MSTORE PUSH1 0x40 PUSH1 0x0 KECCAK256 DUP5 PUSH1 0xFF NOT DUP3 SLOAD AND OR SWAP1 SSTORE DUP6 PUSH2 0x76E DUP3 DUP10 PUSH2 0x11A7 JUMP JUMPDEST MLOAD AND PUSH32 0x438F823D8C0EC910876FB79A928B3358EE7FEC21CBCC944D2FF93233AA4EB987 DUP5 PUSH1 0x40 MLOAD DUP9 DUP2 MSTORE LOG2 PUSH2 0x111C JUMP JUMPDEST PUSH2 0x733 JUMP JUMPDEST DUP2 CALLDATALOAD PUSH1 0x1 PUSH1 0x1 PUSH1 0xA0 SHL SUB DUP2 AND DUP2 SUB PUSH2 0x1A1 JUMPI DUP2 MSTORE SWAP1 DUP4 ADD SWAP1 DUP4 ADD PUSH2 0x6FA JUMP JUMPDEST PUSH4 0x4E487B71 PUSH1 0xE0 SHL PUSH1 0x0 MSTORE PUSH1 0x41 PUSH1 0x4 MSTORE PUSH1 0x24 PUSH1 0x0 REVERT JUMPDEST CALLVALUE PUSH2 0x1A1 JUMPI PUSH1 0x20 CALLDATASIZE PUSH1 0x3 NOT ADD SLT PUSH2 0x1A1 JUMPI PUSH1 0x1 PUSH1 0x1 PUSH1 0xA0 SHL SUB PUSH2 0x7F9 PUSH2 0xF22 JUMP JUMPDEST AND PUSH1 0x0 MSTORE PUSH1 0x5 PUSH1 0x20 MSTORE PUSH1 0x40 DUP1 PUSH1 0x0 KECCAK256 SLOAD PUSH1 0x6 PUSH1 0x20 MSTORE DUP2 PUSH1 0x0 KECCAK256 SLOAD DUP3 MLOAD SWAP2 DUP3 MSTORE PUSH1 0x20 DUP3 ADD MSTORE RETURN JUMPDEST CALLVALUE PUSH2 0x1A1 JUMPI PUSH1 0x0 CALLDATASIZE PUSH1 0x3 NOT ADD SLT PUSH2 0x1A1 JUMPI PUSH1 0x0 SLOAD PUSH1 0x40 MLOAD PUSH1 0x1 PUSH1 0x1 PUSH1 0xA0 SHL SUB SWAP1 SWAP2 AND DUP2 MSTORE PUSH1 0x20 SWAP1 RETURN JUMPDEST CALLVALUE PUSH2 0x1A1 JUMPI PUSH1 0x0 CALLDATASIZE PUSH1 0x3 NOT ADD SLT PUSH2 0x1A1 JUMPI PUSH1 0x20 PUSH1 0x40 MLOAD PUSH2 0xE10 DUP2 MSTORE RETURN JUMPDEST CALLVALUE PUSH2 0x1A1 JUMPI PUSH1 0x0 CALLDATASIZE PUSH1 0x3 NOT ADD SLT PUSH2 0x1A1 JUMPI PUSH1 0x20 PUSH1 0x7 SLOAD PUSH1 0x40 MLOAD SWAP1 DUP2 MSTORE RETURN JUMPDEST CALLVALUE PUSH2 0x1A1 JUMPI PUSH1 0x0 CALLDATASIZE PUSH1 0x3 NOT ADD SLT PUSH2 0x1A1 JUMPI PUSH1 0x20 PUSH1 0xFF PUSH1 0x3 SLOAD AND PUSH1 0x40 MLOAD SWAP1 ISZERO ISZERO DUP2 MSTORE RETURN JUMPDEST CALLVALUE PUSH2 0x1A1 JUMPI PUSH1 0x0 CALLDATASIZE PUSH1 0x3 NOT ADD SLT PUSH2 0x1A1 JUMPI PUSH1 0x0 SLOAD PUSH1 0x1 PUSH1 0x1 PUSH1 0xA0 SHL SUB SWAP1 PUSH2 0x8D0 SWAP1 DUP3 AND CALLER EQ PUSH2 0x116B JUMP JUMPDEST SELFBALANCE SWAP1 DUP2 ISZERO PUSH2 0x962 JUMPI PUSH1 0x0 DUP1 DUP1 DUP1 DUP6 DUP6 PUSH1 0x8 SLOAD AND GAS CALL PUSH2 0x8ED PUSH2 0x11D1 JUMP JUMPDEST POP ISZERO PUSH2 0x925 JUMPI PUSH1 0x20 PUSH32 0xC0819C13BE868895EB93E40EACEB96DE976442FA1D404E5C55F14BB65A8C489A SWAP2 PUSH1 0x8 SLOAD AND SWAP3 PUSH1 0x40 MLOAD SWAP1 DUP2 MSTORE LOG2 STOP JUMPDEST PUSH1 0x40 MLOAD PUSH3 0x461BCD PUSH1 0xE5 SHL DUP2 MSTORE PUSH1 0x20 PUSH1 0x4 DUP3 ADD MSTORE PUSH1 0x15 PUSH1 0x24 DUP3 ADD MSTORE PUSH21 0x119959481DDA5D1A191C985DD85B0819985A5B1959 PUSH1 0x5A SHL PUSH1 0x44 DUP3 ADD MSTORE PUSH1 0x64 SWAP1 REVERT JUMPDEST PUSH1 0x40 MLOAD PUSH3 0x461BCD PUSH1 0xE5 SHL DUP2 MSTORE PUSH1 0x20 PUSH1 0x4 DUP3 ADD MSTORE PUSH1 0x13 PUSH1 0x24 DUP3 ADD MSTORE PUSH19 0x4E6F206665657320746F207769746864726177 PUSH1 0x68 SHL PUSH1 0x44 DUP3 ADD MSTORE PUSH1 0x64 SWAP1 REVERT JUMPDEST CALLVALUE PUSH2 0x1A1 JUMPI PUSH1 0x0 CALLDATASIZE PUSH1 0x3 NOT ADD SLT PUSH2 0x1A1 JUMPI PUSH1 0x8 SLOAD PUSH1 0x40 MLOAD PUSH1 0x1 PUSH1 0x1 PUSH1 0xA0 SHL SUB SWAP1 SWAP2 AND DUP2 MSTORE PUSH1 0x20 SWAP1 RETURN JUMPDEST CALLVALUE PUSH2 0x1A1 JUMPI PUSH1 0x20 CALLDATASIZE PUSH1 0x3 NOT ADD SLT PUSH2 0x1A1 JUMPI PUSH1 0x1 PUSH1 0x1 PUSH1 0xA0 SHL SUB PUSH2 0x9E7 PUSH2 0xF22 JUMP JUMPDEST AND PUSH1 0x0 MSTORE PUSH1 0x4 PUSH1 0x20 MSTORE PUSH1 0x20 PUSH1 0xFF PUSH1 0x40 PUSH1 0x0 KECCAK256 SLOAD AND PUSH1 0x40 MLOAD SWAP1 ISZERO ISZERO DUP2 MSTORE RETURN JUMPDEST PUSH2 0x120 CALLDATASIZE PUSH1 0x3 NOT ADD SLT PUSH2 0x1A1 JUMPI PUSH8 0xFFFFFFFFFFFFFFFF PUSH1 0x4 CALLDATALOAD DUP2 DUP2 GT PUSH2 0x1A1 JUMPI PUSH2 0xA33 SWAP1 CALLDATASIZE SWAP1 PUSH1 0x4 ADD PUSH2 0xF76 JUMP JUMPDEST PUSH1 0x24 CALLDATALOAD DUP3 DUP2 GT PUSH2 0x1A1 JUMPI PUSH2 0xA4B SWAP1 CALLDATASIZE SWAP1 PUSH1 0x4 ADD PUSH2 0xF76 JUMP JUMPDEST PUSH1 0x84 CALLDATALOAD PUSH1 0xFF DUP2 AND DUP2 SUB PUSH2 0x1A1 JUMPI PUSH1 0xA4 CALLDATALOAD DUP5 DUP2 GT PUSH2 0x1A1 JUMPI PUSH2 0xA70 SWAP1 CALLDATASIZE SWAP1 PUSH1 0x4 ADD PUSH2 0xF76 JUMP JUMPDEST SWAP4 PUSH1 0xC4 CALLDATALOAD SWAP1 DUP2 GT PUSH2 0x1A1 JUMPI PUSH2 0xA89 SWAP1 CALLDATASIZE SWAP1 PUSH1 0x4 ADD PUSH2 0xF76 JUMP JUMPDEST SWAP1 PUSH1 0xE4 CALLDATALOAD SWAP3 DUP4 ISZERO ISZERO DUP5 SUB PUSH2 0x1A1 JUMPI PUSH2 0x104 CALLDATALOAD SWAP4 PUSH1 0x1 PUSH1 0x1 PUSH1 0xA0 SHL SUB DUP6 AND DUP6 SUB PUSH2 0x1A1 JUMPI CALLER PUSH1 0x0 MSTORE PUSH1 0x4 PUSH1 0x20 MSTORE PUSH2 0xAC6 PUSH1 0xFF PUSH1 0x40 PUSH1 0x0 KECCAK256 SLOAD AND PUSH2 0xFBD JUMP JUMPDEST PUSH2 0xAD5 PUSH1 0xFF PUSH1 0x3 SLOAD AND ISZERO PUSH2 0x1001 JUMP JUMPDEST PUSH1 0x1 PUSH1 0x1 PUSH1 0xA0 SHL SUB DUP6 AND PUSH1 0x0 SWAP1 DUP2 MSTORE PUSH1 0x5 PUSH1 0x20 MSTORE PUSH1 0x40 SWAP1 KECCAK256 SLOAD PUSH2 0xE10 DUP2 ADD DUP2 GT PUSH2 0x65B JUMPI PUSH2 0xE10 ADD TIMESTAMP LT DUP1 ISZERO SWAP1 PUSH2 0xDA0 JUMPI JUMPDEST PUSH2 0xB10 SWAP1 PUSH2 0x104F JUMP JUMPDEST PUSH2 0xB1E PUSH1 0x2 SLOAD CALLVALUE LT ISZERO PUSH2 0x1091 JUMP JUMPDEST TIMESTAMP PUSH1 0x44 CALLDATALOAD GT ISZERO PUSH2 0xD51 JUMPI DUP6 MLOAD ISZERO PUSH2 0xD14 JUMPI PUSH2 0xB43 PUSH1 0x1 PUSH1 0x1 PUSH1 0xA0 SHL SUB DUP7 AND ISZERO ISZERO PUSH2 0x10D0 JUMP JUMPDEST PUSH1 0x1 PUSH1 0x1 PUSH1 0xA0 SHL SUB DUP6 AND PUSH1 0x0 SWAP1 DUP2 MSTORE PUSH1 0x5 PUSH1 0x20 MSTORE PUSH1 0x40 SWAP1 KECCAK256 SLOAD PUSH2 0xE10 DUP2 ADD DUP2 GT PUSH2 0x65B JUMPI PUSH2 0xE10 ADD TIMESTAMP LT PUSH2 0xCEA JUMPI PUSH1 0x1 DUP1 PUSH1 0xA0 SHL SUB DUP6 AND PUSH1 0x0 MSTORE PUSH1 0x6 PUSH1 0x20 MSTORE PUSH1 0x1 PUSH1 0x40 PUSH1 0x0 KECCAK256 SSTORE PUSH1 0x5 PUSH1 0x20 MSTORE TIMESTAMP PUSH1 0x40 PUSH1 0x0 KECCAK256 SSTORE JUMPDEST CALLVALUE PUSH1 0x7 SLOAD SWAP1 PUSH2 0xBA5 SWAP2 PUSH2 0x1042 JUMP JUMPDEST PUSH1 0x7 SSTORE PUSH1 0x1 SLOAD PUSH1 0x40 MLOAD PUSH4 0xE8460ED9 PUSH1 0xE0 SHL DUP2 MSTORE PUSH2 0x100 PUSH1 0x4 DUP3 ADD MSTORE SWAP8 PUSH1 0x1 PUSH1 0x1 PUSH1 0xA0 SHL SUB SWAP1 SWAP2 AND SWAP5 DUP9 SWAP5 DUP6 SWAP5 SWAP2 SWAP3 SWAP2 PUSH2 0xBE2 PUSH2 0x104 DUP8 ADD DUP12 PUSH2 0x112B JUMP JUMPDEST DUP7 DUP2 SUB PUSH1 0x3 NOT ADD PUSH1 0x24 DUP9 ADD MSTORE PUSH2 0xBF7 SWAP2 PUSH2 0x112B JUMP JUMPDEST SWAP1 PUSH1 0x44 CALLDATALOAD PUSH1 0x44 DUP8 ADD MSTORE PUSH1 0x64 CALLDATALOAD PUSH1 0x64 DUP8 ADD MSTORE PUSH1 0xFF AND PUSH1 0x84 DUP7 ADD MSTORE PUSH1 0x3 NOT DUP6 DUP3 SUB ADD PUSH1 0xA4 DUP7 ADD MSTORE PUSH2 0xC25 SWAP2 PUSH2 0x112B JUMP JUMPDEST DUP4 DUP2 SUB PUSH1 0x3 NOT ADD PUSH1 0xC4 DUP6 ADD MSTORE PUSH2 0xC3A SWAP2 PUSH2 0x112B JUMP JUMPDEST SWAP1 ISZERO ISZERO PUSH1 0xE4 DUP4 ADD MSTORE SUB DUP2 GAS PUSH1 0x20 SWAP5 PUSH1 0x0 SWAP2 CALL SWAP2 DUP3 ISZERO PUSH2 0x52A JUMPI PUSH1 0x0 SWAP3 PUSH2 0xCB5 JUMPI JUMPDEST PUSH1 0x20 SWAP4 POP DUP3 PUSH32 0xB36096524FF4C46F49A5811E01EA4E716749BE63253DCA5C2AC9DD2E706C7CF PUSH2 0xC96 PUSH1 0x40 MLOAD SWAP4 PUSH1 0x40 DUP6 MSTORE PUSH1 0x40 DUP6 ADD SWAP1 PUSH2 0x112B JUMP JUMPDEST CALLVALUE DUP8 DUP6 ADD MSTORE CALLER SWAP5 PUSH1 0x1 PUSH1 0x1 PUSH1 0xA0 SHL SUB AND SWAP4 SWAP1 DUP2 SWAP1 SUB SWAP1 LOG4 PUSH1 0x40 MLOAD SWAP1 DUP2 MSTORE RETURN JUMPDEST SWAP2 POP PUSH1 0x20 DUP4 RETURNDATASIZE PUSH1 0x20 GT PUSH2 0xCE2 JUMPI JUMPDEST DUP2 PUSH2 0xCD0 PUSH1 0x20 SWAP4 DUP4 PUSH2 0xF38 JUMP JUMPDEST DUP2 ADD SUB SLT PUSH2 0x1A1 JUMPI PUSH1 0x20 SWAP3 MLOAD SWAP2 PUSH2 0xC5B JUMP JUMPDEST RETURNDATASIZE SWAP2 POP PUSH2 0xCC3 JUMP JUMPDEST PUSH1 0x1 PUSH1 0x1 PUSH1 0xA0 SHL SUB DUP6 AND PUSH1 0x0 SWAP1 DUP2 MSTORE PUSH1 0x6 PUSH1 0x20 MSTORE PUSH1 0x40 SWAP1 KECCAK256 DUP1 SLOAD PUSH2 0xD0D SWAP1 PUSH2 0x111C JUMP JUMPDEST SWAP1 SSTORE PUSH2 0xB97 JUMP JUMPDEST PUSH1 0x40 MLOAD PUSH3 0x461BCD PUSH1 0xE5 SHL DUP2 MSTORE PUSH1 0x20 PUSH1 0x4 DUP3 ADD MSTORE PUSH1 0x15 PUSH1 0x24 DUP3 ADD MSTORE PUSH21 0x5469746C652063616E6E6F7420626520656D707479 PUSH1 0x58 SHL PUSH1 0x44 DUP3 ADD MSTORE PUSH1 0x64 SWAP1 REVERT JUMPDEST PUSH1 0x40 MLOAD PUSH3 0x461BCD PUSH1 0xE5 SHL DUP2 MSTORE PUSH1 0x20 PUSH1 0x4 DUP3 ADD MSTORE PUSH1 0x21 PUSH1 0x24 DUP3 ADD MSTORE PUSH32 0x5461726765742064617465206D75737420626520696E20746865206675747572 PUSH1 0x44 DUP3 ADD MSTORE PUSH1 0x65 PUSH1 0xF8 SHL PUSH1 0x64 DUP3 ADD MSTORE PUSH1 0x84 SWAP1 REVERT JUMPDEST POP PUSH1 0x1 PUSH1 0x1 PUSH1 0xA0 SHL SUB DUP6 AND PUSH1 0x0 SWAP1 DUP2 MSTORE PUSH1 0x6 PUSH1 0x20 MSTORE PUSH1 0x40 SWAP1 KECCAK256 SLOAD PUSH1 0x5 GT PUSH2 0xB07 JUMP JUMPDEST CALLVALUE PUSH2 0x1A1 JUMPI PUSH1 0x20 CALLDATASIZE PUSH1 0x3 NOT ADD SLT PUSH2 0x1A1 JUMPI PUSH1 0x1 PUSH1 0x1 PUSH1 0xA0 SHL SUB PUSH2 0xDE3 PUSH2 0xF22 JUMP JUMPDEST AND PUSH1 0x0 MSTORE PUSH1 0x6 PUSH1 0x20 MSTORE PUSH1 0x20 PUSH1 0x40 PUSH1 0x0 KECCAK256 SLOAD PUSH1 0x40 MLOAD SWAP1 DUP2 MSTORE RETURN JUMPDEST CALLVALUE PUSH2 0x1A1 JUMPI PUSH1 0x0 CALLDATASIZE PUSH1 0x3 NOT ADD SLT PUSH2 0x1A1 JUMPI PUSH1 0x20 PUSH1 0x40 MLOAD PUSH1 0x5 DUP2 MSTORE RETURN JUMPDEST CALLVALUE PUSH2 0x1A1 JUMPI PUSH1 0x20 CALLDATASIZE PUSH1 0x3 NOT ADD SLT PUSH2 0x1A1 JUMPI PUSH1 0x1 PUSH1 0x1 PUSH1 0xA0 SHL SUB PUSH2 0xE39 PUSH2 0xF22 JUMP JUMPDEST AND PUSH1 0x0 MSTORE PUSH1 0x5 PUSH1 0x20 MSTORE PUSH1 0x20 PUSH1 0x40 PUSH1 0x0 KECCAK256 SLOAD PUSH1 0x40 MLOAD SWAP1 DUP2 MSTORE RETURN JUMPDEST CALLVALUE PUSH2 0x1A1 JUMPI PUSH1 0x20 CALLDATASIZE PUSH1 0x3 NOT ADD SLT PUSH2 0x1A1 JUMPI PUSH1 0x4 CALLDATALOAD DUP1 ISZERO ISZERO DUP1 SWAP2 SUB PUSH2 0x1A1 JUMPI PUSH1 0x20 PUSH32 0x752D7E161FF5146F80E3820893176EB40532811E5E20400DFDDE57455213706A SWAP2 PUSH2 0xEA9 PUSH1 0x1 DUP1 PUSH1 0xA0 SHL SUB PUSH1 0x0 SLOAD AND CALLER EQ PUSH2 0x116B JUMP JUMPDEST PUSH1 0xFF NOT PUSH1 0x3 SLOAD AND PUSH1 0xFF DUP3 AND OR PUSH1 0x3 SSTORE PUSH1 0x40 MLOAD SWAP1 DUP2 MSTORE LOG1 STOP JUMPDEST CALLVALUE PUSH2 0x1A1 JUMPI PUSH1 0x20 CALLDATASIZE PUSH1 0x3 NOT ADD SLT PUSH2 0x1A1 JUMPI PUSH32 0x528D9479E9F9889A87A3C30C7F7BA537E5E59C4C85A37733B16E57C62DF61302 PUSH1 0x40 PUSH1 0x4 CALLDATALOAD PUSH2 0xF0D PUSH1 0x1 DUP1 PUSH1 0xA0 SHL SUB PUSH1 0x0 SLOAD AND CALLER EQ PUSH2 0x116B JUMP JUMPDEST PUSH1 0x2 SLOAD SWAP1 DUP1 PUSH1 0x2 SSTORE DUP3 MLOAD SWAP2 DUP3 MSTORE PUSH1 0x20 DUP3 ADD MSTORE LOG1 STOP JUMPDEST PUSH1 0x4 CALLDATALOAD SWAP1 PUSH1 0x1 PUSH1 0x1 PUSH1 0xA0 SHL SUB DUP3 AND DUP3 SUB PUSH2 0x1A1 JUMPI JUMP JUMPDEST SWAP1 PUSH1 0x1F DUP1 NOT SWAP2 ADD AND DUP2 ADD SWAP1 DUP2 LT PUSH8 0xFFFFFFFFFFFFFFFF DUP3 GT OR PUSH2 0x7C2 JUMPI PUSH1 0x40 MSTORE JUMP JUMPDEST PUSH8 0xFFFFFFFFFFFFFFFF DUP2 GT PUSH2 0x7C2 JUMPI PUSH1 0x1F ADD PUSH1 0x1F NOT AND PUSH1 0x20 ADD SWAP1 JUMP JUMPDEST DUP2 PUSH1 0x1F DUP3 ADD SLT ISZERO PUSH2 0x1A1 JUMPI DUP1 CALLDATALOAD SWAP1 PUSH2 0xF8D DUP3 PUSH2 0xF5A JUMP JUMPDEST SWAP3 PUSH2 0xF9B PUSH1 0x40 MLOAD SWAP5 DUP6 PUSH2 0xF38 JUMP JUMPDEST DUP3 DUP5 MSTORE PUSH1 0x20 DUP4 DUP4 ADD ADD GT PUSH2 0x1A1 JUMPI DUP2 PUSH1 0x0 SWAP3 PUSH1 0x20 DUP1 SWAP4 ADD DUP4 DUP7 ADD CALLDATACOPY DUP4 ADD ADD MSTORE SWAP1 JUMP JUMPDEST ISZERO PUSH2 0xFC4 JUMPI JUMP JUMPDEST PUSH1 0x40 MLOAD PUSH3 0x461BCD PUSH1 0xE5 SHL DUP2 MSTORE PUSH1 0x20 PUSH1 0x4 DUP3 ADD MSTORE PUSH1 0x15 PUSH1 0x24 DUP3 ADD MSTORE PUSH21 0x139BDD08185B88185D5D1A1BDC9A5E995908189BDD PUSH1 0x5A SHL PUSH1 0x44 DUP3 ADD MSTORE PUSH1 0x64 SWAP1 REVERT JUMPDEST ISZERO PUSH2 0x1008 JUMPI JUMP JUMPDEST PUSH1 0x40 MLOAD PUSH3 0x461BCD PUSH1 0xE5 SHL DUP2 MSTORE PUSH1 0x20 PUSH1 0x4 DUP3 ADD MSTORE PUSH1 0x12 PUSH1 0x24 DUP3 ADD MSTORE PUSH18 0x10DBDB9D1C9858DD081A5CC81C185D5CD959 PUSH1 0x72 SHL PUSH1 0x44 DUP3 ADD MSTORE PUSH1 0x64 SWAP1 REVERT JUMPDEST SWAP2 SWAP1 DUP3 ADD DUP1 SWAP3 GT PUSH2 0x65B JUMPI JUMP JUMPDEST ISZERO PUSH2 0x1056 JUMPI JUMP JUMPDEST PUSH1 0x40 MLOAD PUSH3 0x461BCD PUSH1 0xE5 SHL DUP2 MSTORE PUSH1 0x20 PUSH1 0x4 DUP3 ADD MSTORE PUSH1 0x13 PUSH1 0x24 DUP3 ADD MSTORE PUSH19 0x14985D19481B1A5B5A5D08195E18D959591959 PUSH1 0x6A SHL PUSH1 0x44 DUP3 ADD MSTORE PUSH1 0x64 SWAP1 REVERT JUMPDEST ISZERO PUSH2 0x1098 JUMPI JUMP JUMPDEST PUSH1 0x40 MLOAD PUSH3 0x461BCD PUSH1 0xE5 SHL DUP2 MSTORE PUSH1 0x20 PUSH1 0x4 DUP3 ADD MSTORE PUSH1 0x10 PUSH1 0x24 DUP3 ADD MSTORE PUSH16 0x496E73756666696369656E7420666565 PUSH1 0x80 SHL PUSH1 0x44 DUP3 ADD MSTORE PUSH1 0x64 SWAP1 REVERT JUMPDEST ISZERO PUSH2 0x10D7 JUMPI JUMP JUMPDEST PUSH1 0x40 MLOAD PUSH3 0x461BCD PUSH1 0xE5 SHL DUP2 MSTORE PUSH1 0x20 PUSH1 0x4 DUP3 ADD MSTORE PUSH1 0x18 PUSH1 0x24 DUP3 ADD MSTORE PUSH32 0x496E76616C69642070726F706F73657220616464726573730000000000000000 PUSH1 0x44 DUP3 ADD MSTORE PUSH1 0x64 SWAP1 REVERT JUMPDEST PUSH1 0x0 NOT DUP2 EQ PUSH2 0x65B JUMPI PUSH1 0x1 ADD SWAP1 JUMP JUMPDEST SWAP2 SWAP1 DUP3 MLOAD SWAP3 DUP4 DUP3 MSTORE PUSH1 0x0 JUMPDEST DUP5 DUP2 LT PUSH2 0x1157 JUMPI POP POP DUP3 PUSH1 0x0 PUSH1 0x20 DUP1 SWAP5 SWAP6 DUP5 ADD ADD MSTORE PUSH1 0x1F DUP1 NOT SWAP2 ADD AND ADD ADD SWAP1 JUMP JUMPDEST PUSH1 0x20 DUP2 DUP4 ADD DUP2 ADD MLOAD DUP5 DUP4 ADD DUP3 ADD MSTORE ADD PUSH2 0x1136 JUMP JUMPDEST ISZERO PUSH2 0x1172 JUMPI JUMP JUMPDEST PUSH1 0x40 MLOAD PUSH3 0x461BCD PUSH1 0xE5 SHL DUP2 MSTORE PUSH1 0x20 PUSH1 0x4 DUP3 ADD MSTORE PUSH1 0xD PUSH1 0x24 DUP3 ADD MSTORE PUSH13 0x2737BA103A34329037BBB732B9 PUSH1 0x99 SHL PUSH1 0x44 DUP3 ADD MSTORE PUSH1 0x64 SWAP1 REVERT JUMPDEST DUP1 MLOAD DUP3 LT ISZERO PUSH2 0x11BB JUMPI PUSH1 0x20 SWAP2 PUSH1 0x5 SHL ADD ADD SWAP1 JUMP JUMPDEST PUSH4 0x4E487B71 PUSH1 0xE0 SHL PUSH1 0x0 MSTORE PUSH1 0x32 PUSH1 0x4 MSTORE PUSH1 0x24 PUSH1 0x0 REVERT JUMPDEST RETURNDATASIZE ISZERO PUSH2 0x11FC JUMPI RETURNDATASIZE SWAP1 PUSH2 0x11E2 DUP3 PUSH2 0xF5A JUMP JUMPDEST SWAP2 PUSH2 0x11F0 PUSH1 0x40 MLOAD SWAP4 DUP5 PUSH2 0xF38 JUMP JUMPDEST DUP3 MSTORE RETURNDATASIZE PUSH1 0x0 PUSH1 0x20 DUP5 ADD RETURNDATACOPY JUMP JUMPDEST PUSH1 0x60 SWAP1 JUMP INVALID LOG2 PUSH5 0x6970667358 0x22 SLT KECCAK256 0xD 0xCD 0xB5 PUSH6 0x897F48C3412D PUSH15 0x9ABE9A0440C2A8F28B6E6B30A66B69 CREATE DUP12 PUSH18 0xBD40EA64736F6C6343000814003300000000 "},"methodIdentifiers":{"MAX_PROPOSALS_PER_HOUR()":"20b1928e","RATE_LIMIT_WINDOW()":"7130dfc9","authorizeBots(address[],bool)":"ba98422d","authorizedBots(address)":"3ba8396e","canUserPropose(address)":"c320c327","emergencyWithdraw()":"db2e21bc","feeRecipient()":"46904840","getPredictionMarketContract()":"e4b95fb2","getUserRateLimit(address)":"97d9c14b","owner()":"8da5cb5b","paused()":"5c975abb","predictionMarketContract()":"b15a9dd2","proposalFee()":"c27cabb5","proposePrediction(string,string,uint256,uint256,uint8,string,string,bool,address)":"2f56c230","proposePredictionFromText(string,address)":"c4c3ab4c","setFeeRecipient(address)":"e74b981b","setPaused(bool)":"16c38b3c","setProposalFee(uint256)":"10bf5068","totalFeesCollected()":"60c6d8ae","transferOwnership(address)":"f2fde38b","userLastProposal(address)":"1cc53d4e","userProposalCount(address)":"211603c6","withdrawFees()":"476343ee"}}}}}