{"contracts/SweatEquityBot.sol":{"SweatEquityBot":{"abi":[{"inputs":[{"internalType":"address","name":"_predictionMarket","type":"address"}],"stateMutability":"nonpayable","type":"constructor"},{"inputs":[{"internalType":"address","name":"sender","type":"address"},{"internalType":"uint256","name":"tokenId","type":"uint256"},{"internalType":"address","name":"owner","type":"address"}],"name":"ERC721IncorrectOwner","type":"error"},{"inputs":[{"internalType":"address","name":"operator","type":"address"},{"internalType":"uint256","name":"tokenId","type":"uint256"}],"name":"ERC721InsufficientApproval","type":"error"},{"inputs":[{"internalType":"address","name":"approver","type":"address"}],"name":"ERC721InvalidApprover","type":"error"},{"inputs":[{"internalType":"address","name":"operator","type":"address"}],"name":"ERC721InvalidOperator","type":"error"},{"inputs":[{"internalType":"address","name":"owner","type":"address"}],"name":"ERC721InvalidOwner","type":"error"},{"inputs":[{"internalType":"address","name":"receiver","type":"address"}],"name":"ERC721InvalidReceiver","type":"error"},{"inputs":[{"internalType":"address","name":"sender","type":"address"}],"name":"ERC721InvalidSender","type":"error"},{"inputs":[{"internalType":"uint256","name":"tokenId","type":"uint256"}],"name":"ERC721NonexistentToken","type":"error"},{"inputs":[{"internalType":"address","name":"owner","type":"address"}],"name":"OwnableInvalidOwner","type":"error"},{"inputs":[{"internalType":"address","name":"account","type":"address"}],"name":"OwnableUnauthorizedAccount","type":"error"},{"inputs":[],"name":"ReentrancyGuardReentrantCall","type":"error"},{"anonymous":false,"inputs":[{"indexed":true,"internalType":"address","name":"owner","type":"address"},{"indexed":true,"internalType":"address","name":"approved","type":"address"},{"indexed":true,"internalType":"uint256","name":"tokenId","type":"uint256"}],"name":"Approval","type":"event"},{"anonymous":false,"inputs":[{"indexed":true,"internalType":"address","name":"owner","type":"address"},{"indexed":true,"internalType":"address","name":"operator","type":"address"},{"indexed":false,"internalType":"bool","name":"approved","type":"bool"}],"name":"ApprovalForAll","type":"event"},{"anonymous":false,"inputs":[{"indexed":true,"internalType":"string","name":"network","type":"string"},{"indexed":false,"internalType":"address","name":"contractAddress","type":"address"}],"name":"FitnessContractUpdated","type":"event"},{"anonymous":false,"inputs":[{"indexed":true,"internalType":"address","name":"previousOwner","type":"address"},{"indexed":true,"internalType":"address","name":"newOwner","type":"address"}],"name":"OwnershipTransferred","type":"event"},{"anonymous":false,"inputs":[{"indexed":true,"internalType":"uint256","name":"challengeId","type":"uint256"},{"indexed":true,"internalType":"uint256","name":"predictionId","type":"uint256"},{"indexed":true,"internalType":"address","name":"user","type":"address"},{"indexed":false,"internalType":"uint256","name":"recoverableAmount","type":"uint256"},{"indexed":false,"internalType":"uint8","name":"exerciseType","type":"uint8"},{"indexed":false,"internalType":"uint256","name":"targetAmount","type":"uint256"},{"indexed":false,"internalType":"uint256","name":"baselineAmount","type":"uint256"}],"name":"SweatEquityChallengeCreated","type":"event"},{"anonymous":false,"inputs":[{"indexed":true,"internalType":"uint256","name":"challengeId","type":"uint256"},{"indexed":true,"internalType":"address","name":"user","type":"address"},{"indexed":false,"internalType":"uint256","name":"amount","type":"uint256"}],"name":"SweatEquityClaimed","type":"event"},{"anonymous":false,"inputs":[{"indexed":true,"internalType":"uint256","name":"challengeId","type":"uint256"},{"indexed":true,"internalType":"address","name":"user","type":"address"},{"indexed":false,"internalType":"uint256","name":"finalExerciseCount","type":"uint256"},{"indexed":false,"internalType":"uint256","name":"timestamp","type":"uint256"}],"name":"SweatEquityCompleted","type":"event"},{"anonymous":false,"inputs":[{"indexed":true,"internalType":"address","name":"from","type":"address"},{"indexed":true,"internalType":"address","name":"to","type":"address"},{"indexed":true,"internalType":"uint256","name":"tokenId","type":"uint256"}],"name":"Transfer","type":"event"},{"stateMutability":"payable","type":"fallback"},{"inputs":[],"name":"CHARITY_FEE_PERCENT","outputs":[{"internalType":"uint256","name":"","type":"uint256"}],"stateMutability":"view","type":"function"},{"inputs":[],"name":"MAINTENANCE_FEE_PERCENT","outputs":[{"internalType":"uint256","name":"","type":"uint256"}],"stateMutability":"view","type":"function"},{"inputs":[],"name":"RECOVERABLE_PERCENT","outputs":[{"internalType":"uint256","name":"","type":"uint256"}],"stateMutability":"view","type":"function"},{"inputs":[],"name":"SWEAT_EQUITY_WINDOW","outputs":[{"internalType":"uint256","name":"","type":"uint256"}],"stateMutability":"view","type":"function"},{"inputs":[{"internalType":"address","name":"to","type":"address"},{"internalType":"uint256","name":"tokenId","type":"uint256"}],"name":"approve","outputs":[],"stateMutability":"nonpayable","type":"function"},{"inputs":[{"internalType":"address","name":"owner","type":"address"}],"name":"balanceOf","outputs":[{"internalType":"uint256","name":"","type":"uint256"}],"stateMutability":"view","type":"function"},{"inputs":[{"internalType":"uint256","name":"challengeId","type":"uint256"}],"name":"canCompleteChallenge","outputs":[{"internalType":"bool","name":"","type":"bool"}],"stateMutability":"view","type":"function"},{"inputs":[{"internalType":"uint256","name":"predictionId","type":"uint256"},{"internalType":"address","name":"user","type":"address"}],"name":"canCreateSweatEquity","outputs":[{"internalType":"bool","name":"","type":"bool"}],"stateMutability":"view","type":"function"},{"inputs":[{"internalType":"uint256","name":"challengeId","type":"uint256"}],"name":"claimSweatEquity","outputs":[],"stateMutability":"nonpayable","type":"function"},{"inputs":[{"internalType":"uint256","name":"predictionId","type":"uint256"},{"internalType":"uint8","name":"exerciseType","type":"uint8"},{"internalType":"uint256","name":"targetAmount","type":"uint256"}],"name":"createSweatEquityChallenge","outputs":[],"stateMutability":"nonpayable","type":"function"},{"inputs":[],"name":"emergencyWithdraw","outputs":[],"stateMutability":"nonpayable","type":"function"},{"inputs":[{"internalType":"string","name":"","type":"string"}],"name":"fitnessContracts","outputs":[{"internalType":"address","name":"","type":"address"}],"stateMutability":"view","type":"function"},{"inputs":[{"internalType":"uint256","name":"tokenId","type":"uint256"}],"name":"getApproved","outputs":[{"internalType":"address","name":"","type":"address"}],"stateMutability":"view","type":"function"},{"inputs":[{"internalType":"uint256","name":"challengeId","type":"uint256"}],"name":"getChallenge","outputs":[{"components":[{"internalType":"uint256","name":"predictionId","type":"uint256"},{"internalType":"address","name":"user","type":"address"},{"internalType":"uint256","name":"recoverableAmount","type":"uint256"},{"internalType":"uint256","name":"deadline","type":"uint256"},{"internalType":"bool","name":"completed","type":"bool"},{"internalType":"bool","name":"claimed","type":"bool"},{"internalType":"uint8","name":"exerciseType","type":"uint8"},{"internalType":"uint256","name":"targetAmount","type":"uint256"},{"internalType":"uint256","name":"baselineAmount","type":"uint256"},{"internalType":"uint256","name":"createdAt","type":"uint256"}],"internalType":"struct SweatEquityBot.SweatEquityChallenge","name":"","type":"tuple"}],"stateMutability":"view","type":"function"},{"inputs":[{"internalType":"address","name":"user","type":"address"}],"name":"getUserChallenges","outputs":[{"internalType":"uint256[]","name":"","type":"uint256[]"}],"stateMutability":"view","type":"function"},{"inputs":[{"internalType":"address","name":"user","type":"address"},{"internalType":"uint8","name":"exerciseType","type":"uint8"}],"name":"getUserCurrentExerciseCount","outputs":[{"internalType":"uint256","name":"","type":"uint256"}],"stateMutability":"view","type":"function"},{"inputs":[{"internalType":"address","name":"owner","type":"address"},{"internalType":"address","name":"operator","type":"address"}],"name":"isApprovedForAll","outputs":[{"internalType":"bool","name":"","type":"bool"}],"stateMutability":"view","type":"function"},{"inputs":[],"name":"name","outputs":[{"internalType":"string","name":"","type":"string"}],"stateMutability":"view","type":"function"},{"inputs":[],"name":"owner","outputs":[{"internalType":"address","name":"","type":"address"}],"stateMutability":"view","type":"function"},{"inputs":[{"internalType":"uint256","name":"tokenId","type":"uint256"}],"name":"ownerOf","outputs":[{"internalType":"address","name":"","type":"address"}],"stateMutability":"view","type":"function"},{"inputs":[],"name":"predictionMarket","outputs":[{"internalType":"contract IPredictionMarket","name":"","type":"address"}],"stateMutability":"view","type":"function"},{"inputs":[],"name":"renounceOwnership","outputs":[],"stateMutability":"nonpayable","type":"function"},{"inputs":[{"internalType":"address","name":"from","type":"address"},{"internalType":"address","name":"to","type":"address"},{"internalType":"uint256","name":"tokenId","type":"uint256"}],"name":"safeTransferFrom","outputs":[],"stateMutability":"nonpayable","type":"function"},{"inputs":[{"internalType":"address","name":"from","type":"address"},{"internalType":"address","name":"to","type":"address"},{"internalType":"uint256","name":"tokenId","type":"uint256"},{"internalType":"bytes","name":"data","type":"bytes"}],"name":"safeTransferFrom","outputs":[],"stateMutability":"nonpayable","type":"function"},{"inputs":[{"internalType":"address","name":"operator","type":"address"},{"internalType":"bool","name":"approved","type":"bool"}],"name":"setApprovalForAll","outputs":[],"stateMutability":"nonpayable","type":"function"},{"inputs":[{"internalType":"string","name":"network","type":"string"},{"internalType":"address","name":"contractAddress","type":"address"}],"name":"setFitnessContract","outputs":[],"stateMutability":"nonpayable","type":"function"},{"inputs":[{"internalType":"address","name":"","type":"address"}],"name":"streakCount","outputs":[{"internalType":"uint256","name":"","type":"uint256"}],"stateMutability":"view","type":"function"},{"inputs":[{"internalType":"bytes4","name":"interfaceId","type":"bytes4"}],"name":"supportsInterface","outputs":[{"internalType":"bool","name":"","type":"bool"}],"stateMutability":"view","type":"function"},{"inputs":[{"internalType":"uint256","name":"","type":"uint256"}],"name":"sweatEquityChallenges","outputs":[{"internalType":"uint256","name":"predictionId","type":"uint256"},{"internalType":"address","name":"user","type":"address"},{"internalType":"uint256","name":"recoverableAmount","type":"uint256"},{"internalType":"uint256","name":"deadline","type":"uint256"},{"internalType":"bool","name":"completed","type":"bool"},{"internalType":"bool","name":"claimed","type":"bool"},{"internalType":"uint8","name":"exerciseType","type":"uint8"},{"internalType":"uint256","name":"targetAmount","type":"uint256"},{"internalType":"uint256","name":"baselineAmount","type":"uint256"},{"internalType":"uint256","name":"createdAt","type":"uint256"}],"stateMutability":"view","type":"function"},{"inputs":[{"internalType":"address","name":"","type":"address"}],"name":"sweatEquityScore","outputs":[{"internalType":"uint256","name":"","type":"uint256"}],"stateMutability":"view","type":"function"},{"inputs":[],"name":"symbol","outputs":[{"internalType":"string","name":"","type":"string"}],"stateMutability":"view","type":"function"},{"inputs":[{"internalType":"uint256","name":"tokenId","type":"uint256"}],"name":"tokenURI","outputs":[{"internalType":"string","name":"","type":"string"}],"stateMutability":"view","type":"function"},{"inputs":[{"internalType":"address","name":"from","type":"address"},{"internalType":"address","name":"to","type":"address"},{"internalType":"uint256","name":"tokenId","type":"uint256"}],"name":"transferFrom","outputs":[],"stateMutability":"nonpayable","type":"function"},{"inputs":[{"internalType":"address","name":"newOwner","type":"address"}],"name":"transferOwnership","outputs":[],"stateMutability":"nonpayable","type":"function"},{"inputs":[{"internalType":"address","name":"","type":"address"},{"internalType":"uint256","name":"","type":"uint256"}],"name":"userChallenges","outputs":[{"internalType":"uint256","name":"","type":"uint256"}],"stateMutability":"view","type":"function"},{"inputs":[{"internalType":"uint256","name":"","type":"uint256"}],"name":"verificationStatus","outputs":[{"internalType":"enum SweatEquityBot.VerificationStatus","name":"","type":"uint8"}],"stateMutability":"view","type":"function"},{"inputs":[{"internalType":"uint256","name":"challengeId","type":"uint256"}],"name":"verifyAndApprove","outputs":[],"stateMutability":"nonpayable","type":"function"},{"stateMutability":"payable","type":"receive"}],"evm":{"bytecode":{"linkReferences":{},"object":"608034620003c857601f906001600160401b0390601f199062002b93388190038581018416830185811184821017620003b257839282916040528339602092839181010312620003c857516001600160a01b03948582169491859003620003c8576200006a620003cd565b92600e84526d14ddd9585d115c5d5a5d1e53919560921b818501526200008f620003cd565b90600582526414d153919560da1b81830152845195848711620003b2576000968754966001978881811c91168015620003a7575b85821014620003935790818784931162000340575b508490878311600114620002df578a92620002d3575b5050600019600383901b1c191690871b1787555b8251948511620002bf5785548681811c91168015620002b4575b83821014620002a05790818587969594931162000247575b5081938511600114620001e25750508592620001d6575b5050600019600383901b1c191690821b1781555b3315620001bd5760065460018060a01b03199233848316176006557f8be0079c531659141344cd1fd0a4f28419497f9722a3daafe3b4186f6b6457e0604051963393169180a360075560095416176009556127a59081620003ee8239f35b604051631e4fbdf760e01b815260048101839052602490fd5b0151905038806200014b565b869593929193168588528388209388905b8282106200022d575050841162000213575b505050811b0181556200015f565b015160001960f88460031b161c1916905538808062000205565b8484015186558897909501949384019390810190620001f3565b9091929394508688528288208580880160051c82019285891062000296575b9188978a9297969594930160051c01915b8281106200028757505062000134565b8a815588975089910162000277565b9250819262000266565b634e487b7160e01b88526022600452602488fd5b90607f16906200011c565b634e487b7160e01b87526041600452602487fd5b015190503880620000ee565b90848a9416918b8052868c20928c5b888282106200032957505084116200030f575b505050811b01875562000102565b015160001960f88460031b161c1916905538808062000301565b8385015186558d97909501949384019301620002ee565b909150898052848a208780850160051c82019287861062000389575b918b91869594930160051c01915b8281106200037a575050620000d8565b8c81558594508b91016200036a565b925081926200035c565b634e487b7160e01b8a52602260045260248afd5b90607f1690620000c3565b634e487b7160e01b600052604160045260246000fd5b600080fd5b60408051919082016001600160401b03811183821017620003b25760405256fe608080604052600436101561001a575b50361561001857005b005b600090813560e01c90816301ffc9a714611b6a5750806306fdde0314611aaa578063081812fc14611a6d57806309580bef14611a20578063095ea7b31461193d5780630ca64f2f1461191f57806311da8e54146118715780631bdd4b741461172e5780632293e7561461168f57806323b872dd146116775780632d3e1cdf14611658578063374dd7c51461140357806342842e0e146113d557806348c77be6146113b95780634d4c277d1461139d5780636352211e1461136c57806370a0823114611314578063715018a6146112b65780638da5cb5b1461128d57806395d89b411461119557806398f2cc9614611160578063a22cb465146110ae578063a49613b414610cdf578063a5e65e7714610ca6578063a5ff0a1314610c50578063b03381bc14610c17578063b88d4fde14610ba3578063bc220ccf14610b72578063c87b56dd1461095f578063d255e2d6146108f5578063d4ed2c13146108d9578063d55c62f11461041e578063db2e21bc14610398578063def114b61461036f578063e985e9c51461031b578063f2fde38b1461028b5763fa89fc410361000f57346102885760403660031901126102885760043567ffffffffffffffff8111610284576101eb903690600401611dc3565b7f36d7f8efcd1c355e669cf3684d797615d57d7a24176ff79d29c3237a895c79336020610274610219611c3e565b93610222611de1565b6040519080519184818184019461023a818388611bdb565b600a9082019081520301902080546001600160a01b0319166001600160a01b03909716968717905560405190519092839282908490611bdb565b810103902092604051908152a280f35b5080fd5b80fd5b5034610288576020366003190112610288576102a5611c23565b6102ad611de1565b6001600160a01b0390811690811561030257600654826bffffffffffffffffffffffff60a01b821617600655167f8be0079c531659141344cd1fd0a4f28419497f9722a3daafe3b4186f6b6457e0600080a380f35b604051631e4fbdf760e01b815260048101849052602490fd5b503461028857604036600319011261028857610335611c23565b604061033f611c3e565b9260018060a01b0380931681526005602052209116600052602052602060ff604060002054166040519015158152f35b50346102885780600319360112610288576009546040516001600160a01b039091168152602090f35b50346102885780600319360112610288576103b1611de1565b4780156103e25760065482918291829182916001600160a01b031682f1156103d65780f35b604051903d90823e3d90fd5b60405162461bcd60e51b81526020600482015260146024820152734e6f2066756e647320746f20776974686472617760601b6044820152606490fd5b503461028857606036600319011261028857610438611c89565b60443590610444612331565b600160ff82161161089c57600954604080516309626a2360e41b815260048035908201523360248201526001600160a01b03909216939082604481875afa8015610891578592869161086c575b5080610863575b1561081e57604051637f41df6760e11b815260048035908201526024949086818781855afa8015610813576101a060ff916001938a916107f1575b50015116036107ad57604080516309626a2360e41b8152600480359082015233602482015291829060449082905afa9081156107a25786908792610770575b5081610766575b501561072b576105298333612375565b9160508102908082046050149015171561071857606490049261054d6008546122ff565b94856008556201518042018042116107055760078786868b87604051809761057482611cc7565b60043582528d6020830133815260408401918252606084019283526040608085019680885260ff60c060a0880197838952019716875260e08d019889526101008d01998a526101208d019a428c528152600b602052209a518b5560018b019060018060a01b039051166bffffffffffffffffffffffff60a01b8254161790555160028a015551600389015561061c6004890193511515849060ff801983541691151516179055565b5115159061ff0062ff00008454925160101b169260081b169062ffff0019161717905551600585015551600684015551910155338752600c60205260408720805491680100000000000000008310156106f357508161068391600160ff9594018155611c99565b81549060031b9088821b91600019901b1916179055858752600d60205260408720821981541690556040519485521660208401526040830152606082015233917fec115e970931c4684f8d813a45f54c5ddd93a33803ad78309520b9b9fda2052d608060043593a4600160075580f35b634e487b7160e01b8952604160045288fd5b50634e487b7160e01b8752601160045286fd5b634e487b7160e01b865260116004528486fd5b60405162461bcd60e51b81526020600482015260148186015273139bc81d985b1a59081cdd185ad948199bdd5b9960621b6044820152606490fd5b9050151538610519565b9050610794915060403d60401161079b575b61078c8183611d4e565b810190612121565b9038610512565b503d610782565b6040513d88823e3d90fd5b60405162461bcd60e51b8152602060048201526017818701527f50726564696374696f6e206e6f74207265736f6c7665640000000000000000006044820152606490fd5b61080d91503d808c833e6108058183611d4e565b81019061219f565b386104d3565b6040513d89823e3d90fd5b60405162461bcd60e51b815260206004820152601b60248201527f4e6f207374616b6520696e20746869732070726564696374696f6e00000000006044820152606490fd5b50811515610498565b905061088891925060403d60401161079b5761078c8183611d4e565b91909138610491565b6040513d87823e3d90fd5b60405162461bcd60e51b8152602060048201526015602482015274496e76616c6964206578657263697365207479706560581b6044820152606490fd5b5034610288578060031936011261028857602060405160508152f35b5034610288576020366003190112610288576004359067ffffffffffffffff82116102885760206109293660048501611dc3565b8161093d6040519283815193849201611bdb565b600a90820190815281900382019020546040516001600160a01b039091168152f35b5034610288576020908160031936011261028857816004359161098183611fac565b506040519261098f84611d16565b8184528115610b58578190807a184f03e93ff9f4daa797ed6e38ed64bf6a1f0100000000000000008181811015610b4a575b5050846d04ee2d6d415b85acef810000000080841015610b3c575b5050662386f26fc1000080831015610b2d575b506305f5e10080831015610b1e575b5061271080831015610b0f575b506064821015610aff575b600a80921015610af5575b60019081602181860195610a4d610a3788611d70565b97610a45604051998a611d4e565b808952611d70565b878a019890601f1901368a3750860101905b610abf575b5050505092610aa59291610a99946040519583610a8a8895518092888089019101611bdb565b84019151809386840190611bdb565b01038084520182611d4e565b905b610abb604051928284938452830190611bfe565b0390f35b600019019083906f181899199a1a9b1b9c1cb0b131b232b360811b8282061a835304918215610af057919082610a5f565b610a64565b9160010191610a21565b9190606460029104910191610a16565b60049193920491019138610a0b565b600891939204910191386109fe565b601091939204910191386109ef565b9301929091049084386109dc565b6040945004915038806109c1565b50505050604051610b6881611d16565b6000815290610aa7565b5034610288576040366003190112610288576020610b99610b91611c3e565b600435612620565b6040519015158152f35b503461028857608036600319011261028857610bbd611c23565b610bc5611c3e565b906044356064359267ffffffffffffffff8411610c135736602385011215610c1357610bfe610c10943690602481600401359101611d8c565b92610c0a838383611e0d565b33611fe7565b80f35b8480fd5b5034610288576020366003190112610288576020906040906001600160a01b03610c3f611c23565b168152600f83522054604051908152f35b503461028857604036600319011261028857610c6a611c23565b6001600160a01b03168152600c6020526040812080546024359290831015610288576020610c988484611c99565b90546040519160031b1c8152f35b5034610288576020366003190112610288576020906040906001600160a01b03610cce611c23565b168152600e83522054604051908152f35b503461028857602090816003193601126102885760043591828252600b81526040822092600384015442116110755760048401805460ff811661103c57600186019560018060a01b0391610d3d8389541660ff8360101c1690612375565b936005610d4e600685015487612354565b93019283541161100257600160ff19809316179055848752600d86526001604088209182541617905554818754168652600e8552610d9160408720918254612324565b9055808654168552600f845260408520610dab81546122ff565b9055808654169560405196610dbf88611d16565b8688528015610fe9578460005260028652826040600020541685828215159283610fb6575b600082815260038b5260408082208054600101905584825260028c52812080546001600160a01b031916841790557fddf252ad1be2c89b69c2b068fc378daa952ba7f163c4a11628f55a4df523b3ef9080a4610f9d57803b610e79575b50916040917f4de541293cd105ad674ba860bc58a068cb3d97a522193172c5c1de6417f4d9eb9354169482519182524290820152a380f35b959496604051888180610eb5630a85bd0160e11b95868352336004840152600060248401528a6044840152608060648401526084830190611bfe565b038160008c5af18091600091610f5f575b5090610f235788883d15610f1c573d610ede81611d70565b90610eec6040519283611d4e565b81523d60008483013e5b80519283610f1757604051633250574960e11b815260048101849052602490fd5b019050fd5b6060610ef6565b63ffffffff60e099989394959697991b1603610f4757508594939291906040610e41565b60249060405190633250574960e11b82526004820152fd5b8a81813d8311610f96575b610f748183611d4e565b810103126102845751906001600160e01b031982168203610288575038610ec6565b503d610f6a565b6040516339e3563760e11b815260048101889052602490fd5b60008381526004602052604080822080546001600160a01b031916905582825260038c5290208054600019019055610de4565b604051633250574960e11b815260048101889052602490fd5b60405162461bcd60e51b815260048101889052601260248201527115185c99d95d081b9bdd081c995858da195960721b6044820152606490fd5b60405162461bcd60e51b8152600481018590526011602482015270105b1c9958591e4818dbdb5c1b195d1959607a1b6044820152606490fd5b60405162461bcd60e51b815260048101839052601160248201527010da185b1b195b99d948195e1c1a5c9959607a1b6044820152606490fd5b5034610288576040366003190112610288576110c8611c23565b602435908115159081830361115c576001600160a01b031691821561114357611114903385526005602052604085208460005260205260406000209060ff801983541691151516179055565b6040519081527f17307eab39ab6107e8899845ad3d59bd9653f200f220920489ca2b5937696c3160203392a380f35b604051630b61174360e31b815260048101849052602490fd5b8380fd5b503461028857604036600319011261028857602061118d61117f611c23565b611187611c89565b90612375565b604051908152f35b5034610288578060031936011261028857604051908060019182549283811c92818516948515611283575b602095868610811461126f5785885287949392918790821561124d5750506001146111f4575b5050610aa792500383611d4e565b908592508082527fb10e2d527612073b26eecdfd717e6a320cf44b4afac2b0732d9fcbe2b7fa0cf65b858310611235575050610aa7935082010138806111e6565b8054838901850152879450869390920191810161121d565b9250935050610aa794915060ff191682840152151560051b82010138806111e6565b634e487b7160e01b83526022600452602483fd5b93607f16936111c0565b50346102885780600319360112610288576006546040516001600160a01b039091168152602090f35b50346102885780600319360112610288576112cf611de1565b600680546001600160a01b031981169091556000906001600160a01b03167f8be0079c531659141344cd1fd0a4f28419497f9722a3daafe3b4186f6b6457e08280a380f35b5034610288576020366003190112610288576001600160a01b03611336611c23565b168015611353578160409160209352600383522054604051908152f35b6040516322718ad960e21b815260048101839052602490fd5b503461028857602036600319011261028857602061138b600435611fac565b6040516001600160a01b039091168152f35b5034610288578060031936011261028857602060405160058152f35b50346102885780600319360112610288576020604051600f8152f35b503461028857610c106113e736611c54565b90604051926113f584611d16565b858452610c0a838383611e0d565b50346102885760208060031936011261028457600435611421612331565b808352600b82526040832060018101546001600160a01b03908116919033830361161e5760048201805460ff8116156115d95760ff8160081c166115a257858852600d875260ff604089205416600381101561158e5760010361155a579061010088939261ff001916179055600954169260028354930193845493813b1561115c5783606492604051968795869463fe678c2160e01b86526004860152602485015260448401525af180156108915761150a575b505460405190815233927fa295aacbce04e897538bdd3b31a3d751727909b6b500e52ca76863d4716a554e91a3600160075580f35b67ffffffffffffffff819592951161154657604052927fa295aacbce04e897538bdd3b31a3d751727909b6b500e52ca76863d4716a554e6114d5565b634e487b7160e01b82526041600452602482fd5b60405162461bcd60e51b815260048101889052600c60248201526b139bdd08185c1c1c9bdd995960a21b6044820152606490fd5b634e487b7160e01b89526021600452602489fd5b60405162461bcd60e51b815260048101889052600f60248201526e105b1c9958591e4818db185a5b5959608a1b6044820152606490fd5b60405162461bcd60e51b815260048101889052601760248201527f4368616c6c656e6765206e6f7420636f6d706c657465640000000000000000006044820152606490fd5b60405162461bcd60e51b81526004810186905260126024820152714e6f7420796f7572206368616c6c656e676560701b6044820152606490fd5b5034610288576020366003190112610288576020610b99600435612709565b503461028857610c1061168936611c54565b91611e0d565b5034610288576020366003190112610288576040610140916004358152600b6020522080549060018060a01b0360018201541690600281015460ff6003830154600484015490600585015493600760068701549601549660405198895260208901526040880152606087015281811615156080870152818160081c16151560a087015260101c1660c085015260e0840152610100830152610120820152f35b5034610288576020366003190112610288576101409060405161175081611cc7565b8181528160208201528160408201528160608201528160808201528160a08201528160c08201528160e0820152604061010092808484015280610120809401526004358152600b6020522091604051906117a982611cc7565b8184549485825260ff60018060a01b0380600184015416602085019081526002840154916040860192835260038501546060870190815260048601549360808801928686161515845260a0890194878760081c16151586528760c08b019760101c1687528c600760058b01549a60e08d019b8c528d60068201549d019c8d5201549c019b8c526040519d8e52511660208d01525160408c01525160608b015251151560808a015251151560a0890152511660c08701525160e086015251908401525190820152f35b503461028857602080600319360112610284576001600160a01b03611894611c23565b168252600c81526040822060405192838383549182815201908193835284832090835b81811061190b57505050846118cd910385611d4e565b60405193838594850191818652518092526040850193925b8281106118f457505050500390f35b8351855286955093810193928101926001016118e5565b8254845292860192600192830192016118b7565b50346102885780600319360112610288576020604051620151808152f35b503461028857604036600319011261028857611957611c23565b60243561196381611fac565b33151580611a0d575b806119e2575b6119ca576001600160a01b039283169282918491167f8c5be1e5ebec7d5bd14f71427d1e84f3dd0314c0f7b2291e5b200ac8c7c3b9258680a4825260046020526040822080546001600160a01b031916909117905580f35b60405163a9fbf51f60e01b8152336004820152602490fd5b506001600160a01b038116845260056020908152604080862033875290915284205460ff1615611972565b506001600160a01b03811633141561196c565b5034610288576020366003190112610288576004358152600d60205260ff604082205416604051906003811015611a5957602092508152f35b634e487b7160e01b83526021600452602483fd5b503461028857602036600319011261028857602090600435611a8e81611fac565b50815260048252604060018060a01b0391205416604051908152f35b50346102885780600319360112610288576040519080805491600183811c92818516948515611b60575b602095868610811461126f5785885287949392918790821561124d575050600114611b07575050610aa792500383611d4e565b908592508180527f290decd9548b62a8d60345a988386fc84ba6bc95484008f6362f93160ef3e5635b858310611b48575050610aa7935082010138806111e6565b80548389018501528794508693909201918101611b30565b93607f1693611ad4565b9050346102845760203660031901126102845760043563ffffffff60e01b8116809103611bd757602092506380ac58cd60e01b8114908115611bc6575b8115611bb5575b5015158152f35b6301ffc9a760e01b14905038611bae565b635b5e139f60e01b81149150611ba7565b8280fd5b60005b838110611bee5750506000910152565b8181015183820152602001611bde565b90602091611c1781518092818552858086019101611bdb565b601f01601f1916010190565b600435906001600160a01b0382168203611c3957565b600080fd5b602435906001600160a01b0382168203611c3957565b6060906003190112611c39576001600160a01b03906004358281168103611c3957916024359081168103611c39579060443590565b6024359060ff82168203611c3957565b8054821015611cb15760005260206000200190600090565b634e487b7160e01b600052603260045260246000fd5b610140810190811067ffffffffffffffff821117611ce457604052565b634e487b7160e01b600052604160045260246000fd5b6080810190811067ffffffffffffffff821117611ce457604052565b6020810190811067ffffffffffffffff821117611ce457604052565b6040810190811067ffffffffffffffff821117611ce457604052565b90601f8019910116810190811067ffffffffffffffff821117611ce457604052565b67ffffffffffffffff8111611ce457601f01601f191660200190565b929192611d9882611d70565b91611da66040519384611d4e565b829481845281830111611c39578281602093846000960137010152565b9080601f83011215611c3957816020611dde93359101611d8c565b90565b6006546001600160a01b03163303611df557565b60405163118cdaa760e01b8152336004820152602490fd5b6001600160a01b039182169290918315611f9357600092828452826020956002875260409684888820541696879133151580611efd575b509060027fddf252ad1be2c89b69c2b068fc378daa952ba7f163c4a11628f55a4df523b3ef9284611eca575b858352600381528b8320805460010190558683525289812080546001600160a01b0319168517905580a41692838303611ea95750505050565b6064945051926364283d7b60e01b8452600484015260248301526044820152fd5b600087815260046020526040902080546001600160a01b0319169055848352600381528b83208054600019019055611e70565b91939450915080611f52575b15611f1957859291879138611e44565b878688611f36576024915190637e27328960e01b82526004820152fd5b604491519063177e802f60e01b82523360048301526024820152fd5b503387148015611f77575b80611f095750858252600481523385898420541614611f09565b5086825260058152878220338352815260ff8883205416611f5d565b604051633250574960e11b815260006004820152602490fd5b6000818152600260205260409020546001600160a01b0316908115611fcf575090565b60249060405190637e27328960e01b82526004820152fd5b909192833b611ff8575b5050505050565b604051630a85bd0160e11b8082526001600160a01b039384166004830152938316602482015260448101919091526080606482015260209591909316939091908390612048906084830190611bfe565b039285816000958187895af18491816120d4575b506120b6575050503d6000146120ae573d61207681611d70565b906120846040519283611d4e565b81528091843d92013e80519283610f1757604051633250574960e11b815260048101849052602490fd5b506060610ef6565b919450915063ffffffff60e01b1603610f4757503880808080611ff1565b9091508681813d831161210d575b6120ec8183611d4e565b81010312610c1357516001600160e01b031981168103610c1357903861205c565b503d6120e2565b51908115158203611c3957565b9190826040910312611c3957611dde602083519301612114565b51906001600160a01b0382168203611c3957565b81601f82011215611c3957805161216581611d70565b926121736040519485611d4e565b81845260208284010111611c3957611dde9160208085019101611bdb565b519060ff82168203611c3957565b90602082820312611c3957815167ffffffffffffffff92838211611c39570190610220928383830312611c395760405193840184811082821117611ce457604052825184526121f06020840161213b565b60208501526040830151818111611c39578261220d91850161214f565b60408501526060830151818111611c39578261222a91850161214f565b60608501526080830151608085015260a083015160a085015260c083015160c085015261225960e08401612191565b60e085015261010080840151828111611c39578361227891860161214f565b908501526101209182840151918211611c395761229691840161214f565b908301526101408082015190830152610160808201519083015261018080820151908301526101a06122c9818301612191565b908301526101c06122db818301612191565b908301526101e080820151908301526122f8610200809201612114565b9082015290565b600019811461230e5760010190565b634e487b7160e01b600052601160045260246000fd5b9190820180921161230e57565b600260075414612342576002600755565b604051633ee5aeb560e01b8152600490fd5b9190820391821161230e57565b8051821015611cb15760209160051b010190565b60405160009261238482611cfa565b60405161239081611d32565b60048152636261736560e01b602082015282526040516123af81611d32565b600481526363656c6f60e01b602082015260208301526040516123d181611d32565b60078152663837b63cb3b7b760c91b60208201526040830152604051906123f782611d32565b600591828152641b5bdb985960da1b60208201526060840152845b6004811061242257505050505090565b80831b840151602061243d6040519283815193849201611bdb565b600a9082019081528190036020019020546001600160a01b03168061246c575b50612467906122ff565b612412565b6000600491604051928380926336bb1d3760e11b82525afa60009181612537575b5061249c5750612467906122ff565b93600097919695979392935b8551811015612525576001600160a01b036124c38288612361565b5151166001600160a01b038a16146124e3576124de906122ff565b6124a8565b919795909492939261246792612511929160ff86166125195760209161250891612361565b51015190612324565b955b9061245d565b60409161250891612361565b50935095939461246790929192612513565b90913d908181843e6125498284611d4e565b60208383810103126102885782519067ffffffffffffffff9182811161028457840192808501601f8501121561028457835192831161154657604051946125956020858c1b0187611d4e565b838652602086019482820160208660071b8301011161115c5760208101955b60208660071b83010187106125d15750505050505050903861248d565b6080878585010312610c135760206080916040516125ee81611cfa565b6125f78a61213b565b8152828a01518382015260408a0151604082015260608a015160608201528152019601956125b4565b600954604080516309626a2360e41b8152600481018490526001600160a01b03948516602482015293909116929081604481865afa8060009283926126e6575b5061266e5750505050600090565b159081156126dd575b506126d657600090602460405180948193637f41df6760e11b835260048301525afa600091816126bb575b506126ad5750600090565b6101a0015160ff1660011490565b6126cf91923d8091833e6108058183611d4e565b90386126a2565b5050600090565b90501538612677565b909250612701915060403d811161079b5761078c8183611d4e565b909138612660565b600052600b6020526040600020600481015460ff81168015612762575b6126d657600182015460059161275a9161274f9160101c60ff16906001600160a01b0316612375565b600684015490612354565b910154111590565b506003820154421161272656fea264697066735822122094e8bd13f7b1dd768d54a54adaaf76203ecf6fdc0d59f512cabd392ae4c00bf864736f6c63430008140033","opcodes":"PUSH1 0x80 CALLVALUE PUSH3 0x3C8 JUMPI PUSH1 0x1F SWAP1 PUSH1 0x1 PUSH1 0x1 PUSH1 0x40 SHL SUB SWAP1 PUSH1 0x1F NOT SWAP1 PUSH3 0x2B93 CODESIZE DUP2 SWAP1 SUB DUP6 DUP2 ADD DUP5 AND DUP4 ADD DUP6 DUP2 GT DUP5 DUP3 LT OR PUSH3 0x3B2 JUMPI DUP4 SWAP3 DUP3 SWAP2 PUSH1 0x40 MSTORE DUP4 CODECOPY PUSH1 0x20 SWAP3 DUP4 SWAP2 DUP2 ADD SUB SLT PUSH3 0x3C8 JUMPI MLOAD PUSH1 0x1 PUSH1 0x1 PUSH1 0xA0 SHL SUB SWAP5 DUP6 DUP3 AND SWAP5 SWAP2 DUP6 SWAP1 SUB PUSH3 0x3C8 JUMPI PUSH3 0x6A PUSH3 0x3CD JUMP JUMPDEST SWAP3 PUSH1 0xE DUP5 MSTORE PUSH14 0x14DDD9585D115C5D5A5D1E539195 PUSH1 0x92 SHL DUP2 DUP6 ADD MSTORE PUSH3 0x8F PUSH3 0x3CD JUMP JUMPDEST SWAP1 PUSH1 0x5 DUP3 MSTORE PUSH5 0x14D1539195 PUSH1 0xDA SHL DUP2 DUP4 ADD MSTORE DUP5 MLOAD SWAP6 DUP5 DUP8 GT PUSH3 0x3B2 JUMPI PUSH1 0x0 SWAP7 DUP8 SLOAD SWAP7 PUSH1 0x1 SWAP8 DUP9 DUP2 DUP2 SHR SWAP2 AND DUP1 ISZERO PUSH3 0x3A7 JUMPI JUMPDEST DUP6 DUP3 LT EQ PUSH3 0x393 JUMPI SWAP1 DUP2 DUP8 DUP5 SWAP4 GT PUSH3 0x340 JUMPI JUMPDEST POP DUP5 SWAP1 DUP8 DUP4 GT PUSH1 0x1 EQ PUSH3 0x2DF JUMPI DUP11 SWAP3 PUSH3 0x2D3 JUMPI JUMPDEST POP POP PUSH1 0x0 NOT PUSH1 0x3 DUP4 SWAP1 SHL SHR NOT AND SWAP1 DUP8 SHL OR DUP8 SSTORE JUMPDEST DUP3 MLOAD SWAP5 DUP6 GT PUSH3 0x2BF JUMPI DUP6 SLOAD DUP7 DUP2 DUP2 SHR SWAP2 AND DUP1 ISZERO PUSH3 0x2B4 JUMPI JUMPDEST DUP4 DUP3 LT EQ PUSH3 0x2A0 JUMPI SWAP1 DUP2 DUP6 DUP8 SWAP7 SWAP6 SWAP5 SWAP4 GT PUSH3 0x247 JUMPI JUMPDEST POP DUP2 SWAP4 DUP6 GT PUSH1 0x1 EQ PUSH3 0x1E2 JUMPI POP POP DUP6 SWAP3 PUSH3 0x1D6 JUMPI JUMPDEST POP POP PUSH1 0x0 NOT PUSH1 0x3 DUP4 SWAP1 SHL SHR NOT AND SWAP1 DUP3 SHL OR DUP2 SSTORE JUMPDEST CALLER ISZERO PUSH3 0x1BD JUMPI PUSH1 0x6 SLOAD PUSH1 0x1 DUP1 PUSH1 0xA0 SHL SUB NOT SWAP3 CALLER DUP5 DUP4 AND OR PUSH1 0x6 SSTORE PUSH32 0x8BE0079C531659141344CD1FD0A4F28419497F9722A3DAAFE3B4186F6B6457E0 PUSH1 0x40 MLOAD SWAP7 CALLER SWAP4 AND SWAP2 DUP1 LOG3 PUSH1 0x7 SSTORE PUSH1 0x9 SLOAD AND OR PUSH1 0x9 SSTORE PUSH2 0x27A5 SWAP1 DUP2 PUSH3 0x3EE DUP3 CODECOPY RETURN JUMPDEST PUSH1 0x40 MLOAD PUSH4 0x1E4FBDF7 PUSH1 0xE0 SHL DUP2 MSTORE PUSH1 0x4 DUP2 ADD DUP4 SWAP1 MSTORE PUSH1 0x24 SWAP1 REVERT JUMPDEST ADD MLOAD SWAP1 POP CODESIZE DUP1 PUSH3 0x14B JUMP JUMPDEST DUP7 SWAP6 SWAP4 SWAP3 SWAP2 SWAP4 AND DUP6 DUP9 MSTORE DUP4 DUP9 KECCAK256 SWAP4 DUP9 SWAP1 JUMPDEST DUP3 DUP3 LT PUSH3 0x22D JUMPI POP POP DUP5 GT PUSH3 0x213 JUMPI JUMPDEST POP POP POP DUP2 SHL ADD DUP2 SSTORE PUSH3 0x15F JUMP JUMPDEST ADD MLOAD PUSH1 0x0 NOT PUSH1 0xF8 DUP5 PUSH1 0x3 SHL AND SHR NOT AND SWAP1 SSTORE CODESIZE DUP1 DUP1 PUSH3 0x205 JUMP JUMPDEST DUP5 DUP5 ADD MLOAD DUP7 SSTORE DUP9 SWAP8 SWAP1 SWAP6 ADD SWAP5 SWAP4 DUP5 ADD SWAP4 SWAP1 DUP2 ADD SWAP1 PUSH3 0x1F3 JUMP JUMPDEST SWAP1 SWAP2 SWAP3 SWAP4 SWAP5 POP DUP7 DUP9 MSTORE DUP3 DUP9 KECCAK256 DUP6 DUP1 DUP9 ADD PUSH1 0x5 SHR DUP3 ADD SWAP3 DUP6 DUP10 LT PUSH3 0x296 JUMPI JUMPDEST SWAP2 DUP9 SWAP8 DUP11 SWAP3 SWAP8 SWAP7 SWAP6 SWAP5 SWAP4 ADD PUSH1 0x5 SHR ADD SWAP2 JUMPDEST DUP3 DUP2 LT PUSH3 0x287 JUMPI POP POP PUSH3 0x134 JUMP JUMPDEST DUP11 DUP2 SSTORE DUP9 SWAP8 POP DUP10 SWAP2 ADD PUSH3 0x277 JUMP JUMPDEST SWAP3 POP DUP2 SWAP3 PUSH3 0x266 JUMP JUMPDEST PUSH4 0x4E487B71 PUSH1 0xE0 SHL DUP9 MSTORE PUSH1 0x22 PUSH1 0x4 MSTORE PUSH1 0x24 DUP9 REVERT JUMPDEST SWAP1 PUSH1 0x7F AND SWAP1 PUSH3 0x11C JUMP JUMPDEST PUSH4 0x4E487B71 PUSH1 0xE0 SHL DUP8 MSTORE PUSH1 0x41 PUSH1 0x4 MSTORE PUSH1 0x24 DUP8 REVERT JUMPDEST ADD MLOAD SWAP1 POP CODESIZE DUP1 PUSH3 0xEE JUMP JUMPDEST SWAP1 DUP5 DUP11 SWAP5 AND SWAP2 DUP12 DUP1 MSTORE DUP7 DUP13 KECCAK256 SWAP3 DUP13 JUMPDEST DUP9 DUP3 DUP3 LT PUSH3 0x329 JUMPI POP POP DUP5 GT PUSH3 0x30F JUMPI JUMPDEST POP POP POP DUP2 SHL ADD DUP8 SSTORE PUSH3 0x102 JUMP JUMPDEST ADD MLOAD PUSH1 0x0 NOT PUSH1 0xF8 DUP5 PUSH1 0x3 SHL AND SHR NOT AND SWAP1 SSTORE CODESIZE DUP1 DUP1 PUSH3 0x301 JUMP JUMPDEST DUP4 DUP6 ADD MLOAD DUP7 SSTORE DUP14 SWAP8 SWAP1 SWAP6 ADD SWAP5 SWAP4 DUP5 ADD SWAP4 ADD PUSH3 0x2EE JUMP JUMPDEST SWAP1 SWAP2 POP DUP10 DUP1 MSTORE DUP5 DUP11 KECCAK256 DUP8 DUP1 DUP6 ADD PUSH1 0x5 SHR DUP3 ADD SWAP3 DUP8 DUP7 LT PUSH3 0x389 JUMPI JUMPDEST SWAP2 DUP12 SWAP2 DUP7 SWAP6 SWAP5 SWAP4 ADD PUSH1 0x5 SHR ADD SWAP2 JUMPDEST DUP3 DUP2 LT PUSH3 0x37A JUMPI POP POP PUSH3 0xD8 JUMP JUMPDEST DUP13 DUP2 SSTORE DUP6 SWAP5 POP DUP12 SWAP2 ADD PUSH3 0x36A JUMP JUMPDEST SWAP3 POP DUP2 SWAP3 PUSH3 0x35C JUMP JUMPDEST PUSH4 0x4E487B71 PUSH1 0xE0 SHL DUP11 MSTORE PUSH1 0x22 PUSH1 0x4 MSTORE PUSH1 0x24 DUP11 REVERT JUMPDEST SWAP1 PUSH1 0x7F AND SWAP1 PUSH3 0xC3 JUMP JUMPDEST PUSH4 0x4E487B71 PUSH1 0xE0 SHL PUSH1 0x0 MSTORE PUSH1 0x41 PUSH1 0x4 MSTORE PUSH1 0x24 PUSH1 0x0 REVERT JUMPDEST PUSH1 0x0 DUP1 REVERT JUMPDEST PUSH1 0x40 DUP1 MLOAD SWAP2 SWAP1 DUP3 ADD PUSH1 0x1 PUSH1 0x1 PUSH1 0x40 SHL SUB DUP2 GT DUP4 DUP3 LT OR PUSH3 0x3B2 JUMPI PUSH1 0x40 MSTORE JUMP INVALID PUSH1 0x80 DUP1 PUSH1 0x40 MSTORE PUSH1 0x4 CALLDATASIZE LT ISZERO PUSH2 0x1A JUMPI JUMPDEST POP CALLDATASIZE ISZERO PUSH2 0x18 JUMPI STOP JUMPDEST STOP JUMPDEST PUSH1 0x0 SWAP1 DUP2 CALLDATALOAD PUSH1 0xE0 SHR SWAP1 DUP2 PUSH4 0x1FFC9A7 EQ PUSH2 0x1B6A JUMPI POP DUP1 PUSH4 0x6FDDE03 EQ PUSH2 0x1AAA JUMPI DUP1 PUSH4 0x81812FC EQ PUSH2 0x1A6D JUMPI DUP1 PUSH4 0x9580BEF EQ PUSH2 0x1A20 JUMPI DUP1 PUSH4 0x95EA7B3 EQ PUSH2 0x193D JUMPI DUP1 PUSH4 0xCA64F2F EQ PUSH2 0x191F JUMPI DUP1 PUSH4 0x11DA8E54 EQ PUSH2 0x1871 JUMPI DUP1 PUSH4 0x1BDD4B74 EQ PUSH2 0x172E JUMPI DUP1 PUSH4 0x2293E756 EQ PUSH2 0x168F JUMPI DUP1 PUSH4 0x23B872DD EQ PUSH2 0x1677 JUMPI DUP1 PUSH4 0x2D3E1CDF EQ PUSH2 0x1658 JUMPI DUP1 PUSH4 0x374DD7C5 EQ PUSH2 0x1403 JUMPI DUP1 PUSH4 0x42842E0E EQ PUSH2 0x13D5 JUMPI DUP1 PUSH4 0x48C77BE6 EQ PUSH2 0x13B9 JUMPI DUP1 PUSH4 0x4D4C277D EQ PUSH2 0x139D JUMPI DUP1 PUSH4 0x6352211E EQ PUSH2 0x136C JUMPI DUP1 PUSH4 0x70A08231 EQ PUSH2 0x1314 JUMPI DUP1 PUSH4 0x715018A6 EQ PUSH2 0x12B6 JUMPI DUP1 PUSH4 0x8DA5CB5B EQ PUSH2 0x128D JUMPI DUP1 PUSH4 0x95D89B41 EQ PUSH2 0x1195 JUMPI DUP1 PUSH4 0x98F2CC96 EQ PUSH2 0x1160 JUMPI DUP1 PUSH4 0xA22CB465 EQ PUSH2 0x10AE JUMPI DUP1 PUSH4 0xA49613B4 EQ PUSH2 0xCDF JUMPI DUP1 PUSH4 0xA5E65E77 EQ PUSH2 0xCA6 JUMPI DUP1 PUSH4 0xA5FF0A13 EQ PUSH2 0xC50 JUMPI DUP1 PUSH4 0xB03381BC EQ PUSH2 0xC17 JUMPI DUP1 PUSH4 0xB88D4FDE EQ PUSH2 0xBA3 JUMPI DUP1 PUSH4 0xBC220CCF EQ PUSH2 0xB72 JUMPI DUP1 PUSH4 0xC87B56DD EQ PUSH2 0x95F JUMPI DUP1 PUSH4 0xD255E2D6 EQ PUSH2 0x8F5 JUMPI DUP1 PUSH4 0xD4ED2C13 EQ PUSH2 0x8D9 JUMPI DUP1 PUSH4 0xD55C62F1 EQ PUSH2 0x41E JUMPI DUP1 PUSH4 0xDB2E21BC EQ PUSH2 0x398 JUMPI DUP1 PUSH4 0xDEF114B6 EQ PUSH2 0x36F JUMPI DUP1 PUSH4 0xE985E9C5 EQ PUSH2 0x31B JUMPI DUP1 PUSH4 0xF2FDE38B EQ PUSH2 0x28B JUMPI PUSH4 0xFA89FC41 SUB PUSH2 0xF JUMPI CALLVALUE PUSH2 0x288 JUMPI PUSH1 0x40 CALLDATASIZE PUSH1 0x3 NOT ADD SLT PUSH2 0x288 JUMPI PUSH1 0x4 CALLDATALOAD PUSH8 0xFFFFFFFFFFFFFFFF DUP2 GT PUSH2 0x284 JUMPI PUSH2 0x1EB SWAP1 CALLDATASIZE SWAP1 PUSH1 0x4 ADD PUSH2 0x1DC3 JUMP JUMPDEST PUSH32 0x36D7F8EFCD1C355E669CF3684D797615D57D7A24176FF79D29C3237A895C7933 PUSH1 0x20 PUSH2 0x274 PUSH2 0x219 PUSH2 0x1C3E JUMP JUMPDEST SWAP4 PUSH2 0x222 PUSH2 0x1DE1 JUMP JUMPDEST PUSH1 0x40 MLOAD SWAP1 DUP1 MLOAD SWAP2 DUP5 DUP2 DUP2 DUP5 ADD SWAP5 PUSH2 0x23A DUP2 DUP4 DUP9 PUSH2 0x1BDB JUMP JUMPDEST PUSH1 0xA SWAP1 DUP3 ADD SWAP1 DUP2 MSTORE SUB ADD SWAP1 KECCAK256 DUP1 SLOAD PUSH1 0x1 PUSH1 0x1 PUSH1 0xA0 SHL SUB NOT AND PUSH1 0x1 PUSH1 0x1 PUSH1 0xA0 SHL SUB SWAP1 SWAP8 AND SWAP7 DUP8 OR SWAP1 SSTORE PUSH1 0x40 MLOAD SWAP1 MLOAD SWAP1 SWAP3 DUP4 SWAP3 DUP3 SWAP1 DUP5 SWAP1 PUSH2 0x1BDB JUMP JUMPDEST DUP2 ADD SUB SWAP1 KECCAK256 SWAP3 PUSH1 0x40 MLOAD SWAP1 DUP2 MSTORE LOG2 DUP1 RETURN JUMPDEST POP DUP1 REVERT JUMPDEST DUP1 REVERT JUMPDEST POP CALLVALUE PUSH2 0x288 JUMPI PUSH1 0x20 CALLDATASIZE PUSH1 0x3 NOT ADD SLT PUSH2 0x288 JUMPI PUSH2 0x2A5 PUSH2 0x1C23 JUMP JUMPDEST PUSH2 0x2AD PUSH2 0x1DE1 JUMP JUMPDEST PUSH1 0x1 PUSH1 0x1 PUSH1 0xA0 SHL SUB SWAP1 DUP2 AND SWAP1 DUP2 ISZERO PUSH2 0x302 JUMPI PUSH1 0x6 SLOAD DUP3 PUSH12 0xFFFFFFFFFFFFFFFFFFFFFFFF PUSH1 0xA0 SHL DUP3 AND OR PUSH1 0x6 SSTORE AND PUSH32 0x8BE0079C531659141344CD1FD0A4F28419497F9722A3DAAFE3B4186F6B6457E0 PUSH1 0x0 DUP1 LOG3 DUP1 RETURN JUMPDEST PUSH1 0x40 MLOAD PUSH4 0x1E4FBDF7 PUSH1 0xE0 SHL DUP2 MSTORE PUSH1 0x4 DUP2 ADD DUP5 SWAP1 MSTORE PUSH1 0x24 SWAP1 REVERT JUMPDEST POP CALLVALUE PUSH2 0x288 JUMPI PUSH1 0x40 CALLDATASIZE PUSH1 0x3 NOT ADD SLT PUSH2 0x288 JUMPI PUSH2 0x335 PUSH2 0x1C23 JUMP JUMPDEST PUSH1 0x40 PUSH2 0x33F PUSH2 0x1C3E JUMP JUMPDEST SWAP3 PUSH1 0x1 DUP1 PUSH1 0xA0 SHL SUB DUP1 SWAP4 AND DUP2 MSTORE PUSH1 0x5 PUSH1 0x20 MSTORE KECCAK256 SWAP2 AND PUSH1 0x0 MSTORE PUSH1 0x20 MSTORE PUSH1 0x20 PUSH1 0xFF PUSH1 0x40 PUSH1 0x0 KECCAK256 SLOAD AND PUSH1 0x40 MLOAD SWAP1 ISZERO ISZERO DUP2 MSTORE RETURN JUMPDEST POP CALLVALUE PUSH2 0x288 JUMPI DUP1 PUSH1 0x3 NOT CALLDATASIZE ADD SLT PUSH2 0x288 JUMPI PUSH1 0x9 SLOAD PUSH1 0x40 MLOAD PUSH1 0x1 PUSH1 0x1 PUSH1 0xA0 SHL SUB SWAP1 SWAP2 AND DUP2 MSTORE PUSH1 0x20 SWAP1 RETURN JUMPDEST POP CALLVALUE PUSH2 0x288 JUMPI DUP1 PUSH1 0x3 NOT CALLDATASIZE ADD SLT PUSH2 0x288 JUMPI PUSH2 0x3B1 PUSH2 0x1DE1 JUMP JUMPDEST SELFBALANCE DUP1 ISZERO PUSH2 0x3E2 JUMPI PUSH1 0x6 SLOAD DUP3 SWAP2 DUP3 SWAP2 DUP3 SWAP2 DUP3 SWAP2 PUSH1 0x1 PUSH1 0x1 PUSH1 0xA0 SHL SUB AND DUP3 CALL ISZERO PUSH2 0x3D6 JUMPI DUP1 RETURN JUMPDEST PUSH1 0x40 MLOAD SWAP1 RETURNDATASIZE SWAP1 DUP3 RETURNDATACOPY RETURNDATASIZE SWAP1 REVERT JUMPDEST PUSH1 0x40 MLOAD PUSH3 0x461BCD PUSH1 0xE5 SHL DUP2 MSTORE PUSH1 0x20 PUSH1 0x4 DUP3 ADD MSTORE PUSH1 0x14 PUSH1 0x24 DUP3 ADD MSTORE PUSH20 0x4E6F2066756E647320746F207769746864726177 PUSH1 0x60 SHL PUSH1 0x44 DUP3 ADD MSTORE PUSH1 0x64 SWAP1 REVERT JUMPDEST POP CALLVALUE PUSH2 0x288 JUMPI PUSH1 0x60 CALLDATASIZE PUSH1 0x3 NOT ADD SLT PUSH2 0x288 JUMPI PUSH2 0x438 PUSH2 0x1C89 JUMP JUMPDEST PUSH1 0x44 CALLDATALOAD SWAP1 PUSH2 0x444 PUSH2 0x2331 JUMP JUMPDEST PUSH1 0x1 PUSH1 0xFF DUP3 AND GT PUSH2 0x89C JUMPI PUSH1 0x9 SLOAD PUSH1 0x40 DUP1 MLOAD PUSH4 0x9626A23 PUSH1 0xE4 SHL DUP2 MSTORE PUSH1 0x4 DUP1 CALLDATALOAD SWAP1 DUP3 ADD MSTORE CALLER PUSH1 0x24 DUP3 ADD MSTORE PUSH1 0x1 PUSH1 0x1 PUSH1 0xA0 SHL SUB SWAP1 SWAP3 AND SWAP4 SWAP1 DUP3 PUSH1 0x44 DUP2 DUP8 GAS STATICCALL DUP1 ISZERO PUSH2 0x891 JUMPI DUP6 SWAP3 DUP7 SWAP2 PUSH2 0x86C JUMPI JUMPDEST POP DUP1 PUSH2 0x863 JUMPI JUMPDEST ISZERO PUSH2 0x81E JUMPI PUSH1 0x40 MLOAD PUSH4 0x7F41DF67 PUSH1 0xE1 SHL DUP2 MSTORE PUSH1 0x4 DUP1 CALLDATALOAD SWAP1 DUP3 ADD MSTORE PUSH1 0x24 SWAP5 SWAP1 DUP7 DUP2 DUP8 DUP2 DUP6 GAS STATICCALL DUP1 ISZERO PUSH2 0x813 JUMPI PUSH2 0x1A0 PUSH1 0xFF SWAP2 PUSH1 0x1 SWAP4 DUP11 SWAP2 PUSH2 0x7F1 JUMPI JUMPDEST POP ADD MLOAD AND SUB PUSH2 0x7AD JUMPI PUSH1 0x40 DUP1 MLOAD PUSH4 0x9626A23 PUSH1 0xE4 SHL DUP2 MSTORE PUSH1 0x4 DUP1 CALLDATALOAD SWAP1 DUP3 ADD MSTORE CALLER PUSH1 0x24 DUP3 ADD MSTORE SWAP2 DUP3 SWAP1 PUSH1 0x44 SWAP1 DUP3 SWAP1 GAS STATICCALL SWAP1 DUP2 ISZERO PUSH2 0x7A2 JUMPI DUP7 SWAP1 DUP8 SWAP3 PUSH2 0x770 JUMPI JUMPDEST POP DUP2 PUSH2 0x766 JUMPI JUMPDEST POP ISZERO PUSH2 0x72B JUMPI PUSH2 0x529 DUP4 CALLER PUSH2 0x2375 JUMP JUMPDEST SWAP2 PUSH1 0x50 DUP2 MUL SWAP1 DUP1 DUP3 DIV PUSH1 0x50 EQ SWAP1 ISZERO OR ISZERO PUSH2 0x718 JUMPI PUSH1 0x64 SWAP1 DIV SWAP3 PUSH2 0x54D PUSH1 0x8 SLOAD PUSH2 0x22FF JUMP JUMPDEST SWAP5 DUP6 PUSH1 0x8 SSTORE PUSH3 0x15180 TIMESTAMP ADD DUP1 TIMESTAMP GT PUSH2 0x705 JUMPI PUSH1 0x7 DUP8 DUP7 DUP7 DUP12 DUP8 PUSH1 0x40 MLOAD DUP1 SWAP8 PUSH2 0x574 DUP3 PUSH2 0x1CC7 JUMP JUMPDEST PUSH1 0x4 CALLDATALOAD DUP3 MSTORE DUP14 PUSH1 0x20 DUP4 ADD CALLER DUP2 MSTORE PUSH1 0x40 DUP5 ADD SWAP2 DUP3 MSTORE PUSH1 0x60 DUP5 ADD SWAP3 DUP4 MSTORE PUSH1 0x40 PUSH1 0x80 DUP6 ADD SWAP7 DUP1 DUP9 MSTORE PUSH1 0xFF PUSH1 0xC0 PUSH1 0xA0 DUP9 ADD SWAP8 DUP4 DUP10 MSTORE ADD SWAP8 AND DUP8 MSTORE PUSH1 0xE0 DUP14 ADD SWAP9 DUP10 MSTORE PUSH2 0x100 DUP14 ADD SWAP10 DUP11 MSTORE PUSH2 0x120 DUP14 ADD SWAP11 TIMESTAMP DUP13 MSTORE DUP2 MSTORE PUSH1 0xB PUSH1 0x20 MSTORE KECCAK256 SWAP11 MLOAD DUP12 SSTORE PUSH1 0x1 DUP12 ADD SWAP1 PUSH1 0x1 DUP1 PUSH1 0xA0 SHL SUB SWAP1 MLOAD AND PUSH12 0xFFFFFFFFFFFFFFFFFFFFFFFF PUSH1 0xA0 SHL DUP3 SLOAD AND OR SWAP1 SSTORE MLOAD PUSH1 0x2 DUP11 ADD SSTORE MLOAD PUSH1 0x3 DUP10 ADD SSTORE PUSH2 0x61C PUSH1 0x4 DUP10 ADD SWAP4 MLOAD ISZERO ISZERO DUP5 SWAP1 PUSH1 0xFF DUP1 NOT DUP4 SLOAD AND SWAP2 ISZERO ISZERO AND OR SWAP1 SSTORE JUMP JUMPDEST MLOAD ISZERO ISZERO SWAP1 PUSH2 0xFF00 PUSH3 0xFF0000 DUP5 SLOAD SWAP3 MLOAD PUSH1 0x10 SHL AND SWAP3 PUSH1 0x8 SHL AND SWAP1 PUSH3 0xFFFF00 NOT AND OR OR SWAP1 SSTORE MLOAD PUSH1 0x5 DUP6 ADD SSTORE MLOAD PUSH1 0x6 DUP5 ADD SSTORE MLOAD SWAP2 ADD SSTORE CALLER DUP8 MSTORE PUSH1 0xC PUSH1 0x20 MSTORE PUSH1 0x40 DUP8 KECCAK256 DUP1 SLOAD SWAP2 PUSH9 0x10000000000000000 DUP4 LT ISZERO PUSH2 0x6F3 JUMPI POP DUP2 PUSH2 0x683 SWAP2 PUSH1 0x1 PUSH1 0xFF SWAP6 SWAP5 ADD DUP2 SSTORE PUSH2 0x1C99 JUMP JUMPDEST DUP2 SLOAD SWAP1 PUSH1 0x3 SHL SWAP1 DUP9 DUP3 SHL SWAP2 PUSH1 0x0 NOT SWAP1 SHL NOT AND OR SWAP1 SSTORE DUP6 DUP8 MSTORE PUSH1 0xD PUSH1 0x20 MSTORE PUSH1 0x40 DUP8 KECCAK256 DUP3 NOT DUP2 SLOAD AND SWAP1 SSTORE PUSH1 0x40 MLOAD SWAP5 DUP6 MSTORE AND PUSH1 0x20 DUP5 ADD MSTORE PUSH1 0x40 DUP4 ADD MSTORE PUSH1 0x60 DUP3 ADD MSTORE CALLER SWAP2 PUSH32 0xEC115E970931C4684F8D813A45F54C5DDD93A33803AD78309520B9B9FDA2052D PUSH1 0x80 PUSH1 0x4 CALLDATALOAD SWAP4 LOG4 PUSH1 0x1 PUSH1 0x7 SSTORE DUP1 RETURN JUMPDEST PUSH4 0x4E487B71 PUSH1 0xE0 SHL DUP10 MSTORE PUSH1 0x41 PUSH1 0x4 MSTORE DUP9 REVERT JUMPDEST POP PUSH4 0x4E487B71 PUSH1 0xE0 SHL DUP8 MSTORE PUSH1 0x11 PUSH1 0x4 MSTORE DUP7 REVERT JUMPDEST PUSH4 0x4E487B71 PUSH1 0xE0 SHL DUP7 MSTORE PUSH1 0x11 PUSH1 0x4 MSTORE DUP5 DUP7 REVERT JUMPDEST PUSH1 0x40 MLOAD PUSH3 0x461BCD PUSH1 0xE5 SHL DUP2 MSTORE PUSH1 0x20 PUSH1 0x4 DUP3 ADD MSTORE PUSH1 0x14 DUP2 DUP7 ADD MSTORE PUSH20 0x139BC81D985B1A59081CDD185AD948199BDD5B99 PUSH1 0x62 SHL PUSH1 0x44 DUP3 ADD MSTORE PUSH1 0x64 SWAP1 REVERT JUMPDEST SWAP1 POP ISZERO ISZERO CODESIZE PUSH2 0x519 JUMP JUMPDEST SWAP1 POP PUSH2 0x794 SWAP2 POP PUSH1 0x40 RETURNDATASIZE PUSH1 0x40 GT PUSH2 0x79B JUMPI JUMPDEST PUSH2 0x78C DUP2 DUP4 PUSH2 0x1D4E JUMP JUMPDEST DUP2 ADD SWAP1 PUSH2 0x2121 JUMP JUMPDEST SWAP1 CODESIZE PUSH2 0x512 JUMP JUMPDEST POP RETURNDATASIZE PUSH2 0x782 JUMP JUMPDEST PUSH1 0x40 MLOAD RETURNDATASIZE DUP9 DUP3 RETURNDATACOPY RETURNDATASIZE SWAP1 REVERT JUMPDEST PUSH1 0x40 MLOAD PUSH3 0x461BCD PUSH1 0xE5 SHL DUP2 MSTORE PUSH1 0x20 PUSH1 0x4 DUP3 ADD MSTORE PUSH1 0x17 DUP2 DUP8 ADD MSTORE PUSH32 0x50726564696374696F6E206E6F74207265736F6C766564000000000000000000 PUSH1 0x44 DUP3 ADD MSTORE PUSH1 0x64 SWAP1 REVERT JUMPDEST PUSH2 0x80D SWAP2 POP RETURNDATASIZE DUP1 DUP13 DUP4 RETURNDATACOPY PUSH2 0x805 DUP2 DUP4 PUSH2 0x1D4E JUMP JUMPDEST DUP2 ADD SWAP1 PUSH2 0x219F JUMP JUMPDEST CODESIZE PUSH2 0x4D3 JUMP JUMPDEST PUSH1 0x40 MLOAD RETURNDATASIZE DUP10 DUP3 RETURNDATACOPY RETURNDATASIZE SWAP1 REVERT JUMPDEST PUSH1 0x40 MLOAD PUSH3 0x461BCD PUSH1 0xE5 SHL DUP2 MSTORE PUSH1 0x20 PUSH1 0x4 DUP3 ADD MSTORE PUSH1 0x1B PUSH1 0x24 DUP3 ADD MSTORE PUSH32 0x4E6F207374616B6520696E20746869732070726564696374696F6E0000000000 PUSH1 0x44 DUP3 ADD MSTORE PUSH1 0x64 SWAP1 REVERT JUMPDEST POP DUP2 ISZERO ISZERO PUSH2 0x498 JUMP JUMPDEST SWAP1 POP PUSH2 0x888 SWAP2 SWAP3 POP PUSH1 0x40 RETURNDATASIZE PUSH1 0x40 GT PUSH2 0x79B JUMPI PUSH2 0x78C DUP2 DUP4 PUSH2 0x1D4E JUMP JUMPDEST SWAP2 SWAP1 SWAP2 CODESIZE PUSH2 0x491 JUMP JUMPDEST PUSH1 0x40 MLOAD RETURNDATASIZE DUP8 DUP3 RETURNDATACOPY RETURNDATASIZE SWAP1 REVERT JUMPDEST PUSH1 0x40 MLOAD PUSH3 0x461BCD PUSH1 0xE5 SHL DUP2 MSTORE PUSH1 0x20 PUSH1 0x4 DUP3 ADD MSTORE PUSH1 0x15 PUSH1 0x24 DUP3 ADD MSTORE PUSH21 0x496E76616C69642065786572636973652074797065 PUSH1 0x58 SHL PUSH1 0x44 DUP3 ADD MSTORE PUSH1 0x64 SWAP1 REVERT JUMPDEST POP CALLVALUE PUSH2 0x288 JUMPI DUP1 PUSH1 0x3 NOT CALLDATASIZE ADD SLT PUSH2 0x288 JUMPI PUSH1 0x20 PUSH1 0x40 MLOAD PUSH1 0x50 DUP2 MSTORE RETURN JUMPDEST POP CALLVALUE PUSH2 0x288 JUMPI PUSH1 0x20 CALLDATASIZE PUSH1 0x3 NOT ADD SLT PUSH2 0x288 JUMPI PUSH1 0x4 CALLDATALOAD SWAP1 PUSH8 0xFFFFFFFFFFFFFFFF DUP3 GT PUSH2 0x288 JUMPI PUSH1 0x20 PUSH2 0x929 CALLDATASIZE PUSH1 0x4 DUP6 ADD PUSH2 0x1DC3 JUMP JUMPDEST DUP2 PUSH2 0x93D PUSH1 0x40 MLOAD SWAP3 DUP4 DUP2 MLOAD SWAP4 DUP5 SWAP3 ADD PUSH2 0x1BDB JUMP JUMPDEST PUSH1 0xA SWAP1 DUP3 ADD SWAP1 DUP2 MSTORE DUP2 SWAP1 SUB DUP3 ADD SWAP1 KECCAK256 SLOAD PUSH1 0x40 MLOAD PUSH1 0x1 PUSH1 0x1 PUSH1 0xA0 SHL SUB SWAP1 SWAP2 AND DUP2 MSTORE RETURN JUMPDEST POP CALLVALUE PUSH2 0x288 JUMPI PUSH1 0x20 SWAP1 DUP2 PUSH1 0x3 NOT CALLDATASIZE ADD SLT PUSH2 0x288 JUMPI DUP2 PUSH1 0x4 CALLDATALOAD SWAP2 PUSH2 0x981 DUP4 PUSH2 0x1FAC JUMP JUMPDEST POP PUSH1 0x40 MLOAD SWAP3 PUSH2 0x98F DUP5 PUSH2 0x1D16 JUMP JUMPDEST DUP2 DUP5 MSTORE DUP2 ISZERO PUSH2 0xB58 JUMPI DUP2 SWAP1 DUP1 PUSH27 0x184F03E93FF9F4DAA797ED6E38ED64BF6A1F010000000000000000 DUP2 DUP2 DUP2 LT ISZERO PUSH2 0xB4A JUMPI JUMPDEST POP POP DUP5 PUSH14 0x4EE2D6D415B85ACEF8100000000 DUP1 DUP5 LT ISZERO PUSH2 0xB3C JUMPI JUMPDEST POP POP PUSH7 0x2386F26FC10000 DUP1 DUP4 LT ISZERO PUSH2 0xB2D JUMPI JUMPDEST POP PUSH4 0x5F5E100 DUP1 DUP4 LT ISZERO PUSH2 0xB1E JUMPI JUMPDEST POP PUSH2 0x2710 DUP1 DUP4 LT ISZERO PUSH2 0xB0F JUMPI JUMPDEST POP PUSH1 0x64 DUP3 LT ISZERO PUSH2 0xAFF JUMPI JUMPDEST PUSH1 0xA DUP1 SWAP3 LT ISZERO PUSH2 0xAF5 JUMPI JUMPDEST PUSH1 0x1 SWAP1 DUP2 PUSH1 0x21 DUP2 DUP7 ADD SWAP6 PUSH2 0xA4D PUSH2 0xA37 DUP9 PUSH2 0x1D70 JUMP JUMPDEST SWAP8 PUSH2 0xA45 PUSH1 0x40 MLOAD SWAP10 DUP11 PUSH2 0x1D4E JUMP JUMPDEST DUP1 DUP10 MSTORE PUSH2 0x1D70 JUMP JUMPDEST DUP8 DUP11 ADD SWAP9 SWAP1 PUSH1 0x1F NOT ADD CALLDATASIZE DUP11 CALLDATACOPY POP DUP7 ADD ADD SWAP1 JUMPDEST PUSH2 0xABF JUMPI JUMPDEST POP POP POP POP SWAP3 PUSH2 0xAA5 SWAP3 SWAP2 PUSH2 0xA99 SWAP5 PUSH1 0x40 MLOAD SWAP6 DUP4 PUSH2 0xA8A DUP9 SWAP6 MLOAD DUP1 SWAP3 DUP9 DUP1 DUP10 ADD SWAP2 ADD PUSH2 0x1BDB JUMP JUMPDEST DUP5 ADD SWAP2 MLOAD DUP1 SWAP4 DUP7 DUP5 ADD SWAP1 PUSH2 0x1BDB JUMP JUMPDEST ADD SUB DUP1 DUP5 MSTORE ADD DUP3 PUSH2 0x1D4E JUMP JUMPDEST SWAP1 JUMPDEST PUSH2 0xABB PUSH1 0x40 MLOAD SWAP3 DUP3 DUP5 SWAP4 DUP5 MSTORE DUP4 ADD SWAP1 PUSH2 0x1BFE JUMP JUMPDEST SUB SWAP1 RETURN JUMPDEST PUSH1 0x0 NOT ADD SWAP1 DUP4 SWAP1 PUSH16 0x181899199A1A9B1B9C1CB0B131B232B3 PUSH1 0x81 SHL DUP3 DUP3 MOD BYTE DUP4 MSTORE8 DIV SWAP2 DUP3 ISZERO PUSH2 0xAF0 JUMPI SWAP2 SWAP1 DUP3 PUSH2 0xA5F JUMP JUMPDEST PUSH2 0xA64 JUMP JUMPDEST SWAP2 PUSH1 0x1 ADD SWAP2 PUSH2 0xA21 JUMP JUMPDEST SWAP2 SWAP1 PUSH1 0x64 PUSH1 0x2 SWAP2 DIV SWAP2 ADD SWAP2 PUSH2 0xA16 JUMP JUMPDEST PUSH1 0x4 SWAP2 SWAP4 SWAP3 DIV SWAP2 ADD SWAP2 CODESIZE PUSH2 0xA0B JUMP JUMPDEST PUSH1 0x8 SWAP2 SWAP4 SWAP3 DIV SWAP2 ADD SWAP2 CODESIZE PUSH2 0x9FE JUMP JUMPDEST PUSH1 0x10 SWAP2 SWAP4 SWAP3 DIV SWAP2 ADD SWAP2 CODESIZE PUSH2 0x9EF JUMP JUMPDEST SWAP4 ADD SWAP3 SWAP1 SWAP2 DIV SWAP1 DUP5 CODESIZE PUSH2 0x9DC JUMP JUMPDEST PUSH1 0x40 SWAP5 POP DIV SWAP2 POP CODESIZE DUP1 PUSH2 0x9C1 JUMP JUMPDEST POP POP POP POP PUSH1 0x40 MLOAD PUSH2 0xB68 DUP2 PUSH2 0x1D16 JUMP JUMPDEST PUSH1 0x0 DUP2 MSTORE SWAP1 PUSH2 0xAA7 JUMP JUMPDEST POP CALLVALUE PUSH2 0x288 JUMPI PUSH1 0x40 CALLDATASIZE PUSH1 0x3 NOT ADD SLT PUSH2 0x288 JUMPI PUSH1 0x20 PUSH2 0xB99 PUSH2 0xB91 PUSH2 0x1C3E JUMP JUMPDEST PUSH1 0x4 CALLDATALOAD PUSH2 0x2620 JUMP JUMPDEST PUSH1 0x40 MLOAD SWAP1 ISZERO ISZERO DUP2 MSTORE RETURN JUMPDEST POP CALLVALUE PUSH2 0x288 JUMPI PUSH1 0x80 CALLDATASIZE PUSH1 0x3 NOT ADD SLT PUSH2 0x288 JUMPI PUSH2 0xBBD PUSH2 0x1C23 JUMP JUMPDEST PUSH2 0xBC5 PUSH2 0x1C3E JUMP JUMPDEST SWAP1 PUSH1 0x44 CALLDATALOAD PUSH1 0x64 CALLDATALOAD SWAP3 PUSH8 0xFFFFFFFFFFFFFFFF DUP5 GT PUSH2 0xC13 JUMPI CALLDATASIZE PUSH1 0x23 DUP6 ADD SLT ISZERO PUSH2 0xC13 JUMPI PUSH2 0xBFE PUSH2 0xC10 SWAP5 CALLDATASIZE SWAP1 PUSH1 0x24 DUP2 PUSH1 0x4 ADD CALLDATALOAD SWAP2 ADD PUSH2 0x1D8C JUMP JUMPDEST SWAP3 PUSH2 0xC0A DUP4 DUP4 DUP4 PUSH2 0x1E0D JUMP JUMPDEST CALLER PUSH2 0x1FE7 JUMP JUMPDEST DUP1 RETURN JUMPDEST DUP5 DUP1 REVERT JUMPDEST POP CALLVALUE PUSH2 0x288 JUMPI PUSH1 0x20 CALLDATASIZE PUSH1 0x3 NOT ADD SLT PUSH2 0x288 JUMPI PUSH1 0x20 SWAP1 PUSH1 0x40 SWAP1 PUSH1 0x1 PUSH1 0x1 PUSH1 0xA0 SHL SUB PUSH2 0xC3F PUSH2 0x1C23 JUMP JUMPDEST AND DUP2 MSTORE PUSH1 0xF DUP4 MSTORE KECCAK256 SLOAD PUSH1 0x40 MLOAD SWAP1 DUP2 MSTORE RETURN JUMPDEST POP CALLVALUE PUSH2 0x288 JUMPI PUSH1 0x40 CALLDATASIZE PUSH1 0x3 NOT ADD SLT PUSH2 0x288 JUMPI PUSH2 0xC6A PUSH2 0x1C23 JUMP JUMPDEST PUSH1 0x1 PUSH1 0x1 PUSH1 0xA0 SHL SUB AND DUP2 MSTORE PUSH1 0xC PUSH1 0x20 MSTORE PUSH1 0x40 DUP2 KECCAK256 DUP1 SLOAD PUSH1 0x24 CALLDATALOAD SWAP3 SWAP1 DUP4 LT ISZERO PUSH2 0x288 JUMPI PUSH1 0x20 PUSH2 0xC98 DUP5 DUP5 PUSH2 0x1C99 JUMP JUMPDEST SWAP1 SLOAD PUSH1 0x40 MLOAD SWAP2 PUSH1 0x3 SHL SHR DUP2 MSTORE RETURN JUMPDEST POP CALLVALUE PUSH2 0x288 JUMPI PUSH1 0x20 CALLDATASIZE PUSH1 0x3 NOT ADD SLT PUSH2 0x288 JUMPI PUSH1 0x20 SWAP1 PUSH1 0x40 SWAP1 PUSH1 0x1 PUSH1 0x1 PUSH1 0xA0 SHL SUB PUSH2 0xCCE PUSH2 0x1C23 JUMP JUMPDEST AND DUP2 MSTORE PUSH1 0xE DUP4 MSTORE KECCAK256 SLOAD PUSH1 0x40 MLOAD SWAP1 DUP2 MSTORE RETURN JUMPDEST POP CALLVALUE PUSH2 0x288 JUMPI PUSH1 0x20 SWAP1 DUP2 PUSH1 0x3 NOT CALLDATASIZE ADD SLT PUSH2 0x288 JUMPI PUSH1 0x4 CALLDATALOAD SWAP2 DUP3 DUP3 MSTORE PUSH1 0xB DUP2 MSTORE PUSH1 0x40 DUP3 KECCAK256 SWAP3 PUSH1 0x3 DUP5 ADD SLOAD TIMESTAMP GT PUSH2 0x1075 JUMPI PUSH1 0x4 DUP5 ADD DUP1 SLOAD PUSH1 0xFF DUP2 AND PUSH2 0x103C JUMPI PUSH1 0x1 DUP7 ADD SWAP6 PUSH1 0x1 DUP1 PUSH1 0xA0 SHL SUB SWAP2 PUSH2 0xD3D DUP4 DUP10 SLOAD AND PUSH1 0xFF DUP4 PUSH1 0x10 SHR AND SWAP1 PUSH2 0x2375 JUMP JUMPDEST SWAP4 PUSH1 0x5 PUSH2 0xD4E PUSH1 0x6 DUP6 ADD SLOAD DUP8 PUSH2 0x2354 JUMP JUMPDEST SWAP4 ADD SWAP3 DUP4 SLOAD GT PUSH2 0x1002 JUMPI PUSH1 0x1 PUSH1 0xFF NOT DUP1 SWAP4 AND OR SWAP1 SSTORE DUP5 DUP8 MSTORE PUSH1 0xD DUP7 MSTORE PUSH1 0x1 PUSH1 0x40 DUP9 KECCAK256 SWAP2 DUP3 SLOAD AND OR SWAP1 SSTORE SLOAD DUP2 DUP8 SLOAD AND DUP7 MSTORE PUSH1 0xE DUP6 MSTORE PUSH2 0xD91 PUSH1 0x40 DUP8 KECCAK256 SWAP2 DUP3 SLOAD PUSH2 0x2324 JUMP JUMPDEST SWAP1 SSTORE DUP1 DUP7 SLOAD AND DUP6 MSTORE PUSH1 0xF DUP5 MSTORE PUSH1 0x40 DUP6 KECCAK256 PUSH2 0xDAB DUP2 SLOAD PUSH2 0x22FF JUMP JUMPDEST SWAP1 SSTORE DUP1 DUP7 SLOAD AND SWAP6 PUSH1 0x40 MLOAD SWAP7 PUSH2 0xDBF DUP9 PUSH2 0x1D16 JUMP JUMPDEST DUP7 DUP9 MSTORE DUP1 ISZERO PUSH2 0xFE9 JUMPI DUP5 PUSH1 0x0 MSTORE PUSH1 0x2 DUP7 MSTORE DUP3 PUSH1 0x40 PUSH1 0x0 KECCAK256 SLOAD AND DUP6 DUP3 DUP3 ISZERO ISZERO SWAP3 DUP4 PUSH2 0xFB6 JUMPI JUMPDEST PUSH1 0x0 DUP3 DUP2 MSTORE PUSH1 0x3 DUP12 MSTORE PUSH1 0x40 DUP1 DUP3 KECCAK256 DUP1 SLOAD PUSH1 0x1 ADD SWAP1 SSTORE DUP5 DUP3 MSTORE PUSH1 0x2 DUP13 MSTORE DUP2 KECCAK256 DUP1 SLOAD PUSH1 0x1 PUSH1 0x1 PUSH1 0xA0 SHL SUB NOT AND DUP5 OR SWAP1 SSTORE PUSH32 0xDDF252AD1BE2C89B69C2B068FC378DAA952BA7F163C4A11628F55A4DF523B3EF SWAP1 DUP1 LOG4 PUSH2 0xF9D JUMPI DUP1 EXTCODESIZE PUSH2 0xE79 JUMPI JUMPDEST POP SWAP2 PUSH1 0x40 SWAP2 PUSH32 0x4DE541293CD105AD674BA860BC58A068CB3D97A522193172C5C1DE6417F4D9EB SWAP4 SLOAD AND SWAP5 DUP3 MLOAD SWAP2 DUP3 MSTORE TIMESTAMP SWAP1 DUP3 ADD MSTORE LOG3 DUP1 RETURN JUMPDEST SWAP6 SWAP5 SWAP7 PUSH1 0x40 MLOAD DUP9 DUP2 DUP1 PUSH2 0xEB5 PUSH4 0xA85BD01 PUSH1 0xE1 SHL SWAP6 DUP7 DUP4 MSTORE CALLER PUSH1 0x4 DUP5 ADD MSTORE PUSH1 0x0 PUSH1 0x24 DUP5 ADD MSTORE DUP11 PUSH1 0x44 DUP5 ADD MSTORE PUSH1 0x80 PUSH1 0x64 DUP5 ADD MSTORE PUSH1 0x84 DUP4 ADD SWAP1 PUSH2 0x1BFE JUMP JUMPDEST SUB DUP2 PUSH1 0x0 DUP13 GAS CALL DUP1 SWAP2 PUSH1 0x0 SWAP2 PUSH2 0xF5F JUMPI JUMPDEST POP SWAP1 PUSH2 0xF23 JUMPI DUP9 DUP9 RETURNDATASIZE ISZERO PUSH2 0xF1C JUMPI RETURNDATASIZE PUSH2 0xEDE DUP2 PUSH2 0x1D70 JUMP JUMPDEST SWAP1 PUSH2 0xEEC PUSH1 0x40 MLOAD SWAP3 DUP4 PUSH2 0x1D4E JUMP JUMPDEST DUP2 MSTORE RETURNDATASIZE PUSH1 0x0 DUP5 DUP4 ADD RETURNDATACOPY JUMPDEST DUP1 MLOAD SWAP3 DUP4 PUSH2 0xF17 JUMPI PUSH1 0x40 MLOAD PUSH4 0x32505749 PUSH1 0xE1 SHL DUP2 MSTORE PUSH1 0x4 DUP2 ADD DUP5 SWAP1 MSTORE PUSH1 0x24 SWAP1 REVERT JUMPDEST ADD SWAP1 POP REVERT JUMPDEST PUSH1 0x60 PUSH2 0xEF6 JUMP JUMPDEST PUSH4 0xFFFFFFFF PUSH1 0xE0 SWAP10 SWAP9 SWAP4 SWAP5 SWAP6 SWAP7 SWAP8 SWAP10 SHL AND SUB PUSH2 0xF47 JUMPI POP DUP6 SWAP5 SWAP4 SWAP3 SWAP2 SWAP1 PUSH1 0x40 PUSH2 0xE41 JUMP JUMPDEST PUSH1 0x24 SWAP1 PUSH1 0x40 MLOAD SWAP1 PUSH4 0x32505749 PUSH1 0xE1 SHL DUP3 MSTORE PUSH1 0x4 DUP3 ADD MSTORE REVERT JUMPDEST DUP11 DUP2 DUP2 RETURNDATASIZE DUP4 GT PUSH2 0xF96 JUMPI JUMPDEST PUSH2 0xF74 DUP2 DUP4 PUSH2 0x1D4E JUMP JUMPDEST DUP2 ADD SUB SLT PUSH2 0x284 JUMPI MLOAD SWAP1 PUSH1 0x1 PUSH1 0x1 PUSH1 0xE0 SHL SUB NOT DUP3 AND DUP3 SUB PUSH2 0x288 JUMPI POP CODESIZE PUSH2 0xEC6 JUMP JUMPDEST POP RETURNDATASIZE PUSH2 0xF6A JUMP JUMPDEST PUSH1 0x40 MLOAD PUSH4 0x39E35637 PUSH1 0xE1 SHL DUP2 MSTORE PUSH1 0x4 DUP2 ADD DUP9 SWAP1 MSTORE PUSH1 0x24 SWAP1 REVERT JUMPDEST PUSH1 0x0 DUP4 DUP2 MSTORE PUSH1 0x4 PUSH1 0x20 MSTORE PUSH1 0x40 DUP1 DUP3 KECCAK256 DUP1 SLOAD PUSH1 0x1 PUSH1 0x1 PUSH1 0xA0 SHL SUB NOT AND SWAP1 SSTORE DUP3 DUP3 MSTORE PUSH1 0x3 DUP13 MSTORE SWAP1 KECCAK256 DUP1 SLOAD PUSH1 0x0 NOT ADD SWAP1 SSTORE PUSH2 0xDE4 JUMP JUMPDEST PUSH1 0x40 MLOAD PUSH4 0x32505749 PUSH1 0xE1 SHL DUP2 MSTORE PUSH1 0x4 DUP2 ADD DUP9 SWAP1 MSTORE PUSH1 0x24 SWAP1 REVERT JUMPDEST PUSH1 0x40 MLOAD PUSH3 0x461BCD PUSH1 0xE5 SHL DUP2 MSTORE PUSH1 0x4 DUP2 ADD DUP9 SWAP1 MSTORE PUSH1 0x12 PUSH1 0x24 DUP3 ADD MSTORE PUSH18 0x15185C99D95D081B9BDD081C995858DA1959 PUSH1 0x72 SHL PUSH1 0x44 DUP3 ADD MSTORE PUSH1 0x64 SWAP1 REVERT JUMPDEST PUSH1 0x40 MLOAD PUSH3 0x461BCD PUSH1 0xE5 SHL DUP2 MSTORE PUSH1 0x4 DUP2 ADD DUP6 SWAP1 MSTORE PUSH1 0x11 PUSH1 0x24 DUP3 ADD MSTORE PUSH17 0x105B1C9958591E4818DBDB5C1B195D1959 PUSH1 0x7A SHL PUSH1 0x44 DUP3 ADD MSTORE PUSH1 0x64 SWAP1 REVERT JUMPDEST PUSH1 0x40 MLOAD PUSH3 0x461BCD PUSH1 0xE5 SHL DUP2 MSTORE PUSH1 0x4 DUP2 ADD DUP4 SWAP1 MSTORE PUSH1 0x11 PUSH1 0x24 DUP3 ADD MSTORE PUSH17 0x10DA185B1B195B99D948195E1C1A5C9959 PUSH1 0x7A SHL PUSH1 0x44 DUP3 ADD MSTORE PUSH1 0x64 SWAP1 REVERT JUMPDEST POP CALLVALUE PUSH2 0x288 JUMPI PUSH1 0x40 CALLDATASIZE PUSH1 0x3 NOT ADD SLT PUSH2 0x288 JUMPI PUSH2 0x10C8 PUSH2 0x1C23 JUMP JUMPDEST PUSH1 0x24 CALLDATALOAD SWAP1 DUP2 ISZERO ISZERO SWAP1 DUP2 DUP4 SUB PUSH2 0x115C JUMPI PUSH1 0x1 PUSH1 0x1 PUSH1 0xA0 SHL SUB AND SWAP2 DUP3 ISZERO PUSH2 0x1143 JUMPI PUSH2 0x1114 SWAP1 CALLER DUP6 MSTORE PUSH1 0x5 PUSH1 0x20 MSTORE PUSH1 0x40 DUP6 KECCAK256 DUP5 PUSH1 0x0 MSTORE PUSH1 0x20 MSTORE PUSH1 0x40 PUSH1 0x0 KECCAK256 SWAP1 PUSH1 0xFF DUP1 NOT DUP4 SLOAD AND SWAP2 ISZERO ISZERO AND OR SWAP1 SSTORE JUMP JUMPDEST PUSH1 0x40 MLOAD SWAP1 DUP2 MSTORE PUSH32 0x17307EAB39AB6107E8899845AD3D59BD9653F200F220920489CA2B5937696C31 PUSH1 0x20 CALLER SWAP3 LOG3 DUP1 RETURN JUMPDEST PUSH1 0x40 MLOAD PUSH4 0xB611743 PUSH1 0xE3 SHL DUP2 MSTORE PUSH1 0x4 DUP2 ADD DUP5 SWAP1 MSTORE PUSH1 0x24 SWAP1 REVERT JUMPDEST DUP4 DUP1 REVERT JUMPDEST POP CALLVALUE PUSH2 0x288 JUMPI PUSH1 0x40 CALLDATASIZE PUSH1 0x3 NOT ADD SLT PUSH2 0x288 JUMPI PUSH1 0x20 PUSH2 0x118D PUSH2 0x117F PUSH2 0x1C23 JUMP JUMPDEST PUSH2 0x1187 PUSH2 0x1C89 JUMP JUMPDEST SWAP1 PUSH2 0x2375 JUMP JUMPDEST PUSH1 0x40 MLOAD SWAP1 DUP2 MSTORE RETURN JUMPDEST POP CALLVALUE PUSH2 0x288 JUMPI DUP1 PUSH1 0x3 NOT CALLDATASIZE ADD SLT PUSH2 0x288 JUMPI PUSH1 0x40 MLOAD SWAP1 DUP1 PUSH1 0x1 SWAP2 DUP3 SLOAD SWAP3 DUP4 DUP2 SHR SWAP3 DUP2 DUP6 AND SWAP5 DUP6 ISZERO PUSH2 0x1283 JUMPI JUMPDEST PUSH1 0x20 SWAP6 DUP7 DUP7 LT DUP2 EQ PUSH2 0x126F JUMPI DUP6 DUP9 MSTORE DUP8 SWAP5 SWAP4 SWAP3 SWAP2 DUP8 SWAP1 DUP3 ISZERO PUSH2 0x124D JUMPI POP POP PUSH1 0x1 EQ PUSH2 0x11F4 JUMPI JUMPDEST POP POP PUSH2 0xAA7 SWAP3 POP SUB DUP4 PUSH2 0x1D4E JUMP JUMPDEST SWAP1 DUP6 SWAP3 POP DUP1 DUP3 MSTORE PUSH32 0xB10E2D527612073B26EECDFD717E6A320CF44B4AFAC2B0732D9FCBE2B7FA0CF6 JUMPDEST DUP6 DUP4 LT PUSH2 0x1235 JUMPI POP POP PUSH2 0xAA7 SWAP4 POP DUP3 ADD ADD CODESIZE DUP1 PUSH2 0x11E6 JUMP JUMPDEST DUP1 SLOAD DUP4 DUP10 ADD DUP6 ADD MSTORE DUP8 SWAP5 POP DUP7 SWAP4 SWAP1 SWAP3 ADD SWAP2 DUP2 ADD PUSH2 0x121D JUMP JUMPDEST SWAP3 POP SWAP4 POP POP PUSH2 0xAA7 SWAP5 SWAP2 POP PUSH1 0xFF NOT AND DUP3 DUP5 ADD MSTORE ISZERO ISZERO PUSH1 0x5 SHL DUP3 ADD ADD CODESIZE DUP1 PUSH2 0x11E6 JUMP JUMPDEST PUSH4 0x4E487B71 PUSH1 0xE0 SHL DUP4 MSTORE PUSH1 0x22 PUSH1 0x4 MSTORE PUSH1 0x24 DUP4 REVERT JUMPDEST SWAP4 PUSH1 0x7F AND SWAP4 PUSH2 0x11C0 JUMP JUMPDEST POP CALLVALUE PUSH2 0x288 JUMPI DUP1 PUSH1 0x3 NOT CALLDATASIZE ADD SLT PUSH2 0x288 JUMPI PUSH1 0x6 SLOAD PUSH1 0x40 MLOAD PUSH1 0x1 PUSH1 0x1 PUSH1 0xA0 SHL SUB SWAP1 SWAP2 AND DUP2 MSTORE PUSH1 0x20 SWAP1 RETURN JUMPDEST POP CALLVALUE PUSH2 0x288 JUMPI DUP1 PUSH1 0x3 NOT CALLDATASIZE ADD SLT PUSH2 0x288 JUMPI PUSH2 0x12CF PUSH2 0x1DE1 JUMP JUMPDEST PUSH1 0x6 DUP1 SLOAD PUSH1 0x1 PUSH1 0x1 PUSH1 0xA0 SHL SUB NOT DUP2 AND SWAP1 SWAP2 SSTORE PUSH1 0x0 SWAP1 PUSH1 0x1 PUSH1 0x1 PUSH1 0xA0 SHL SUB AND PUSH32 0x8BE0079C531659141344CD1FD0A4F28419497F9722A3DAAFE3B4186F6B6457E0 DUP3 DUP1 LOG3 DUP1 RETURN JUMPDEST POP CALLVALUE PUSH2 0x288 JUMPI PUSH1 0x20 CALLDATASIZE PUSH1 0x3 NOT ADD SLT PUSH2 0x288 JUMPI PUSH1 0x1 PUSH1 0x1 PUSH1 0xA0 SHL SUB PUSH2 0x1336 PUSH2 0x1C23 JUMP JUMPDEST AND DUP1 ISZERO PUSH2 0x1353 JUMPI DUP2 PUSH1 0x40 SWAP2 PUSH1 0x20 SWAP4 MSTORE PUSH1 0x3 DUP4 MSTORE KECCAK256 SLOAD PUSH1 0x40 MLOAD SWAP1 DUP2 MSTORE RETURN JUMPDEST PUSH1 0x40 MLOAD PUSH4 0x22718AD9 PUSH1 0xE2 SHL DUP2 MSTORE PUSH1 0x4 DUP2 ADD DUP4 SWAP1 MSTORE PUSH1 0x24 SWAP1 REVERT JUMPDEST POP CALLVALUE PUSH2 0x288 JUMPI PUSH1 0x20 CALLDATASIZE PUSH1 0x3 NOT ADD SLT PUSH2 0x288 JUMPI PUSH1 0x20 PUSH2 0x138B PUSH1 0x4 CALLDATALOAD PUSH2 0x1FAC JUMP JUMPDEST PUSH1 0x40 MLOAD PUSH1 0x1 PUSH1 0x1 PUSH1 0xA0 SHL SUB SWAP1 SWAP2 AND DUP2 MSTORE RETURN JUMPDEST POP CALLVALUE PUSH2 0x288 JUMPI DUP1 PUSH1 0x3 NOT CALLDATASIZE ADD SLT PUSH2 0x288 JUMPI PUSH1 0x20 PUSH1 0x40 MLOAD PUSH1 0x5 DUP2 MSTORE RETURN JUMPDEST POP CALLVALUE PUSH2 0x288 JUMPI DUP1 PUSH1 0x3 NOT CALLDATASIZE ADD SLT PUSH2 0x288 JUMPI PUSH1 0x20 PUSH1 0x40 MLOAD PUSH1 0xF DUP2 MSTORE RETURN JUMPDEST POP CALLVALUE PUSH2 0x288 JUMPI PUSH2 0xC10 PUSH2 0x13E7 CALLDATASIZE PUSH2 0x1C54 JUMP JUMPDEST SWAP1 PUSH1 0x40 MLOAD SWAP3 PUSH2 0x13F5 DUP5 PUSH2 0x1D16 JUMP JUMPDEST DUP6 DUP5 MSTORE PUSH2 0xC0A DUP4 DUP4 DUP4 PUSH2 0x1E0D JUMP JUMPDEST POP CALLVALUE PUSH2 0x288 JUMPI PUSH1 0x20 DUP1 PUSH1 0x3 NOT CALLDATASIZE ADD SLT PUSH2 0x284 JUMPI PUSH1 0x4 CALLDATALOAD PUSH2 0x1421 PUSH2 0x2331 JUMP JUMPDEST DUP1 DUP4 MSTORE PUSH1 0xB DUP3 MSTORE PUSH1 0x40 DUP4 KECCAK256 PUSH1 0x1 DUP2 ADD SLOAD PUSH1 0x1 PUSH1 0x1 PUSH1 0xA0 SHL SUB SWAP1 DUP2 AND SWAP2 SWAP1 CALLER DUP4 SUB PUSH2 0x161E JUMPI PUSH1 0x4 DUP3 ADD DUP1 SLOAD PUSH1 0xFF DUP2 AND ISZERO PUSH2 0x15D9 JUMPI PUSH1 0xFF DUP2 PUSH1 0x8 SHR AND PUSH2 0x15A2 JUMPI DUP6 DUP9 MSTORE PUSH1 0xD DUP8 MSTORE PUSH1 0xFF PUSH1 0x40 DUP10 KECCAK256 SLOAD AND PUSH1 0x3 DUP2 LT ISZERO PUSH2 0x158E JUMPI PUSH1 0x1 SUB PUSH2 0x155A JUMPI SWAP1 PUSH2 0x100 DUP9 SWAP4 SWAP3 PUSH2 0xFF00 NOT AND OR SWAP1 SSTORE PUSH1 0x9 SLOAD AND SWAP3 PUSH1 0x2 DUP4 SLOAD SWAP4 ADD SWAP4 DUP5 SLOAD SWAP4 DUP2 EXTCODESIZE ISZERO PUSH2 0x115C JUMPI DUP4 PUSH1 0x64 SWAP3 PUSH1 0x40 MLOAD SWAP7 DUP8 SWAP6 DUP7 SWAP5 PUSH4 0xFE678C21 PUSH1 0xE0 SHL DUP7 MSTORE PUSH1 0x4 DUP7 ADD MSTORE PUSH1 0x24 DUP6 ADD MSTORE PUSH1 0x44 DUP5 ADD MSTORE GAS CALL DUP1 ISZERO PUSH2 0x891 JUMPI PUSH2 0x150A JUMPI JUMPDEST POP SLOAD PUSH1 0x40 MLOAD SWAP1 DUP2 MSTORE CALLER SWAP3 PUSH32 0xA295AACBCE04E897538BDD3B31A3D751727909B6B500E52CA76863D4716A554E SWAP2 LOG3 PUSH1 0x1 PUSH1 0x7 SSTORE DUP1 RETURN JUMPDEST PUSH8 0xFFFFFFFFFFFFFFFF DUP2 SWAP6 SWAP3 SWAP6 GT PUSH2 0x1546 JUMPI PUSH1 0x40 MSTORE SWAP3 PUSH32 0xA295AACBCE04E897538BDD3B31A3D751727909B6B500E52CA76863D4716A554E PUSH2 0x14D5 JUMP JUMPDEST PUSH4 0x4E487B71 PUSH1 0xE0 SHL DUP3 MSTORE PUSH1 0x41 PUSH1 0x4 MSTORE PUSH1 0x24 DUP3 REVERT JUMPDEST PUSH1 0x40 MLOAD PUSH3 0x461BCD PUSH1 0xE5 SHL DUP2 MSTORE PUSH1 0x4 DUP2 ADD DUP9 SWAP1 MSTORE PUSH1 0xC PUSH1 0x24 DUP3 ADD MSTORE PUSH12 0x139BDD08185C1C1C9BDD9959 PUSH1 0xA2 SHL PUSH1 0x44 DUP3 ADD MSTORE PUSH1 0x64 SWAP1 REVERT JUMPDEST PUSH4 0x4E487B71 PUSH1 0xE0 SHL DUP10 MSTORE PUSH1 0x21 PUSH1 0x4 MSTORE PUSH1 0x24 DUP10 REVERT JUMPDEST PUSH1 0x40 MLOAD PUSH3 0x461BCD PUSH1 0xE5 SHL DUP2 MSTORE PUSH1 0x4 DUP2 ADD DUP9 SWAP1 MSTORE PUSH1 0xF PUSH1 0x24 DUP3 ADD MSTORE PUSH15 0x105B1C9958591E4818DB185A5B5959 PUSH1 0x8A SHL PUSH1 0x44 DUP3 ADD MSTORE PUSH1 0x64 SWAP1 REVERT JUMPDEST PUSH1 0x40 MLOAD PUSH3 0x461BCD PUSH1 0xE5 SHL DUP2 MSTORE PUSH1 0x4 DUP2 ADD DUP9 SWAP1 MSTORE PUSH1 0x17 PUSH1 0x24 DUP3 ADD MSTORE PUSH32 0x4368616C6C656E6765206E6F7420636F6D706C65746564000000000000000000 PUSH1 0x44 DUP3 ADD MSTORE PUSH1 0x64 SWAP1 REVERT JUMPDEST PUSH1 0x40 MLOAD PUSH3 0x461BCD PUSH1 0xE5 SHL DUP2 MSTORE PUSH1 0x4 DUP2 ADD DUP7 SWAP1 MSTORE PUSH1 0x12 PUSH1 0x24 DUP3 ADD MSTORE PUSH18 0x4E6F7420796F7572206368616C6C656E6765 PUSH1 0x70 SHL PUSH1 0x44 DUP3 ADD MSTORE PUSH1 0x64 SWAP1 REVERT JUMPDEST POP CALLVALUE PUSH2 0x288 JUMPI PUSH1 0x20 CALLDATASIZE PUSH1 0x3 NOT ADD SLT PUSH2 0x288 JUMPI PUSH1 0x20 PUSH2 0xB99 PUSH1 0x4 CALLDATALOAD PUSH2 0x2709 JUMP JUMPDEST POP CALLVALUE PUSH2 0x288 JUMPI PUSH2 0xC10 PUSH2 0x1689 CALLDATASIZE PUSH2 0x1C54 JUMP JUMPDEST SWAP2 PUSH2 0x1E0D JUMP JUMPDEST POP CALLVALUE PUSH2 0x288 JUMPI PUSH1 0x20 CALLDATASIZE PUSH1 0x3 NOT ADD SLT PUSH2 0x288 JUMPI PUSH1 0x40 PUSH2 0x140 SWAP2 PUSH1 0x4 CALLDATALOAD DUP2 MSTORE PUSH1 0xB PUSH1 0x20 MSTORE KECCAK256 DUP1 SLOAD SWAP1 PUSH1 0x1 DUP1 PUSH1 0xA0 SHL SUB PUSH1 0x1 DUP3 ADD SLOAD AND SWAP1 PUSH1 0x2 DUP2 ADD SLOAD PUSH1 0xFF PUSH1 0x3 DUP4 ADD SLOAD PUSH1 0x4 DUP5 ADD SLOAD SWAP1 PUSH1 0x5 DUP6 ADD SLOAD SWAP4 PUSH1 0x7 PUSH1 0x6 DUP8 ADD SLOAD SWAP7 ADD SLOAD SWAP7 PUSH1 0x40 MLOAD SWAP9 DUP10 MSTORE PUSH1 0x20 DUP10 ADD MSTORE PUSH1 0x40 DUP9 ADD MSTORE PUSH1 0x60 DUP8 ADD MSTORE DUP2 DUP2 AND ISZERO ISZERO PUSH1 0x80 DUP8 ADD MSTORE DUP2 DUP2 PUSH1 0x8 SHR AND ISZERO ISZERO PUSH1 0xA0 DUP8 ADD MSTORE PUSH1 0x10 SHR AND PUSH1 0xC0 DUP6 ADD MSTORE PUSH1 0xE0 DUP5 ADD MSTORE PUSH2 0x100 DUP4 ADD MSTORE PUSH2 0x120 DUP3 ADD MSTORE RETURN JUMPDEST POP CALLVALUE PUSH2 0x288 JUMPI PUSH1 0x20 CALLDATASIZE PUSH1 0x3 NOT ADD SLT PUSH2 0x288 JUMPI PUSH2 0x140 SWAP1 PUSH1 0x40 MLOAD PUSH2 0x1750 DUP2 PUSH2 0x1CC7 JUMP JUMPDEST DUP2 DUP2 MSTORE DUP2 PUSH1 0x20 DUP3 ADD MSTORE DUP2 PUSH1 0x40 DUP3 ADD MSTORE DUP2 PUSH1 0x60 DUP3 ADD MSTORE DUP2 PUSH1 0x80 DUP3 ADD MSTORE DUP2 PUSH1 0xA0 DUP3 ADD MSTORE DUP2 PUSH1 0xC0 DUP3 ADD MSTORE DUP2 PUSH1 0xE0 DUP3 ADD MSTORE PUSH1 0x40 PUSH2 0x100 SWAP3 DUP1 DUP5 DUP5 ADD MSTORE DUP1 PUSH2 0x120 DUP1 SWAP5 ADD MSTORE PUSH1 0x4 CALLDATALOAD DUP2 MSTORE PUSH1 0xB PUSH1 0x20 MSTORE KECCAK256 SWAP2 PUSH1 0x40 MLOAD SWAP1 PUSH2 0x17A9 DUP3 PUSH2 0x1CC7 JUMP JUMPDEST DUP2 DUP5 SLOAD SWAP5 DUP6 DUP3 MSTORE PUSH1 0xFF PUSH1 0x1 DUP1 PUSH1 0xA0 SHL SUB DUP1 PUSH1 0x1 DUP5 ADD SLOAD AND PUSH1 0x20 DUP6 ADD SWAP1 DUP2 MSTORE PUSH1 0x2 DUP5 ADD SLOAD SWAP2 PUSH1 0x40 DUP7 ADD SWAP3 DUP4 MSTORE PUSH1 0x3 DUP6 ADD SLOAD PUSH1 0x60 DUP8 ADD SWAP1 DUP2 MSTORE PUSH1 0x4 DUP7 ADD SLOAD SWAP4 PUSH1 0x80 DUP9 ADD SWAP3 DUP7 DUP7 AND ISZERO ISZERO DUP5 MSTORE PUSH1 0xA0 DUP10 ADD SWAP5 DUP8 DUP8 PUSH1 0x8 SHR AND ISZERO ISZERO DUP7 MSTORE DUP8 PUSH1 0xC0 DUP12 ADD SWAP8 PUSH1 0x10 SHR AND DUP8 MSTORE DUP13 PUSH1 0x7 PUSH1 0x5 DUP12 ADD SLOAD SWAP11 PUSH1 0xE0 DUP14 ADD SWAP12 DUP13 MSTORE DUP14 PUSH1 0x6 DUP3 ADD SLOAD SWAP14 ADD SWAP13 DUP14 MSTORE ADD SLOAD SWAP13 ADD SWAP12 DUP13 MSTORE PUSH1 0x40 MLOAD SWAP14 DUP15 MSTORE MLOAD AND PUSH1 0x20 DUP14 ADD MSTORE MLOAD PUSH1 0x40 DUP13 ADD MSTORE MLOAD PUSH1 0x60 DUP12 ADD MSTORE MLOAD ISZERO ISZERO PUSH1 0x80 DUP11 ADD MSTORE MLOAD ISZERO ISZERO PUSH1 0xA0 DUP10 ADD MSTORE MLOAD AND PUSH1 0xC0 DUP8 ADD MSTORE MLOAD PUSH1 0xE0 DUP7 ADD MSTORE MLOAD SWAP1 DUP5 ADD MSTORE MLOAD SWAP1 DUP3 ADD MSTORE RETURN JUMPDEST POP CALLVALUE PUSH2 0x288 JUMPI PUSH1 0x20 DUP1 PUSH1 0x3 NOT CALLDATASIZE ADD SLT PUSH2 0x284 JUMPI PUSH1 0x1 PUSH1 0x1 PUSH1 0xA0 SHL SUB PUSH2 0x1894 PUSH2 0x1C23 JUMP JUMPDEST AND DUP3 MSTORE PUSH1 0xC DUP2 MSTORE PUSH1 0x40 DUP3 KECCAK256 PUSH1 0x40 MLOAD SWAP3 DUP4 DUP4 DUP4 SLOAD SWAP2 DUP3 DUP2 MSTORE ADD SWAP1 DUP2 SWAP4 DUP4 MSTORE DUP5 DUP4 KECCAK256 SWAP1 DUP4 JUMPDEST DUP2 DUP2 LT PUSH2 0x190B JUMPI POP POP POP DUP5 PUSH2 0x18CD SWAP2 SUB DUP6 PUSH2 0x1D4E JUMP JUMPDEST PUSH1 0x40 MLOAD SWAP4 DUP4 DUP6 SWAP5 DUP6 ADD SWAP2 DUP2 DUP7 MSTORE MLOAD DUP1 SWAP3 MSTORE PUSH1 0x40 DUP6 ADD SWAP4 SWAP3 JUMPDEST DUP3 DUP2 LT PUSH2 0x18F4 JUMPI POP POP POP POP SUB SWAP1 RETURN JUMPDEST DUP4 MLOAD DUP6 MSTORE DUP7 SWAP6 POP SWAP4 DUP2 ADD SWAP4 SWAP3 DUP2 ADD SWAP3 PUSH1 0x1 ADD PUSH2 0x18E5 JUMP JUMPDEST DUP3 SLOAD DUP5 MSTORE SWAP3 DUP7 ADD SWAP3 PUSH1 0x1 SWAP3 DUP4 ADD SWAP3 ADD PUSH2 0x18B7 JUMP JUMPDEST POP CALLVALUE PUSH2 0x288 JUMPI DUP1 PUSH1 0x3 NOT CALLDATASIZE ADD SLT PUSH2 0x288 JUMPI PUSH1 0x20 PUSH1 0x40 MLOAD PUSH3 0x15180 DUP2 MSTORE RETURN JUMPDEST POP CALLVALUE PUSH2 0x288 JUMPI PUSH1 0x40 CALLDATASIZE PUSH1 0x3 NOT ADD SLT PUSH2 0x288 JUMPI PUSH2 0x1957 PUSH2 0x1C23 JUMP JUMPDEST PUSH1 0x24 CALLDATALOAD PUSH2 0x1963 DUP2 PUSH2 0x1FAC JUMP JUMPDEST CALLER ISZERO ISZERO DUP1 PUSH2 0x1A0D JUMPI JUMPDEST DUP1 PUSH2 0x19E2 JUMPI JUMPDEST PUSH2 0x19CA JUMPI PUSH1 0x1 PUSH1 0x1 PUSH1 0xA0 SHL SUB SWAP3 DUP4 AND SWAP3 DUP3 SWAP2 DUP5 SWAP2 AND PUSH32 0x8C5BE1E5EBEC7D5BD14F71427D1E84F3DD0314C0F7B2291E5B200AC8C7C3B925 DUP7 DUP1 LOG4 DUP3 MSTORE PUSH1 0x4 PUSH1 0x20 MSTORE PUSH1 0x40 DUP3 KECCAK256 DUP1 SLOAD PUSH1 0x1 PUSH1 0x1 PUSH1 0xA0 SHL SUB NOT AND SWAP1 SWAP2 OR SWAP1 SSTORE DUP1 RETURN JUMPDEST PUSH1 0x40 MLOAD PUSH4 0xA9FBF51F PUSH1 0xE0 SHL DUP2 MSTORE CALLER PUSH1 0x4 DUP3 ADD MSTORE PUSH1 0x24 SWAP1 REVERT JUMPDEST POP PUSH1 0x1 PUSH1 0x1 PUSH1 0xA0 SHL SUB DUP2 AND DUP5 MSTORE PUSH1 0x5 PUSH1 0x20 SWAP1 DUP2 MSTORE PUSH1 0x40 DUP1 DUP7 KECCAK256 CALLER DUP8 MSTORE SWAP1 SWAP2 MSTORE DUP5 KECCAK256 SLOAD PUSH1 0xFF AND ISZERO PUSH2 0x1972 JUMP JUMPDEST POP PUSH1 0x1 PUSH1 0x1 PUSH1 0xA0 SHL SUB DUP2 AND CALLER EQ ISZERO PUSH2 0x196C JUMP JUMPDEST POP CALLVALUE PUSH2 0x288 JUMPI PUSH1 0x20 CALLDATASIZE PUSH1 0x3 NOT ADD SLT PUSH2 0x288 JUMPI PUSH1 0x4 CALLDATALOAD DUP2 MSTORE PUSH1 0xD PUSH1 0x20 MSTORE PUSH1 0xFF PUSH1 0x40 DUP3 KECCAK256 SLOAD AND PUSH1 0x40 MLOAD SWAP1 PUSH1 0x3 DUP2 LT ISZERO PUSH2 0x1A59 JUMPI PUSH1 0x20 SWAP3 POP DUP2 MSTORE RETURN JUMPDEST PUSH4 0x4E487B71 PUSH1 0xE0 SHL DUP4 MSTORE PUSH1 0x21 PUSH1 0x4 MSTORE PUSH1 0x24 DUP4 REVERT JUMPDEST POP CALLVALUE PUSH2 0x288 JUMPI PUSH1 0x20 CALLDATASIZE PUSH1 0x3 NOT ADD SLT PUSH2 0x288 JUMPI PUSH1 0x20 SWAP1 PUSH1 0x4 CALLDATALOAD PUSH2 0x1A8E DUP2 PUSH2 0x1FAC JUMP JUMPDEST POP DUP2 MSTORE PUSH1 0x4 DUP3 MSTORE PUSH1 0x40 PUSH1 0x1 DUP1 PUSH1 0xA0 SHL SUB SWAP2 KECCAK256 SLOAD AND PUSH1 0x40 MLOAD SWAP1 DUP2 MSTORE RETURN JUMPDEST POP CALLVALUE PUSH2 0x288 JUMPI DUP1 PUSH1 0x3 NOT CALLDATASIZE ADD SLT PUSH2 0x288 JUMPI PUSH1 0x40 MLOAD SWAP1 DUP1 DUP1 SLOAD SWAP2 PUSH1 0x1 DUP4 DUP2 SHR SWAP3 DUP2 DUP6 AND SWAP5 DUP6 ISZERO PUSH2 0x1B60 JUMPI JUMPDEST PUSH1 0x20 SWAP6 DUP7 DUP7 LT DUP2 EQ PUSH2 0x126F JUMPI DUP6 DUP9 MSTORE DUP8 SWAP5 SWAP4 SWAP3 SWAP2 DUP8 SWAP1 DUP3 ISZERO PUSH2 0x124D JUMPI POP POP PUSH1 0x1 EQ PUSH2 0x1B07 JUMPI POP POP PUSH2 0xAA7 SWAP3 POP SUB DUP4 PUSH2 0x1D4E JUMP JUMPDEST SWAP1 DUP6 SWAP3 POP DUP2 DUP1 MSTORE PUSH32 0x290DECD9548B62A8D60345A988386FC84BA6BC95484008F6362F93160EF3E563 JUMPDEST DUP6 DUP4 LT PUSH2 0x1B48 JUMPI POP POP PUSH2 0xAA7 SWAP4 POP DUP3 ADD ADD CODESIZE DUP1 PUSH2 0x11E6 JUMP JUMPDEST DUP1 SLOAD DUP4 DUP10 ADD DUP6 ADD MSTORE DUP8 SWAP5 POP DUP7 SWAP4 SWAP1 SWAP3 ADD SWAP2 DUP2 ADD PUSH2 0x1B30 JUMP JUMPDEST SWAP4 PUSH1 0x7F AND SWAP4 PUSH2 0x1AD4 JUMP JUMPDEST SWAP1 POP CALLVALUE PUSH2 0x284 JUMPI PUSH1 0x20 CALLDATASIZE PUSH1 0x3 NOT ADD SLT PUSH2 0x284 JUMPI PUSH1 0x4 CALLDATALOAD PUSH4 0xFFFFFFFF PUSH1 0xE0 SHL DUP2 AND DUP1 SWAP2 SUB PUSH2 0x1BD7 JUMPI PUSH1 0x20 SWAP3 POP PUSH4 0x80AC58CD PUSH1 0xE0 SHL DUP2 EQ SWAP1 DUP2 ISZERO PUSH2 0x1BC6 JUMPI JUMPDEST DUP2 ISZERO PUSH2 0x1BB5 JUMPI JUMPDEST POP ISZERO ISZERO DUP2 MSTORE RETURN JUMPDEST PUSH4 0x1FFC9A7 PUSH1 0xE0 SHL EQ SWAP1 POP CODESIZE PUSH2 0x1BAE JUMP JUMPDEST PUSH4 0x5B5E139F PUSH1 0xE0 SHL DUP2 EQ SWAP2 POP PUSH2 0x1BA7 JUMP JUMPDEST DUP3 DUP1 REVERT JUMPDEST PUSH1 0x0 JUMPDEST DUP4 DUP2 LT PUSH2 0x1BEE JUMPI POP POP PUSH1 0x0 SWAP2 ADD MSTORE JUMP JUMPDEST DUP2 DUP2 ADD MLOAD DUP4 DUP3 ADD MSTORE PUSH1 0x20 ADD PUSH2 0x1BDE JUMP JUMPDEST SWAP1 PUSH1 0x20 SWAP2 PUSH2 0x1C17 DUP2 MLOAD DUP1 SWAP3 DUP2 DUP6 MSTORE DUP6 DUP1 DUP7 ADD SWAP2 ADD PUSH2 0x1BDB JUMP JUMPDEST PUSH1 0x1F ADD PUSH1 0x1F NOT AND ADD ADD SWAP1 JUMP JUMPDEST PUSH1 0x4 CALLDATALOAD SWAP1 PUSH1 0x1 PUSH1 0x1 PUSH1 0xA0 SHL SUB DUP3 AND DUP3 SUB PUSH2 0x1C39 JUMPI JUMP JUMPDEST PUSH1 0x0 DUP1 REVERT JUMPDEST PUSH1 0x24 CALLDATALOAD SWAP1 PUSH1 0x1 PUSH1 0x1 PUSH1 0xA0 SHL SUB DUP3 AND DUP3 SUB PUSH2 0x1C39 JUMPI JUMP JUMPDEST PUSH1 0x60 SWAP1 PUSH1 0x3 NOT ADD SLT PUSH2 0x1C39 JUMPI PUSH1 0x1 PUSH1 0x1 PUSH1 0xA0 SHL SUB SWAP1 PUSH1 0x4 CALLDATALOAD DUP3 DUP2 AND DUP2 SUB PUSH2 0x1C39 JUMPI SWAP2 PUSH1 0x24 CALLDATALOAD SWAP1 DUP2 AND DUP2 SUB PUSH2 0x1C39 JUMPI SWAP1 PUSH1 0x44 CALLDATALOAD SWAP1 JUMP JUMPDEST PUSH1 0x24 CALLDATALOAD SWAP1 PUSH1 0xFF DUP3 AND DUP3 SUB PUSH2 0x1C39 JUMPI JUMP JUMPDEST DUP1 SLOAD DUP3 LT ISZERO PUSH2 0x1CB1 JUMPI PUSH1 0x0 MSTORE PUSH1 0x20 PUSH1 0x0 KECCAK256 ADD SWAP1 PUSH1 0x0 SWAP1 JUMP JUMPDEST PUSH4 0x4E487B71 PUSH1 0xE0 SHL PUSH1 0x0 MSTORE PUSH1 0x32 PUSH1 0x4 MSTORE PUSH1 0x24 PUSH1 0x0 REVERT JUMPDEST PUSH2 0x140 DUP2 ADD SWAP1 DUP2 LT PUSH8 0xFFFFFFFFFFFFFFFF DUP3 GT OR PUSH2 0x1CE4 JUMPI PUSH1 0x40 MSTORE JUMP JUMPDEST PUSH4 0x4E487B71 PUSH1 0xE0 SHL PUSH1 0x0 MSTORE PUSH1 0x41 PUSH1 0x4 MSTORE PUSH1 0x24 PUSH1 0x0 REVERT JUMPDEST PUSH1 0x80 DUP2 ADD SWAP1 DUP2 LT PUSH8 0xFFFFFFFFFFFFFFFF DUP3 GT OR PUSH2 0x1CE4 JUMPI PUSH1 0x40 MSTORE JUMP JUMPDEST PUSH1 0x20 DUP2 ADD SWAP1 DUP2 LT PUSH8 0xFFFFFFFFFFFFFFFF DUP3 GT OR PUSH2 0x1CE4 JUMPI PUSH1 0x40 MSTORE JUMP JUMPDEST PUSH1 0x40 DUP2 ADD SWAP1 DUP2 LT PUSH8 0xFFFFFFFFFFFFFFFF DUP3 GT OR PUSH2 0x1CE4 JUMPI PUSH1 0x40 MSTORE JUMP JUMPDEST SWAP1 PUSH1 0x1F DUP1 NOT SWAP2 ADD AND DUP2 ADD SWAP1 DUP2 LT PUSH8 0xFFFFFFFFFFFFFFFF DUP3 GT OR PUSH2 0x1CE4 JUMPI PUSH1 0x40 MSTORE JUMP JUMPDEST PUSH8 0xFFFFFFFFFFFFFFFF DUP2 GT PUSH2 0x1CE4 JUMPI PUSH1 0x1F ADD PUSH1 0x1F NOT AND PUSH1 0x20 ADD SWAP1 JUMP JUMPDEST SWAP3 SWAP2 SWAP3 PUSH2 0x1D98 DUP3 PUSH2 0x1D70 JUMP JUMPDEST SWAP2 PUSH2 0x1DA6 PUSH1 0x40 MLOAD SWAP4 DUP5 PUSH2 0x1D4E JUMP JUMPDEST DUP3 SWAP5 DUP2 DUP5 MSTORE DUP2 DUP4 ADD GT PUSH2 0x1C39 JUMPI DUP3 DUP2 PUSH1 0x20 SWAP4 DUP5 PUSH1 0x0 SWAP7 ADD CALLDATACOPY ADD ADD MSTORE JUMP JUMPDEST SWAP1 DUP1 PUSH1 0x1F DUP4 ADD SLT ISZERO PUSH2 0x1C39 JUMPI DUP2 PUSH1 0x20 PUSH2 0x1DDE SWAP4 CALLDATALOAD SWAP2 ADD PUSH2 0x1D8C JUMP JUMPDEST SWAP1 JUMP JUMPDEST PUSH1 0x6 SLOAD PUSH1 0x1 PUSH1 0x1 PUSH1 0xA0 SHL SUB AND CALLER SUB PUSH2 0x1DF5 JUMPI JUMP JUMPDEST PUSH1 0x40 MLOAD PUSH4 0x118CDAA7 PUSH1 0xE0 SHL DUP2 MSTORE CALLER PUSH1 0x4 DUP3 ADD MSTORE PUSH1 0x24 SWAP1 REVERT JUMPDEST PUSH1 0x1 PUSH1 0x1 PUSH1 0xA0 SHL SUB SWAP2 DUP3 AND SWAP3 SWAP1 SWAP2 DUP4 ISZERO PUSH2 0x1F93 JUMPI PUSH1 0x0 SWAP3 DUP3 DUP5 MSTORE DUP3 PUSH1 0x20 SWAP6 PUSH1 0x2 DUP8 MSTORE PUSH1 0x40 SWAP7 DUP5 DUP9 DUP9 KECCAK256 SLOAD AND SWAP7 DUP8 SWAP2 CALLER ISZERO ISZERO DUP1 PUSH2 0x1EFD JUMPI JUMPDEST POP SWAP1 PUSH1 0x2 PUSH32 0xDDF252AD1BE2C89B69C2B068FC378DAA952BA7F163C4A11628F55A4DF523B3EF SWAP3 DUP5 PUSH2 0x1ECA JUMPI JUMPDEST DUP6 DUP4 MSTORE PUSH1 0x3 DUP2 MSTORE DUP12 DUP4 KECCAK256 DUP1 SLOAD PUSH1 0x1 ADD SWAP1 SSTORE DUP7 DUP4 MSTORE MSTORE DUP10 DUP2 KECCAK256 DUP1 SLOAD PUSH1 0x1 PUSH1 0x1 PUSH1 0xA0 SHL SUB NOT AND DUP6 OR SWAP1 SSTORE DUP1 LOG4 AND SWAP3 DUP4 DUP4 SUB PUSH2 0x1EA9 JUMPI POP POP POP POP JUMP JUMPDEST PUSH1 0x64 SWAP5 POP MLOAD SWAP3 PUSH4 0x64283D7B PUSH1 0xE0 SHL DUP5 MSTORE PUSH1 0x4 DUP5 ADD MSTORE PUSH1 0x24 DUP4 ADD MSTORE PUSH1 0x44 DUP3 ADD MSTORE REVERT JUMPDEST PUSH1 0x0 DUP8 DUP2 MSTORE PUSH1 0x4 PUSH1 0x20 MSTORE PUSH1 0x40 SWAP1 KECCAK256 DUP1 SLOAD PUSH1 0x1 PUSH1 0x1 PUSH1 0xA0 SHL SUB NOT AND SWAP1 SSTORE DUP5 DUP4 MSTORE PUSH1 0x3 DUP2 MSTORE DUP12 DUP4 KECCAK256 DUP1 SLOAD PUSH1 0x0 NOT ADD SWAP1 SSTORE PUSH2 0x1E70 JUMP JUMPDEST SWAP2 SWAP4 SWAP5 POP SWAP2 POP DUP1 PUSH2 0x1F52 JUMPI JUMPDEST ISZERO PUSH2 0x1F19 JUMPI DUP6 SWAP3 SWAP2 DUP8 SWAP2 CODESIZE PUSH2 0x1E44 JUMP JUMPDEST DUP8 DUP7 DUP9 PUSH2 0x1F36 JUMPI PUSH1 0x24 SWAP2 MLOAD SWAP1 PUSH4 0x7E273289 PUSH1 0xE0 SHL DUP3 MSTORE PUSH1 0x4 DUP3 ADD MSTORE REVERT JUMPDEST PUSH1 0x44 SWAP2 MLOAD SWAP1 PUSH4 0x177E802F PUSH1 0xE0 SHL DUP3 MSTORE CALLER PUSH1 0x4 DUP4 ADD MSTORE PUSH1 0x24 DUP3 ADD MSTORE REVERT JUMPDEST POP CALLER DUP8 EQ DUP1 ISZERO PUSH2 0x1F77 JUMPI JUMPDEST DUP1 PUSH2 0x1F09 JUMPI POP DUP6 DUP3 MSTORE PUSH1 0x4 DUP2 MSTORE CALLER DUP6 DUP10 DUP5 KECCAK256 SLOAD AND EQ PUSH2 0x1F09 JUMP JUMPDEST POP DUP7 DUP3 MSTORE PUSH1 0x5 DUP2 MSTORE DUP8 DUP3 KECCAK256 CALLER DUP4 MSTORE DUP2 MSTORE PUSH1 0xFF DUP9 DUP4 KECCAK256 SLOAD AND PUSH2 0x1F5D JUMP JUMPDEST PUSH1 0x40 MLOAD PUSH4 0x32505749 PUSH1 0xE1 SHL DUP2 MSTORE PUSH1 0x0 PUSH1 0x4 DUP3 ADD MSTORE PUSH1 0x24 SWAP1 REVERT JUMPDEST PUSH1 0x0 DUP2 DUP2 MSTORE PUSH1 0x2 PUSH1 0x20 MSTORE PUSH1 0x40 SWAP1 KECCAK256 SLOAD PUSH1 0x1 PUSH1 0x1 PUSH1 0xA0 SHL SUB AND SWAP1 DUP2 ISZERO PUSH2 0x1FCF JUMPI POP SWAP1 JUMP JUMPDEST PUSH1 0x24 SWAP1 PUSH1 0x40 MLOAD SWAP1 PUSH4 0x7E273289 PUSH1 0xE0 SHL DUP3 MSTORE PUSH1 0x4 DUP3 ADD MSTORE REVERT JUMPDEST SWAP1 SWAP2 SWAP3 DUP4 EXTCODESIZE PUSH2 0x1FF8 JUMPI JUMPDEST POP POP POP POP POP JUMP JUMPDEST PUSH1 0x40 MLOAD PUSH4 0xA85BD01 PUSH1 0xE1 SHL DUP1 DUP3 MSTORE PUSH1 0x1 PUSH1 0x1 PUSH1 0xA0 SHL SUB SWAP4 DUP5 AND PUSH1 0x4 DUP4 ADD MSTORE SWAP4 DUP4 AND PUSH1 0x24 DUP3 ADD MSTORE PUSH1 0x44 DUP2 ADD SWAP2 SWAP1 SWAP2 MSTORE PUSH1 0x80 PUSH1 0x64 DUP3 ADD MSTORE PUSH1 0x20 SWAP6 SWAP2 SWAP1 SWAP4 AND SWAP4 SWAP1 SWAP2 SWAP1 DUP4 SWAP1 PUSH2 0x2048 SWAP1 PUSH1 0x84 DUP4 ADD SWAP1 PUSH2 0x1BFE JUMP JUMPDEST SUB SWAP3 DUP6 DUP2 PUSH1 0x0 SWAP6 DUP2 DUP8 DUP10 GAS CALL DUP5 SWAP2 DUP2 PUSH2 0x20D4 JUMPI JUMPDEST POP PUSH2 0x20B6 JUMPI POP POP POP RETURNDATASIZE PUSH1 0x0 EQ PUSH2 0x20AE JUMPI RETURNDATASIZE PUSH2 0x2076 DUP2 PUSH2 0x1D70 JUMP JUMPDEST SWAP1 PUSH2 0x2084 PUSH1 0x40 MLOAD SWAP3 DUP4 PUSH2 0x1D4E JUMP JUMPDEST DUP2 MSTORE DUP1 SWAP2 DUP5 RETURNDATASIZE SWAP3 ADD RETURNDATACOPY DUP1 MLOAD SWAP3 DUP4 PUSH2 0xF17 JUMPI PUSH1 0x40 MLOAD PUSH4 0x32505749 PUSH1 0xE1 SHL DUP2 MSTORE PUSH1 0x4 DUP2 ADD DUP5 SWAP1 MSTORE PUSH1 0x24 SWAP1 REVERT JUMPDEST POP PUSH1 0x60 PUSH2 0xEF6 JUMP JUMPDEST SWAP2 SWAP5 POP SWAP2 POP PUSH4 0xFFFFFFFF PUSH1 0xE0 SHL AND SUB PUSH2 0xF47 JUMPI POP CODESIZE DUP1 DUP1 DUP1 DUP1 PUSH2 0x1FF1 JUMP JUMPDEST SWAP1 SWAP2 POP DUP7 DUP2 DUP2 RETURNDATASIZE DUP4 GT PUSH2 0x210D JUMPI JUMPDEST PUSH2 0x20EC DUP2 DUP4 PUSH2 0x1D4E JUMP JUMPDEST DUP2 ADD SUB SLT PUSH2 0xC13 JUMPI MLOAD PUSH1 0x1 PUSH1 0x1 PUSH1 0xE0 SHL SUB NOT DUP2 AND DUP2 SUB PUSH2 0xC13 JUMPI SWAP1 CODESIZE PUSH2 0x205C JUMP JUMPDEST POP RETURNDATASIZE PUSH2 0x20E2 JUMP JUMPDEST MLOAD SWAP1 DUP2 ISZERO ISZERO DUP3 SUB PUSH2 0x1C39 JUMPI JUMP JUMPDEST SWAP2 SWAP1 DUP3 PUSH1 0x40 SWAP2 SUB SLT PUSH2 0x1C39 JUMPI PUSH2 0x1DDE PUSH1 0x20 DUP4 MLOAD SWAP4 ADD PUSH2 0x2114 JUMP JUMPDEST MLOAD SWAP1 PUSH1 0x1 PUSH1 0x1 PUSH1 0xA0 SHL SUB DUP3 AND DUP3 SUB PUSH2 0x1C39 JUMPI JUMP JUMPDEST DUP2 PUSH1 0x1F DUP3 ADD SLT ISZERO PUSH2 0x1C39 JUMPI DUP1 MLOAD PUSH2 0x2165 DUP2 PUSH2 0x1D70 JUMP JUMPDEST SWAP3 PUSH2 0x2173 PUSH1 0x40 MLOAD SWAP5 DUP6 PUSH2 0x1D4E JUMP JUMPDEST DUP2 DUP5 MSTORE PUSH1 0x20 DUP3 DUP5 ADD ADD GT PUSH2 0x1C39 JUMPI PUSH2 0x1DDE SWAP2 PUSH1 0x20 DUP1 DUP6 ADD SWAP2 ADD PUSH2 0x1BDB JUMP JUMPDEST MLOAD SWAP1 PUSH1 0xFF DUP3 AND DUP3 SUB PUSH2 0x1C39 JUMPI JUMP JUMPDEST SWAP1 PUSH1 0x20 DUP3 DUP3 SUB SLT PUSH2 0x1C39 JUMPI DUP2 MLOAD PUSH8 0xFFFFFFFFFFFFFFFF SWAP3 DUP4 DUP3 GT PUSH2 0x1C39 JUMPI ADD SWAP1 PUSH2 0x220 SWAP3 DUP4 DUP4 DUP4 SUB SLT PUSH2 0x1C39 JUMPI PUSH1 0x40 MLOAD SWAP4 DUP5 ADD DUP5 DUP2 LT DUP3 DUP3 GT OR PUSH2 0x1CE4 JUMPI PUSH1 0x40 MSTORE DUP3 MLOAD DUP5 MSTORE PUSH2 0x21F0 PUSH1 0x20 DUP5 ADD PUSH2 0x213B JUMP JUMPDEST PUSH1 0x20 DUP6 ADD MSTORE PUSH1 0x40 DUP4 ADD MLOAD DUP2 DUP2 GT PUSH2 0x1C39 JUMPI DUP3 PUSH2 0x220D SWAP2 DUP6 ADD PUSH2 0x214F JUMP JUMPDEST PUSH1 0x40 DUP6 ADD MSTORE PUSH1 0x60 DUP4 ADD MLOAD DUP2 DUP2 GT PUSH2 0x1C39 JUMPI DUP3 PUSH2 0x222A SWAP2 DUP6 ADD PUSH2 0x214F JUMP JUMPDEST PUSH1 0x60 DUP6 ADD MSTORE PUSH1 0x80 DUP4 ADD MLOAD PUSH1 0x80 DUP6 ADD MSTORE PUSH1 0xA0 DUP4 ADD MLOAD PUSH1 0xA0 DUP6 ADD MSTORE PUSH1 0xC0 DUP4 ADD MLOAD PUSH1 0xC0 DUP6 ADD MSTORE PUSH2 0x2259 PUSH1 0xE0 DUP5 ADD PUSH2 0x2191 JUMP JUMPDEST PUSH1 0xE0 DUP6 ADD MSTORE PUSH2 0x100 DUP1 DUP5 ADD MLOAD DUP3 DUP2 GT PUSH2 0x1C39 JUMPI DUP4 PUSH2 0x2278 SWAP2 DUP7 ADD PUSH2 0x214F JUMP JUMPDEST SWAP1 DUP6 ADD MSTORE PUSH2 0x120 SWAP2 DUP3 DUP5 ADD MLOAD SWAP2 DUP3 GT PUSH2 0x1C39 JUMPI PUSH2 0x2296 SWAP2 DUP5 ADD PUSH2 0x214F JUMP JUMPDEST SWAP1 DUP4 ADD MSTORE PUSH2 0x140 DUP1 DUP3 ADD MLOAD SWAP1 DUP4 ADD MSTORE PUSH2 0x160 DUP1 DUP3 ADD MLOAD SWAP1 DUP4 ADD MSTORE PUSH2 0x180 DUP1 DUP3 ADD MLOAD SWAP1 DUP4 ADD MSTORE PUSH2 0x1A0 PUSH2 0x22C9 DUP2 DUP4 ADD PUSH2 0x2191 JUMP JUMPDEST SWAP1 DUP4 ADD MSTORE PUSH2 0x1C0 PUSH2 0x22DB DUP2 DUP4 ADD PUSH2 0x2191 JUMP JUMPDEST SWAP1 DUP4 ADD MSTORE PUSH2 0x1E0 DUP1 DUP3 ADD MLOAD SWAP1 DUP4 ADD MSTORE PUSH2 0x22F8 PUSH2 0x200 DUP1 SWAP3 ADD PUSH2 0x2114 JUMP JUMPDEST SWAP1 DUP3 ADD MSTORE SWAP1 JUMP JUMPDEST PUSH1 0x0 NOT DUP2 EQ PUSH2 0x230E JUMPI PUSH1 0x1 ADD SWAP1 JUMP JUMPDEST PUSH4 0x4E487B71 PUSH1 0xE0 SHL PUSH1 0x0 MSTORE PUSH1 0x11 PUSH1 0x4 MSTORE PUSH1 0x24 PUSH1 0x0 REVERT JUMPDEST SWAP2 SWAP1 DUP3 ADD DUP1 SWAP3 GT PUSH2 0x230E JUMPI JUMP JUMPDEST PUSH1 0x2 PUSH1 0x7 SLOAD EQ PUSH2 0x2342 JUMPI PUSH1 0x2 PUSH1 0x7 SSTORE JUMP JUMPDEST PUSH1 0x40 MLOAD PUSH4 0x3EE5AEB5 PUSH1 0xE0 SHL DUP2 MSTORE PUSH1 0x4 SWAP1 REVERT JUMPDEST SWAP2 SWAP1 DUP3 SUB SWAP2 DUP3 GT PUSH2 0x230E JUMPI JUMP JUMPDEST DUP1 MLOAD DUP3 LT ISZERO PUSH2 0x1CB1 JUMPI PUSH1 0x20 SWAP2 PUSH1 0x5 SHL ADD ADD SWAP1 JUMP JUMPDEST PUSH1 0x40 MLOAD PUSH1 0x0 SWAP3 PUSH2 0x2384 DUP3 PUSH2 0x1CFA JUMP JUMPDEST PUSH1 0x40 MLOAD PUSH2 0x2390 DUP2 PUSH2 0x1D32 JUMP JUMPDEST PUSH1 0x4 DUP2 MSTORE PUSH4 0x62617365 PUSH1 0xE0 SHL PUSH1 0x20 DUP3 ADD MSTORE DUP3 MSTORE PUSH1 0x40 MLOAD PUSH2 0x23AF DUP2 PUSH2 0x1D32 JUMP JUMPDEST PUSH1 0x4 DUP2 MSTORE PUSH4 0x63656C6F PUSH1 0xE0 SHL PUSH1 0x20 DUP3 ADD MSTORE PUSH1 0x20 DUP4 ADD MSTORE PUSH1 0x40 MLOAD PUSH2 0x23D1 DUP2 PUSH2 0x1D32 JUMP JUMPDEST PUSH1 0x7 DUP2 MSTORE PUSH7 0x3837B63CB3B7B7 PUSH1 0xC9 SHL PUSH1 0x20 DUP3 ADD MSTORE PUSH1 0x40 DUP4 ADD MSTORE PUSH1 0x40 MLOAD SWAP1 PUSH2 0x23F7 DUP3 PUSH2 0x1D32 JUMP JUMPDEST PUSH1 0x5 SWAP2 DUP3 DUP2 MSTORE PUSH5 0x1B5BDB9859 PUSH1 0xDA SHL PUSH1 0x20 DUP3 ADD MSTORE PUSH1 0x60 DUP5 ADD MSTORE DUP5 JUMPDEST PUSH1 0x4 DUP2 LT PUSH2 0x2422 JUMPI POP POP POP POP POP SWAP1 JUMP JUMPDEST DUP1 DUP4 SHL DUP5 ADD MLOAD PUSH1 0x20 PUSH2 0x243D PUSH1 0x40 MLOAD SWAP3 DUP4 DUP2 MLOAD SWAP4 DUP5 SWAP3 ADD PUSH2 0x1BDB JUMP JUMPDEST PUSH1 0xA SWAP1 DUP3 ADD SWAP1 DUP2 MSTORE DUP2 SWAP1 SUB PUSH1 0x20 ADD SWAP1 KECCAK256 SLOAD PUSH1 0x1 PUSH1 0x1 PUSH1 0xA0 SHL SUB AND DUP1 PUSH2 0x246C JUMPI JUMPDEST POP PUSH2 0x2467 SWAP1 PUSH2 0x22FF JUMP JUMPDEST PUSH2 0x2412 JUMP JUMPDEST PUSH1 0x0 PUSH1 0x4 SWAP2 PUSH1 0x40 MLOAD SWAP3 DUP4 DUP1 SWAP3 PUSH4 0x36BB1D37 PUSH1 0xE1 SHL DUP3 MSTORE GAS STATICCALL PUSH1 0x0 SWAP2 DUP2 PUSH2 0x2537 JUMPI JUMPDEST POP PUSH2 0x249C JUMPI POP PUSH2 0x2467 SWAP1 PUSH2 0x22FF JUMP JUMPDEST SWAP4 PUSH1 0x0 SWAP8 SWAP2 SWAP7 SWAP6 SWAP8 SWAP4 SWAP3 SWAP4 JUMPDEST DUP6 MLOAD DUP2 LT ISZERO PUSH2 0x2525 JUMPI PUSH1 0x1 PUSH1 0x1 PUSH1 0xA0 SHL SUB PUSH2 0x24C3 DUP3 DUP9 PUSH2 0x2361 JUMP JUMPDEST MLOAD MLOAD AND PUSH1 0x1 PUSH1 0x1 PUSH1 0xA0 SHL SUB DUP11 AND EQ PUSH2 0x24E3 JUMPI PUSH2 0x24DE SWAP1 PUSH2 0x22FF JUMP JUMPDEST PUSH2 0x24A8 JUMP JUMPDEST SWAP2 SWAP8 SWAP6 SWAP1 SWAP5 SWAP3 SWAP4 SWAP3 PUSH2 0x2467 SWAP3 PUSH2 0x2511 SWAP3 SWAP2 PUSH1 0xFF DUP7 AND PUSH2 0x2519 JUMPI PUSH1 0x20 SWAP2 PUSH2 0x2508 SWAP2 PUSH2 0x2361 JUMP JUMPDEST MLOAD ADD MLOAD SWAP1 PUSH2 0x2324 JUMP JUMPDEST SWAP6 JUMPDEST SWAP1 PUSH2 0x245D JUMP JUMPDEST PUSH1 0x40 SWAP2 PUSH2 0x2508 SWAP2 PUSH2 0x2361 JUMP JUMPDEST POP SWAP4 POP SWAP6 SWAP4 SWAP5 PUSH2 0x2467 SWAP1 SWAP3 SWAP2 SWAP3 PUSH2 0x2513 JUMP JUMPDEST SWAP1 SWAP2 RETURNDATASIZE SWAP1 DUP2 DUP2 DUP5 RETURNDATACOPY PUSH2 0x2549 DUP3 DUP5 PUSH2 0x1D4E JUMP JUMPDEST PUSH1 0x20 DUP4 DUP4 DUP2 ADD SUB SLT PUSH2 0x288 JUMPI DUP3 MLOAD SWAP1 PUSH8 0xFFFFFFFFFFFFFFFF SWAP2 DUP3 DUP2 GT PUSH2 0x284 JUMPI DUP5 ADD SWAP3 DUP1 DUP6 ADD PUSH1 0x1F DUP6 ADD SLT ISZERO PUSH2 0x284 JUMPI DUP4 MLOAD SWAP3 DUP4 GT PUSH2 0x1546 JUMPI PUSH1 0x40 MLOAD SWAP5 PUSH2 0x2595 PUSH1 0x20 DUP6 DUP13 SHL ADD DUP8 PUSH2 0x1D4E JUMP JUMPDEST DUP4 DUP7 MSTORE PUSH1 0x20 DUP7 ADD SWAP5 DUP3 DUP3 ADD PUSH1 0x20 DUP7 PUSH1 0x7 SHL DUP4 ADD ADD GT PUSH2 0x115C JUMPI PUSH1 0x20 DUP2 ADD SWAP6 JUMPDEST PUSH1 0x20 DUP7 PUSH1 0x7 SHL DUP4 ADD ADD DUP8 LT PUSH2 0x25D1 JUMPI POP POP POP POP POP POP POP SWAP1 CODESIZE PUSH2 0x248D JUMP JUMPDEST PUSH1 0x80 DUP8 DUP6 DUP6 ADD SUB SLT PUSH2 0xC13 JUMPI PUSH1 0x20 PUSH1 0x80 SWAP2 PUSH1 0x40 MLOAD PUSH2 0x25EE DUP2 PUSH2 0x1CFA JUMP JUMPDEST PUSH2 0x25F7 DUP11 PUSH2 0x213B JUMP JUMPDEST DUP2 MSTORE DUP3 DUP11 ADD MLOAD DUP4 DUP3 ADD MSTORE PUSH1 0x40 DUP11 ADD MLOAD PUSH1 0x40 DUP3 ADD MSTORE PUSH1 0x60 DUP11 ADD MLOAD PUSH1 0x60 DUP3 ADD MSTORE DUP2 MSTORE ADD SWAP7 ADD SWAP6 PUSH2 0x25B4 JUMP JUMPDEST PUSH1 0x9 SLOAD PUSH1 0x40 DUP1 MLOAD PUSH4 0x9626A23 PUSH1 0xE4 SHL DUP2 MSTORE PUSH1 0x4 DUP2 ADD DUP5 SWAP1 MSTORE PUSH1 0x1 PUSH1 0x1 PUSH1 0xA0 SHL SUB SWAP5 DUP6 AND PUSH1 0x24 DUP3 ADD MSTORE SWAP4 SWAP1 SWAP2 AND SWAP3 SWAP1 DUP2 PUSH1 0x44 DUP2 DUP7 GAS STATICCALL DUP1 PUSH1 0x0 SWAP3 DUP4 SWAP3 PUSH2 0x26E6 JUMPI JUMPDEST POP PUSH2 0x266E JUMPI POP POP POP POP PUSH1 0x0 SWAP1 JUMP JUMPDEST ISZERO SWAP1 DUP2 ISZERO PUSH2 0x26DD JUMPI JUMPDEST POP PUSH2 0x26D6 JUMPI PUSH1 0x0 SWAP1 PUSH1 0x24 PUSH1 0x40 MLOAD DUP1 SWAP5 DUP2 SWAP4 PUSH4 0x7F41DF67 PUSH1 0xE1 SHL DUP4 MSTORE PUSH1 0x4 DUP4 ADD MSTORE GAS STATICCALL PUSH1 0x0 SWAP2 DUP2 PUSH2 0x26BB JUMPI JUMPDEST POP PUSH2 0x26AD JUMPI POP PUSH1 0x0 SWAP1 JUMP JUMPDEST PUSH2 0x1A0 ADD MLOAD PUSH1 0xFF AND PUSH1 0x1 EQ SWAP1 JUMP JUMPDEST PUSH2 0x26CF SWAP2 SWAP3 RETURNDATASIZE DUP1 SWAP2 DUP4 RETURNDATACOPY PUSH2 0x805 DUP2 DUP4 PUSH2 0x1D4E JUMP JUMPDEST SWAP1 CODESIZE PUSH2 0x26A2 JUMP JUMPDEST POP POP PUSH1 0x0 SWAP1 JUMP JUMPDEST SWAP1 POP ISZERO CODESIZE PUSH2 0x2677 JUMP JUMPDEST SWAP1 SWAP3 POP PUSH2 0x2701 SWAP2 POP PUSH1 0x40 RETURNDATASIZE DUP2 GT PUSH2 0x79B JUMPI PUSH2 0x78C DUP2 DUP4 PUSH2 0x1D4E JUMP JUMPDEST SWAP1 SWAP2 CODESIZE PUSH2 0x2660 JUMP JUMPDEST PUSH1 0x0 MSTORE PUSH1 0xB PUSH1 0x20 MSTORE PUSH1 0x40 PUSH1 0x0 KECCAK256 PUSH1 0x4 DUP2 ADD SLOAD PUSH1 0xFF DUP2 AND DUP1 ISZERO PUSH2 0x2762 JUMPI JUMPDEST PUSH2 0x26D6 JUMPI PUSH1 0x1 DUP3 ADD SLOAD PUSH1 0x5 SWAP2 PUSH2 0x275A SWAP2 PUSH2 0x274F SWAP2 PUSH1 0x10 SHR PUSH1 0xFF AND SWAP1 PUSH1 0x1 PUSH1 0x1 PUSH1 0xA0 SHL SUB AND PUSH2 0x2375 JUMP JUMPDEST PUSH1 0x6 DUP5 ADD SLOAD SWAP1 PUSH2 0x2354 JUMP JUMPDEST SWAP2 ADD SLOAD GT ISZERO SWAP1 JUMP JUMPDEST POP PUSH1 0x3 DUP3 ADD SLOAD TIMESTAMP GT PUSH2 0x2726 JUMP INVALID LOG2 PUSH5 0x6970667358 0x22 SLT KECCAK256 SWAP5 0xE8 0xBD SGT 0xF7 0xB1 0xDD PUSH23 0x8D54A54ADAAF76203ECF6FDC0D59F512CABD392AE4C00B 0xF8 PUSH5 0x736F6C6343 STOP ADDMOD EQ STOP CALLER "},"methodIdentifiers":{"CHARITY_FEE_PERCENT()":"48c77be6","MAINTENANCE_FEE_PERCENT()":"4d4c277d","RECOVERABLE_PERCENT()":"d4ed2c13","SWEAT_EQUITY_WINDOW()":"0ca64f2f","approve(address,uint256)":"095ea7b3","balanceOf(address)":"70a08231","canCompleteChallenge(uint256)":"2d3e1cdf","canCreateSweatEquity(uint256,address)":"bc220ccf","claimSweatEquity(uint256)":"374dd7c5","createSweatEquityChallenge(uint256,uint8,uint256)":"d55c62f1","emergencyWithdraw()":"db2e21bc","fitnessContracts(string)":"d255e2d6","getApproved(uint256)":"081812fc","getChallenge(uint256)":"1bdd4b74","getUserChallenges(address)":"11da8e54","getUserCurrentExerciseCount(address,uint8)":"98f2cc96","isApprovedForAll(address,address)":"e985e9c5","name()":"06fdde03","owner()":"8da5cb5b","ownerOf(uint256)":"6352211e","predictionMarket()":"def114b6","renounceOwnership()":"715018a6","safeTransferFrom(address,address,uint256)":"42842e0e","safeTransferFrom(address,address,uint256,bytes)":"b88d4fde","setApprovalForAll(address,bool)":"a22cb465","setFitnessContract(string,address)":"fa89fc41","streakCount(address)":"b03381bc","supportsInterface(bytes4)":"01ffc9a7","sweatEquityChallenges(uint256)":"2293e756","sweatEquityScore(address)":"a5e65e77","symbol()":"95d89b41","tokenURI(uint256)":"c87b56dd","transferFrom(address,address,uint256)":"23b872dd","transferOwnership(address)":"f2fde38b","userChallenges(address,uint256)":"a5ff0a13","verificationStatus(uint256)":"09580bef","verifyAndApprove(uint256)":"a49613b4"}}}}}