{"contracts/ImperfectFormPredictionMarketV2_DEPRECATED.sol":{"ImperfectFormPredictionMarketV2":{"abi":[{"inputs":[{"internalType":"address","name":"_charityAddress","type":"address"},{"internalType":"address","name":"_maintenanceAddress","type":"address"},{"internalType":"uint256","name":"_initialCharityFee","type":"uint256"},{"internalType":"uint256","name":"_initialMaintenanceFee","type":"uint256"}],"stateMutability":"nonpayable","type":"constructor"},{"anonymous":false,"inputs":[{"indexed":true,"internalType":"uint256","name":"predictionId","type":"uint256"},{"indexed":true,"internalType":"address","name":"charityAddress","type":"address"},{"indexed":false,"internalType":"uint256","name":"amount","type":"uint256"}],"name":"CharityDonation","type":"event"},{"anonymous":false,"inputs":[{"indexed":false,"internalType":"uint256","name":"newCharityFeePercentage","type":"uint256"},{"indexed":false,"internalType":"uint256","name":"newMaintenanceFeePercentage","type":"uint256"}],"name":"FeesUpdated","type":"event"},{"anonymous":false,"inputs":[{"indexed":true,"internalType":"uint256","name":"predictionId","type":"uint256"},{"indexed":true,"internalType":"address","name":"maintenanceAddress","type":"address"},{"indexed":false,"internalType":"uint256","name":"amount","type":"uint256"}],"name":"MaintenanceFee","type":"event"},{"anonymous":false,"inputs":[{"indexed":true,"internalType":"address","name":"previousOwner","type":"address"},{"indexed":true,"internalType":"address","name":"newOwner","type":"address"}],"name":"OwnershipTransferred","type":"event"},{"anonymous":false,"inputs":[{"indexed":true,"internalType":"uint256","name":"predictionId","type":"uint256"}],"name":"PredictionCancelled","type":"event"},{"anonymous":false,"inputs":[{"indexed":true,"internalType":"uint256","name":"id","type":"uint256"},{"indexed":true,"internalType":"address","name":"creator","type":"address"},{"indexed":false,"internalType":"string","name":"title","type":"string"},{"indexed":false,"internalType":"uint256","name":"targetDate","type":"uint256"},{"indexed":false,"internalType":"enum ImperfectFormPredictionMarketV2.Category","name":"category","type":"uint8"},{"indexed":false,"internalType":"string","name":"network","type":"string"},{"indexed":false,"internalType":"bool","name":"autoResolvable","type":"bool"}],"name":"PredictionCreated","type":"event"},{"anonymous":false,"inputs":[{"indexed":true,"internalType":"uint256","name":"predictionId","type":"uint256"},{"indexed":false,"internalType":"enum ImperfectFormPredictionMarketV2.Outcome","name":"outcome","type":"uint8"}],"name":"PredictionResolved","type":"event"},{"anonymous":false,"inputs":[{"indexed":true,"internalType":"uint256","name":"predictionId","type":"uint256"},{"indexed":false,"internalType":"uint256","name":"currentValue","type":"uint256"}],"name":"PredictionUpdated","type":"event"},{"anonymous":false,"inputs":[{"indexed":true,"internalType":"uint256","name":"predictionId","type":"uint256"},{"indexed":true,"internalType":"address","name":"user","type":"address"},{"indexed":false,"internalType":"uint256","name":"amount","type":"uint256"}],"name":"RefundClaimed","type":"event"},{"anonymous":false,"inputs":[{"indexed":true,"internalType":"uint256","name":"predictionId","type":"uint256"},{"indexed":true,"internalType":"address","name":"user","type":"address"},{"indexed":false,"internalType":"uint256","name":"amount","type":"uint256"}],"name":"RewardClaimed","type":"event"},{"anonymous":false,"inputs":[{"indexed":true,"internalType":"uint256","name":"predictionId","type":"uint256"},{"indexed":true,"internalType":"address","name":"voter","type":"address"},{"indexed":false,"internalType":"bool","name":"isYes","type":"bool"},{"indexed":false,"internalType":"uint256","name":"amountStakedNow","type":"uint256"},{"indexed":false,"internalType":"uint256","name":"totalUserStake","type":"uint256"}],"name":"VoteCast","type":"event"},{"inputs":[],"name":"MAX_FEE_PERCENTAGE","outputs":[{"internalType":"uint256","name":"","type":"uint256"}],"stateMutability":"view","type":"function"},{"inputs":[],"name":"PERCENTAGE_BASE","outputs":[{"internalType":"uint256","name":"","type":"uint256"}],"stateMutability":"view","type":"function"},{"inputs":[{"internalType":"uint256","name":"_predictionId","type":"uint256"}],"name":"autoResolvePrediction","outputs":[],"stateMutability":"nonpayable","type":"function"},{"inputs":[{"internalType":"uint256","name":"_predictionId","type":"uint256"}],"name":"cancelPrediction","outputs":[],"stateMutability":"nonpayable","type":"function"},{"inputs":[],"name":"charityAddress","outputs":[{"internalType":"address","name":"","type":"address"}],"stateMutability":"view","type":"function"},{"inputs":[],"name":"charityFeePercentage","outputs":[{"internalType":"uint256","name":"","type":"uint256"}],"stateMutability":"view","type":"function"},{"inputs":[{"internalType":"uint256","name":"_predictionId","type":"uint256"}],"name":"claimRefund","outputs":[],"stateMutability":"nonpayable","type":"function"},{"inputs":[{"internalType":"uint256","name":"_predictionId","type":"uint256"}],"name":"claimReward","outputs":[],"stateMutability":"nonpayable","type":"function"},{"inputs":[{"internalType":"string","name":"_title","type":"string"},{"internalType":"string","name":"_description","type":"string"},{"internalType":"uint256","name":"_targetDate","type":"uint256"},{"internalType":"uint256","name":"_targetValue","type":"uint256"},{"internalType":"enum ImperfectFormPredictionMarketV2.Category","name":"_category","type":"uint8"},{"internalType":"string","name":"_network","type":"string"},{"internalType":"string","name":"_emoji","type":"string"},{"internalType":"bool","name":"_autoResolvable","type":"bool"}],"name":"createPrediction","outputs":[{"internalType":"uint256","name":"","type":"uint256"}],"stateMutability":"nonpayable","type":"function"},{"inputs":[{"internalType":"uint256","name":"_predictionId","type":"uint256"}],"name":"getParticipants","outputs":[{"internalType":"address[]","name":"","type":"address[]"}],"stateMutability":"view","type":"function"},{"inputs":[{"internalType":"uint256","name":"_predictionId","type":"uint256"}],"name":"getPrediction","outputs":[{"components":[{"internalType":"uint256","name":"id","type":"uint256"},{"internalType":"address","name":"creator","type":"address"},{"internalType":"string","name":"title","type":"string"},{"internalType":"string","name":"description","type":"string"},{"internalType":"uint256","name":"targetDate","type":"uint256"},{"internalType":"uint256","name":"targetValue","type":"uint256"},{"internalType":"uint256","name":"currentValue","type":"uint256"},{"internalType":"enum ImperfectFormPredictionMarketV2.Category","name":"category","type":"uint8"},{"internalType":"string","name":"network","type":"string"},{"internalType":"string","name":"emoji","type":"string"},{"internalType":"uint256","name":"totalStaked","type":"uint256"},{"internalType":"uint256","name":"yesVotes","type":"uint256"},{"internalType":"uint256","name":"noVotes","type":"uint256"},{"internalType":"enum ImperfectFormPredictionMarketV2.Status","name":"status","type":"uint8"},{"internalType":"enum ImperfectFormPredictionMarketV2.Outcome","name":"outcome","type":"uint8"},{"internalType":"uint256","name":"createdAt","type":"uint256"},{"internalType":"bool","name":"autoResolvable","type":"bool"}],"internalType":"struct ImperfectFormPredictionMarketV2.Prediction","name":"","type":"tuple"}],"stateMutability":"view","type":"function"},{"inputs":[],"name":"getTotalFeePercentage","outputs":[{"internalType":"uint256","name":"","type":"uint256"}],"stateMutability":"view","type":"function"},{"inputs":[],"name":"getTotalPredictions","outputs":[{"internalType":"uint256","name":"","type":"uint256"}],"stateMutability":"view","type":"function"},{"inputs":[{"internalType":"uint256","name":"_predictionId","type":"uint256"},{"internalType":"address","name":"_user","type":"address"}],"name":"getUserVote","outputs":[{"components":[{"internalType":"bool","name":"isYes","type":"bool"},{"internalType":"uint256","name":"amount","type":"uint256"},{"internalType":"bool","name":"claimed","type":"bool"}],"internalType":"struct ImperfectFormPredictionMarketV2.Vote","name":"","type":"tuple"}],"stateMutability":"view","type":"function"},{"inputs":[],"name":"maintenanceAddress","outputs":[{"internalType":"address","name":"","type":"address"}],"stateMutability":"view","type":"function"},{"inputs":[],"name":"maintenanceFeePercentage","outputs":[{"internalType":"uint256","name":"","type":"uint256"}],"stateMutability":"view","type":"function"},{"inputs":[],"name":"owner","outputs":[{"internalType":"address","name":"","type":"address"}],"stateMutability":"view","type":"function"},{"inputs":[{"internalType":"uint256","name":"","type":"uint256"},{"internalType":"uint256","name":"","type":"uint256"}],"name":"participants","outputs":[{"internalType":"address","name":"","type":"address"}],"stateMutability":"view","type":"function"},{"inputs":[{"internalType":"uint256","name":"","type":"uint256"}],"name":"predictions","outputs":[{"internalType":"uint256","name":"id","type":"uint256"},{"internalType":"address","name":"creator","type":"address"},{"internalType":"string","name":"title","type":"string"},{"internalType":"string","name":"description","type":"string"},{"internalType":"uint256","name":"targetDate","type":"uint256"},{"internalType":"uint256","name":"targetValue","type":"uint256"},{"internalType":"uint256","name":"currentValue","type":"uint256"},{"internalType":"enum ImperfectFormPredictionMarketV2.Category","name":"category","type":"uint8"},{"internalType":"string","name":"network","type":"string"},{"internalType":"string","name":"emoji","type":"string"},{"internalType":"uint256","name":"totalStaked","type":"uint256"},{"internalType":"uint256","name":"yesVotes","type":"uint256"},{"internalType":"uint256","name":"noVotes","type":"uint256"},{"internalType":"enum ImperfectFormPredictionMarketV2.Status","name":"status","type":"uint8"},{"internalType":"enum ImperfectFormPredictionMarketV2.Outcome","name":"outcome","type":"uint8"},{"internalType":"uint256","name":"createdAt","type":"uint256"},{"internalType":"bool","name":"autoResolvable","type":"bool"}],"stateMutability":"view","type":"function"},{"inputs":[{"internalType":"uint256","name":"_predictionId","type":"uint256"},{"internalType":"enum ImperfectFormPredictionMarketV2.Outcome","name":"_outcome","type":"uint8"}],"name":"resolvePrediction","outputs":[],"stateMutability":"nonpayable","type":"function"},{"inputs":[{"internalType":"address","name":"_newOwner","type":"address"}],"name":"transferOwnership","outputs":[],"stateMutability":"nonpayable","type":"function"},{"inputs":[{"internalType":"address","name":"_newCharityAddress","type":"address"}],"name":"updateCharityAddress","outputs":[],"stateMutability":"nonpayable","type":"function"},{"inputs":[{"internalType":"uint256","name":"_newCharityFeePercentage","type":"uint256"},{"internalType":"uint256","name":"_newMaintenanceFeePercentage","type":"uint256"}],"name":"updateFeePercentages","outputs":[],"stateMutability":"nonpayable","type":"function"},{"inputs":[{"internalType":"address","name":"_newMaintenanceAddress","type":"address"}],"name":"updateMaintenanceAddress","outputs":[],"stateMutability":"nonpayable","type":"function"},{"inputs":[{"internalType":"uint256","name":"_predictionId","type":"uint256"},{"internalType":"uint256","name":"_currentValue","type":"uint256"}],"name":"updatePredictionValue","outputs":[],"stateMutability":"nonpayable","type":"function"},{"inputs":[{"internalType":"uint256","name":"_predictionId","type":"uint256"},{"internalType":"bool","name":"_isYes","type":"bool"}],"name":"vote","outputs":[],"stateMutability":"payable","type":"function"},{"inputs":[{"internalType":"uint256","name":"","type":"uint256"},{"internalType":"address","name":"","type":"address"}],"name":"votes","outputs":[{"internalType":"bool","name":"isYes","type":"bool"},{"internalType":"uint256","name":"amount","type":"uint256"},{"internalType":"bool","name":"claimed","type":"bool"}],"stateMutability":"view","type":"function"}],"evm":{"bytecode":{"linkReferences":{},"object":"6080346200027657601f62002a7038819003918201601f191683019291906001600160401b038411838510176200027b5781608092849260409687528339810103126200027657620000518162000291565b90620000606020820162000291565b8382015160609092015160008054336001600160a01b031991821617909155600160055590936001600160a01b039081169283156200021c5716918215620001be5781600154161760015560025416176002556032620000c18383620002a6565b1162000170576064620000d58383620002a6565b10156200011757600355600455513360007f8be0079c531659141344cd1fd0a4f28419497f9722a3daafe3b4186f6b6457e08180a36127859081620002cb8239f35b825162461bcd60e51b8152602060048201526038602482015260008051602062002a5083398151915260448201527f732063616e6e6f742062652031303025206f72206d6f726500000000000000006064820152608490fd5b825162461bcd60e51b8152602060048201526032602482015260008051602062002a508339815191526044820152711cc8195e18d95959081b585e081b1a5b5a5d60721b6064820152608490fd5b855162461bcd60e51b815260206004820152603160248201527f496d70657266656374466f726d3a204d61696e74656e616e636520616464726560448201527073732063616e6e6f74206265207a65726f60781b6064820152608490fd5b865162461bcd60e51b815260206004820152602d60248201527f496d70657266656374466f726d3a20436861726974792061646472657373206360448201526c616e6e6f74206265207a65726f60981b6064820152608490fd5b600080fd5b634e487b7160e01b600052604160045260246000fd5b51906001600160a01b03821682036200027657565b91908201809211620002b457565b634e487b7160e01b600052601160045260246000fdfe60a0604052600436101561001257600080fd5b60003560e01c80624fbbb014611d6a57806303c7881a14611ca9578063064367bb14611c87578063275893a914611bd657806337a5025614611b35578063558e44d314611b195780635b7baf641461192e5780635c580061146118f25780636896e930146118d45780636aaea6dc146117b1578063719d5f831461178857806378578bb31461165257806381fb1fb41461160857806387c13943146115ec57806389296738146114225780638da5cb5b146113f9578063ae169a5014611353578063ae5a17a7146112a6578063afcf2fc41461127d578063c1e3bd3e146111a8578063c9d27afe14610dec578063d23254b414610d83578063d424e5a014610cd3578063e8460ed914610539578063e9e3e1ae1461051b578063f2fde38b1461044c5763fe83bece1461014457600080fd5b3461044757602036600319011261044757600435600061020060405161016981611f53565b828152826020820152606060408201526060808201528260808201528260a08201528260c08201528260e082015260606101008201526060610120820152826101408201528261016082015282610180820152826101a0820152826101c0820152826101e0820152015260055481108061043e575b6101e7906121be565b600052600660205260406000206040519061020182611f53565b8054825260018101546001600160a01b0316602083015261022460028201611f92565b604083015261023560038201611f92565b606083015260048101546080830152600581015460a0830152600681015460c083015260ff60078201541660048110156104285760ff91600f9160e085015261028060088201611f92565b61010085015261029260098201611f92565b610120850152600a810154610140850152600b810154610160850152600c81015461018085015282600d8201546102ca828216612085565b8181166101a08701526102e1828260081c16612085565b60081c166101c0850152600e8101546101e085015201541615156102008201526040518091602082528051602083015260018060a01b0360208201511660408301526102006103c161034460408401516102206060870152610240860190612038565b6103aa610363606086015192601f1993848983030160808a0152612038565b608086015160a088015260a086015160c088015260c086015160e088015261039460e0870151610100890190612078565b6101008601518388830301610120890152612038565b906101208501519086830301610140870152612038565b916101408101516101608501526101608101516101808501526101808101516101a08501526101a08101516103f581612085565b6101c08501526101c081015161040a81612085565b6101e08501526101e081015182850152015115156102208301520390f35b634e487b7160e01b600052602160045260246000fd5b508015156101de565b600080fd5b34610447576020366003190112610447576104656120a5565b6000546001600160a01b038082169261047f338514612156565b169182156104be5782907f8be0079c531659141344cd1fd0a4f28419497f9722a3daafe3b4186f6b6457e0600080a36001600160a01b03191617600055005b60405162461bcd60e51b815260206004820152602f60248201527f496d70657266656374466f726d3a204e6577206f776e65722063616e6e6f742060448201526e6265207a65726f206164647265737360881b6064820152608490fd5b34610447576000366003190112610447576020600354604051908152f35b34610447576101003660031901126104475760043567ffffffffffffffff81116104475761056b9036906004016120ff565b60243567ffffffffffffffff81116104475761058b9036906004016120ff565b600460843510156104475760a43567ffffffffffffffff8111610447576105b69036906004016120ff565b9160c43567ffffffffffffffff8111610447576105d79036906004016120ff565b9160e435151560e4350361044757815115610c8257426044351115610c2457600554926000198414610c0e576001840160055583600052600660205260406000209184835560018301336001600160601b0360a01b825416179055835167ffffffffffffffff81116109aa576106506002850154611efd565b601f8111610bc7575b50806020601f8211600114610b5a57600091610b4f575b508160011b916000199060031b1c19161760028401555b80519067ffffffffffffffff82116109aa5781906106a86003860154611efd565b601f8111610afc575b50602090601f8311600114610a8a57600092610a7f575b50508160011b916000199060031b1c19161760038301555b604435600483015560643560058301556007820160ff1981541660ff60843516179055845167ffffffffffffffff81116109aa576107216008840154611efd565b601f8111610a38575b50806020601f82116001146109cb576000916109c0575b508160011b916000199060031b1c19161760088301555b80519067ffffffffffffffff82116109aa576107776009840154611efd565b601f8111610963575b50916020959185938790601f83116001146108c95792827fc5b70e84363d6544e1390754a4cb2da48e3414541dd74c3591668481fa7a365b959361080c93610867966000926108be575b50508160011b916000199060031b1c19161760098201555b600d810160ff19815416905542600e820155600f60e43591019060ff801983541691151516179055565b8360005260098752604060002033600052875260ff6040600020541615610880575b6108436040519560a0875260a0870190612038565b906044358887015261085a60408701608435612078565b8582036060870152612038565b9260e435151560808201528033940390a3604051908152f35b8360005260088752610896336040600020612284565b836000526009875260406000203360005287526040600020600160ff1982541617905561082e565b015190508b806107ca565b9060098401600052886000209160005b601f198516811061094957508361080c9361086796936001937fc5b70e84363d6544e1390754a4cb2da48e3414541dd74c3591668481fa7a365b9997601f19811610610930575b505050811b0160098201556107e2565b015160001960f88460031b161c191690558b8080610920565b818301518455899750600190930192918a01918a016108d9565b600984016000526020600020601f840160051c8101602085106109a3575b601f830160051c82018110610997575050610780565b60008155600101610981565b5080610981565b634e487b7160e01b600052604160045260246000fd5b905086015187610741565b91506008840160005260206000206000925b601f1983168410610a20576001935082601f19811610610a07575b5050811b016008830155610758565b88015160001960f88460031b161c1916905587806109f8565b888101518255602093840193600190920191016109dd565b600884016000526020600020601f830160051c810160208410610a78575b601f830160051c82018110610a6c57505061072a565b60008155600101610a56565b5080610a56565b0151905087806106c8565b9250600385016000526020600020906000935b601f1984168510610ae1576001945083601f19811610610ac8575b505050811b0160038301556106e0565b015160001960f88460031b161c19169055878080610ab8565b81810151835560209485019460019093019290910190610a9d565b909150600385016000526020600020601f840160051c810160208510610b48575b90849392915b601f830160051c82018110610b395750506106b1565b60008155859450600101610b23565b5080610b1d565b905085015188610670565b91506002850160005260206000206000925b601f1983168410610baf576001935082601f19811610610b96575b5050811b016002840155610687565b87015160001960f88460031b161c191690558880610b87565b87810151825560209384019360019092019101610b6c565b600285016000526020600020601f830160051c810160208410610c07575b601f830160051c82018110610bfb575050610659565b60008155600101610be5565b5080610be5565b634e487b7160e01b600052601160045260246000fd5b60405162461bcd60e51b815260206004820152603060248201527f496d70657266656374466f726d3a205461726765742064617465206d7573742060448201526f626520696e207468652066757475726560801b6064820152608490fd5b60405162461bcd60e51b8152602060048201526024808201527f496d70657266656374466f726d3a205469746c652063616e6e6f7420626520656044820152636d70747960e01b6064820152608490fd5b3461044757602036600319011261044757600435610cfc60018060a01b03600054163314612156565b600554811080610d7a575b610d10906121be565b806000526006602052610d3760ff600d6040600020015416610d3181612085565b1561221b565b806000526006602052600d604060002001600260ff198254161790557faf9d749692c27edb73692839024a98f047b114c6fd450acf3c702120928a2be2600080a2005b50801515610d07565b3461044757604036600319011261044757610d9c61208f565b600435600052600760205260406000209060018060a01b03166000526020526060604060002060ff8154169060ff6002600183015492015416906040519215158352602083015215156040820152f35b60403660031901126104475760043560243590811515918281036104475760055482108061119f575b610e1e906121be565b8160005260209060068252610e4160ff600d6040600020015416610d3181612085565b82600052600682526004604060002001544210156111415734156110e65782600052600682526040600020906007835260406000203360005283526040600020906001820192835490600a8101610e993482546121b1565b905582156110d057600b8101610eb03482546121b1565b90555b811515806110c0575b610f8b575b5050815490151560ff1660ff19919091161781556002905b610ee43484546121b1565b83550160ff19908181541690558360005260098352604060002033600052835260ff6040600020541615610f4e575b505490604051938452349084015260408301527f77a255f45c79d26605c257d8dfc37f9a619f53963ddbed1e95aa0aab1c801cee60603393a3005b8360005260088352610f64336040600020612284565b83600052600983526040600020336000528352600160406000209182541617905584610f13565b835460ff161561103257600b81018054838110610fd057600c60029695938593610fbb610ed997610fc6956122c4565b9055019182546121b1565b90555b9192610ec1565b60405162461bcd60e51b815260048101899052603460248201527f496d70657266656374466f726d3a20496e73756666696369656e742059455320604482015273706f6f6c20666f7220766f7465206368616e676560601b6064820152608490fd5b600c8101805483811061105f57600b60029695938593610fbb610ed997611058956122c4565b9055610fc9565b60405162461bcd60e51b815260048101899052603360248201527f496d70657266656374466f726d3a20496e73756666696369656e74204e4f20706044820152726f6f6c20666f7220766f7465206368616e676560681b6064820152608490fd5b508760ff85541615151415610ebc565b600c81016110df3482546121b1565b9055610eb3565b60405162461bcd60e51b815260048101839052602d60248201527f496d70657266656374466f726d3a204d757374207374616b6520736f6d65206160448201526c6d6f756e7420746f20766f746560981b6064820152608490fd5b60405162461bcd60e51b815260048101839052603060248201527f496d70657266656374466f726d3a2050726564696374696f6e2068617320657860448201526f706972656420666f7220766f74696e6760801b6064820152608490fd5b50811515610e15565b346104475760208060031936011261044757600435600554811080611274575b6111d1906121be565b60005260088152604060002060405190818382549182815201908192600052846000209060005b8682821061125757868661120e82880383611f70565b604051928392818401908285525180915260408401929160005b82811061123757505050500390f35b83516001600160a01b031685528695509381019392810192600101611228565b83546001600160a01b0316855290930192600192830192016111f8565b508015156111c8565b34610447576000366003190112610447576001546040516001600160a01b039091168152602090f35b34610447576020366003190112610447576112bf6120a5565b6000546001600160a01b0391906112d99083163314612156565b1680156112f8576001600160601b0360a01b6001541617600155600080f35b60405162461bcd60e51b815260206004820152602d60248201527f496d70657266656374466f726d3a20436861726974792061646472657373206360448201526c616e6e6f74206265207a65726f60981b6064820152608490fd5b34610447576020366003190112610447576004356005548110806113f0575b61137b906121be565b806000526006602052600160ff600d604060002001541661139b81612085565b036113ab576113a9906122e4565b005b60405162461bcd60e51b81526020600482015260296024820152600080516020612730833981519152604482015268081c995cdbdb1d995960ba1b6064820152608490fd5b50801515611372565b34610447576000366003190112610447576000546040516001600160a01b039091168152602090f35b346104475760208060031936011261044757600435906005548210806115e3575b61144c906121be565b816000526006815261146c60ff600d6040600020015416610d3181612085565b816000526006815260406000209060ff600f830154161561159857600482015442111561153e57600260ff600784015416926004841015610428577fa04cc8b95d889d00fb177cca0ed67477aef48c963dfbc778e45e8e8b8dfcc59d931580611531575b6114ff575b81600d6114ed9201600160ff19825416178155612265565b604051906114fa81612085565b8152a2005b80600d9260066114ed93015460058301541115600014611529575060019283915b925050506114d5565b928391611520565b50600581015415156114d0565b6084906040519062461bcd60e51b82526004820152602d60248201527f496d70657266656374466f726d3a20546172676574206461746520686173206e60448201526c1bdd081c185cdcd959081e595d609a1b6064820152fd5b6084906040519062461bcd60e51b825260048201526030602482015260008051602061273083398151915260448201526f206175746f2d7265736f6c7661626c6560801b6064820152fd5b50811515611443565b3461044757600036600319011261044757602060405160648152f35b3461044757611616366120bb565b9060005260086020526040600020805482101561044757602091611639916120d1565b905460405160039290921b1c6001600160a01b03168152f35b3461044757611660366120bb565b61167560018060a01b03600054163314612156565b603261168182846121b1565b1161173057606461169282846121b1565b10156116d257816040917f5c6323bf1c2d7aaea2c091a4751c1c87af7f2864650c336507a77d0557af37a1936003558060045582519182526020820152a1005b60405162461bcd60e51b815260206004820152603060248201527f496d70657266656374466f726d3a20546f74616c20666565732063616e6e6f7460448201526f2062652031303025206f72206d6f726560801b6064820152608490fd5b60405162461bcd60e51b815260206004820152602a60248201527f496d70657266656374466f726d3a20546f74616c206665657320657863656564604482015269081b585e081b1a5b5a5d60b21b6064820152608490fd5b34610447576000366003190112610447576002546040516001600160a01b039091168152602090f35b34610447576040366003190112610447576004356024356003811015610447576117e660018060a01b03600054163314612156565b6005548210806118cb575b6117fa906121be565b81600052600660205261181b60ff600d6040600020015416610d3181612085565b61182481612085565b80156118725760207fa04cc8b95d889d00fb177cca0ed67477aef48c963dfbc778e45e8e8b8dfcc59d9183600052600682526114ed81600d604060002001600160ff19825416178155612265565b60405162461bcd60e51b815260206004820152602b60248201527f496d70657266656374466f726d3a2043616e6e6f74207265736f6c766520746f60448201526a081553949154d3d315915160aa1b6064820152608490fd5b508115156117f1565b34610447576000366003190112610447576020600454604051908152f35b34610447576000366003190112610447576005548015611924576000198101908111610c0e576020905b604051908152f35b506020600061191c565b346104475760208060031936011261044757600435600554811080611b10575b611957906121be565b8060005260068252600260ff600d604060002001541661197681612085565b03611aca57806000526007825260406000203360005282526040600020916001830154928315611a6857600201805460ff81166119fd5760ff191660011790556000808080863382f1156119f1577ff3f402280ef0a7905e124aa621b65eaeb2725c343e8b36d398ed78c29daf285c906040519384523393a3005b6040513d6000823e3d90fd5b60405162461bcd60e51b815260048101849052603960248201527f496d70657266656374466f726d3a20526566756e6420616c726561647920636c60448201527f61696d6564206f72207265776172642070726f636573736564000000000000006064820152608490fd5b60405162461bcd60e51b815260048101839052603460248201527f496d70657266656374466f726d3a204e6f20766f746520666f756e6420666f72604482015273081d1a1a5cc81d5cd95c881d1bc81c99599d5b9960621b6064820152608490fd5b60405162461bcd60e51b815260048101839052602a60248201526000805160206127308339815191526044820152690818d85b98d95b1b195960b21b6064820152608490fd5b5080151561194e565b3461044757600036600319011261044757602060405160328152f35b346104475760207fa3a65c2c82e33077bfdc2c14360c64d9b5ef2aaf53c60c614b4d63922dbbd93e611b66366120bb565b611b7e60018060a09694961b03600054163314612156565b600554841080611bcd575b611b92906121be565b8360005260068252611bb260ff600d6040600020015416610d3181612085565b836000526006825280600660406000200155604051908152a2005b50831515611b89565b3461044757602036600319011261044757611bef6120a5565b6000546001600160a01b039190611c099083163314612156565b168015611c28576001600160601b0360a01b6002541617600255600080f35b60405162461bcd60e51b815260206004820152603160248201527f496d70657266656374466f726d3a204d61696e74656e616e636520616464726560448201527073732063616e6e6f74206265207a65726f60781b6064820152608490fd5b3461044757600036600319011261044757602061191c600354600454906121b1565b3461044757604036600319011261044757600435611cc561208f565b90600060408051611cd581611f37565b8281528260208201520152600554811080611d61575b611cf4906121be565b600052600760205260406000209060018060a01b031660005260205260606040600020604051611d2381611f37565b60ff825416151591828252604060ff600260018401549360208601948552015416920191151582526040519283525160208301525115156040820152f35b50801515611ceb565b34610447576020366003190112610447576004356000908152600660205260409020805460018201546001600160a01b031691611da960028201611f92565b92611db660038301611f92565b93600483015494600584015495600685015490600786015460ff169060088701611ddf90611f92565b91611dec60098901611f92565b93600a8901549a600b8a015496600c8b015498600d8c01549a600e8d01549c600f015460ff169d604051806080525260805160200152610220806080516040015260805101611e3a91612038565b6080518082039060600152611e4e91612038565b936080516080015260805160a0015260805160c0015260805160e001611e7391612078565b608051808203906101000152611e8891612038565b608051808203906101200152611e9d91612038565b9560805161014001526080516101600152608051610180015260ff8116611ec381612085565b6080516101a0015260081c60ff16611eda81612085565b6080516101c001526080516101e001521515608051610200015260805180910390f35b90600182811c92168015611f2d575b6020831014611f1757565b634e487b7160e01b600052602260045260246000fd5b91607f1691611f0c565b6060810190811067ffffffffffffffff8211176109aa57604052565b610220810190811067ffffffffffffffff8211176109aa57604052565b90601f8019910116810190811067ffffffffffffffff8211176109aa57604052565b9060405191826000825492611fa684611efd565b9081845260019485811690816000146120155750600114611fd2575b5050611fd092500383611f70565b565b9093915060005260209081600020936000915b818310611ffd575050611fd093508201013880611fc2565b85548884018501529485019487945091830191611fe5565b915050611fd094506020925060ff191682840152151560051b8201013880611fc2565b919082519283825260005b848110612064575050826000602080949584010152601f8019910116010190565b602081830181015184830182015201612043565b9060048210156104285752565b6003111561042857565b602435906001600160a01b038216820361044757565b600435906001600160a01b038216820361044757565b6040906003190112610447576004359060243590565b80548210156120e95760005260206000200190600090565b634e487b7160e01b600052603260045260246000fd5b81601f820112156104475780359067ffffffffffffffff82116109aa5760405192612134601f8401601f191660200185611f70565b8284526020838301011161044757816000926020809301838601378301015290565b1561215d57565b60405162461bcd60e51b815260206004820152602660248201527f496d70657266656374466f726d3a2043616c6c6572206973206e6f74207468656044820152651037bbb732b960d11b6064820152608490fd5b91908201809211610c0e57565b156121c557565b60405162461bcd60e51b815260206004820152602860248201527f496d70657266656374466f726d3a2050726564696374696f6e20646f6573206e6044820152671bdd08195e1a5cdd60c21b6064820152608490fd5b1561222257565b60405162461bcd60e51b815260206004820152602760248201526000805160206127308339815191526044820152662061637469766560c81b6064820152608490fd5b9061226f81612085565b61ff0082549160081b169061ff001916179055565b8054680100000000000000008110156109aa576122a6916001820181556120d1565b819291549060031b9160018060a01b03809116831b921b1916179055565b91908203918211610c0e57565b81810292918115918404141715610c0e57565b60009080825260206006815260408084209360078352818120338252835281812094600195868101549081156126d857600281019081549160ff831661266e5789600d86019360ff855460081c169361233c85612085565b8285149485612662575b8515612635575b505060ff1916179055156126045760ff88915460081c1661236d81612085565b036125f957600b820154915b821561257457600a015461238c916122d1565b04606461239b600354836122d1565b0460646123aa600454846122d1565b04916123b683836121b1565b9081811061251c57906123c8916122c4565b9681159081156124b4575b5050508015801561244b575b505084158015612418575b5050907f24b5efa61dd1cfc659205a97fb8ed868f3cb8c81922bab2b96423e5de1de2cb791519384523393a3565b8190868291612441575b8280929181923390f11561243657806123ea565b9051903d90823e3d90fd5b6108fc9150612422565b828080808560018060a01b039586600254169083906124ab575bf1156124a1577f4f74fd430ecc4bc832d1c0f6568d7ecf27f3e0abcf81385ef346c93b2ef7588e85879260025416938651908152a338806123df565b83513d84823e3d90fd5b506108fc612465565b848080808660018060a01b039687875416908390612513575bf115612509578688927fa83b61ed3e79e291a0126b12792f207ce9b4fe8d4098b8ccee67291d9ce9d92f925416938751908152a33880806123d3565b85513d86823e3d90fd5b506108fc6124cd565b855162461bcd60e51b815260048101889052602b60248201527f496d70657266656374466f726d3a2046656573206578636565642063616c637560448201526a6c6174656420736861726560a81b6064820152608490fd5b845162461bcd60e51b815260048101879052605260248201527f496d70657266656374466f726d3a204e6f2077696e6e696e67207374616b657360448201527f20706f6f6c202873686f756c64206e6f742068617070656e206966207573657260648201527120636c61696d7320636f72726563746c792960701b608482015260a490fd5b600c82015491612379565b5050509350907f24b5efa61dd1cfc659205a97fb8ed868f3cb8c81922bab2b96423e5de1de2cb791519384523393a3565b60029192955061264481612085565b149081612655575b5092388061234d565b60ff91505416153861264c565b815460ff169550612346565b865162461bcd60e51b815260048101899052603960248201527f496d70657266656374466f726d3a2052657761726420616c726561647920636c60448201527f61696d6564206f7220726566756e642070726f636573736564000000000000006064820152608490fd5b845162461bcd60e51b815260048101879052602a60248201527f496d70657266656374466f726d3a204e6f20766f746520666f756e6420666f72604482015269103a3434b9903ab9b2b960b11b6064820152608490fdfe496d70657266656374466f726d3a2050726564696374696f6e206973206e6f74a2646970667358221220d194214bd9e5625fcb8472999d7d9a11bcb23e07f534986f0ba68f7aba8fd40c64736f6c63430008130033496d70657266656374466f726d3a20496e697469616c20746f74616c20666565","opcodes":"PUSH1 0x80 CALLVALUE PUSH3 0x276 JUMPI PUSH1 0x1F PUSH3 0x2A70 CODESIZE DUP2 SWAP1 SUB SWAP2 DUP3 ADD PUSH1 0x1F NOT AND DUP4 ADD SWAP3 SWAP2 SWAP1 PUSH1 0x1 PUSH1 0x1 PUSH1 0x40 SHL SUB DUP5 GT DUP4 DUP6 LT OR PUSH3 0x27B JUMPI DUP2 PUSH1 0x80 SWAP3 DUP5 SWAP3 PUSH1 0x40 SWAP7 DUP8 MSTORE DUP4 CODECOPY DUP2 ADD SUB SLT PUSH3 0x276 JUMPI PUSH3 0x51 DUP2 PUSH3 0x291 JUMP JUMPDEST SWAP1 PUSH3 0x60 PUSH1 0x20 DUP3 ADD PUSH3 0x291 JUMP JUMPDEST DUP4 DUP3 ADD MLOAD PUSH1 0x60 SWAP1 SWAP3 ADD MLOAD PUSH1 0x0 DUP1 SLOAD CALLER PUSH1 0x1 PUSH1 0x1 PUSH1 0xA0 SHL SUB NOT SWAP2 DUP3 AND OR SWAP1 SWAP2 SSTORE PUSH1 0x1 PUSH1 0x5 SSTORE SWAP1 SWAP4 PUSH1 0x1 PUSH1 0x1 PUSH1 0xA0 SHL SUB SWAP1 DUP2 AND SWAP3 DUP4 ISZERO PUSH3 0x21C JUMPI AND SWAP2 DUP3 ISZERO PUSH3 0x1BE JUMPI DUP2 PUSH1 0x1 SLOAD AND OR PUSH1 0x1 SSTORE PUSH1 0x2 SLOAD AND OR PUSH1 0x2 SSTORE PUSH1 0x32 PUSH3 0xC1 DUP4 DUP4 PUSH3 0x2A6 JUMP JUMPDEST GT PUSH3 0x170 JUMPI PUSH1 0x64 PUSH3 0xD5 DUP4 DUP4 PUSH3 0x2A6 JUMP JUMPDEST LT ISZERO PUSH3 0x117 JUMPI PUSH1 0x3 SSTORE PUSH1 0x4 SSTORE MLOAD CALLER PUSH1 0x0 PUSH32 0x8BE0079C531659141344CD1FD0A4F28419497F9722A3DAAFE3B4186F6B6457E0 DUP2 DUP1 LOG3 PUSH2 0x2785 SWAP1 DUP2 PUSH3 0x2CB DUP3 CODECOPY RETURN JUMPDEST DUP3 MLOAD PUSH3 0x461BCD PUSH1 0xE5 SHL DUP2 MSTORE PUSH1 0x20 PUSH1 0x4 DUP3 ADD MSTORE PUSH1 0x38 PUSH1 0x24 DUP3 ADD MSTORE PUSH1 0x0 DUP1 MLOAD PUSH1 0x20 PUSH3 0x2A50 DUP4 CODECOPY DUP2 MLOAD SWAP2 MSTORE PUSH1 0x44 DUP3 ADD MSTORE PUSH32 0x732063616E6E6F742062652031303025206F72206D6F72650000000000000000 PUSH1 0x64 DUP3 ADD MSTORE PUSH1 0x84 SWAP1 REVERT JUMPDEST DUP3 MLOAD PUSH3 0x461BCD PUSH1 0xE5 SHL DUP2 MSTORE PUSH1 0x20 PUSH1 0x4 DUP3 ADD MSTORE PUSH1 0x32 PUSH1 0x24 DUP3 ADD MSTORE PUSH1 0x0 DUP1 MLOAD PUSH1 0x20 PUSH3 0x2A50 DUP4 CODECOPY DUP2 MLOAD SWAP2 MSTORE PUSH1 0x44 DUP3 ADD MSTORE PUSH18 0x1CC8195E18D95959081B585E081B1A5B5A5D PUSH1 0x72 SHL PUSH1 0x64 DUP3 ADD MSTORE PUSH1 0x84 SWAP1 REVERT JUMPDEST DUP6 MLOAD PUSH3 0x461BCD PUSH1 0xE5 SHL DUP2 MSTORE PUSH1 0x20 PUSH1 0x4 DUP3 ADD MSTORE PUSH1 0x31 PUSH1 0x24 DUP3 ADD MSTORE PUSH32 0x496D70657266656374466F726D3A204D61696E74656E616E6365206164647265 PUSH1 0x44 DUP3 ADD MSTORE PUSH17 0x73732063616E6E6F74206265207A65726F PUSH1 0x78 SHL PUSH1 0x64 DUP3 ADD MSTORE PUSH1 0x84 SWAP1 REVERT JUMPDEST DUP7 MLOAD PUSH3 0x461BCD PUSH1 0xE5 SHL DUP2 MSTORE PUSH1 0x20 PUSH1 0x4 DUP3 ADD MSTORE PUSH1 0x2D PUSH1 0x24 DUP3 ADD MSTORE PUSH32 0x496D70657266656374466F726D3A204368617269747920616464726573732063 PUSH1 0x44 DUP3 ADD MSTORE PUSH13 0x616E6E6F74206265207A65726F PUSH1 0x98 SHL PUSH1 0x64 DUP3 ADD MSTORE PUSH1 0x84 SWAP1 REVERT JUMPDEST PUSH1 0x0 DUP1 REVERT JUMPDEST PUSH4 0x4E487B71 PUSH1 0xE0 SHL PUSH1 0x0 MSTORE PUSH1 0x41 PUSH1 0x4 MSTORE PUSH1 0x24 PUSH1 0x0 REVERT JUMPDEST MLOAD SWAP1 PUSH1 0x1 PUSH1 0x1 PUSH1 0xA0 SHL SUB DUP3 AND DUP3 SUB PUSH3 0x276 JUMPI JUMP JUMPDEST SWAP2 SWAP1 DUP3 ADD DUP1 SWAP3 GT PUSH3 0x2B4 JUMPI JUMP JUMPDEST PUSH4 0x4E487B71 PUSH1 0xE0 SHL PUSH1 0x0 MSTORE PUSH1 0x11 PUSH1 0x4 MSTORE PUSH1 0x24 PUSH1 0x0 REVERT INVALID PUSH1 0xA0 PUSH1 0x40 MSTORE PUSH1 0x4 CALLDATASIZE LT ISZERO PUSH2 0x12 JUMPI PUSH1 0x0 DUP1 REVERT JUMPDEST PUSH1 0x0 CALLDATALOAD PUSH1 0xE0 SHR DUP1 PUSH3 0x4FBBB0 EQ PUSH2 0x1D6A JUMPI DUP1 PUSH4 0x3C7881A EQ PUSH2 0x1CA9 JUMPI DUP1 PUSH4 0x64367BB EQ PUSH2 0x1C87 JUMPI DUP1 PUSH4 0x275893A9 EQ PUSH2 0x1BD6 JUMPI DUP1 PUSH4 0x37A50256 EQ PUSH2 0x1B35 JUMPI DUP1 PUSH4 0x558E44D3 EQ PUSH2 0x1B19 JUMPI DUP1 PUSH4 0x5B7BAF64 EQ PUSH2 0x192E JUMPI DUP1 PUSH4 0x5C580061 EQ PUSH2 0x18F2 JUMPI DUP1 PUSH4 0x6896E930 EQ PUSH2 0x18D4 JUMPI DUP1 PUSH4 0x6AAEA6DC EQ PUSH2 0x17B1 JUMPI DUP1 PUSH4 0x719D5F83 EQ PUSH2 0x1788 JUMPI DUP1 PUSH4 0x78578BB3 EQ PUSH2 0x1652 JUMPI DUP1 PUSH4 0x81FB1FB4 EQ PUSH2 0x1608 JUMPI DUP1 PUSH4 0x87C13943 EQ PUSH2 0x15EC JUMPI DUP1 PUSH4 0x89296738 EQ PUSH2 0x1422 JUMPI DUP1 PUSH4 0x8DA5CB5B EQ PUSH2 0x13F9 JUMPI DUP1 PUSH4 0xAE169A50 EQ PUSH2 0x1353 JUMPI DUP1 PUSH4 0xAE5A17A7 EQ PUSH2 0x12A6 JUMPI DUP1 PUSH4 0xAFCF2FC4 EQ PUSH2 0x127D JUMPI DUP1 PUSH4 0xC1E3BD3E EQ PUSH2 0x11A8 JUMPI DUP1 PUSH4 0xC9D27AFE EQ PUSH2 0xDEC JUMPI DUP1 PUSH4 0xD23254B4 EQ PUSH2 0xD83 JUMPI DUP1 PUSH4 0xD424E5A0 EQ PUSH2 0xCD3 JUMPI DUP1 PUSH4 0xE8460ED9 EQ PUSH2 0x539 JUMPI DUP1 PUSH4 0xE9E3E1AE EQ PUSH2 0x51B JUMPI DUP1 PUSH4 0xF2FDE38B EQ PUSH2 0x44C JUMPI PUSH4 0xFE83BECE EQ PUSH2 0x144 JUMPI PUSH1 0x0 DUP1 REVERT JUMPDEST CALLVALUE PUSH2 0x447 JUMPI PUSH1 0x20 CALLDATASIZE PUSH1 0x3 NOT ADD SLT PUSH2 0x447 JUMPI PUSH1 0x4 CALLDATALOAD PUSH1 0x0 PUSH2 0x200 PUSH1 0x40 MLOAD PUSH2 0x169 DUP2 PUSH2 0x1F53 JUMP JUMPDEST DUP3 DUP2 MSTORE DUP3 PUSH1 0x20 DUP3 ADD MSTORE PUSH1 0x60 PUSH1 0x40 DUP3 ADD MSTORE PUSH1 0x60 DUP1 DUP3 ADD MSTORE DUP3 PUSH1 0x80 DUP3 ADD MSTORE DUP3 PUSH1 0xA0 DUP3 ADD MSTORE DUP3 PUSH1 0xC0 DUP3 ADD MSTORE DUP3 PUSH1 0xE0 DUP3 ADD MSTORE PUSH1 0x60 PUSH2 0x100 DUP3 ADD MSTORE PUSH1 0x60 PUSH2 0x120 DUP3 ADD MSTORE DUP3 PUSH2 0x140 DUP3 ADD MSTORE DUP3 PUSH2 0x160 DUP3 ADD MSTORE DUP3 PUSH2 0x180 DUP3 ADD MSTORE DUP3 PUSH2 0x1A0 DUP3 ADD MSTORE DUP3 PUSH2 0x1C0 DUP3 ADD MSTORE DUP3 PUSH2 0x1E0 DUP3 ADD MSTORE ADD MSTORE PUSH1 0x5 SLOAD DUP2 LT DUP1 PUSH2 0x43E JUMPI JUMPDEST PUSH2 0x1E7 SWAP1 PUSH2 0x21BE JUMP JUMPDEST PUSH1 0x0 MSTORE PUSH1 0x6 PUSH1 0x20 MSTORE PUSH1 0x40 PUSH1 0x0 KECCAK256 PUSH1 0x40 MLOAD SWAP1 PUSH2 0x201 DUP3 PUSH2 0x1F53 JUMP JUMPDEST DUP1 SLOAD DUP3 MSTORE PUSH1 0x1 DUP2 ADD SLOAD PUSH1 0x1 PUSH1 0x1 PUSH1 0xA0 SHL SUB AND PUSH1 0x20 DUP4 ADD MSTORE PUSH2 0x224 PUSH1 0x2 DUP3 ADD PUSH2 0x1F92 JUMP JUMPDEST PUSH1 0x40 DUP4 ADD MSTORE PUSH2 0x235 PUSH1 0x3 DUP3 ADD PUSH2 0x1F92 JUMP JUMPDEST PUSH1 0x60 DUP4 ADD MSTORE PUSH1 0x4 DUP2 ADD SLOAD PUSH1 0x80 DUP4 ADD MSTORE PUSH1 0x5 DUP2 ADD SLOAD PUSH1 0xA0 DUP4 ADD MSTORE PUSH1 0x6 DUP2 ADD SLOAD PUSH1 0xC0 DUP4 ADD MSTORE PUSH1 0xFF PUSH1 0x7 DUP3 ADD SLOAD AND PUSH1 0x4 DUP2 LT ISZERO PUSH2 0x428 JUMPI PUSH1 0xFF SWAP2 PUSH1 0xF SWAP2 PUSH1 0xE0 DUP6 ADD MSTORE PUSH2 0x280 PUSH1 0x8 DUP3 ADD PUSH2 0x1F92 JUMP JUMPDEST PUSH2 0x100 DUP6 ADD MSTORE PUSH2 0x292 PUSH1 0x9 DUP3 ADD PUSH2 0x1F92 JUMP JUMPDEST PUSH2 0x120 DUP6 ADD MSTORE PUSH1 0xA DUP2 ADD SLOAD PUSH2 0x140 DUP6 ADD MSTORE PUSH1 0xB DUP2 ADD SLOAD PUSH2 0x160 DUP6 ADD MSTORE PUSH1 0xC DUP2 ADD SLOAD PUSH2 0x180 DUP6 ADD MSTORE DUP3 PUSH1 0xD DUP3 ADD SLOAD PUSH2 0x2CA DUP3 DUP3 AND PUSH2 0x2085 JUMP JUMPDEST DUP2 DUP2 AND PUSH2 0x1A0 DUP8 ADD MSTORE PUSH2 0x2E1 DUP3 DUP3 PUSH1 0x8 SHR AND PUSH2 0x2085 JUMP JUMPDEST PUSH1 0x8 SHR AND PUSH2 0x1C0 DUP6 ADD MSTORE PUSH1 0xE DUP2 ADD SLOAD PUSH2 0x1E0 DUP6 ADD MSTORE ADD SLOAD AND ISZERO ISZERO PUSH2 0x200 DUP3 ADD MSTORE PUSH1 0x40 MLOAD DUP1 SWAP2 PUSH1 0x20 DUP3 MSTORE DUP1 MLOAD PUSH1 0x20 DUP4 ADD MSTORE PUSH1 0x1 DUP1 PUSH1 0xA0 SHL SUB PUSH1 0x20 DUP3 ADD MLOAD AND PUSH1 0x40 DUP4 ADD MSTORE PUSH2 0x200 PUSH2 0x3C1 PUSH2 0x344 PUSH1 0x40 DUP5 ADD MLOAD PUSH2 0x220 PUSH1 0x60 DUP8 ADD MSTORE PUSH2 0x240 DUP7 ADD SWAP1 PUSH2 0x2038 JUMP JUMPDEST PUSH2 0x3AA PUSH2 0x363 PUSH1 0x60 DUP7 ADD MLOAD SWAP3 PUSH1 0x1F NOT SWAP4 DUP5 DUP10 DUP4 SUB ADD PUSH1 0x80 DUP11 ADD MSTORE PUSH2 0x2038 JUMP JUMPDEST PUSH1 0x80 DUP7 ADD MLOAD PUSH1 0xA0 DUP9 ADD MSTORE PUSH1 0xA0 DUP7 ADD MLOAD PUSH1 0xC0 DUP9 ADD MSTORE PUSH1 0xC0 DUP7 ADD MLOAD PUSH1 0xE0 DUP9 ADD MSTORE PUSH2 0x394 PUSH1 0xE0 DUP8 ADD MLOAD PUSH2 0x100 DUP10 ADD SWAP1 PUSH2 0x2078 JUMP JUMPDEST PUSH2 0x100 DUP7 ADD MLOAD DUP4 DUP9 DUP4 SUB ADD PUSH2 0x120 DUP10 ADD MSTORE PUSH2 0x2038 JUMP JUMPDEST SWAP1 PUSH2 0x120 DUP6 ADD MLOAD SWAP1 DUP7 DUP4 SUB ADD PUSH2 0x140 DUP8 ADD MSTORE PUSH2 0x2038 JUMP JUMPDEST SWAP2 PUSH2 0x140 DUP2 ADD MLOAD PUSH2 0x160 DUP6 ADD MSTORE PUSH2 0x160 DUP2 ADD MLOAD PUSH2 0x180 DUP6 ADD MSTORE PUSH2 0x180 DUP2 ADD MLOAD PUSH2 0x1A0 DUP6 ADD MSTORE PUSH2 0x1A0 DUP2 ADD MLOAD PUSH2 0x3F5 DUP2 PUSH2 0x2085 JUMP JUMPDEST PUSH2 0x1C0 DUP6 ADD MSTORE PUSH2 0x1C0 DUP2 ADD MLOAD PUSH2 0x40A DUP2 PUSH2 0x2085 JUMP JUMPDEST PUSH2 0x1E0 DUP6 ADD MSTORE PUSH2 0x1E0 DUP2 ADD MLOAD DUP3 DUP6 ADD MSTORE ADD MLOAD ISZERO ISZERO PUSH2 0x220 DUP4 ADD MSTORE SUB SWAP1 RETURN JUMPDEST PUSH4 0x4E487B71 PUSH1 0xE0 SHL PUSH1 0x0 MSTORE PUSH1 0x21 PUSH1 0x4 MSTORE PUSH1 0x24 PUSH1 0x0 REVERT JUMPDEST POP DUP1 ISZERO ISZERO PUSH2 0x1DE JUMP JUMPDEST PUSH1 0x0 DUP1 REVERT JUMPDEST CALLVALUE PUSH2 0x447 JUMPI PUSH1 0x20 CALLDATASIZE PUSH1 0x3 NOT ADD SLT PUSH2 0x447 JUMPI PUSH2 0x465 PUSH2 0x20A5 JUMP JUMPDEST PUSH1 0x0 SLOAD PUSH1 0x1 PUSH1 0x1 PUSH1 0xA0 SHL SUB DUP1 DUP3 AND SWAP3 PUSH2 0x47F CALLER DUP6 EQ PUSH2 0x2156 JUMP JUMPDEST AND SWAP2 DUP3 ISZERO PUSH2 0x4BE JUMPI DUP3 SWAP1 PUSH32 0x8BE0079C531659141344CD1FD0A4F28419497F9722A3DAAFE3B4186F6B6457E0 PUSH1 0x0 DUP1 LOG3 PUSH1 0x1 PUSH1 0x1 PUSH1 0xA0 SHL SUB NOT AND OR PUSH1 0x0 SSTORE STOP JUMPDEST PUSH1 0x40 MLOAD PUSH3 0x461BCD PUSH1 0xE5 SHL DUP2 MSTORE PUSH1 0x20 PUSH1 0x4 DUP3 ADD MSTORE PUSH1 0x2F PUSH1 0x24 DUP3 ADD MSTORE PUSH32 0x496D70657266656374466F726D3A204E6577206F776E65722063616E6E6F7420 PUSH1 0x44 DUP3 ADD MSTORE PUSH15 0x6265207A65726F2061646472657373 PUSH1 0x88 SHL PUSH1 0x64 DUP3 ADD MSTORE PUSH1 0x84 SWAP1 REVERT JUMPDEST CALLVALUE PUSH2 0x447 JUMPI PUSH1 0x0 CALLDATASIZE PUSH1 0x3 NOT ADD SLT PUSH2 0x447 JUMPI PUSH1 0x20 PUSH1 0x3 SLOAD PUSH1 0x40 MLOAD SWAP1 DUP2 MSTORE RETURN JUMPDEST CALLVALUE PUSH2 0x447 JUMPI PUSH2 0x100 CALLDATASIZE PUSH1 0x3 NOT ADD SLT PUSH2 0x447 JUMPI PUSH1 0x4 CALLDATALOAD PUSH8 0xFFFFFFFFFFFFFFFF DUP2 GT PUSH2 0x447 JUMPI PUSH2 0x56B SWAP1 CALLDATASIZE SWAP1 PUSH1 0x4 ADD PUSH2 0x20FF JUMP JUMPDEST PUSH1 0x24 CALLDATALOAD PUSH8 0xFFFFFFFFFFFFFFFF DUP2 GT PUSH2 0x447 JUMPI PUSH2 0x58B SWAP1 CALLDATASIZE SWAP1 PUSH1 0x4 ADD PUSH2 0x20FF JUMP JUMPDEST PUSH1 0x4 PUSH1 0x84 CALLDATALOAD LT ISZERO PUSH2 0x447 JUMPI PUSH1 0xA4 CALLDATALOAD PUSH8 0xFFFFFFFFFFFFFFFF DUP2 GT PUSH2 0x447 JUMPI PUSH2 0x5B6 SWAP1 CALLDATASIZE SWAP1 PUSH1 0x4 ADD PUSH2 0x20FF JUMP JUMPDEST SWAP2 PUSH1 0xC4 CALLDATALOAD PUSH8 0xFFFFFFFFFFFFFFFF DUP2 GT PUSH2 0x447 JUMPI PUSH2 0x5D7 SWAP1 CALLDATASIZE SWAP1 PUSH1 0x4 ADD PUSH2 0x20FF JUMP JUMPDEST SWAP2 PUSH1 0xE4 CALLDATALOAD ISZERO ISZERO PUSH1 0xE4 CALLDATALOAD SUB PUSH2 0x447 JUMPI DUP2 MLOAD ISZERO PUSH2 0xC82 JUMPI TIMESTAMP PUSH1 0x44 CALLDATALOAD GT ISZERO PUSH2 0xC24 JUMPI PUSH1 0x5 SLOAD SWAP3 PUSH1 0x0 NOT DUP5 EQ PUSH2 0xC0E JUMPI PUSH1 0x1 DUP5 ADD PUSH1 0x5 SSTORE DUP4 PUSH1 0x0 MSTORE PUSH1 0x6 PUSH1 0x20 MSTORE PUSH1 0x40 PUSH1 0x0 KECCAK256 SWAP2 DUP5 DUP4 SSTORE PUSH1 0x1 DUP4 ADD CALLER PUSH1 0x1 PUSH1 0x1 PUSH1 0x60 SHL SUB PUSH1 0xA0 SHL DUP3 SLOAD AND OR SWAP1 SSTORE DUP4 MLOAD PUSH8 0xFFFFFFFFFFFFFFFF DUP2 GT PUSH2 0x9AA JUMPI PUSH2 0x650 PUSH1 0x2 DUP6 ADD SLOAD PUSH2 0x1EFD JUMP JUMPDEST PUSH1 0x1F DUP2 GT PUSH2 0xBC7 JUMPI JUMPDEST POP DUP1 PUSH1 0x20 PUSH1 0x1F DUP3 GT PUSH1 0x1 EQ PUSH2 0xB5A JUMPI PUSH1 0x0 SWAP2 PUSH2 0xB4F JUMPI JUMPDEST POP DUP2 PUSH1 0x1 SHL SWAP2 PUSH1 0x0 NOT SWAP1 PUSH1 0x3 SHL SHR NOT AND OR PUSH1 0x2 DUP5 ADD SSTORE JUMPDEST DUP1 MLOAD SWAP1 PUSH8 0xFFFFFFFFFFFFFFFF DUP3 GT PUSH2 0x9AA JUMPI DUP2 SWAP1 PUSH2 0x6A8 PUSH1 0x3 DUP7 ADD SLOAD PUSH2 0x1EFD JUMP JUMPDEST PUSH1 0x1F DUP2 GT PUSH2 0xAFC JUMPI JUMPDEST POP PUSH1 0x20 SWAP1 PUSH1 0x1F DUP4 GT PUSH1 0x1 EQ PUSH2 0xA8A JUMPI PUSH1 0x0 SWAP3 PUSH2 0xA7F JUMPI JUMPDEST POP POP DUP2 PUSH1 0x1 SHL SWAP2 PUSH1 0x0 NOT SWAP1 PUSH1 0x3 SHL SHR NOT AND OR PUSH1 0x3 DUP4 ADD SSTORE JUMPDEST PUSH1 0x44 CALLDATALOAD PUSH1 0x4 DUP4 ADD SSTORE PUSH1 0x64 CALLDATALOAD PUSH1 0x5 DUP4 ADD SSTORE PUSH1 0x7 DUP3 ADD PUSH1 0xFF NOT DUP2 SLOAD AND PUSH1 0xFF PUSH1 0x84 CALLDATALOAD AND OR SWAP1 SSTORE DUP5 MLOAD PUSH8 0xFFFFFFFFFFFFFFFF DUP2 GT PUSH2 0x9AA JUMPI PUSH2 0x721 PUSH1 0x8 DUP5 ADD SLOAD PUSH2 0x1EFD JUMP JUMPDEST PUSH1 0x1F DUP2 GT PUSH2 0xA38 JUMPI JUMPDEST POP DUP1 PUSH1 0x20 PUSH1 0x1F DUP3 GT PUSH1 0x1 EQ PUSH2 0x9CB JUMPI PUSH1 0x0 SWAP2 PUSH2 0x9C0 JUMPI JUMPDEST POP DUP2 PUSH1 0x1 SHL SWAP2 PUSH1 0x0 NOT SWAP1 PUSH1 0x3 SHL SHR NOT AND OR PUSH1 0x8 DUP4 ADD SSTORE JUMPDEST DUP1 MLOAD SWAP1 PUSH8 0xFFFFFFFFFFFFFFFF DUP3 GT PUSH2 0x9AA JUMPI PUSH2 0x777 PUSH1 0x9 DUP5 ADD SLOAD PUSH2 0x1EFD JUMP JUMPDEST PUSH1 0x1F DUP2 GT PUSH2 0x963 JUMPI JUMPDEST POP SWAP2 PUSH1 0x20 SWAP6 SWAP2 DUP6 SWAP4 DUP8 SWAP1 PUSH1 0x1F DUP4 GT PUSH1 0x1 EQ PUSH2 0x8C9 JUMPI SWAP3 DUP3 PUSH32 0xC5B70E84363D6544E1390754A4CB2DA48E3414541DD74C3591668481FA7A365B SWAP6 SWAP4 PUSH2 0x80C SWAP4 PUSH2 0x867 SWAP7 PUSH1 0x0 SWAP3 PUSH2 0x8BE JUMPI JUMPDEST POP POP DUP2 PUSH1 0x1 SHL SWAP2 PUSH1 0x0 NOT SWAP1 PUSH1 0x3 SHL SHR NOT AND OR PUSH1 0x9 DUP3 ADD SSTORE JUMPDEST PUSH1 0xD DUP2 ADD PUSH1 0xFF NOT DUP2 SLOAD AND SWAP1 SSTORE TIMESTAMP PUSH1 0xE DUP3 ADD SSTORE PUSH1 0xF PUSH1 0xE4 CALLDATALOAD SWAP2 ADD SWAP1 PUSH1 0xFF DUP1 NOT DUP4 SLOAD AND SWAP2 ISZERO ISZERO AND OR SWAP1 SSTORE JUMP JUMPDEST DUP4 PUSH1 0x0 MSTORE PUSH1 0x9 DUP8 MSTORE PUSH1 0x40 PUSH1 0x0 KECCAK256 CALLER PUSH1 0x0 MSTORE DUP8 MSTORE PUSH1 0xFF PUSH1 0x40 PUSH1 0x0 KECCAK256 SLOAD AND ISZERO PUSH2 0x880 JUMPI JUMPDEST PUSH2 0x843 PUSH1 0x40 MLOAD SWAP6 PUSH1 0xA0 DUP8 MSTORE PUSH1 0xA0 DUP8 ADD SWAP1 PUSH2 0x2038 JUMP JUMPDEST SWAP1 PUSH1 0x44 CALLDATALOAD DUP9 DUP8 ADD MSTORE PUSH2 0x85A PUSH1 0x40 DUP8 ADD PUSH1 0x84 CALLDATALOAD PUSH2 0x2078 JUMP JUMPDEST DUP6 DUP3 SUB PUSH1 0x60 DUP8 ADD MSTORE PUSH2 0x2038 JUMP JUMPDEST SWAP3 PUSH1 0xE4 CALLDATALOAD ISZERO ISZERO PUSH1 0x80 DUP3 ADD MSTORE DUP1 CALLER SWAP5 SUB SWAP1 LOG3 PUSH1 0x40 MLOAD SWAP1 DUP2 MSTORE RETURN JUMPDEST DUP4 PUSH1 0x0 MSTORE PUSH1 0x8 DUP8 MSTORE PUSH2 0x896 CALLER PUSH1 0x40 PUSH1 0x0 KECCAK256 PUSH2 0x2284 JUMP JUMPDEST DUP4 PUSH1 0x0 MSTORE PUSH1 0x9 DUP8 MSTORE PUSH1 0x40 PUSH1 0x0 KECCAK256 CALLER PUSH1 0x0 MSTORE DUP8 MSTORE PUSH1 0x40 PUSH1 0x0 KECCAK256 PUSH1 0x1 PUSH1 0xFF NOT DUP3 SLOAD AND OR SWAP1 SSTORE PUSH2 0x82E JUMP JUMPDEST ADD MLOAD SWAP1 POP DUP12 DUP1 PUSH2 0x7CA JUMP JUMPDEST SWAP1 PUSH1 0x9 DUP5 ADD PUSH1 0x0 MSTORE DUP9 PUSH1 0x0 KECCAK256 SWAP2 PUSH1 0x0 JUMPDEST PUSH1 0x1F NOT DUP6 AND DUP2 LT PUSH2 0x949 JUMPI POP DUP4 PUSH2 0x80C SWAP4 PUSH2 0x867 SWAP7 SWAP4 PUSH1 0x1 SWAP4 PUSH32 0xC5B70E84363D6544E1390754A4CB2DA48E3414541DD74C3591668481FA7A365B SWAP10 SWAP8 PUSH1 0x1F NOT DUP2 AND LT PUSH2 0x930 JUMPI JUMPDEST POP POP POP DUP2 SHL ADD PUSH1 0x9 DUP3 ADD SSTORE PUSH2 0x7E2 JUMP JUMPDEST ADD MLOAD PUSH1 0x0 NOT PUSH1 0xF8 DUP5 PUSH1 0x3 SHL AND SHR NOT AND SWAP1 SSTORE DUP12 DUP1 DUP1 PUSH2 0x920 JUMP JUMPDEST DUP2 DUP4 ADD MLOAD DUP5 SSTORE DUP10 SWAP8 POP PUSH1 0x1 SWAP1 SWAP4 ADD SWAP3 SWAP2 DUP11 ADD SWAP2 DUP11 ADD PUSH2 0x8D9 JUMP JUMPDEST PUSH1 0x9 DUP5 ADD PUSH1 0x0 MSTORE PUSH1 0x20 PUSH1 0x0 KECCAK256 PUSH1 0x1F DUP5 ADD PUSH1 0x5 SHR DUP2 ADD PUSH1 0x20 DUP6 LT PUSH2 0x9A3 JUMPI JUMPDEST PUSH1 0x1F DUP4 ADD PUSH1 0x5 SHR DUP3 ADD DUP2 LT PUSH2 0x997 JUMPI POP POP PUSH2 0x780 JUMP JUMPDEST PUSH1 0x0 DUP2 SSTORE PUSH1 0x1 ADD PUSH2 0x981 JUMP JUMPDEST POP DUP1 PUSH2 0x981 JUMP JUMPDEST PUSH4 0x4E487B71 PUSH1 0xE0 SHL PUSH1 0x0 MSTORE PUSH1 0x41 PUSH1 0x4 MSTORE PUSH1 0x24 PUSH1 0x0 REVERT JUMPDEST SWAP1 POP DUP7 ADD MLOAD DUP8 PUSH2 0x741 JUMP JUMPDEST SWAP2 POP PUSH1 0x8 DUP5 ADD PUSH1 0x0 MSTORE PUSH1 0x20 PUSH1 0x0 KECCAK256 PUSH1 0x0 SWAP3 JUMPDEST PUSH1 0x1F NOT DUP4 AND DUP5 LT PUSH2 0xA20 JUMPI PUSH1 0x1 SWAP4 POP DUP3 PUSH1 0x1F NOT DUP2 AND LT PUSH2 0xA07 JUMPI JUMPDEST POP POP DUP2 SHL ADD PUSH1 0x8 DUP4 ADD SSTORE PUSH2 0x758 JUMP JUMPDEST DUP9 ADD MLOAD PUSH1 0x0 NOT PUSH1 0xF8 DUP5 PUSH1 0x3 SHL AND SHR NOT AND SWAP1 SSTORE DUP8 DUP1 PUSH2 0x9F8 JUMP JUMPDEST DUP9 DUP2 ADD MLOAD DUP3 SSTORE PUSH1 0x20 SWAP4 DUP5 ADD SWAP4 PUSH1 0x1 SWAP1 SWAP3 ADD SWAP2 ADD PUSH2 0x9DD JUMP JUMPDEST PUSH1 0x8 DUP5 ADD PUSH1 0x0 MSTORE PUSH1 0x20 PUSH1 0x0 KECCAK256 PUSH1 0x1F DUP4 ADD PUSH1 0x5 SHR DUP2 ADD PUSH1 0x20 DUP5 LT PUSH2 0xA78 JUMPI JUMPDEST PUSH1 0x1F DUP4 ADD PUSH1 0x5 SHR DUP3 ADD DUP2 LT PUSH2 0xA6C JUMPI POP POP PUSH2 0x72A JUMP JUMPDEST PUSH1 0x0 DUP2 SSTORE PUSH1 0x1 ADD PUSH2 0xA56 JUMP JUMPDEST POP DUP1 PUSH2 0xA56 JUMP JUMPDEST ADD MLOAD SWAP1 POP DUP8 DUP1 PUSH2 0x6C8 JUMP JUMPDEST SWAP3 POP PUSH1 0x3 DUP6 ADD PUSH1 0x0 MSTORE PUSH1 0x20 PUSH1 0x0 KECCAK256 SWAP1 PUSH1 0x0 SWAP4 JUMPDEST PUSH1 0x1F NOT DUP5 AND DUP6 LT PUSH2 0xAE1 JUMPI PUSH1 0x1 SWAP5 POP DUP4 PUSH1 0x1F NOT DUP2 AND LT PUSH2 0xAC8 JUMPI JUMPDEST POP POP POP DUP2 SHL ADD PUSH1 0x3 DUP4 ADD SSTORE PUSH2 0x6E0 JUMP JUMPDEST ADD MLOAD PUSH1 0x0 NOT PUSH1 0xF8 DUP5 PUSH1 0x3 SHL AND SHR NOT AND SWAP1 SSTORE DUP8 DUP1 DUP1 PUSH2 0xAB8 JUMP JUMPDEST DUP2 DUP2 ADD MLOAD DUP4 SSTORE PUSH1 0x20 SWAP5 DUP6 ADD SWAP5 PUSH1 0x1 SWAP1 SWAP4 ADD SWAP3 SWAP1 SWAP2 ADD SWAP1 PUSH2 0xA9D JUMP JUMPDEST SWAP1 SWAP2 POP PUSH1 0x3 DUP6 ADD PUSH1 0x0 MSTORE PUSH1 0x20 PUSH1 0x0 KECCAK256 PUSH1 0x1F DUP5 ADD PUSH1 0x5 SHR DUP2 ADD PUSH1 0x20 DUP6 LT PUSH2 0xB48 JUMPI JUMPDEST SWAP1 DUP5 SWAP4 SWAP3 SWAP2 JUMPDEST PUSH1 0x1F DUP4 ADD PUSH1 0x5 SHR DUP3 ADD DUP2 LT PUSH2 0xB39 JUMPI POP POP PUSH2 0x6B1 JUMP JUMPDEST PUSH1 0x0 DUP2 SSTORE DUP6 SWAP5 POP PUSH1 0x1 ADD PUSH2 0xB23 JUMP JUMPDEST POP DUP1 PUSH2 0xB1D JUMP JUMPDEST SWAP1 POP DUP6 ADD MLOAD DUP9 PUSH2 0x670 JUMP JUMPDEST SWAP2 POP PUSH1 0x2 DUP6 ADD PUSH1 0x0 MSTORE PUSH1 0x20 PUSH1 0x0 KECCAK256 PUSH1 0x0 SWAP3 JUMPDEST PUSH1 0x1F NOT DUP4 AND DUP5 LT PUSH2 0xBAF JUMPI PUSH1 0x1 SWAP4 POP DUP3 PUSH1 0x1F NOT DUP2 AND LT PUSH2 0xB96 JUMPI JUMPDEST POP POP DUP2 SHL ADD PUSH1 0x2 DUP5 ADD SSTORE PUSH2 0x687 JUMP JUMPDEST DUP8 ADD MLOAD PUSH1 0x0 NOT PUSH1 0xF8 DUP5 PUSH1 0x3 SHL AND SHR NOT AND SWAP1 SSTORE DUP9 DUP1 PUSH2 0xB87 JUMP JUMPDEST DUP8 DUP2 ADD MLOAD DUP3 SSTORE PUSH1 0x20 SWAP4 DUP5 ADD SWAP4 PUSH1 0x1 SWAP1 SWAP3 ADD SWAP2 ADD PUSH2 0xB6C JUMP JUMPDEST PUSH1 0x2 DUP6 ADD PUSH1 0x0 MSTORE PUSH1 0x20 PUSH1 0x0 KECCAK256 PUSH1 0x1F DUP4 ADD PUSH1 0x5 SHR DUP2 ADD PUSH1 0x20 DUP5 LT PUSH2 0xC07 JUMPI JUMPDEST PUSH1 0x1F DUP4 ADD PUSH1 0x5 SHR DUP3 ADD DUP2 LT PUSH2 0xBFB JUMPI POP POP PUSH2 0x659 JUMP JUMPDEST PUSH1 0x0 DUP2 SSTORE PUSH1 0x1 ADD PUSH2 0xBE5 JUMP JUMPDEST POP DUP1 PUSH2 0xBE5 JUMP JUMPDEST PUSH4 0x4E487B71 PUSH1 0xE0 SHL PUSH1 0x0 MSTORE PUSH1 0x11 PUSH1 0x4 MSTORE PUSH1 0x24 PUSH1 0x0 REVERT JUMPDEST PUSH1 0x40 MLOAD PUSH3 0x461BCD PUSH1 0xE5 SHL DUP2 MSTORE PUSH1 0x20 PUSH1 0x4 DUP3 ADD MSTORE PUSH1 0x30 PUSH1 0x24 DUP3 ADD MSTORE PUSH32 0x496D70657266656374466F726D3A205461726765742064617465206D75737420 PUSH1 0x44 DUP3 ADD MSTORE PUSH16 0x626520696E2074686520667574757265 PUSH1 0x80 SHL PUSH1 0x64 DUP3 ADD MSTORE PUSH1 0x84 SWAP1 REVERT JUMPDEST PUSH1 0x40 MLOAD PUSH3 0x461BCD PUSH1 0xE5 SHL DUP2 MSTORE PUSH1 0x20 PUSH1 0x4 DUP3 ADD MSTORE PUSH1 0x24 DUP1 DUP3 ADD MSTORE PUSH32 0x496D70657266656374466F726D3A205469746C652063616E6E6F742062652065 PUSH1 0x44 DUP3 ADD MSTORE PUSH4 0x6D707479 PUSH1 0xE0 SHL PUSH1 0x64 DUP3 ADD MSTORE PUSH1 0x84 SWAP1 REVERT JUMPDEST CALLVALUE PUSH2 0x447 JUMPI PUSH1 0x20 CALLDATASIZE PUSH1 0x3 NOT ADD SLT PUSH2 0x447 JUMPI PUSH1 0x4 CALLDATALOAD PUSH2 0xCFC PUSH1 0x1 DUP1 PUSH1 0xA0 SHL SUB PUSH1 0x0 SLOAD AND CALLER EQ PUSH2 0x2156 JUMP JUMPDEST PUSH1 0x5 SLOAD DUP2 LT DUP1 PUSH2 0xD7A JUMPI JUMPDEST PUSH2 0xD10 SWAP1 PUSH2 0x21BE JUMP JUMPDEST DUP1 PUSH1 0x0 MSTORE PUSH1 0x6 PUSH1 0x20 MSTORE PUSH2 0xD37 PUSH1 0xFF PUSH1 0xD PUSH1 0x40 PUSH1 0x0 KECCAK256 ADD SLOAD AND PUSH2 0xD31 DUP2 PUSH2 0x2085 JUMP JUMPDEST ISZERO PUSH2 0x221B JUMP JUMPDEST DUP1 PUSH1 0x0 MSTORE PUSH1 0x6 PUSH1 0x20 MSTORE PUSH1 0xD PUSH1 0x40 PUSH1 0x0 KECCAK256 ADD PUSH1 0x2 PUSH1 0xFF NOT DUP3 SLOAD AND OR SWAP1 SSTORE PUSH32 0xAF9D749692C27EDB73692839024A98F047B114C6FD450ACF3C702120928A2BE2 PUSH1 0x0 DUP1 LOG2 STOP JUMPDEST POP DUP1 ISZERO ISZERO PUSH2 0xD07 JUMP JUMPDEST CALLVALUE PUSH2 0x447 JUMPI PUSH1 0x40 CALLDATASIZE PUSH1 0x3 NOT ADD SLT PUSH2 0x447 JUMPI PUSH2 0xD9C PUSH2 0x208F JUMP JUMPDEST PUSH1 0x4 CALLDATALOAD PUSH1 0x0 MSTORE PUSH1 0x7 PUSH1 0x20 MSTORE PUSH1 0x40 PUSH1 0x0 KECCAK256 SWAP1 PUSH1 0x1 DUP1 PUSH1 0xA0 SHL SUB AND PUSH1 0x0 MSTORE PUSH1 0x20 MSTORE PUSH1 0x60 PUSH1 0x40 PUSH1 0x0 KECCAK256 PUSH1 0xFF DUP2 SLOAD AND SWAP1 PUSH1 0xFF PUSH1 0x2 PUSH1 0x1 DUP4 ADD SLOAD SWAP3 ADD SLOAD AND SWAP1 PUSH1 0x40 MLOAD SWAP3 ISZERO ISZERO DUP4 MSTORE PUSH1 0x20 DUP4 ADD MSTORE ISZERO ISZERO PUSH1 0x40 DUP3 ADD MSTORE RETURN JUMPDEST PUSH1 0x40 CALLDATASIZE PUSH1 0x3 NOT ADD SLT PUSH2 0x447 JUMPI PUSH1 0x4 CALLDATALOAD PUSH1 0x24 CALLDATALOAD SWAP1 DUP2 ISZERO ISZERO SWAP2 DUP3 DUP2 SUB PUSH2 0x447 JUMPI PUSH1 0x5 SLOAD DUP3 LT DUP1 PUSH2 0x119F JUMPI JUMPDEST PUSH2 0xE1E SWAP1 PUSH2 0x21BE JUMP JUMPDEST DUP2 PUSH1 0x0 MSTORE PUSH1 0x20 SWAP1 PUSH1 0x6 DUP3 MSTORE PUSH2 0xE41 PUSH1 0xFF PUSH1 0xD PUSH1 0x40 PUSH1 0x0 KECCAK256 ADD SLOAD AND PUSH2 0xD31 DUP2 PUSH2 0x2085 JUMP JUMPDEST DUP3 PUSH1 0x0 MSTORE PUSH1 0x6 DUP3 MSTORE PUSH1 0x4 PUSH1 0x40 PUSH1 0x0 KECCAK256 ADD SLOAD TIMESTAMP LT ISZERO PUSH2 0x1141 JUMPI CALLVALUE ISZERO PUSH2 0x10E6 JUMPI DUP3 PUSH1 0x0 MSTORE PUSH1 0x6 DUP3 MSTORE PUSH1 0x40 PUSH1 0x0 KECCAK256 SWAP1 PUSH1 0x7 DUP4 MSTORE PUSH1 0x40 PUSH1 0x0 KECCAK256 CALLER PUSH1 0x0 MSTORE DUP4 MSTORE PUSH1 0x40 PUSH1 0x0 KECCAK256 SWAP1 PUSH1 0x1 DUP3 ADD SWAP3 DUP4 SLOAD SWAP1 PUSH1 0xA DUP2 ADD PUSH2 0xE99 CALLVALUE DUP3 SLOAD PUSH2 0x21B1 JUMP JUMPDEST SWAP1 SSTORE DUP3 ISZERO PUSH2 0x10D0 JUMPI PUSH1 0xB DUP2 ADD PUSH2 0xEB0 CALLVALUE DUP3 SLOAD PUSH2 0x21B1 JUMP JUMPDEST SWAP1 SSTORE JUMPDEST DUP2 ISZERO ISZERO DUP1 PUSH2 0x10C0 JUMPI JUMPDEST PUSH2 0xF8B JUMPI JUMPDEST POP POP DUP2 SLOAD SWAP1 ISZERO ISZERO PUSH1 0xFF AND PUSH1 0xFF NOT SWAP2 SWAP1 SWAP2 AND OR DUP2 SSTORE PUSH1 0x2 SWAP1 JUMPDEST PUSH2 0xEE4 CALLVALUE DUP5 SLOAD PUSH2 0x21B1 JUMP JUMPDEST DUP4 SSTORE ADD PUSH1 0xFF NOT SWAP1 DUP2 DUP2 SLOAD AND SWAP1 SSTORE DUP4 PUSH1 0x0 MSTORE PUSH1 0x9 DUP4 MSTORE PUSH1 0x40 PUSH1 0x0 KECCAK256 CALLER PUSH1 0x0 MSTORE DUP4 MSTORE PUSH1 0xFF PUSH1 0x40 PUSH1 0x0 KECCAK256 SLOAD AND ISZERO PUSH2 0xF4E JUMPI JUMPDEST POP SLOAD SWAP1 PUSH1 0x40 MLOAD SWAP4 DUP5 MSTORE CALLVALUE SWAP1 DUP5 ADD MSTORE PUSH1 0x40 DUP4 ADD MSTORE PUSH32 0x77A255F45C79D26605C257D8DFC37F9A619F53963DDBED1E95AA0AAB1C801CEE PUSH1 0x60 CALLER SWAP4 LOG3 STOP JUMPDEST DUP4 PUSH1 0x0 MSTORE PUSH1 0x8 DUP4 MSTORE PUSH2 0xF64 CALLER PUSH1 0x40 PUSH1 0x0 KECCAK256 PUSH2 0x2284 JUMP JUMPDEST DUP4 PUSH1 0x0 MSTORE PUSH1 0x9 DUP4 MSTORE PUSH1 0x40 PUSH1 0x0 KECCAK256 CALLER PUSH1 0x0 MSTORE DUP4 MSTORE PUSH1 0x1 PUSH1 0x40 PUSH1 0x0 KECCAK256 SWAP2 DUP3 SLOAD AND OR SWAP1 SSTORE DUP5 PUSH2 0xF13 JUMP JUMPDEST DUP4 SLOAD PUSH1 0xFF AND ISZERO PUSH2 0x1032 JUMPI PUSH1 0xB DUP2 ADD DUP1 SLOAD DUP4 DUP2 LT PUSH2 0xFD0 JUMPI PUSH1 0xC PUSH1 0x2 SWAP7 SWAP6 SWAP4 DUP6 SWAP4 PUSH2 0xFBB PUSH2 0xED9 SWAP8 PUSH2 0xFC6 SWAP6 PUSH2 0x22C4 JUMP JUMPDEST SWAP1 SSTORE ADD SWAP2 DUP3 SLOAD PUSH2 0x21B1 JUMP JUMPDEST SWAP1 SSTORE JUMPDEST SWAP2 SWAP3 PUSH2 0xEC1 JUMP JUMPDEST PUSH1 0x40 MLOAD PUSH3 0x461BCD PUSH1 0xE5 SHL DUP2 MSTORE PUSH1 0x4 DUP2 ADD DUP10 SWAP1 MSTORE PUSH1 0x34 PUSH1 0x24 DUP3 ADD MSTORE PUSH32 0x496D70657266656374466F726D3A20496E73756666696369656E742059455320 PUSH1 0x44 DUP3 ADD MSTORE PUSH20 0x706F6F6C20666F7220766F7465206368616E6765 PUSH1 0x60 SHL PUSH1 0x64 DUP3 ADD MSTORE PUSH1 0x84 SWAP1 REVERT JUMPDEST PUSH1 0xC DUP2 ADD DUP1 SLOAD DUP4 DUP2 LT PUSH2 0x105F JUMPI PUSH1 0xB PUSH1 0x2 SWAP7 SWAP6 SWAP4 DUP6 SWAP4 PUSH2 0xFBB PUSH2 0xED9 SWAP8 PUSH2 0x1058 SWAP6 PUSH2 0x22C4 JUMP JUMPDEST SWAP1 SSTORE PUSH2 0xFC9 JUMP JUMPDEST PUSH1 0x40 MLOAD PUSH3 0x461BCD PUSH1 0xE5 SHL DUP2 MSTORE PUSH1 0x4 DUP2 ADD DUP10 SWAP1 MSTORE PUSH1 0x33 PUSH1 0x24 DUP3 ADD MSTORE PUSH32 0x496D70657266656374466F726D3A20496E73756666696369656E74204E4F2070 PUSH1 0x44 DUP3 ADD MSTORE PUSH19 0x6F6F6C20666F7220766F7465206368616E6765 PUSH1 0x68 SHL PUSH1 0x64 DUP3 ADD MSTORE PUSH1 0x84 SWAP1 REVERT JUMPDEST POP DUP8 PUSH1 0xFF DUP6 SLOAD AND ISZERO ISZERO EQ ISZERO PUSH2 0xEBC JUMP JUMPDEST PUSH1 0xC DUP2 ADD PUSH2 0x10DF CALLVALUE DUP3 SLOAD PUSH2 0x21B1 JUMP JUMPDEST SWAP1 SSTORE PUSH2 0xEB3 JUMP JUMPDEST PUSH1 0x40 MLOAD PUSH3 0x461BCD PUSH1 0xE5 SHL DUP2 MSTORE PUSH1 0x4 DUP2 ADD DUP4 SWAP1 MSTORE PUSH1 0x2D PUSH1 0x24 DUP3 ADD MSTORE PUSH32 0x496D70657266656374466F726D3A204D757374207374616B6520736F6D652061 PUSH1 0x44 DUP3 ADD MSTORE PUSH13 0x6D6F756E7420746F20766F7465 PUSH1 0x98 SHL PUSH1 0x64 DUP3 ADD MSTORE PUSH1 0x84 SWAP1 REVERT JUMPDEST PUSH1 0x40 MLOAD PUSH3 0x461BCD PUSH1 0xE5 SHL DUP2 MSTORE PUSH1 0x4 DUP2 ADD DUP4 SWAP1 MSTORE PUSH1 0x30 PUSH1 0x24 DUP3 ADD MSTORE PUSH32 0x496D70657266656374466F726D3A2050726564696374696F6E20686173206578 PUSH1 0x44 DUP3 ADD MSTORE PUSH16 0x706972656420666F7220766F74696E67 PUSH1 0x80 SHL PUSH1 0x64 DUP3 ADD MSTORE PUSH1 0x84 SWAP1 REVERT JUMPDEST POP DUP2 ISZERO ISZERO PUSH2 0xE15 JUMP JUMPDEST CALLVALUE PUSH2 0x447 JUMPI PUSH1 0x20 DUP1 PUSH1 0x3 NOT CALLDATASIZE ADD SLT PUSH2 0x447 JUMPI PUSH1 0x4 CALLDATALOAD PUSH1 0x5 SLOAD DUP2 LT DUP1 PUSH2 0x1274 JUMPI JUMPDEST PUSH2 0x11D1 SWAP1 PUSH2 0x21BE JUMP JUMPDEST PUSH1 0x0 MSTORE PUSH1 0x8 DUP2 MSTORE PUSH1 0x40 PUSH1 0x0 KECCAK256 PUSH1 0x40 MLOAD SWAP1 DUP2 DUP4 DUP3 SLOAD SWAP2 DUP3 DUP2 MSTORE ADD SWAP1 DUP2 SWAP3 PUSH1 0x0 MSTORE DUP5 PUSH1 0x0 KECCAK256 SWAP1 PUSH1 0x0 JUMPDEST DUP7 DUP3 DUP3 LT PUSH2 0x1257 JUMPI DUP7 DUP7 PUSH2 0x120E DUP3 DUP9 SUB DUP4 PUSH2 0x1F70 JUMP JUMPDEST PUSH1 0x40 MLOAD SWAP3 DUP4 SWAP3 DUP2 DUP5 ADD SWAP1 DUP3 DUP6 MSTORE MLOAD DUP1 SWAP2 MSTORE PUSH1 0x40 DUP5 ADD SWAP3 SWAP2 PUSH1 0x0 JUMPDEST DUP3 DUP2 LT PUSH2 0x1237 JUMPI POP POP POP POP SUB SWAP1 RETURN JUMPDEST DUP4 MLOAD PUSH1 0x1 PUSH1 0x1 PUSH1 0xA0 SHL SUB AND DUP6 MSTORE DUP7 SWAP6 POP SWAP4 DUP2 ADD SWAP4 SWAP3 DUP2 ADD SWAP3 PUSH1 0x1 ADD PUSH2 0x1228 JUMP JUMPDEST DUP4 SLOAD PUSH1 0x1 PUSH1 0x1 PUSH1 0xA0 SHL SUB AND DUP6 MSTORE SWAP1 SWAP4 ADD SWAP3 PUSH1 0x1 SWAP3 DUP4 ADD SWAP3 ADD PUSH2 0x11F8 JUMP JUMPDEST POP DUP1 ISZERO ISZERO PUSH2 0x11C8 JUMP JUMPDEST CALLVALUE PUSH2 0x447 JUMPI PUSH1 0x0 CALLDATASIZE PUSH1 0x3 NOT ADD SLT PUSH2 0x447 JUMPI PUSH1 0x1 SLOAD PUSH1 0x40 MLOAD PUSH1 0x1 PUSH1 0x1 PUSH1 0xA0 SHL SUB SWAP1 SWAP2 AND DUP2 MSTORE PUSH1 0x20 SWAP1 RETURN JUMPDEST CALLVALUE PUSH2 0x447 JUMPI PUSH1 0x20 CALLDATASIZE PUSH1 0x3 NOT ADD SLT PUSH2 0x447 JUMPI PUSH2 0x12BF PUSH2 0x20A5 JUMP JUMPDEST PUSH1 0x0 SLOAD PUSH1 0x1 PUSH1 0x1 PUSH1 0xA0 SHL SUB SWAP2 SWAP1 PUSH2 0x12D9 SWAP1 DUP4 AND CALLER EQ PUSH2 0x2156 JUMP JUMPDEST AND DUP1 ISZERO PUSH2 0x12F8 JUMPI PUSH1 0x1 PUSH1 0x1 PUSH1 0x60 SHL SUB PUSH1 0xA0 SHL PUSH1 0x1 SLOAD AND OR PUSH1 0x1 SSTORE PUSH1 0x0 DUP1 RETURN JUMPDEST PUSH1 0x40 MLOAD PUSH3 0x461BCD PUSH1 0xE5 SHL DUP2 MSTORE PUSH1 0x20 PUSH1 0x4 DUP3 ADD MSTORE PUSH1 0x2D PUSH1 0x24 DUP3 ADD MSTORE PUSH32 0x496D70657266656374466F726D3A204368617269747920616464726573732063 PUSH1 0x44 DUP3 ADD MSTORE PUSH13 0x616E6E6F74206265207A65726F PUSH1 0x98 SHL PUSH1 0x64 DUP3 ADD MSTORE PUSH1 0x84 SWAP1 REVERT JUMPDEST CALLVALUE PUSH2 0x447 JUMPI PUSH1 0x20 CALLDATASIZE PUSH1 0x3 NOT ADD SLT PUSH2 0x447 JUMPI PUSH1 0x4 CALLDATALOAD PUSH1 0x5 SLOAD DUP2 LT DUP1 PUSH2 0x13F0 JUMPI JUMPDEST PUSH2 0x137B SWAP1 PUSH2 0x21BE JUMP JUMPDEST DUP1 PUSH1 0x0 MSTORE PUSH1 0x6 PUSH1 0x20 MSTORE PUSH1 0x1 PUSH1 0xFF PUSH1 0xD PUSH1 0x40 PUSH1 0x0 KECCAK256 ADD SLOAD AND PUSH2 0x139B DUP2 PUSH2 0x2085 JUMP JUMPDEST SUB PUSH2 0x13AB JUMPI PUSH2 0x13A9 SWAP1 PUSH2 0x22E4 JUMP JUMPDEST STOP JUMPDEST PUSH1 0x40 MLOAD PUSH3 0x461BCD PUSH1 0xE5 SHL DUP2 MSTORE PUSH1 0x20 PUSH1 0x4 DUP3 ADD MSTORE PUSH1 0x29 PUSH1 0x24 DUP3 ADD MSTORE PUSH1 0x0 DUP1 MLOAD PUSH1 0x20 PUSH2 0x2730 DUP4 CODECOPY DUP2 MLOAD SWAP2 MSTORE PUSH1 0x44 DUP3 ADD MSTORE PUSH9 0x81C995CDBDB1D9959 PUSH1 0xBA SHL PUSH1 0x64 DUP3 ADD MSTORE PUSH1 0x84 SWAP1 REVERT JUMPDEST POP DUP1 ISZERO ISZERO PUSH2 0x1372 JUMP JUMPDEST CALLVALUE PUSH2 0x447 JUMPI PUSH1 0x0 CALLDATASIZE PUSH1 0x3 NOT ADD SLT PUSH2 0x447 JUMPI PUSH1 0x0 SLOAD PUSH1 0x40 MLOAD PUSH1 0x1 PUSH1 0x1 PUSH1 0xA0 SHL SUB SWAP1 SWAP2 AND DUP2 MSTORE PUSH1 0x20 SWAP1 RETURN JUMPDEST CALLVALUE PUSH2 0x447 JUMPI PUSH1 0x20 DUP1 PUSH1 0x3 NOT CALLDATASIZE ADD SLT PUSH2 0x447 JUMPI PUSH1 0x4 CALLDATALOAD SWAP1 PUSH1 0x5 SLOAD DUP3 LT DUP1 PUSH2 0x15E3 JUMPI JUMPDEST PUSH2 0x144C SWAP1 PUSH2 0x21BE JUMP JUMPDEST DUP2 PUSH1 0x0 MSTORE PUSH1 0x6 DUP2 MSTORE PUSH2 0x146C PUSH1 0xFF PUSH1 0xD PUSH1 0x40 PUSH1 0x0 KECCAK256 ADD SLOAD AND PUSH2 0xD31 DUP2 PUSH2 0x2085 JUMP JUMPDEST DUP2 PUSH1 0x0 MSTORE PUSH1 0x6 DUP2 MSTORE PUSH1 0x40 PUSH1 0x0 KECCAK256 SWAP1 PUSH1 0xFF PUSH1 0xF DUP4 ADD SLOAD AND ISZERO PUSH2 0x1598 JUMPI PUSH1 0x4 DUP3 ADD SLOAD TIMESTAMP GT ISZERO PUSH2 0x153E JUMPI PUSH1 0x2 PUSH1 0xFF PUSH1 0x7 DUP5 ADD SLOAD AND SWAP3 PUSH1 0x4 DUP5 LT ISZERO PUSH2 0x428 JUMPI PUSH32 0xA04CC8B95D889D00FB177CCA0ED67477AEF48C963DFBC778E45E8E8B8DFCC59D SWAP4 ISZERO DUP1 PUSH2 0x1531 JUMPI JUMPDEST PUSH2 0x14FF JUMPI JUMPDEST DUP2 PUSH1 0xD PUSH2 0x14ED SWAP3 ADD PUSH1 0x1 PUSH1 0xFF NOT DUP3 SLOAD AND OR DUP2 SSTORE PUSH2 0x2265 JUMP JUMPDEST PUSH1 0x40 MLOAD SWAP1 PUSH2 0x14FA DUP2 PUSH2 0x2085 JUMP JUMPDEST DUP2 MSTORE LOG2 STOP JUMPDEST DUP1 PUSH1 0xD SWAP3 PUSH1 0x6 PUSH2 0x14ED SWAP4 ADD SLOAD PUSH1 0x5 DUP4 ADD SLOAD GT ISZERO PUSH1 0x0 EQ PUSH2 0x1529 JUMPI POP PUSH1 0x1 SWAP3 DUP4 SWAP2 JUMPDEST SWAP3 POP POP POP PUSH2 0x14D5 JUMP JUMPDEST SWAP3 DUP4 SWAP2 PUSH2 0x1520 JUMP JUMPDEST POP PUSH1 0x5 DUP2 ADD SLOAD ISZERO ISZERO PUSH2 0x14D0 JUMP JUMPDEST PUSH1 0x84 SWAP1 PUSH1 0x40 MLOAD SWAP1 PUSH3 0x461BCD PUSH1 0xE5 SHL DUP3 MSTORE PUSH1 0x4 DUP3 ADD MSTORE PUSH1 0x2D PUSH1 0x24 DUP3 ADD MSTORE PUSH32 0x496D70657266656374466F726D3A20546172676574206461746520686173206E PUSH1 0x44 DUP3 ADD MSTORE PUSH13 0x1BDD081C185CDCD959081E595D PUSH1 0x9A SHL PUSH1 0x64 DUP3 ADD MSTORE REVERT JUMPDEST PUSH1 0x84 SWAP1 PUSH1 0x40 MLOAD SWAP1 PUSH3 0x461BCD PUSH1 0xE5 SHL DUP3 MSTORE PUSH1 0x4 DUP3 ADD MSTORE PUSH1 0x30 PUSH1 0x24 DUP3 ADD MSTORE PUSH1 0x0 DUP1 MLOAD PUSH1 0x20 PUSH2 0x2730 DUP4 CODECOPY DUP2 MLOAD SWAP2 MSTORE PUSH1 0x44 DUP3 ADD MSTORE PUSH16 0x206175746F2D7265736F6C7661626C65 PUSH1 0x80 SHL PUSH1 0x64 DUP3 ADD MSTORE REVERT JUMPDEST POP DUP2 ISZERO ISZERO PUSH2 0x1443 JUMP JUMPDEST CALLVALUE PUSH2 0x447 JUMPI PUSH1 0x0 CALLDATASIZE PUSH1 0x3 NOT ADD SLT PUSH2 0x447 JUMPI PUSH1 0x20 PUSH1 0x40 MLOAD PUSH1 0x64 DUP2 MSTORE RETURN JUMPDEST CALLVALUE PUSH2 0x447 JUMPI PUSH2 0x1616 CALLDATASIZE PUSH2 0x20BB JUMP JUMPDEST SWAP1 PUSH1 0x0 MSTORE PUSH1 0x8 PUSH1 0x20 MSTORE PUSH1 0x40 PUSH1 0x0 KECCAK256 DUP1 SLOAD DUP3 LT ISZERO PUSH2 0x447 JUMPI PUSH1 0x20 SWAP2 PUSH2 0x1639 SWAP2 PUSH2 0x20D1 JUMP JUMPDEST SWAP1 SLOAD PUSH1 0x40 MLOAD PUSH1 0x3 SWAP3 SWAP1 SWAP3 SHL SHR PUSH1 0x1 PUSH1 0x1 PUSH1 0xA0 SHL SUB AND DUP2 MSTORE RETURN JUMPDEST CALLVALUE PUSH2 0x447 JUMPI PUSH2 0x1660 CALLDATASIZE PUSH2 0x20BB JUMP JUMPDEST PUSH2 0x1675 PUSH1 0x1 DUP1 PUSH1 0xA0 SHL SUB PUSH1 0x0 SLOAD AND CALLER EQ PUSH2 0x2156 JUMP JUMPDEST PUSH1 0x32 PUSH2 0x1681 DUP3 DUP5 PUSH2 0x21B1 JUMP JUMPDEST GT PUSH2 0x1730 JUMPI PUSH1 0x64 PUSH2 0x1692 DUP3 DUP5 PUSH2 0x21B1 JUMP JUMPDEST LT ISZERO PUSH2 0x16D2 JUMPI DUP2 PUSH1 0x40 SWAP2 PUSH32 0x5C6323BF1C2D7AAEA2C091A4751C1C87AF7F2864650C336507A77D0557AF37A1 SWAP4 PUSH1 0x3 SSTORE DUP1 PUSH1 0x4 SSTORE DUP3 MLOAD SWAP2 DUP3 MSTORE PUSH1 0x20 DUP3 ADD MSTORE LOG1 STOP JUMPDEST PUSH1 0x40 MLOAD PUSH3 0x461BCD PUSH1 0xE5 SHL DUP2 MSTORE PUSH1 0x20 PUSH1 0x4 DUP3 ADD MSTORE PUSH1 0x30 PUSH1 0x24 DUP3 ADD MSTORE PUSH32 0x496D70657266656374466F726D3A20546F74616C20666565732063616E6E6F74 PUSH1 0x44 DUP3 ADD MSTORE PUSH16 0x2062652031303025206F72206D6F7265 PUSH1 0x80 SHL PUSH1 0x64 DUP3 ADD MSTORE PUSH1 0x84 SWAP1 REVERT JUMPDEST PUSH1 0x40 MLOAD PUSH3 0x461BCD PUSH1 0xE5 SHL DUP2 MSTORE PUSH1 0x20 PUSH1 0x4 DUP3 ADD MSTORE PUSH1 0x2A PUSH1 0x24 DUP3 ADD MSTORE PUSH32 0x496D70657266656374466F726D3A20546F74616C206665657320657863656564 PUSH1 0x44 DUP3 ADD MSTORE PUSH10 0x81B585E081B1A5B5A5D PUSH1 0xB2 SHL PUSH1 0x64 DUP3 ADD MSTORE PUSH1 0x84 SWAP1 REVERT JUMPDEST CALLVALUE PUSH2 0x447 JUMPI PUSH1 0x0 CALLDATASIZE PUSH1 0x3 NOT ADD SLT PUSH2 0x447 JUMPI PUSH1 0x2 SLOAD PUSH1 0x40 MLOAD PUSH1 0x1 PUSH1 0x1 PUSH1 0xA0 SHL SUB SWAP1 SWAP2 AND DUP2 MSTORE PUSH1 0x20 SWAP1 RETURN JUMPDEST CALLVALUE PUSH2 0x447 JUMPI PUSH1 0x40 CALLDATASIZE PUSH1 0x3 NOT ADD SLT PUSH2 0x447 JUMPI PUSH1 0x4 CALLDATALOAD PUSH1 0x24 CALLDATALOAD PUSH1 0x3 DUP2 LT ISZERO PUSH2 0x447 JUMPI PUSH2 0x17E6 PUSH1 0x1 DUP1 PUSH1 0xA0 SHL SUB PUSH1 0x0 SLOAD AND CALLER EQ PUSH2 0x2156 JUMP JUMPDEST PUSH1 0x5 SLOAD DUP3 LT DUP1 PUSH2 0x18CB JUMPI JUMPDEST PUSH2 0x17FA SWAP1 PUSH2 0x21BE JUMP JUMPDEST DUP2 PUSH1 0x0 MSTORE PUSH1 0x6 PUSH1 0x20 MSTORE PUSH2 0x181B PUSH1 0xFF PUSH1 0xD PUSH1 0x40 PUSH1 0x0 KECCAK256 ADD SLOAD AND PUSH2 0xD31 DUP2 PUSH2 0x2085 JUMP JUMPDEST PUSH2 0x1824 DUP2 PUSH2 0x2085 JUMP JUMPDEST DUP1 ISZERO PUSH2 0x1872 JUMPI PUSH1 0x20 PUSH32 0xA04CC8B95D889D00FB177CCA0ED67477AEF48C963DFBC778E45E8E8B8DFCC59D SWAP2 DUP4 PUSH1 0x0 MSTORE PUSH1 0x6 DUP3 MSTORE PUSH2 0x14ED DUP2 PUSH1 0xD PUSH1 0x40 PUSH1 0x0 KECCAK256 ADD PUSH1 0x1 PUSH1 0xFF NOT DUP3 SLOAD AND OR DUP2 SSTORE PUSH2 0x2265 JUMP JUMPDEST PUSH1 0x40 MLOAD PUSH3 0x461BCD PUSH1 0xE5 SHL DUP2 MSTORE PUSH1 0x20 PUSH1 0x4 DUP3 ADD MSTORE PUSH1 0x2B PUSH1 0x24 DUP3 ADD MSTORE PUSH32 0x496D70657266656374466F726D3A2043616E6E6F74207265736F6C766520746F PUSH1 0x44 DUP3 ADD MSTORE PUSH11 0x81553949154D3D3159151 PUSH1 0xAA SHL PUSH1 0x64 DUP3 ADD MSTORE PUSH1 0x84 SWAP1 REVERT JUMPDEST POP DUP2 ISZERO ISZERO PUSH2 0x17F1 JUMP JUMPDEST CALLVALUE PUSH2 0x447 JUMPI PUSH1 0x0 CALLDATASIZE PUSH1 0x3 NOT ADD SLT PUSH2 0x447 JUMPI PUSH1 0x20 PUSH1 0x4 SLOAD PUSH1 0x40 MLOAD SWAP1 DUP2 MSTORE RETURN JUMPDEST CALLVALUE PUSH2 0x447 JUMPI PUSH1 0x0 CALLDATASIZE PUSH1 0x3 NOT ADD SLT PUSH2 0x447 JUMPI PUSH1 0x5 SLOAD DUP1 ISZERO PUSH2 0x1924 JUMPI PUSH1 0x0 NOT DUP2 ADD SWAP1 DUP2 GT PUSH2 0xC0E JUMPI PUSH1 0x20 SWAP1 JUMPDEST PUSH1 0x40 MLOAD SWAP1 DUP2 MSTORE RETURN JUMPDEST POP PUSH1 0x20 PUSH1 0x0 PUSH2 0x191C JUMP JUMPDEST CALLVALUE PUSH2 0x447 JUMPI PUSH1 0x20 DUP1 PUSH1 0x3 NOT CALLDATASIZE ADD SLT PUSH2 0x447 JUMPI PUSH1 0x4 CALLDATALOAD PUSH1 0x5 SLOAD DUP2 LT DUP1 PUSH2 0x1B10 JUMPI JUMPDEST PUSH2 0x1957 SWAP1 PUSH2 0x21BE JUMP JUMPDEST DUP1 PUSH1 0x0 MSTORE PUSH1 0x6 DUP3 MSTORE PUSH1 0x2 PUSH1 0xFF PUSH1 0xD PUSH1 0x40 PUSH1 0x0 KECCAK256 ADD SLOAD AND PUSH2 0x1976 DUP2 PUSH2 0x2085 JUMP JUMPDEST SUB PUSH2 0x1ACA JUMPI DUP1 PUSH1 0x0 MSTORE PUSH1 0x7 DUP3 MSTORE PUSH1 0x40 PUSH1 0x0 KECCAK256 CALLER PUSH1 0x0 MSTORE DUP3 MSTORE PUSH1 0x40 PUSH1 0x0 KECCAK256 SWAP2 PUSH1 0x1 DUP4 ADD SLOAD SWAP3 DUP4 ISZERO PUSH2 0x1A68 JUMPI PUSH1 0x2 ADD DUP1 SLOAD PUSH1 0xFF DUP2 AND PUSH2 0x19FD JUMPI PUSH1 0xFF NOT AND PUSH1 0x1 OR SWAP1 SSTORE PUSH1 0x0 DUP1 DUP1 DUP1 DUP7 CALLER DUP3 CALL ISZERO PUSH2 0x19F1 JUMPI PUSH32 0xF3F402280EF0A7905E124AA621B65EAEB2725C343E8B36D398ED78C29DAF285C SWAP1 PUSH1 0x40 MLOAD SWAP4 DUP5 MSTORE CALLER SWAP4 LOG3 STOP JUMPDEST PUSH1 0x40 MLOAD RETURNDATASIZE PUSH1 0x0 DUP3 RETURNDATACOPY RETURNDATASIZE SWAP1 REVERT JUMPDEST PUSH1 0x40 MLOAD PUSH3 0x461BCD PUSH1 0xE5 SHL DUP2 MSTORE PUSH1 0x4 DUP2 ADD DUP5 SWAP1 MSTORE PUSH1 0x39 PUSH1 0x24 DUP3 ADD MSTORE PUSH32 0x496D70657266656374466F726D3A20526566756E6420616C726561647920636C PUSH1 0x44 DUP3 ADD MSTORE PUSH32 0x61696D6564206F72207265776172642070726F63657373656400000000000000 PUSH1 0x64 DUP3 ADD MSTORE PUSH1 0x84 SWAP1 REVERT JUMPDEST PUSH1 0x40 MLOAD PUSH3 0x461BCD PUSH1 0xE5 SHL DUP2 MSTORE PUSH1 0x4 DUP2 ADD DUP4 SWAP1 MSTORE PUSH1 0x34 PUSH1 0x24 DUP3 ADD MSTORE PUSH32 0x496D70657266656374466F726D3A204E6F20766F746520666F756E6420666F72 PUSH1 0x44 DUP3 ADD MSTORE PUSH20 0x81D1A1A5CC81D5CD95C881D1BC81C99599D5B99 PUSH1 0x62 SHL PUSH1 0x64 DUP3 ADD MSTORE PUSH1 0x84 SWAP1 REVERT JUMPDEST PUSH1 0x40 MLOAD PUSH3 0x461BCD PUSH1 0xE5 SHL DUP2 MSTORE PUSH1 0x4 DUP2 ADD DUP4 SWAP1 MSTORE PUSH1 0x2A PUSH1 0x24 DUP3 ADD MSTORE PUSH1 0x0 DUP1 MLOAD PUSH1 0x20 PUSH2 0x2730 DUP4 CODECOPY DUP2 MLOAD SWAP2 MSTORE PUSH1 0x44 DUP3 ADD MSTORE PUSH10 0x818D85B98D95B1B1959 PUSH1 0xB2 SHL PUSH1 0x64 DUP3 ADD MSTORE PUSH1 0x84 SWAP1 REVERT JUMPDEST POP DUP1 ISZERO ISZERO PUSH2 0x194E JUMP JUMPDEST CALLVALUE PUSH2 0x447 JUMPI PUSH1 0x0 CALLDATASIZE PUSH1 0x3 NOT ADD SLT PUSH2 0x447 JUMPI PUSH1 0x20 PUSH1 0x40 MLOAD PUSH1 0x32 DUP2 MSTORE RETURN JUMPDEST CALLVALUE PUSH2 0x447 JUMPI PUSH1 0x20 PUSH32 0xA3A65C2C82E33077BFDC2C14360C64D9B5EF2AAF53C60C614B4D63922DBBD93E PUSH2 0x1B66 CALLDATASIZE PUSH2 0x20BB JUMP JUMPDEST PUSH2 0x1B7E PUSH1 0x1 DUP1 PUSH1 0xA0 SWAP7 SWAP5 SWAP7 SHL SUB PUSH1 0x0 SLOAD AND CALLER EQ PUSH2 0x2156 JUMP JUMPDEST PUSH1 0x5 SLOAD DUP5 LT DUP1 PUSH2 0x1BCD JUMPI JUMPDEST PUSH2 0x1B92 SWAP1 PUSH2 0x21BE JUMP JUMPDEST DUP4 PUSH1 0x0 MSTORE PUSH1 0x6 DUP3 MSTORE PUSH2 0x1BB2 PUSH1 0xFF PUSH1 0xD PUSH1 0x40 PUSH1 0x0 KECCAK256 ADD SLOAD AND PUSH2 0xD31 DUP2 PUSH2 0x2085 JUMP JUMPDEST DUP4 PUSH1 0x0 MSTORE PUSH1 0x6 DUP3 MSTORE DUP1 PUSH1 0x6 PUSH1 0x40 PUSH1 0x0 KECCAK256 ADD SSTORE PUSH1 0x40 MLOAD SWAP1 DUP2 MSTORE LOG2 STOP JUMPDEST POP DUP4 ISZERO ISZERO PUSH2 0x1B89 JUMP JUMPDEST CALLVALUE PUSH2 0x447 JUMPI PUSH1 0x20 CALLDATASIZE PUSH1 0x3 NOT ADD SLT PUSH2 0x447 JUMPI PUSH2 0x1BEF PUSH2 0x20A5 JUMP JUMPDEST PUSH1 0x0 SLOAD PUSH1 0x1 PUSH1 0x1 PUSH1 0xA0 SHL SUB SWAP2 SWAP1 PUSH2 0x1C09 SWAP1 DUP4 AND CALLER EQ PUSH2 0x2156 JUMP JUMPDEST AND DUP1 ISZERO PUSH2 0x1C28 JUMPI PUSH1 0x1 PUSH1 0x1 PUSH1 0x60 SHL SUB PUSH1 0xA0 SHL PUSH1 0x2 SLOAD AND OR PUSH1 0x2 SSTORE PUSH1 0x0 DUP1 RETURN JUMPDEST PUSH1 0x40 MLOAD PUSH3 0x461BCD PUSH1 0xE5 SHL DUP2 MSTORE PUSH1 0x20 PUSH1 0x4 DUP3 ADD MSTORE PUSH1 0x31 PUSH1 0x24 DUP3 ADD MSTORE PUSH32 0x496D70657266656374466F726D3A204D61696E74656E616E6365206164647265 PUSH1 0x44 DUP3 ADD MSTORE PUSH17 0x73732063616E6E6F74206265207A65726F PUSH1 0x78 SHL PUSH1 0x64 DUP3 ADD MSTORE PUSH1 0x84 SWAP1 REVERT JUMPDEST CALLVALUE PUSH2 0x447 JUMPI PUSH1 0x0 CALLDATASIZE PUSH1 0x3 NOT ADD SLT PUSH2 0x447 JUMPI PUSH1 0x20 PUSH2 0x191C PUSH1 0x3 SLOAD PUSH1 0x4 SLOAD SWAP1 PUSH2 0x21B1 JUMP JUMPDEST CALLVALUE PUSH2 0x447 JUMPI PUSH1 0x40 CALLDATASIZE PUSH1 0x3 NOT ADD SLT PUSH2 0x447 JUMPI PUSH1 0x4 CALLDATALOAD PUSH2 0x1CC5 PUSH2 0x208F JUMP JUMPDEST SWAP1 PUSH1 0x0 PUSH1 0x40 DUP1 MLOAD PUSH2 0x1CD5 DUP2 PUSH2 0x1F37 JUMP JUMPDEST DUP3 DUP2 MSTORE DUP3 PUSH1 0x20 DUP3 ADD MSTORE ADD MSTORE PUSH1 0x5 SLOAD DUP2 LT DUP1 PUSH2 0x1D61 JUMPI JUMPDEST PUSH2 0x1CF4 SWAP1 PUSH2 0x21BE JUMP JUMPDEST PUSH1 0x0 MSTORE PUSH1 0x7 PUSH1 0x20 MSTORE PUSH1 0x40 PUSH1 0x0 KECCAK256 SWAP1 PUSH1 0x1 DUP1 PUSH1 0xA0 SHL SUB AND PUSH1 0x0 MSTORE PUSH1 0x20 MSTORE PUSH1 0x60 PUSH1 0x40 PUSH1 0x0 KECCAK256 PUSH1 0x40 MLOAD PUSH2 0x1D23 DUP2 PUSH2 0x1F37 JUMP JUMPDEST PUSH1 0xFF DUP3 SLOAD AND ISZERO ISZERO SWAP2 DUP3 DUP3 MSTORE PUSH1 0x40 PUSH1 0xFF PUSH1 0x2 PUSH1 0x1 DUP5 ADD SLOAD SWAP4 PUSH1 0x20 DUP7 ADD SWAP5 DUP6 MSTORE ADD SLOAD AND SWAP3 ADD SWAP2 ISZERO ISZERO DUP3 MSTORE PUSH1 0x40 MLOAD SWAP3 DUP4 MSTORE MLOAD PUSH1 0x20 DUP4 ADD MSTORE MLOAD ISZERO ISZERO PUSH1 0x40 DUP3 ADD MSTORE RETURN JUMPDEST POP DUP1 ISZERO ISZERO PUSH2 0x1CEB JUMP JUMPDEST CALLVALUE PUSH2 0x447 JUMPI PUSH1 0x20 CALLDATASIZE PUSH1 0x3 NOT ADD SLT PUSH2 0x447 JUMPI PUSH1 0x4 CALLDATALOAD PUSH1 0x0 SWAP1 DUP2 MSTORE PUSH1 0x6 PUSH1 0x20 MSTORE PUSH1 0x40 SWAP1 KECCAK256 DUP1 SLOAD PUSH1 0x1 DUP3 ADD SLOAD PUSH1 0x1 PUSH1 0x1 PUSH1 0xA0 SHL SUB AND SWAP2 PUSH2 0x1DA9 PUSH1 0x2 DUP3 ADD PUSH2 0x1F92 JUMP JUMPDEST SWAP3 PUSH2 0x1DB6 PUSH1 0x3 DUP4 ADD PUSH2 0x1F92 JUMP JUMPDEST SWAP4 PUSH1 0x4 DUP4 ADD SLOAD SWAP5 PUSH1 0x5 DUP5 ADD SLOAD SWAP6 PUSH1 0x6 DUP6 ADD SLOAD SWAP1 PUSH1 0x7 DUP7 ADD SLOAD PUSH1 0xFF AND SWAP1 PUSH1 0x8 DUP8 ADD PUSH2 0x1DDF SWAP1 PUSH2 0x1F92 JUMP JUMPDEST SWAP2 PUSH2 0x1DEC PUSH1 0x9 DUP10 ADD PUSH2 0x1F92 JUMP JUMPDEST SWAP4 PUSH1 0xA DUP10 ADD SLOAD SWAP11 PUSH1 0xB DUP11 ADD SLOAD SWAP7 PUSH1 0xC DUP12 ADD SLOAD SWAP9 PUSH1 0xD DUP13 ADD SLOAD SWAP11 PUSH1 0xE DUP14 ADD SLOAD SWAP13 PUSH1 0xF ADD SLOAD PUSH1 0xFF AND SWAP14 PUSH1 0x40 MLOAD DUP1 PUSH1 0x80 MSTORE MSTORE PUSH1 0x80 MLOAD PUSH1 0x20 ADD MSTORE PUSH2 0x220 DUP1 PUSH1 0x80 MLOAD PUSH1 0x40 ADD MSTORE PUSH1 0x80 MLOAD ADD PUSH2 0x1E3A SWAP2 PUSH2 0x2038 JUMP JUMPDEST PUSH1 0x80 MLOAD DUP1 DUP3 SUB SWAP1 PUSH1 0x60 ADD MSTORE PUSH2 0x1E4E SWAP2 PUSH2 0x2038 JUMP JUMPDEST SWAP4 PUSH1 0x80 MLOAD PUSH1 0x80 ADD MSTORE PUSH1 0x80 MLOAD PUSH1 0xA0 ADD MSTORE PUSH1 0x80 MLOAD PUSH1 0xC0 ADD MSTORE PUSH1 0x80 MLOAD PUSH1 0xE0 ADD PUSH2 0x1E73 SWAP2 PUSH2 0x2078 JUMP JUMPDEST PUSH1 0x80 MLOAD DUP1 DUP3 SUB SWAP1 PUSH2 0x100 ADD MSTORE PUSH2 0x1E88 SWAP2 PUSH2 0x2038 JUMP JUMPDEST PUSH1 0x80 MLOAD DUP1 DUP3 SUB SWAP1 PUSH2 0x120 ADD MSTORE PUSH2 0x1E9D SWAP2 PUSH2 0x2038 JUMP JUMPDEST SWAP6 PUSH1 0x80 MLOAD PUSH2 0x140 ADD MSTORE PUSH1 0x80 MLOAD PUSH2 0x160 ADD MSTORE PUSH1 0x80 MLOAD PUSH2 0x180 ADD MSTORE PUSH1 0xFF DUP2 AND PUSH2 0x1EC3 DUP2 PUSH2 0x2085 JUMP JUMPDEST PUSH1 0x80 MLOAD PUSH2 0x1A0 ADD MSTORE PUSH1 0x8 SHR PUSH1 0xFF AND PUSH2 0x1EDA DUP2 PUSH2 0x2085 JUMP JUMPDEST PUSH1 0x80 MLOAD PUSH2 0x1C0 ADD MSTORE PUSH1 0x80 MLOAD PUSH2 0x1E0 ADD MSTORE ISZERO ISZERO PUSH1 0x80 MLOAD PUSH2 0x200 ADD MSTORE PUSH1 0x80 MLOAD DUP1 SWAP2 SUB SWAP1 RETURN JUMPDEST SWAP1 PUSH1 0x1 DUP3 DUP2 SHR SWAP3 AND DUP1 ISZERO PUSH2 0x1F2D JUMPI JUMPDEST PUSH1 0x20 DUP4 LT EQ PUSH2 0x1F17 JUMPI JUMP JUMPDEST PUSH4 0x4E487B71 PUSH1 0xE0 SHL PUSH1 0x0 MSTORE PUSH1 0x22 PUSH1 0x4 MSTORE PUSH1 0x24 PUSH1 0x0 REVERT JUMPDEST SWAP2 PUSH1 0x7F AND SWAP2 PUSH2 0x1F0C JUMP JUMPDEST PUSH1 0x60 DUP2 ADD SWAP1 DUP2 LT PUSH8 0xFFFFFFFFFFFFFFFF DUP3 GT OR PUSH2 0x9AA JUMPI PUSH1 0x40 MSTORE JUMP JUMPDEST PUSH2 0x220 DUP2 ADD SWAP1 DUP2 LT PUSH8 0xFFFFFFFFFFFFFFFF DUP3 GT OR PUSH2 0x9AA JUMPI PUSH1 0x40 MSTORE JUMP JUMPDEST SWAP1 PUSH1 0x1F DUP1 NOT SWAP2 ADD AND DUP2 ADD SWAP1 DUP2 LT PUSH8 0xFFFFFFFFFFFFFFFF DUP3 GT OR PUSH2 0x9AA JUMPI PUSH1 0x40 MSTORE JUMP JUMPDEST SWAP1 PUSH1 0x40 MLOAD SWAP2 DUP3 PUSH1 0x0 DUP3 SLOAD SWAP3 PUSH2 0x1FA6 DUP5 PUSH2 0x1EFD JUMP JUMPDEST SWAP1 DUP2 DUP5 MSTORE PUSH1 0x1 SWAP5 DUP6 DUP2 AND SWAP1 DUP2 PUSH1 0x0 EQ PUSH2 0x2015 JUMPI POP PUSH1 0x1 EQ PUSH2 0x1FD2 JUMPI JUMPDEST POP POP PUSH2 0x1FD0 SWAP3 POP SUB DUP4 PUSH2 0x1F70 JUMP JUMPDEST JUMP JUMPDEST SWAP1 SWAP4 SWAP2 POP PUSH1 0x0 MSTORE PUSH1 0x20 SWAP1 DUP2 PUSH1 0x0 KECCAK256 SWAP4 PUSH1 0x0 SWAP2 JUMPDEST DUP2 DUP4 LT PUSH2 0x1FFD JUMPI POP POP PUSH2 0x1FD0 SWAP4 POP DUP3 ADD ADD CODESIZE DUP1 PUSH2 0x1FC2 JUMP JUMPDEST DUP6 SLOAD DUP9 DUP5 ADD DUP6 ADD MSTORE SWAP5 DUP6 ADD SWAP5 DUP8 SWAP5 POP SWAP2 DUP4 ADD SWAP2 PUSH2 0x1FE5 JUMP JUMPDEST SWAP2 POP POP PUSH2 0x1FD0 SWAP5 POP PUSH1 0x20 SWAP3 POP PUSH1 0xFF NOT AND DUP3 DUP5 ADD MSTORE ISZERO ISZERO PUSH1 0x5 SHL DUP3 ADD ADD CODESIZE DUP1 PUSH2 0x1FC2 JUMP JUMPDEST SWAP2 SWAP1 DUP3 MLOAD SWAP3 DUP4 DUP3 MSTORE PUSH1 0x0 JUMPDEST DUP5 DUP2 LT PUSH2 0x2064 JUMPI POP POP DUP3 PUSH1 0x0 PUSH1 0x20 DUP1 SWAP5 SWAP6 DUP5 ADD ADD MSTORE PUSH1 0x1F DUP1 NOT SWAP2 ADD AND ADD ADD SWAP1 JUMP JUMPDEST PUSH1 0x20 DUP2 DUP4 ADD DUP2 ADD MLOAD DUP5 DUP4 ADD DUP3 ADD MSTORE ADD PUSH2 0x2043 JUMP JUMPDEST SWAP1 PUSH1 0x4 DUP3 LT ISZERO PUSH2 0x428 JUMPI MSTORE JUMP JUMPDEST PUSH1 0x3 GT ISZERO PUSH2 0x428 JUMPI JUMP JUMPDEST PUSH1 0x24 CALLDATALOAD SWAP1 PUSH1 0x1 PUSH1 0x1 PUSH1 0xA0 SHL SUB DUP3 AND DUP3 SUB PUSH2 0x447 JUMPI JUMP JUMPDEST PUSH1 0x4 CALLDATALOAD SWAP1 PUSH1 0x1 PUSH1 0x1 PUSH1 0xA0 SHL SUB DUP3 AND DUP3 SUB PUSH2 0x447 JUMPI JUMP JUMPDEST PUSH1 0x40 SWAP1 PUSH1 0x3 NOT ADD SLT PUSH2 0x447 JUMPI PUSH1 0x4 CALLDATALOAD SWAP1 PUSH1 0x24 CALLDATALOAD SWAP1 JUMP JUMPDEST DUP1 SLOAD DUP3 LT ISZERO PUSH2 0x20E9 JUMPI PUSH1 0x0 MSTORE PUSH1 0x20 PUSH1 0x0 KECCAK256 ADD SWAP1 PUSH1 0x0 SWAP1 JUMP JUMPDEST PUSH4 0x4E487B71 PUSH1 0xE0 SHL PUSH1 0x0 MSTORE PUSH1 0x32 PUSH1 0x4 MSTORE PUSH1 0x24 PUSH1 0x0 REVERT JUMPDEST DUP2 PUSH1 0x1F DUP3 ADD SLT ISZERO PUSH2 0x447 JUMPI DUP1 CALLDATALOAD SWAP1 PUSH8 0xFFFFFFFFFFFFFFFF DUP3 GT PUSH2 0x9AA JUMPI PUSH1 0x40 MLOAD SWAP3 PUSH2 0x2134 PUSH1 0x1F DUP5 ADD PUSH1 0x1F NOT AND PUSH1 0x20 ADD DUP6 PUSH2 0x1F70 JUMP JUMPDEST DUP3 DUP5 MSTORE PUSH1 0x20 DUP4 DUP4 ADD ADD GT PUSH2 0x447 JUMPI DUP2 PUSH1 0x0 SWAP3 PUSH1 0x20 DUP1 SWAP4 ADD DUP4 DUP7 ADD CALLDATACOPY DUP4 ADD ADD MSTORE SWAP1 JUMP JUMPDEST ISZERO PUSH2 0x215D JUMPI JUMP JUMPDEST PUSH1 0x40 MLOAD PUSH3 0x461BCD PUSH1 0xE5 SHL DUP2 MSTORE PUSH1 0x20 PUSH1 0x4 DUP3 ADD MSTORE PUSH1 0x26 PUSH1 0x24 DUP3 ADD MSTORE PUSH32 0x496D70657266656374466F726D3A2043616C6C6572206973206E6F7420746865 PUSH1 0x44 DUP3 ADD MSTORE PUSH6 0x1037BBB732B9 PUSH1 0xD1 SHL PUSH1 0x64 DUP3 ADD MSTORE PUSH1 0x84 SWAP1 REVERT JUMPDEST SWAP2 SWAP1 DUP3 ADD DUP1 SWAP3 GT PUSH2 0xC0E JUMPI JUMP JUMPDEST ISZERO PUSH2 0x21C5 JUMPI JUMP JUMPDEST PUSH1 0x40 MLOAD PUSH3 0x461BCD PUSH1 0xE5 SHL DUP2 MSTORE PUSH1 0x20 PUSH1 0x4 DUP3 ADD MSTORE PUSH1 0x28 PUSH1 0x24 DUP3 ADD MSTORE PUSH32 0x496D70657266656374466F726D3A2050726564696374696F6E20646F6573206E PUSH1 0x44 DUP3 ADD MSTORE PUSH8 0x1BDD08195E1A5CDD PUSH1 0xC2 SHL PUSH1 0x64 DUP3 ADD MSTORE PUSH1 0x84 SWAP1 REVERT JUMPDEST ISZERO PUSH2 0x2222 JUMPI JUMP JUMPDEST PUSH1 0x40 MLOAD PUSH3 0x461BCD PUSH1 0xE5 SHL DUP2 MSTORE PUSH1 0x20 PUSH1 0x4 DUP3 ADD MSTORE PUSH1 0x27 PUSH1 0x24 DUP3 ADD MSTORE PUSH1 0x0 DUP1 MLOAD PUSH1 0x20 PUSH2 0x2730 DUP4 CODECOPY DUP2 MLOAD SWAP2 MSTORE PUSH1 0x44 DUP3 ADD MSTORE PUSH7 0x20616374697665 PUSH1 0xC8 SHL PUSH1 0x64 DUP3 ADD MSTORE PUSH1 0x84 SWAP1 REVERT JUMPDEST SWAP1 PUSH2 0x226F DUP2 PUSH2 0x2085 JUMP JUMPDEST PUSH2 0xFF00 DUP3 SLOAD SWAP2 PUSH1 0x8 SHL AND SWAP1 PUSH2 0xFF00 NOT AND OR SWAP1 SSTORE JUMP JUMPDEST DUP1 SLOAD PUSH9 0x10000000000000000 DUP2 LT ISZERO PUSH2 0x9AA JUMPI PUSH2 0x22A6 SWAP2 PUSH1 0x1 DUP3 ADD DUP2 SSTORE PUSH2 0x20D1 JUMP JUMPDEST DUP2 SWAP3 SWAP2 SLOAD SWAP1 PUSH1 0x3 SHL SWAP2 PUSH1 0x1 DUP1 PUSH1 0xA0 SHL SUB DUP1 SWAP2 AND DUP4 SHL SWAP3 SHL NOT AND OR SWAP1 SSTORE JUMP JUMPDEST SWAP2 SWAP1 DUP3 SUB SWAP2 DUP3 GT PUSH2 0xC0E JUMPI JUMP JUMPDEST DUP2 DUP2 MUL SWAP3 SWAP2 DUP2 ISZERO SWAP2 DUP5 DIV EQ OR ISZERO PUSH2 0xC0E JUMPI JUMP JUMPDEST PUSH1 0x0 SWAP1 DUP1 DUP3 MSTORE PUSH1 0x20 PUSH1 0x6 DUP2 MSTORE PUSH1 0x40 DUP1 DUP5 KECCAK256 SWAP4 PUSH1 0x7 DUP4 MSTORE DUP2 DUP2 KECCAK256 CALLER DUP3 MSTORE DUP4 MSTORE DUP2 DUP2 KECCAK256 SWAP5 PUSH1 0x1 SWAP6 DUP7 DUP2 ADD SLOAD SWAP1 DUP2 ISZERO PUSH2 0x26D8 JUMPI PUSH1 0x2 DUP2 ADD SWAP1 DUP2 SLOAD SWAP2 PUSH1 0xFF DUP4 AND PUSH2 0x266E JUMPI DUP10 PUSH1 0xD DUP7 ADD SWAP4 PUSH1 0xFF DUP6 SLOAD PUSH1 0x8 SHR AND SWAP4 PUSH2 0x233C DUP6 PUSH2 0x2085 JUMP JUMPDEST DUP3 DUP6 EQ SWAP5 DUP6 PUSH2 0x2662 JUMPI JUMPDEST DUP6 ISZERO PUSH2 0x2635 JUMPI JUMPDEST POP POP PUSH1 0xFF NOT AND OR SWAP1 SSTORE ISZERO PUSH2 0x2604 JUMPI PUSH1 0xFF DUP9 SWAP2 SLOAD PUSH1 0x8 SHR AND PUSH2 0x236D DUP2 PUSH2 0x2085 JUMP JUMPDEST SUB PUSH2 0x25F9 JUMPI PUSH1 0xB DUP3 ADD SLOAD SWAP2 JUMPDEST DUP3 ISZERO PUSH2 0x2574 JUMPI PUSH1 0xA ADD SLOAD PUSH2 0x238C SWAP2 PUSH2 0x22D1 JUMP JUMPDEST DIV PUSH1 0x64 PUSH2 0x239B PUSH1 0x3 SLOAD DUP4 PUSH2 0x22D1 JUMP JUMPDEST DIV PUSH1 0x64 PUSH2 0x23AA PUSH1 0x4 SLOAD DUP5 PUSH2 0x22D1 JUMP JUMPDEST DIV SWAP2 PUSH2 0x23B6 DUP4 DUP4 PUSH2 0x21B1 JUMP JUMPDEST SWAP1 DUP2 DUP2 LT PUSH2 0x251C JUMPI SWAP1 PUSH2 0x23C8 SWAP2 PUSH2 0x22C4 JUMP JUMPDEST SWAP7 DUP2 ISZERO SWAP1 DUP2 ISZERO PUSH2 0x24B4 JUMPI JUMPDEST POP POP POP DUP1 ISZERO DUP1 ISZERO PUSH2 0x244B JUMPI JUMPDEST POP POP DUP5 ISZERO DUP1 ISZERO PUSH2 0x2418 JUMPI JUMPDEST POP POP SWAP1 PUSH32 0x24B5EFA61DD1CFC659205A97FB8ED868F3CB8C81922BAB2B96423E5DE1DE2CB7 SWAP2 MLOAD SWAP4 DUP5 MSTORE CALLER SWAP4 LOG3 JUMP JUMPDEST DUP2 SWAP1 DUP7 DUP3 SWAP2 PUSH2 0x2441 JUMPI JUMPDEST DUP3 DUP1 SWAP3 SWAP2 DUP2 SWAP3 CALLER SWAP1 CALL ISZERO PUSH2 0x2436 JUMPI DUP1 PUSH2 0x23EA JUMP JUMPDEST SWAP1 MLOAD SWAP1 RETURNDATASIZE SWAP1 DUP3 RETURNDATACOPY RETURNDATASIZE SWAP1 REVERT JUMPDEST PUSH2 0x8FC SWAP2 POP PUSH2 0x2422 JUMP JUMPDEST DUP3 DUP1 DUP1 DUP1 DUP6 PUSH1 0x1 DUP1 PUSH1 0xA0 SHL SUB SWAP6 DUP7 PUSH1 0x2 SLOAD AND SWAP1 DUP4 SWAP1 PUSH2 0x24AB JUMPI JUMPDEST CALL ISZERO PUSH2 0x24A1 JUMPI PUSH32 0x4F74FD430ECC4BC832D1C0F6568D7ECF27F3E0ABCF81385EF346C93B2EF7588E DUP6 DUP8 SWAP3 PUSH1 0x2 SLOAD AND SWAP4 DUP7 MLOAD SWAP1 DUP2 MSTORE LOG3 CODESIZE DUP1 PUSH2 0x23DF JUMP JUMPDEST DUP4 MLOAD RETURNDATASIZE DUP5 DUP3 RETURNDATACOPY RETURNDATASIZE SWAP1 REVERT JUMPDEST POP PUSH2 0x8FC PUSH2 0x2465 JUMP JUMPDEST DUP5 DUP1 DUP1 DUP1 DUP7 PUSH1 0x1 DUP1 PUSH1 0xA0 SHL SUB SWAP7 DUP8 DUP8 SLOAD AND SWAP1 DUP4 SWAP1 PUSH2 0x2513 JUMPI JUMPDEST CALL ISZERO PUSH2 0x2509 JUMPI DUP7 DUP9 SWAP3 PUSH32 0xA83B61ED3E79E291A0126B12792F207CE9B4FE8D4098B8CCEE67291D9CE9D92F SWAP3 SLOAD AND SWAP4 DUP8 MLOAD SWAP1 DUP2 MSTORE LOG3 CODESIZE DUP1 DUP1 PUSH2 0x23D3 JUMP JUMPDEST DUP6 MLOAD RETURNDATASIZE DUP7 DUP3 RETURNDATACOPY RETURNDATASIZE SWAP1 REVERT JUMPDEST POP PUSH2 0x8FC PUSH2 0x24CD JUMP JUMPDEST DUP6 MLOAD PUSH3 0x461BCD PUSH1 0xE5 SHL DUP2 MSTORE PUSH1 0x4 DUP2 ADD DUP9 SWAP1 MSTORE PUSH1 0x2B PUSH1 0x24 DUP3 ADD MSTORE PUSH32 0x496D70657266656374466F726D3A2046656573206578636565642063616C6375 PUSH1 0x44 DUP3 ADD MSTORE PUSH11 0x6C61746564207368617265 PUSH1 0xA8 SHL PUSH1 0x64 DUP3 ADD MSTORE PUSH1 0x84 SWAP1 REVERT JUMPDEST DUP5 MLOAD PUSH3 0x461BCD PUSH1 0xE5 SHL DUP2 MSTORE PUSH1 0x4 DUP2 ADD DUP8 SWAP1 MSTORE PUSH1 0x52 PUSH1 0x24 DUP3 ADD MSTORE PUSH32 0x496D70657266656374466F726D3A204E6F2077696E6E696E67207374616B6573 PUSH1 0x44 DUP3 ADD MSTORE PUSH32 0x20706F6F6C202873686F756C64206E6F742068617070656E2069662075736572 PUSH1 0x64 DUP3 ADD MSTORE PUSH18 0x20636C61696D7320636F72726563746C7929 PUSH1 0x70 SHL PUSH1 0x84 DUP3 ADD MSTORE PUSH1 0xA4 SWAP1 REVERT JUMPDEST PUSH1 0xC DUP3 ADD SLOAD SWAP2 PUSH2 0x2379 JUMP JUMPDEST POP POP POP SWAP4 POP SWAP1 PUSH32 0x24B5EFA61DD1CFC659205A97FB8ED868F3CB8C81922BAB2B96423E5DE1DE2CB7 SWAP2 MLOAD SWAP4 DUP5 MSTORE CALLER SWAP4 LOG3 JUMP JUMPDEST PUSH1 0x2 SWAP2 SWAP3 SWAP6 POP PUSH2 0x2644 DUP2 PUSH2 0x2085 JUMP JUMPDEST EQ SWAP1 DUP2 PUSH2 0x2655 JUMPI JUMPDEST POP SWAP3 CODESIZE DUP1 PUSH2 0x234D JUMP JUMPDEST PUSH1 0xFF SWAP2 POP SLOAD AND ISZERO CODESIZE PUSH2 0x264C JUMP JUMPDEST DUP2 SLOAD PUSH1 0xFF AND SWAP6 POP PUSH2 0x2346 JUMP JUMPDEST DUP7 MLOAD PUSH3 0x461BCD PUSH1 0xE5 SHL DUP2 MSTORE PUSH1 0x4 DUP2 ADD DUP10 SWAP1 MSTORE PUSH1 0x39 PUSH1 0x24 DUP3 ADD MSTORE PUSH32 0x496D70657266656374466F726D3A2052657761726420616C726561647920636C PUSH1 0x44 DUP3 ADD MSTORE PUSH32 0x61696D6564206F7220726566756E642070726F63657373656400000000000000 PUSH1 0x64 DUP3 ADD MSTORE PUSH1 0x84 SWAP1 REVERT JUMPDEST DUP5 MLOAD PUSH3 0x461BCD PUSH1 0xE5 SHL DUP2 MSTORE PUSH1 0x4 DUP2 ADD DUP8 SWAP1 MSTORE PUSH1 0x2A PUSH1 0x24 DUP3 ADD MSTORE PUSH32 0x496D70657266656374466F726D3A204E6F20766F746520666F756E6420666F72 PUSH1 0x44 DUP3 ADD MSTORE PUSH10 0x103A3434B9903AB9B2B9 PUSH1 0xB1 SHL PUSH1 0x64 DUP3 ADD MSTORE PUSH1 0x84 SWAP1 REVERT INVALID 0x49 PUSH14 0x70657266656374466F726D3A2050 PUSH19 0x6564696374696F6E206973206E6F74A2646970 PUSH7 0x7358221220D194 0x21 0x4B 0xD9 0xE5 PUSH3 0x5FCB84 PUSH19 0x999D7D9A11BCB23E07F534986F0BA68F7ABA8F 0xD4 0xC PUSH5 0x736F6C6343 STOP ADDMOD SGT STOP CALLER 0x49 PUSH14 0x70657266656374466F726D3A2049 PUSH15 0x697469616C20746F74616C20666565 "},"methodIdentifiers":{"MAX_FEE_PERCENTAGE()":"558e44d3","PERCENTAGE_BASE()":"87c13943","autoResolvePrediction(uint256)":"89296738","cancelPrediction(uint256)":"d424e5a0","charityAddress()":"afcf2fc4","charityFeePercentage()":"e9e3e1ae","claimRefund(uint256)":"5b7baf64","claimReward(uint256)":"ae169a50","createPrediction(string,string,uint256,uint256,uint8,string,string,bool)":"e8460ed9","getParticipants(uint256)":"c1e3bd3e","getPrediction(uint256)":"fe83bece","getTotalFeePercentage()":"064367bb","getTotalPredictions()":"5c580061","getUserVote(uint256,address)":"03c7881a","maintenanceAddress()":"719d5f83","maintenanceFeePercentage()":"6896e930","owner()":"8da5cb5b","participants(uint256,uint256)":"81fb1fb4","predictions(uint256)":"004fbbb0","resolvePrediction(uint256,uint8)":"6aaea6dc","transferOwnership(address)":"f2fde38b","updateCharityAddress(address)":"ae5a17a7","updateFeePercentages(uint256,uint256)":"78578bb3","updateMaintenanceAddress(address)":"275893a9","updatePredictionValue(uint256,uint256)":"37a50256","vote(uint256,bool)":"c9d27afe","votes(uint256,address)":"d23254b4"}}}}}