{
  "_format": "hh-sol-artifact-1",
  "contractName": "PredictionBot",
  "sourceName": "contracts/PredictionBot.sol",
  "abi": [
    {
      "inputs": [
        {
          "internalType": "address",
          "name": "_predictionMarketContract",
          "type": "address"
        },
        {
          "internalType": "uint256",
          "name": "_proposalFee",
          "type": "uint256"
        }
      ],
      "stateMutability": "nonpayable",
      "type": "constructor"
    },
    {
      "anonymous": false,
      "inputs": [
        {
          "indexed": true,
          "internalType": "address",
          "name": "bot",
          "type": "address"
        },
        {
          "indexed": false,
          "internalType": "bool",
          "name": "authorized",
          "type": "bool"
        }
      ],
      "name": "BotAuthorized",
      "type": "event"
    },
    {
      "anonymous": false,
      "inputs": [
        {
          "indexed": false,
          "internalType": "bool",
          "name": "paused",
          "type": "bool"
        }
      ],
      "name": "ContractPaused",
      "type": "event"
    },
    {
      "anonymous": false,
      "inputs": [
        {
          "indexed": false,
          "internalType": "uint256",
          "name": "oldFee",
          "type": "uint256"
        },
        {
          "indexed": false,
          "internalType": "uint256",
          "name": "newFee",
          "type": "uint256"
        }
      ],
      "name": "FeeUpdated",
      "type": "event"
    },
    {
      "anonymous": false,
      "inputs": [
        {
          "indexed": true,
          "internalType": "address",
          "name": "recipient",
          "type": "address"
        },
        {
          "indexed": false,
          "internalType": "uint256",
          "name": "amount",
          "type": "uint256"
        }
      ],
      "name": "FeesWithdrawn",
      "type": "event"
    },
    {
      "anonymous": false,
      "inputs": [
        {
          "indexed": true,
          "internalType": "uint256",
          "name": "predictionId",
          "type": "uint256"
        },
        {
          "indexed": true,
          "internalType": "address",
          "name": "proposer",
          "type": "address"
        },
        {
          "indexed": true,
          "internalType": "address",
          "name": "bot",
          "type": "address"
        },
        {
          "indexed": false,
          "internalType": "string",
          "name": "title",
          "type": "string"
        },
        {
          "indexed": false,
          "internalType": "uint256",
          "name": "fee",
          "type": "uint256"
        }
      ],
      "name": "PredictionProposed",
      "type": "event"
    },
    {
      "inputs": [],
      "name": "MAX_PROPOSALS_PER_HOUR",
      "outputs": [
        {
          "internalType": "uint256",
          "name": "",
          "type": "uint256"
        }
      ],
      "stateMutability": "view",
      "type": "function"
    },
    {
      "inputs": [],
      "name": "RATE_LIMIT_WINDOW",
      "outputs": [
        {
          "internalType": "uint256",
          "name": "",
          "type": "uint256"
        }
      ],
      "stateMutability": "view",
      "type": "function"
    },
    {
      "inputs": [
        {
          "internalType": "address[]",
          "name": "bots",
          "type": "address[]"
        },
        {
          "internalType": "bool",
          "name": "authorized",
          "type": "bool"
        }
      ],
      "name": "authorizeBots",
      "outputs": [],
      "stateMutability": "nonpayable",
      "type": "function"
    },
    {
      "inputs": [
        {
          "internalType": "address",
          "name": "",
          "type": "address"
        }
      ],
      "name": "authorizedBots",
      "outputs": [
        {
          "internalType": "bool",
          "name": "",
          "type": "bool"
        }
      ],
      "stateMutability": "view",
      "type": "function"
    },
    {
      "inputs": [
        {
          "internalType": "address",
          "name": "user",
          "type": "address"
        }
      ],
      "name": "canUserPropose",
      "outputs": [
        {
          "internalType": "bool",
          "name": "",
          "type": "bool"
        }
      ],
      "stateMutability": "view",
      "type": "function"
    },
    {
      "inputs": [],
      "name": "emergencyWithdraw",
      "outputs": [],
      "stateMutability": "nonpayable",
      "type": "function"
    },
    {
      "inputs": [],
      "name": "feeRecipient",
      "outputs": [
        {
          "internalType": "address",
          "name": "",
          "type": "address"
        }
      ],
      "stateMutability": "view",
      "type": "function"
    },
    {
      "inputs": [],
      "name": "getPredictionMarketContract",
      "outputs": [
        {
          "internalType": "address",
          "name": "",
          "type": "address"
        }
      ],
      "stateMutability": "view",
      "type": "function"
    },
    {
      "inputs": [
        {
          "internalType": "address",
          "name": "user",
          "type": "address"
        }
      ],
      "name": "getUserRateLimit",
      "outputs": [
        {
          "internalType": "uint256",
          "name": "lastProposal",
          "type": "uint256"
        },
        {
          "internalType": "uint256",
          "name": "proposalCount",
          "type": "uint256"
        }
      ],
      "stateMutability": "view",
      "type": "function"
    },
    {
      "inputs": [],
      "name": "owner",
      "outputs": [
        {
          "internalType": "address",
          "name": "",
          "type": "address"
        }
      ],
      "stateMutability": "view",
      "type": "function"
    },
    {
      "inputs": [],
      "name": "paused",
      "outputs": [
        {
          "internalType": "bool",
          "name": "",
          "type": "bool"
        }
      ],
      "stateMutability": "view",
      "type": "function"
    },
    {
      "inputs": [],
      "name": "predictionMarketContract",
      "outputs": [
        {
          "internalType": "address",
          "name": "",
          "type": "address"
        }
      ],
      "stateMutability": "view",
      "type": "function"
    },
    {
      "inputs": [],
      "name": "proposalFee",
      "outputs": [
        {
          "internalType": "uint256",
          "name": "",
          "type": "uint256"
        }
      ],
      "stateMutability": "view",
      "type": "function"
    },
    {
      "inputs": [
        {
          "internalType": "string",
          "name": "title",
          "type": "string"
        },
        {
          "internalType": "string",
          "name": "description",
          "type": "string"
        },
        {
          "internalType": "uint256",
          "name": "targetDate",
          "type": "uint256"
        },
        {
          "internalType": "uint256",
          "name": "targetValue",
          "type": "uint256"
        },
        {
          "internalType": "uint8",
          "name": "category",
          "type": "uint8"
        },
        {
          "internalType": "string",
          "name": "network",
          "type": "string"
        },
        {
          "internalType": "string",
          "name": "emoji",
          "type": "string"
        },
        {
          "internalType": "bool",
          "name": "autoResolvable",
          "type": "bool"
        },
        {
          "internalType": "address",
          "name": "proposer",
          "type": "address"
        }
      ],
      "name": "proposePrediction",
      "outputs": [
        {
          "internalType": "uint256",
          "name": "",
          "type": "uint256"
        }
      ],
      "stateMutability": "payable",
      "type": "function"
    },
    {
      "inputs": [
        {
          "internalType": "string",
          "name": "predictionText",
          "type": "string"
        },
        {
          "internalType": "address",
          "name": "proposer",
          "type": "address"
        }
      ],
      "name": "proposePredictionFromText",
      "outputs": [
        {
          "internalType": "uint256",
          "name": "",
          "type": "uint256"
        }
      ],
      "stateMutability": "payable",
      "type": "function"
    },
    {
      "inputs": [
        {
          "internalType": "address",
          "name": "_feeRecipient",
          "type": "address"
        }
      ],
      "name": "setFeeRecipient",
      "outputs": [],
      "stateMutability": "nonpayable",
      "type": "function"
    },
    {
      "inputs": [
        {
          "internalType": "bool",
          "name": "_paused",
          "type": "bool"
        }
      ],
      "name": "setPaused",
      "outputs": [],
      "stateMutability": "nonpayable",
      "type": "function"
    },
    {
      "inputs": [
        {
          "internalType": "uint256",
          "name": "_newFee",
          "type": "uint256"
        }
      ],
      "name": "setProposalFee",
      "outputs": [],
      "stateMutability": "nonpayable",
      "type": "function"
    },
    {
      "inputs": [],
      "name": "totalFeesCollected",
      "outputs": [
        {
          "internalType": "uint256",
          "name": "",
          "type": "uint256"
        }
      ],
      "stateMutability": "view",
      "type": "function"
    },
    {
      "inputs": [
        {
          "internalType": "address",
          "name": "newOwner",
          "type": "address"
        }
      ],
      "name": "transferOwnership",
      "outputs": [],
      "stateMutability": "nonpayable",
      "type": "function"
    },
    {
      "inputs": [
        {
          "internalType": "address",
          "name": "",
          "type": "address"
        }
      ],
      "name": "userLastProposal",
      "outputs": [
        {
          "internalType": "uint256",
          "name": "",
          "type": "uint256"
        }
      ],
      "stateMutability": "view",
      "type": "function"
    },
    {
      "inputs": [
        {
          "internalType": "address",
          "name": "",
          "type": "address"
        }
      ],
      "name": "userProposalCount",
      "outputs": [
        {
          "internalType": "uint256",
          "name": "",
          "type": "uint256"
        }
      ],
      "stateMutability": "view",
      "type": "function"
    },
    {
      "inputs": [],
      "name": "withdrawFees",
      "outputs": [],
      "stateMutability": "nonpayable",
      "type": "function"
    },
    {
      "stateMutability": "payable",
      "type": "receive"
    }
  ],
  "bytecode": "0x6080346100d457601f61132738819003918201601f19168301916001600160401b038311848410176100d95780849260409485528339810103126100d45780516001600160a01b03811691908290036100d4576020015160018060a01b03199133836000541617600055826001541617600155600255339060085416176008553360005260046020526040600020600160ff19825416179055604051600181527f438f823d8c0ec910876fb79a928b3358ee7fec21cbcc944d2ff93233aa4eb98760203392a260405161123790816100f08239f35b600080fd5b634e487b7160e01b600052604160045260246000fdfe6080604052600436101561001b575b361561001957600080fd5b005b60003560e01c806310bf506814610ec157806316c38b3c14610e525780631cc53d4e14610e1857806320b1928e14610dfc578063211603c614610dc25780632f56c23014610a055780633ba8396e146109c6578063469048401461099d578063476343ee146108a65780635c975abb1461088357806360c6d8ae146108655780637130dfc9146108485780638da5cb5b1461081f57806397d9c14b146107d8578063b15a9dd21461023a578063ba98422d1461068f578063c27cabb514610671578063c320c327146105ee578063c4c3ab4c146102eb578063db2e21bc14610263578063e4b95fb21461023a578063e74b981b146101a65763f2fde38b0361000e57346101a15760203660031901126101a157610136610f22565b600054906001600160a01b0390610150338385161461116b565b16908115610168576001600160a01b03191617600055005b60405162461bcd60e51b815260206004820152601160248201527024b73b30b634b2103732bb9037bbb732b960791b6044820152606490fd5b600080fd5b346101a15760203660031901126101a1576101bf610f22565b6000546001600160a01b0391906101d9908316331461116b565b1680156101fd576bffffffffffffffffffffffff60a01b6008541617600855600080f35b60405162461bcd60e51b8152602060048201526015602482015274125b9d985b1a5908199959481c9958da5c1a595b9d605a1b6044820152606490fd5b346101a15760003660031901126101a1576001546040516001600160a01b039091168152602090f35b346101a15760003660031901126101a157600080548190819081906001600160a01b031661029233821461116b565b47905af161029e6111d1565b50156102a657005b60405162461bcd60e51b815260206004820152601b60248201527f456d657267656e6379207769746864726177616c206661696c656400000000006044820152606490fd5b6003196040368201126101a15760043567ffffffffffffffff81116101a157610318903690600401610f76565b6001600160a01b0391906024803584811691908290036101a157336000526020946004865261034e60ff60406000205416610fbd565b61035d60ff6003541615611001565b8260005260058652604060002054610e10908181018091116105d95742108015906105c2575b61038c9061104f565b61039a600254341015611091565b84511561057e576103ac8415156110d0565b836000526005875260406000205490810180911161056957421061054b578260005260068652600160406000205560058652426040600020555b6103f234600754611042565b600755600154169062278d00420194854211610536579161044b91600060808995604051998a96879563e8460ed960e01b8752610100600488015261043b61010488018d61112b565b908488830301908801528b61112b565b9060448601528360648601526003608486015284810391820160a486015260048152636261736560e01b88820152603c820160c486015260046040820152606063784fd24b60e11b9101528260e485015201925af192831561052a576000936104fb575b50827f0b36096524ff4c46f49a5811e01ea4e716749be63253dca5c2ac9dd2e706c7cf6104e76040519460408652604086019061112b565b9334878201528033950390a4604051908152f35b9092508381813d8311610523575b6105138183610f38565b810103126101a1575191846104af565b503d610509565b6040513d6000823e3d90fd5b50634e487b7160e01b60009081526011600452fd5b82600052600686526040600020610562815461111c565b90556103e6565b82634e487b7160e01b60005260116004526000fd5b60405162461bcd60e51b815260048101889052601f818501527f50726564696374696f6e20746578742063616e6e6f7420626520656d707479006044820152606490fd5b506000848152600688526040902054600511610383565b83634e487b7160e01b60005260116004526000fd5b346101a15760203660031901126101a1576001600160a01b0361060f610f22565b16806000526005602052604060002054610e10810180911161065b574210801590610642575b6020906040519015158152f35b5060005260066020526020600560406000205410610635565b634e487b7160e01b600052601160045260246000fd5b346101a15760003660031901126101a1576020600254604051908152f35b346101a15760403660031901126101a15760043567ffffffffffffffff8082116101a157366023830112156101a15781600401359081116107c2578060051b91604051926020926106e284830186610f38565b8452602483850191830101913683116101a157602401905b8282106107a3575050506024358015158091036101a1576000546001600160a01b03929061072b908416331461116b565b60ff82169060005b855181101561001957808561074b61079e93896111a7565b51166000526004835260406000208460ff198254161790558561076e82896111a7565b51167f438f823d8c0ec910876fb79a928b3358ee7fec21cbcc944d2ff93233aa4eb98784604051888152a261111c565b610733565b81356001600160a01b03811681036101a15781529083019083016106fa565b634e487b7160e01b600052604160045260246000fd5b346101a15760203660031901126101a1576001600160a01b036107f9610f22565b166000526005602052604080600020546006602052816000205482519182526020820152f35b346101a15760003660031901126101a1576000546040516001600160a01b039091168152602090f35b346101a15760003660031901126101a1576020604051610e108152f35b346101a15760003660031901126101a1576020600754604051908152f35b346101a15760003660031901126101a157602060ff600354166040519015158152f35b346101a15760003660031901126101a1576000546001600160a01b03906108d0908216331461116b565b479081156109625760008080808585600854165af16108ed6111d1565b50156109255760207fc0819c13be868895eb93e40eaceb96de976442fa1d404e5c55f14bb65a8c489a916008541692604051908152a2005b60405162461bcd60e51b8152602060048201526015602482015274119959481dda5d1a191c985dd85b0819985a5b1959605a1b6044820152606490fd5b60405162461bcd60e51b81526020600482015260136024820152724e6f206665657320746f20776974686472617760681b6044820152606490fd5b346101a15760003660031901126101a1576008546040516001600160a01b039091168152602090f35b346101a15760203660031901126101a1576001600160a01b036109e7610f22565b166000526004602052602060ff604060002054166040519015158152f35b6101203660031901126101a15767ffffffffffffffff6004358181116101a157610a33903690600401610f76565b6024358281116101a157610a4b903690600401610f76565b60843560ff811681036101a15760a4358481116101a157610a70903690600401610f76565b9360c4359081116101a157610a89903690600401610f76565b9060e4359283151584036101a15761010435936001600160a01b03851685036101a157336000526004602052610ac660ff60406000205416610fbd565b610ad560ff6003541615611001565b6001600160a01b038516600090815260056020526040902054610e108101811161065b57610e10014210801590610da0575b610b109061104f565b610b1e600254341015611091565b426044351115610d5157855115610d1457610b436001600160a01b03861615156110d0565b6001600160a01b038516600090815260056020526040902054610e108101811161065b57610e10014210610cea5760018060a01b038516600052600660205260016040600020556005602052426040600020555b3460075490610ba591611042565b60075560015460405163e8460ed960e01b81526101006004820152976001600160a01b039091169488948594919291610be261010487018b61112b565b868103600319016024880152610bf79161112b565b906044356044870152606435606487015260ff1660848601526003198582030160a4860152610c259161112b565b8381036003190160c4850152610c3a9161112b565b90151560e483015203815a602094600091f191821561052a57600092610cb5575b60209350827f0b36096524ff4c46f49a5811e01ea4e716749be63253dca5c2ac9dd2e706c7cf610c966040519360408552604085019061112b565b348785015233946001600160a01b0316939081900390a4604051908152f35b91506020833d602011610ce2575b81610cd060209383610f38565b810103126101a1576020925191610c5b565b3d9150610cc3565b6001600160a01b03851660009081526006602052604090208054610d0d9061111c565b9055610b97565b60405162461bcd60e51b81526020600482015260156024820152745469746c652063616e6e6f7420626520656d70747960581b6044820152606490fd5b60405162461bcd60e51b815260206004820152602160248201527f5461726765742064617465206d75737420626520696e207468652066757475726044820152606560f81b6064820152608490fd5b506001600160a01b038516600090815260066020526040902054600511610b07565b346101a15760203660031901126101a1576001600160a01b03610de3610f22565b1660005260066020526020604060002054604051908152f35b346101a15760003660031901126101a157602060405160058152f35b346101a15760203660031901126101a1576001600160a01b03610e39610f22565b1660005260056020526020604060002054604051908152f35b346101a15760203660031901126101a1576004358015158091036101a15760207f752d7e161ff5146f80e3820893176eb40532811e5e20400dfdde57455213706a91610ea960018060a01b0360005416331461116b565b60ff196003541660ff821617600355604051908152a1005b346101a15760203660031901126101a1577f528d9479e9f9889a87a3c30c7f7ba537e5e59c4c85a37733b16e57c62df613026040600435610f0d60018060a01b0360005416331461116b565b600254908060025582519182526020820152a1005b600435906001600160a01b03821682036101a157565b90601f8019910116810190811067ffffffffffffffff8211176107c257604052565b67ffffffffffffffff81116107c257601f01601f191660200190565b81601f820112156101a157803590610f8d82610f5a565b92610f9b6040519485610f38565b828452602083830101116101a157816000926020809301838601378301015290565b15610fc457565b60405162461bcd60e51b8152602060048201526015602482015274139bdd08185b88185d5d1a1bdc9a5e995908189bdd605a1b6044820152606490fd5b1561100857565b60405162461bcd60e51b815260206004820152601260248201527110dbdb9d1c9858dd081a5cc81c185d5cd95960721b6044820152606490fd5b9190820180921161065b57565b1561105657565b60405162461bcd60e51b815260206004820152601360248201527214985d19481b1a5b5a5d08195e18d959591959606a1b6044820152606490fd5b1561109857565b60405162461bcd60e51b815260206004820152601060248201526f496e73756666696369656e742066656560801b6044820152606490fd5b156110d757565b60405162461bcd60e51b815260206004820152601860248201527f496e76616c69642070726f706f736572206164647265737300000000000000006044820152606490fd5b600019811461065b5760010190565b919082519283825260005b848110611157575050826000602080949584010152601f8019910116010190565b602081830181015184830182015201611136565b1561117257565b60405162461bcd60e51b815260206004820152600d60248201526c2737ba103a34329037bbb732b960991b6044820152606490fd5b80518210156111bb5760209160051b010190565b634e487b7160e01b600052603260045260246000fd5b3d156111fc573d906111e282610f5a565b916111f06040519384610f38565b82523d6000602084013e565b60609056fea26469706673582212200dcdb565897f48c3412d6e9abe9a0440c2a8f28b6e6b30a66b69f08b71bd40ea64736f6c63430008140033",
  "linkReferences": {},
  "deployedLinkReferences": {}
}