{
  "_format": "hh-sol-artifact-1",
  "contractName": "ImperfectFormPredictionMarketV2Fixed",
  "sourceName": "contracts/ImperfectFormPredictionMarketV2Fixed.sol",
  "abi": [
    {
      "inputs": [
        {
          "internalType": "address",
          "name": "_charityAddress",
          "type": "address"
        },
        {
          "internalType": "address",
          "name": "_maintenanceAddress",
          "type": "address"
        },
        {
          "internalType": "uint256",
          "name": "_initialCharityFee",
          "type": "uint256"
        },
        {
          "internalType": "uint256",
          "name": "_initialMaintenanceFee",
          "type": "uint256"
        }
      ],
      "stateMutability": "nonpayable",
      "type": "constructor"
    },
    {
      "anonymous": false,
      "inputs": [
        {
          "indexed": true,
          "internalType": "uint256",
          "name": "predictionId",
          "type": "uint256"
        },
        {
          "indexed": true,
          "internalType": "address",
          "name": "charityAddress",
          "type": "address"
        },
        {
          "indexed": false,
          "internalType": "uint256",
          "name": "amount",
          "type": "uint256"
        }
      ],
      "name": "CharityDonation",
      "type": "event"
    },
    {
      "anonymous": false,
      "inputs": [
        {
          "indexed": false,
          "internalType": "uint256",
          "name": "newCharityFeePercentage",
          "type": "uint256"
        },
        {
          "indexed": false,
          "internalType": "uint256",
          "name": "newMaintenanceFeePercentage",
          "type": "uint256"
        }
      ],
      "name": "FeesUpdated",
      "type": "event"
    },
    {
      "anonymous": false,
      "inputs": [
        {
          "indexed": true,
          "internalType": "uint256",
          "name": "predictionId",
          "type": "uint256"
        },
        {
          "indexed": true,
          "internalType": "address",
          "name": "maintenanceAddress",
          "type": "address"
        },
        {
          "indexed": false,
          "internalType": "uint256",
          "name": "amount",
          "type": "uint256"
        }
      ],
      "name": "MaintenanceFee",
      "type": "event"
    },
    {
      "anonymous": false,
      "inputs": [
        {
          "indexed": true,
          "internalType": "address",
          "name": "previousOwner",
          "type": "address"
        },
        {
          "indexed": true,
          "internalType": "address",
          "name": "newOwner",
          "type": "address"
        }
      ],
      "name": "OwnershipTransferred",
      "type": "event"
    },
    {
      "anonymous": false,
      "inputs": [
        {
          "indexed": true,
          "internalType": "uint256",
          "name": "predictionId",
          "type": "uint256"
        }
      ],
      "name": "PredictionCancelled",
      "type": "event"
    },
    {
      "anonymous": false,
      "inputs": [
        {
          "indexed": true,
          "internalType": "uint256",
          "name": "id",
          "type": "uint256"
        },
        {
          "indexed": true,
          "internalType": "address",
          "name": "creator",
          "type": "address"
        },
        {
          "indexed": false,
          "internalType": "string",
          "name": "title",
          "type": "string"
        },
        {
          "indexed": false,
          "internalType": "uint256",
          "name": "targetDate",
          "type": "uint256"
        },
        {
          "indexed": false,
          "internalType": "uint8",
          "name": "category",
          "type": "uint8"
        },
        {
          "indexed": false,
          "internalType": "string",
          "name": "network",
          "type": "string"
        },
        {
          "indexed": false,
          "internalType": "bool",
          "name": "autoResolvable",
          "type": "bool"
        }
      ],
      "name": "PredictionCreated",
      "type": "event"
    },
    {
      "anonymous": false,
      "inputs": [
        {
          "indexed": true,
          "internalType": "uint256",
          "name": "predictionId",
          "type": "uint256"
        },
        {
          "indexed": false,
          "internalType": "uint8",
          "name": "outcome",
          "type": "uint8"
        }
      ],
      "name": "PredictionResolved",
      "type": "event"
    },
    {
      "anonymous": false,
      "inputs": [
        {
          "indexed": true,
          "internalType": "uint256",
          "name": "predictionId",
          "type": "uint256"
        },
        {
          "indexed": false,
          "internalType": "uint256",
          "name": "currentValue",
          "type": "uint256"
        }
      ],
      "name": "PredictionUpdated",
      "type": "event"
    },
    {
      "anonymous": false,
      "inputs": [
        {
          "indexed": true,
          "internalType": "uint256",
          "name": "predictionId",
          "type": "uint256"
        },
        {
          "indexed": true,
          "internalType": "address",
          "name": "user",
          "type": "address"
        },
        {
          "indexed": false,
          "internalType": "uint256",
          "name": "amount",
          "type": "uint256"
        }
      ],
      "name": "RefundClaimed",
      "type": "event"
    },
    {
      "anonymous": false,
      "inputs": [
        {
          "indexed": true,
          "internalType": "uint256",
          "name": "predictionId",
          "type": "uint256"
        },
        {
          "indexed": true,
          "internalType": "address",
          "name": "user",
          "type": "address"
        },
        {
          "indexed": false,
          "internalType": "uint256",
          "name": "amount",
          "type": "uint256"
        }
      ],
      "name": "RewardClaimed",
      "type": "event"
    },
    {
      "anonymous": false,
      "inputs": [
        {
          "indexed": true,
          "internalType": "uint256",
          "name": "predictionId",
          "type": "uint256"
        },
        {
          "indexed": true,
          "internalType": "address",
          "name": "voter",
          "type": "address"
        },
        {
          "indexed": false,
          "internalType": "bool",
          "name": "isYes",
          "type": "bool"
        },
        {
          "indexed": false,
          "internalType": "uint256",
          "name": "amountStakedNow",
          "type": "uint256"
        },
        {
          "indexed": false,
          "internalType": "uint256",
          "name": "totalUserStake",
          "type": "uint256"
        }
      ],
      "name": "VoteCast",
      "type": "event"
    },
    {
      "inputs": [],
      "name": "MAX_FEE_PERCENTAGE",
      "outputs": [
        {
          "internalType": "uint256",
          "name": "",
          "type": "uint256"
        }
      ],
      "stateMutability": "view",
      "type": "function"
    },
    {
      "inputs": [],
      "name": "PERCENTAGE_BASE",
      "outputs": [
        {
          "internalType": "uint256",
          "name": "",
          "type": "uint256"
        }
      ],
      "stateMutability": "view",
      "type": "function"
    },
    {
      "inputs": [
        {
          "internalType": "uint256",
          "name": "_predictionId",
          "type": "uint256"
        }
      ],
      "name": "autoResolvePrediction",
      "outputs": [],
      "stateMutability": "nonpayable",
      "type": "function"
    },
    {
      "inputs": [
        {
          "internalType": "uint256",
          "name": "_predictionId",
          "type": "uint256"
        }
      ],
      "name": "cancelPrediction",
      "outputs": [],
      "stateMutability": "nonpayable",
      "type": "function"
    },
    {
      "inputs": [],
      "name": "charityAddress",
      "outputs": [
        {
          "internalType": "address",
          "name": "",
          "type": "address"
        }
      ],
      "stateMutability": "view",
      "type": "function"
    },
    {
      "inputs": [],
      "name": "charityFeePercentage",
      "outputs": [
        {
          "internalType": "uint256",
          "name": "",
          "type": "uint256"
        }
      ],
      "stateMutability": "view",
      "type": "function"
    },
    {
      "inputs": [
        {
          "internalType": "uint256",
          "name": "_predictionId",
          "type": "uint256"
        }
      ],
      "name": "claimRefund",
      "outputs": [],
      "stateMutability": "nonpayable",
      "type": "function"
    },
    {
      "inputs": [
        {
          "internalType": "uint256",
          "name": "_predictionId",
          "type": "uint256"
        }
      ],
      "name": "claimReward",
      "outputs": [],
      "stateMutability": "nonpayable",
      "type": "function"
    },
    {
      "inputs": [
        {
          "internalType": "string",
          "name": "_title",
          "type": "string"
        },
        {
          "internalType": "string",
          "name": "_description",
          "type": "string"
        },
        {
          "internalType": "uint256",
          "name": "_targetDate",
          "type": "uint256"
        },
        {
          "internalType": "uint256",
          "name": "_targetValue",
          "type": "uint256"
        },
        {
          "internalType": "enum ImperfectFormPredictionMarketV2Fixed.Category",
          "name": "_category",
          "type": "uint8"
        },
        {
          "internalType": "string",
          "name": "_network",
          "type": "string"
        },
        {
          "internalType": "string",
          "name": "_emoji",
          "type": "string"
        },
        {
          "internalType": "bool",
          "name": "_autoResolvable",
          "type": "bool"
        }
      ],
      "name": "createPrediction",
      "outputs": [
        {
          "internalType": "uint256",
          "name": "",
          "type": "uint256"
        }
      ],
      "stateMutability": "nonpayable",
      "type": "function"
    },
    {
      "inputs": [
        {
          "internalType": "uint256",
          "name": "_predictionId",
          "type": "uint256"
        }
      ],
      "name": "getParticipants",
      "outputs": [
        {
          "internalType": "address[]",
          "name": "",
          "type": "address[]"
        }
      ],
      "stateMutability": "view",
      "type": "function"
    },
    {
      "inputs": [
        {
          "internalType": "uint256",
          "name": "_predictionId",
          "type": "uint256"
        }
      ],
      "name": "getPrediction",
      "outputs": [
        {
          "components": [
            {
              "internalType": "uint256",
              "name": "id",
              "type": "uint256"
            },
            {
              "internalType": "address",
              "name": "creator",
              "type": "address"
            },
            {
              "internalType": "string",
              "name": "title",
              "type": "string"
            },
            {
              "internalType": "string",
              "name": "description",
              "type": "string"
            },
            {
              "internalType": "uint256",
              "name": "targetDate",
              "type": "uint256"
            },
            {
              "internalType": "uint256",
              "name": "targetValue",
              "type": "uint256"
            },
            {
              "internalType": "uint256",
              "name": "currentValue",
              "type": "uint256"
            },
            {
              "internalType": "enum ImperfectFormPredictionMarketV2Fixed.Category",
              "name": "category",
              "type": "uint8"
            },
            {
              "internalType": "string",
              "name": "network",
              "type": "string"
            },
            {
              "internalType": "string",
              "name": "emoji",
              "type": "string"
            },
            {
              "internalType": "uint256",
              "name": "totalStaked",
              "type": "uint256"
            },
            {
              "internalType": "uint256",
              "name": "yesVotes",
              "type": "uint256"
            },
            {
              "internalType": "uint256",
              "name": "noVotes",
              "type": "uint256"
            },
            {
              "internalType": "enum ImperfectFormPredictionMarketV2Fixed.Status",
              "name": "status",
              "type": "uint8"
            },
            {
              "internalType": "enum ImperfectFormPredictionMarketV2Fixed.Outcome",
              "name": "outcome",
              "type": "uint8"
            },
            {
              "internalType": "uint256",
              "name": "createdAt",
              "type": "uint256"
            },
            {
              "internalType": "bool",
              "name": "autoResolvable",
              "type": "bool"
            }
          ],
          "internalType": "struct ImperfectFormPredictionMarketV2Fixed.Prediction",
          "name": "",
          "type": "tuple"
        }
      ],
      "stateMutability": "view",
      "type": "function"
    },
    {
      "inputs": [],
      "name": "getTotalFeePercentage",
      "outputs": [
        {
          "internalType": "uint256",
          "name": "",
          "type": "uint256"
        }
      ],
      "stateMutability": "view",
      "type": "function"
    },
    {
      "inputs": [],
      "name": "getTotalPredictions",
      "outputs": [
        {
          "internalType": "uint256",
          "name": "",
          "type": "uint256"
        }
      ],
      "stateMutability": "view",
      "type": "function"
    },
    {
      "inputs": [
        {
          "internalType": "uint256",
          "name": "_predictionId",
          "type": "uint256"
        },
        {
          "internalType": "address",
          "name": "_user",
          "type": "address"
        }
      ],
      "name": "getUserVote",
      "outputs": [
        {
          "components": [
            {
              "internalType": "bool",
              "name": "isYes",
              "type": "bool"
            },
            {
              "internalType": "uint256",
              "name": "amount",
              "type": "uint256"
            },
            {
              "internalType": "bool",
              "name": "claimed",
              "type": "bool"
            }
          ],
          "internalType": "struct ImperfectFormPredictionMarketV2Fixed.Vote",
          "name": "",
          "type": "tuple"
        }
      ],
      "stateMutability": "view",
      "type": "function"
    },
    {
      "inputs": [],
      "name": "maintenanceAddress",
      "outputs": [
        {
          "internalType": "address",
          "name": "",
          "type": "address"
        }
      ],
      "stateMutability": "view",
      "type": "function"
    },
    {
      "inputs": [],
      "name": "maintenanceFeePercentage",
      "outputs": [
        {
          "internalType": "uint256",
          "name": "",
          "type": "uint256"
        }
      ],
      "stateMutability": "view",
      "type": "function"
    },
    {
      "inputs": [],
      "name": "nextPredictionId",
      "outputs": [
        {
          "internalType": "uint256",
          "name": "",
          "type": "uint256"
        }
      ],
      "stateMutability": "view",
      "type": "function"
    },
    {
      "inputs": [],
      "name": "owner",
      "outputs": [
        {
          "internalType": "address",
          "name": "",
          "type": "address"
        }
      ],
      "stateMutability": "view",
      "type": "function"
    },
    {
      "inputs": [
        {
          "internalType": "uint256",
          "name": "",
          "type": "uint256"
        },
        {
          "internalType": "uint256",
          "name": "",
          "type": "uint256"
        }
      ],
      "name": "participants",
      "outputs": [
        {
          "internalType": "address",
          "name": "",
          "type": "address"
        }
      ],
      "stateMutability": "view",
      "type": "function"
    },
    {
      "inputs": [
        {
          "internalType": "uint256",
          "name": "",
          "type": "uint256"
        }
      ],
      "name": "predictions",
      "outputs": [
        {
          "internalType": "uint256",
          "name": "id",
          "type": "uint256"
        },
        {
          "internalType": "address",
          "name": "creator",
          "type": "address"
        },
        {
          "internalType": "string",
          "name": "title",
          "type": "string"
        },
        {
          "internalType": "string",
          "name": "description",
          "type": "string"
        },
        {
          "internalType": "uint256",
          "name": "targetDate",
          "type": "uint256"
        },
        {
          "internalType": "uint256",
          "name": "targetValue",
          "type": "uint256"
        },
        {
          "internalType": "uint256",
          "name": "currentValue",
          "type": "uint256"
        },
        {
          "internalType": "enum ImperfectFormPredictionMarketV2Fixed.Category",
          "name": "category",
          "type": "uint8"
        },
        {
          "internalType": "string",
          "name": "network",
          "type": "string"
        },
        {
          "internalType": "string",
          "name": "emoji",
          "type": "string"
        },
        {
          "internalType": "uint256",
          "name": "totalStaked",
          "type": "uint256"
        },
        {
          "internalType": "uint256",
          "name": "yesVotes",
          "type": "uint256"
        },
        {
          "internalType": "uint256",
          "name": "noVotes",
          "type": "uint256"
        },
        {
          "internalType": "enum ImperfectFormPredictionMarketV2Fixed.Status",
          "name": "status",
          "type": "uint8"
        },
        {
          "internalType": "enum ImperfectFormPredictionMarketV2Fixed.Outcome",
          "name": "outcome",
          "type": "uint8"
        },
        {
          "internalType": "uint256",
          "name": "createdAt",
          "type": "uint256"
        },
        {
          "internalType": "bool",
          "name": "autoResolvable",
          "type": "bool"
        }
      ],
      "stateMutability": "view",
      "type": "function"
    },
    {
      "inputs": [
        {
          "internalType": "uint256",
          "name": "_predictionId",
          "type": "uint256"
        },
        {
          "internalType": "enum ImperfectFormPredictionMarketV2Fixed.Outcome",
          "name": "_outcome",
          "type": "uint8"
        }
      ],
      "name": "resolvePrediction",
      "outputs": [],
      "stateMutability": "nonpayable",
      "type": "function"
    },
    {
      "inputs": [
        {
          "internalType": "address",
          "name": "_newOwner",
          "type": "address"
        }
      ],
      "name": "transferOwnership",
      "outputs": [],
      "stateMutability": "nonpayable",
      "type": "function"
    },
    {
      "inputs": [
        {
          "internalType": "address",
          "name": "_newCharityAddress",
          "type": "address"
        }
      ],
      "name": "updateCharityAddress",
      "outputs": [],
      "stateMutability": "nonpayable",
      "type": "function"
    },
    {
      "inputs": [
        {
          "internalType": "uint256",
          "name": "_newCharityFeePercentage",
          "type": "uint256"
        },
        {
          "internalType": "uint256",
          "name": "_newMaintenanceFeePercentage",
          "type": "uint256"
        }
      ],
      "name": "updateFeePercentages",
      "outputs": [],
      "stateMutability": "nonpayable",
      "type": "function"
    },
    {
      "inputs": [
        {
          "internalType": "address",
          "name": "_newMaintenanceAddress",
          "type": "address"
        }
      ],
      "name": "updateMaintenanceAddress",
      "outputs": [],
      "stateMutability": "nonpayable",
      "type": "function"
    },
    {
      "inputs": [
        {
          "internalType": "uint256",
          "name": "_predictionId",
          "type": "uint256"
        },
        {
          "internalType": "uint256",
          "name": "_currentValue",
          "type": "uint256"
        }
      ],
      "name": "updatePredictionValue",
      "outputs": [],
      "stateMutability": "nonpayable",
      "type": "function"
    },
    {
      "inputs": [
        {
          "internalType": "uint256",
          "name": "_predictionId",
          "type": "uint256"
        },
        {
          "internalType": "bool",
          "name": "_isYes",
          "type": "bool"
        }
      ],
      "name": "vote",
      "outputs": [],
      "stateMutability": "payable",
      "type": "function"
    },
    {
      "inputs": [
        {
          "internalType": "uint256",
          "name": "",
          "type": "uint256"
        },
        {
          "internalType": "address",
          "name": "",
          "type": "address"
        }
      ],
      "name": "votes",
      "outputs": [
        {
          "internalType": "bool",
          "name": "isYes",
          "type": "bool"
        },
        {
          "internalType": "uint256",
          "name": "amount",
          "type": "uint256"
        },
        {
          "internalType": "bool",
          "name": "claimed",
          "type": "bool"
        }
      ],
      "stateMutability": "view",
      "type": "function"
    }
  ],
  "bytecode": "0x6080346200027657601f62002a9a38819003918201601f191683019291906001600160401b038411838510176200027b5781608092849260409687528339810103126200027657620000518162000291565b90620000606020820162000291565b8382015160609092015160008054336001600160a01b031991821617909155600160055590936001600160a01b039081169283156200021c5716918215620001be5781600154161760015560025416176002556032620000c18383620002a6565b1162000170576064620000d58383620002a6565b10156200011757600355600455513360007f8be0079c531659141344cd1fd0a4f28419497f9722a3daafe3b4186f6b6457e08180a36127af9081620002cb8239f35b825162461bcd60e51b8152602060048201526038602482015260008051602062002a7a83398151915260448201527f732063616e6e6f742062652031303025206f72206d6f726500000000000000006064820152608490fd5b825162461bcd60e51b8152602060048201526032602482015260008051602062002a7a8339815191526044820152711cc8195e18d95959081b585e081b1a5b5a5d60721b6064820152608490fd5b855162461bcd60e51b815260206004820152603160248201527f496d70657266656374466f726d3a204d61696e74656e616e636520616464726560448201527073732063616e6e6f74206265207a65726f60781b6064820152608490fd5b865162461bcd60e51b815260206004820152602d60248201527f496d70657266656374466f726d3a20436861726974792061646472657373206360448201526c616e6e6f74206265207a65726f60981b6064820152608490fd5b600080fd5b634e487b7160e01b600052604160045260246000fd5b51906001600160a01b03821682036200027657565b91908201809211620002b457565b634e487b7160e01b600052601160045260246000fdfe60a0604052600436101561001257600080fd5b60003560e01c80624fbbb014611d9457806303c7881a14611cd3578063064367bb14611cb1578063275893a914611c0057806337a5025614611b5f578063558e44d314611b435780635b7baf64146119585780635c5800611461191c5780636896e930146118fe5780636aaea6dc146117db578063719d5f83146117b257806378578bb31461167c57806381fb1fb41461163257806387c139431461161657806389296738146114495780638da5cb5b14611420578063ae169a501461137a578063ae5a17a7146112cd578063afcf2fc4146112a4578063c1e3bd3e146111cf578063c9d27afe14610e13578063d23254b414610daa578063d424e5a014610cfa578063d8d9292e14610cdc578063e8460ed914610544578063e9e3e1ae14610526578063f2fde38b146104575763fe83bece1461014f57600080fd5b3461045257602036600319011261045257600435600061020060405161017481611f7d565b828152826020820152606060408201526060808201528260808201528260a08201528260c08201528260e082015260606101008201526060610120820152826101408201528261016082015282610180820152826101a0820152826101c0820152826101e08201520152600554811080610449575b6101f2906121e8565b600052600660205260406000206040519061020c82611f7d565b8054825260018101546001600160a01b0316602083015261022f60028201611fbc565b604083015261024060038201611fbc565b606083015260048101546080830152600581015460a0830152600681015460c083015260ff60078201541660048110156104335760ff91600f9160e085015261028b60088201611fbc565b61010085015261029d60098201611fbc565b610120850152600a810154610140850152600b810154610160850152600c81015461018085015282600d8201546102d58282166120af565b8181166101a08701526102ec828260081c166120af565b60081c166101c0850152600e8101546101e085015201541615156102008201526040518091602082528051602083015260018060a01b0360208201511660408301526102006103cc61034f60408401516102206060870152610240860190612062565b6103b561036e606086015192601f1993848983030160808a0152612062565b608086015160a088015260a086015160c088015260c086015160e088015261039f60e08701516101008901906120a2565b6101008601518388830301610120890152612062565b906101208501519086830301610140870152612062565b916101408101516101608501526101608101516101808501526101808101516101a08501526101a0810151610400816120af565b6101c08501526101c0810151610415816120af565b6101e08501526101e081015182850152015115156102208301520390f35b634e487b7160e01b600052602160045260246000fd5b508015156101e9565b600080fd5b34610452576020366003190112610452576104706120cf565b6000546001600160a01b038082169261048a338514612180565b169182156104c95782907f8be0079c531659141344cd1fd0a4f28419497f9722a3daafe3b4186f6b6457e0600080a36001600160a01b03191617600055005b60405162461bcd60e51b815260206004820152602f60248201527f496d70657266656374466f726d3a204e6577206f776e65722063616e6e6f742060448201526e6265207a65726f206164647265737360881b6064820152608490fd5b34610452576000366003190112610452576020600354604051908152f35b34610452576101003660031901126104525760043567ffffffffffffffff811161045257610576903690600401612129565b60243567ffffffffffffffff811161045257610596903690600401612129565b600460843510156104525760a43567ffffffffffffffff8111610452576105c1903690600401612129565b9160c43567ffffffffffffffff8111610452576105e2903690600401612129565b9160e435151560e4350361045257815115610c8b57426044351115610c2d57600554926000198414610c17576001840160055583600052600660205260406000209184835560018301336001600160601b0360a01b825416179055835167ffffffffffffffff81116109b35761065b6002850154611f27565b601f8111610bd0575b50806020601f8211600114610b6357600091610b58575b508160011b916000199060031b1c19161760028401555b80519067ffffffffffffffff82116109b35781906106b36003860154611f27565b601f8111610b05575b50602090601f8311600114610a9357600092610a88575b50508160011b916000199060031b1c19161760038301555b6044356004830155606435600583015560ff1960078301541660ff60843516176007830155845167ffffffffffffffff81116109b35761072e6008840154611f27565b601f8111610a41575b50806020601f82116001146109d4576000916109c9575b508160011b916000199060031b1c19161760088301555b80519067ffffffffffffffff82116109b3576107846009840154611f27565b601f811161096c575b50916020959185938790601f83116001146108d25792827fc5b70e84363d6544e1390754a4cb2da48e3414541dd74c3591668481fa7a365b959361081993610870966000926108c7575b50508160011b916000199060031b1c19161760098201555b600d810160ff19815416905542600e820155600f60e43591019060ff801983541691151516179055565b8360005260098752604060002033600052875260ff6040600020541615610889575b6108506040519560a0875260a0870190612062565b906044358887015260ff6084351660408701528582036060870152612062565b9260e435151560808201528033940390a3604051908152f35b836000526008875261089f3360406000206122ae565b836000526009875260406000203360005287526040600020600160ff1982541617905561083b565b015190508b806107d7565b9060098401600052886000209160005b601f19851681106109525750836108199361087096936001937fc5b70e84363d6544e1390754a4cb2da48e3414541dd74c3591668481fa7a365b9997601f19811610610939575b505050811b0160098201556107ef565b015160001960f88460031b161c191690558b8080610929565b818301518455899750600190930192918a01918a016108e2565b600984016000526020600020601f840160051c8101602085106109ac575b601f830160051c820181106109a057505061078d565b6000815560010161098a565b508061098a565b634e487b7160e01b600052604160045260246000fd5b90508601518761074e565b91506008840160005260206000206000925b601f1983168410610a29576001935082601f19811610610a10575b5050811b016008830155610765565b88015160001960f88460031b161c191690558780610a01565b888101518255602093840193600190920191016109e6565b600884016000526020600020601f830160051c810160208410610a81575b601f830160051c82018110610a75575050610737565b60008155600101610a5f565b5080610a5f565b0151905087806106d3565b9250600385016000526020600020906000935b601f1984168510610aea576001945083601f19811610610ad1575b505050811b0160038301556106eb565b015160001960f88460031b161c19169055878080610ac1565b81810151835560209485019460019093019290910190610aa6565b909150600385016000526020600020601f840160051c810160208510610b51575b90849392915b601f830160051c82018110610b425750506106bc565b60008155859450600101610b2c565b5080610b26565b90508501518861067b565b91506002850160005260206000206000925b601f1983168410610bb8576001935082601f19811610610b9f575b5050811b016002840155610692565b87015160001960f88460031b161c191690558880610b90565b87810151825560209384019360019092019101610b75565b600285016000526020600020601f830160051c810160208410610c10575b601f830160051c82018110610c04575050610664565b60008155600101610bee565b5080610bee565b634e487b7160e01b600052601160045260246000fd5b60405162461bcd60e51b815260206004820152603060248201527f496d70657266656374466f726d3a205461726765742064617465206d7573742060448201526f626520696e207468652066757475726560801b6064820152608490fd5b60405162461bcd60e51b8152602060048201526024808201527f496d70657266656374466f726d3a205469746c652063616e6e6f7420626520656044820152636d70747960e01b6064820152608490fd5b34610452576000366003190112610452576020600554604051908152f35b3461045257602036600319011261045257600435610d2360018060a01b03600054163314612180565b600554811080610da1575b610d37906121e8565b806000526006602052610d5e60ff600d6040600020015416610d58816120af565b15612245565b806000526006602052600d604060002001600260ff198254161790557faf9d749692c27edb73692839024a98f047b114c6fd450acf3c702120928a2be2600080a2005b50801515610d2e565b3461045257604036600319011261045257610dc36120b9565b600435600052600760205260406000209060018060a01b03166000526020526060604060002060ff8154169060ff6002600183015492015416906040519215158352602083015215156040820152f35b6040366003190112610452576004356024359081151591828103610452576005548210806111c6575b610e45906121e8565b8160005260209060068252610e6860ff600d6040600020015416610d58816120af565b826000526006825260046040600020015442101561116857341561110d5782600052600682526040600020906007835260406000203360005283526040600020906001820192835490600a8101610ec03482546121db565b905582156110f757600b8101610ed73482546121db565b90555b811515806110e7575b610fb2575b5050815490151560ff1660ff19919091161781556002905b610f0b3484546121db565b83550160ff19908181541690558360005260098352604060002033600052835260ff6040600020541615610f75575b505490604051938452349084015260408301527f77a255f45c79d26605c257d8dfc37f9a619f53963ddbed1e95aa0aab1c801cee60603393a3005b8360005260088352610f8b3360406000206122ae565b83600052600983526040600020336000528352600160406000209182541617905584610f3a565b835460ff161561105957600b81018054838110610ff757600c60029695938593610fe2610f0097610fed956122ee565b9055019182546121db565b90555b9192610ee8565b60405162461bcd60e51b815260048101899052603460248201527f496d70657266656374466f726d3a20496e73756666696369656e742059455320604482015273706f6f6c20666f7220766f7465206368616e676560601b6064820152608490fd5b600c8101805483811061108657600b60029695938593610fe2610f009761107f956122ee565b9055610ff0565b60405162461bcd60e51b815260048101899052603360248201527f496d70657266656374466f726d3a20496e73756666696369656e74204e4f20706044820152726f6f6c20666f7220766f7465206368616e676560681b6064820152608490fd5b508760ff85541615151415610ee3565b600c81016111063482546121db565b9055610eda565b60405162461bcd60e51b815260048101839052602d60248201527f496d70657266656374466f726d3a204d757374207374616b6520736f6d65206160448201526c6d6f756e7420746f20766f746560981b6064820152608490fd5b60405162461bcd60e51b815260048101839052603060248201527f496d70657266656374466f726d3a2050726564696374696f6e2068617320657860448201526f706972656420666f7220766f74696e6760801b6064820152608490fd5b50811515610e3c565b34610452576020806003193601126104525760043560055481108061129b575b6111f8906121e8565b60005260088152604060002060405190818382549182815201908192600052846000209060005b8682821061127e57868661123582880383611f9a565b604051928392818401908285525180915260408401929160005b82811061125e57505050500390f35b83516001600160a01b03168552869550938101939281019260010161124f565b83546001600160a01b03168552909301926001928301920161121f565b508015156111ef565b34610452576000366003190112610452576001546040516001600160a01b039091168152602090f35b34610452576020366003190112610452576112e66120cf565b6000546001600160a01b0391906113009083163314612180565b16801561131f576001600160601b0360a01b6001541617600155600080f35b60405162461bcd60e51b815260206004820152602d60248201527f496d70657266656374466f726d3a20436861726974792061646472657373206360448201526c616e6e6f74206265207a65726f60981b6064820152608490fd5b3461045257602036600319011261045257600435600554811080611417575b6113a2906121e8565b806000526006602052600160ff600d60406000200154166113c2816120af565b036113d2576113d09061230e565b005b60405162461bcd60e51b8152602060048201526029602482015260008051602061275a833981519152604482015268081c995cdbdb1d995960ba1b6064820152608490fd5b50801515611399565b34610452576000366003190112610452576000546040516001600160a01b039091168152602090f35b3461045257602080600319360112610452576004359060055482108061160d575b611473906121e8565b816000526006815261149360ff600d6040600020015416610d58816120af565b816000526006815260406000209060ff600f83015416156115c257600482015442111561156857600260ff600784015416926004841015610433577fa04cc8b95d889d00fb177cca0ed67477aef48c963dfbc778e45e8e8b8dfcc59d93158061155b575b611529575b81600d6115149201600160ff1982541617815561228f565b61151d816120af565b60ff60405191168152a2005b80600d92600661151493015460058301541115600014611553575060019283915b925050506114fc565b92839161154a565b50600581015415156114f7565b6084906040519062461bcd60e51b82526004820152602d60248201527f496d70657266656374466f726d3a20546172676574206461746520686173206e60448201526c1bdd081c185cdcd959081e595d609a1b6064820152fd5b6084906040519062461bcd60e51b825260048201526030602482015260008051602061275a83398151915260448201526f206175746f2d7265736f6c7661626c6560801b6064820152fd5b5081151561146a565b3461045257600036600319011261045257602060405160648152f35b3461045257611640366120e5565b9060005260086020526040600020805482101561045257602091611663916120fb565b905460405160039290921b1c6001600160a01b03168152f35b346104525761168a366120e5565b61169f60018060a01b03600054163314612180565b60326116ab82846121db565b1161175a5760646116bc82846121db565b10156116fc57816040917f5c6323bf1c2d7aaea2c091a4751c1c87af7f2864650c336507a77d0557af37a1936003558060045582519182526020820152a1005b60405162461bcd60e51b815260206004820152603060248201527f496d70657266656374466f726d3a20546f74616c20666565732063616e6e6f7460448201526f2062652031303025206f72206d6f726560801b6064820152608490fd5b60405162461bcd60e51b815260206004820152602a60248201527f496d70657266656374466f726d3a20546f74616c206665657320657863656564604482015269081b585e081b1a5b5a5d60b21b6064820152608490fd5b34610452576000366003190112610452576002546040516001600160a01b039091168152602090f35b346104525760403660031901126104525760043560243560038110156104525761181060018060a01b03600054163314612180565b6005548210806118f5575b611824906121e8565b81600052600660205261184560ff600d6040600020015416610d58816120af565b61184e816120af565b801561189c5760207fa04cc8b95d889d00fb177cca0ed67477aef48c963dfbc778e45e8e8b8dfcc59d91836000526006825261151481600d604060002001600160ff1982541617815561228f565b60405162461bcd60e51b815260206004820152602b60248201527f496d70657266656374466f726d3a2043616e6e6f74207265736f6c766520746f60448201526a081553949154d3d315915160aa1b6064820152608490fd5b5081151561181b565b34610452576000366003190112610452576020600454604051908152f35b3461045257600036600319011261045257600554801561194e576000198101908111610c17576020905b604051908152f35b5060206000611946565b346104525760208060031936011261045257600435600554811080611b3a575b611981906121e8565b8060005260068252600260ff600d60406000200154166119a0816120af565b03611af457806000526007825260406000203360005282526040600020916001830154928315611a9257600201805460ff8116611a275760ff191660011790556000808080863382f115611a1b577ff3f402280ef0a7905e124aa621b65eaeb2725c343e8b36d398ed78c29daf285c906040519384523393a3005b6040513d6000823e3d90fd5b60405162461bcd60e51b815260048101849052603960248201527f496d70657266656374466f726d3a20526566756e6420616c726561647920636c60448201527f61696d6564206f72207265776172642070726f636573736564000000000000006064820152608490fd5b60405162461bcd60e51b815260048101839052603460248201527f496d70657266656374466f726d3a204e6f20766f746520666f756e6420666f72604482015273081d1a1a5cc81d5cd95c881d1bc81c99599d5b9960621b6064820152608490fd5b60405162461bcd60e51b815260048101839052602a602482015260008051602061275a8339815191526044820152690818d85b98d95b1b195960b21b6064820152608490fd5b50801515611978565b3461045257600036600319011261045257602060405160328152f35b346104525760207fa3a65c2c82e33077bfdc2c14360c64d9b5ef2aaf53c60c614b4d63922dbbd93e611b90366120e5565b611ba860018060a09694961b03600054163314612180565b600554841080611bf7575b611bbc906121e8565b8360005260068252611bdc60ff600d6040600020015416610d58816120af565b836000526006825280600660406000200155604051908152a2005b50831515611bb3565b3461045257602036600319011261045257611c196120cf565b6000546001600160a01b039190611c339083163314612180565b168015611c52576001600160601b0360a01b6002541617600255600080f35b60405162461bcd60e51b815260206004820152603160248201527f496d70657266656374466f726d3a204d61696e74656e616e636520616464726560448201527073732063616e6e6f74206265207a65726f60781b6064820152608490fd5b34610452576000366003190112610452576020611946600354600454906121db565b3461045257604036600319011261045257600435611cef6120b9565b90600060408051611cff81611f61565b8281528260208201520152600554811080611d8b575b611d1e906121e8565b600052600760205260406000209060018060a01b031660005260205260606040600020604051611d4d81611f61565b60ff825416151591828252604060ff600260018401549360208601948552015416920191151582526040519283525160208301525115156040820152f35b50801515611d15565b34610452576020366003190112610452576004356000908152600660205260409020805460018201546001600160a01b031691611dd360028201611fbc565b92611de060038301611fbc565b93600483015494600584015495600685015490600786015460ff169060088701611e0990611fbc565b91611e1660098901611fbc565b93600a8901549a600b8a015496600c8b015498600d8c01549a600e8d01549c600f015460ff169d604051806080525260805160200152610220806080516040015260805101611e6491612062565b6080518082039060600152611e7891612062565b936080516080015260805160a0015260805160c0015260805160e001611e9d916120a2565b608051808203906101000152611eb291612062565b608051808203906101200152611ec791612062565b9560805161014001526080516101600152608051610180015260ff8116611eed816120af565b6080516101a0015260081c60ff16611f04816120af565b6080516101c001526080516101e001521515608051610200015260805180910390f35b90600182811c92168015611f57575b6020831014611f4157565b634e487b7160e01b600052602260045260246000fd5b91607f1691611f36565b6060810190811067ffffffffffffffff8211176109b357604052565b610220810190811067ffffffffffffffff8211176109b357604052565b90601f8019910116810190811067ffffffffffffffff8211176109b357604052565b9060405191826000825492611fd084611f27565b90818452600194858116908160001461203f5750600114611ffc575b5050611ffa92500383611f9a565b565b9093915060005260209081600020936000915b818310612027575050611ffa93508201013880611fec565b8554888401850152948501948794509183019161200f565b915050611ffa94506020925060ff191682840152151560051b8201013880611fec565b919082519283825260005b84811061208e575050826000602080949584010152601f8019910116010190565b60208183018101518483018201520161206d565b9060048210156104335752565b6003111561043357565b602435906001600160a01b038216820361045257565b600435906001600160a01b038216820361045257565b6040906003190112610452576004359060243590565b80548210156121135760005260206000200190600090565b634e487b7160e01b600052603260045260246000fd5b81601f820112156104525780359067ffffffffffffffff82116109b3576040519261215e601f8401601f191660200185611f9a565b8284526020838301011161045257816000926020809301838601378301015290565b1561218757565b60405162461bcd60e51b815260206004820152602660248201527f496d70657266656374466f726d3a2043616c6c6572206973206e6f74207468656044820152651037bbb732b960d11b6064820152608490fd5b91908201809211610c1757565b156121ef57565b60405162461bcd60e51b815260206004820152602860248201527f496d70657266656374466f726d3a2050726564696374696f6e20646f6573206e6044820152671bdd08195e1a5cdd60c21b6064820152608490fd5b1561224c57565b60405162461bcd60e51b8152602060048201526027602482015260008051602061275a8339815191526044820152662061637469766560c81b6064820152608490fd5b90612299816120af565b61ff0082549160081b169061ff001916179055565b8054680100000000000000008110156109b3576122d0916001820181556120fb565b819291549060031b9160018060a01b03809116831b921b1916179055565b91908203918211610c1757565b81810292918115918404141715610c1757565b600090808252602060068152604080842093600783528181203382528352818120946001958681015490811561270257600281019081549160ff83166126985789600d86019360ff855460081c1693612366856120af565b828514948561268c575b851561265f575b505060ff19161790551561262e5760ff88915460081c16612397816120af565b0361262357600b820154915b821561259e57600a01546123b6916122fb565b0460646123c5600354836122fb565b0460646123d4600454846122fb565b04916123e083836121db565b9081811061254657906123f2916122ee565b9681159081156124de575b50505080158015612475575b505084158015612442575b5050907f24b5efa61dd1cfc659205a97fb8ed868f3cb8c81922bab2b96423e5de1de2cb791519384523393a3565b819086829161246b575b8280929181923390f1156124605780612414565b9051903d90823e3d90fd5b6108fc915061244c565b828080808560018060a01b039586600254169083906124d5575bf1156124cb577f4f74fd430ecc4bc832d1c0f6568d7ecf27f3e0abcf81385ef346c93b2ef7588e85879260025416938651908152a33880612409565b83513d84823e3d90fd5b506108fc61248f565b848080808660018060a01b03968787541690839061253d575bf115612533578688927fa83b61ed3e79e291a0126b12792f207ce9b4fe8d4098b8ccee67291d9ce9d92f925416938751908152a33880806123fd565b85513d86823e3d90fd5b506108fc6124f7565b855162461bcd60e51b815260048101889052602b60248201527f496d70657266656374466f726d3a2046656573206578636565642063616c637560448201526a6c6174656420736861726560a81b6064820152608490fd5b845162461bcd60e51b815260048101879052605260248201527f496d70657266656374466f726d3a204e6f2077696e6e696e67207374616b657360448201527f20706f6f6c202873686f756c64206e6f742068617070656e206966207573657260648201527120636c61696d7320636f72726563746c792960701b608482015260a490fd5b600c820154916123a3565b5050509350907f24b5efa61dd1cfc659205a97fb8ed868f3cb8c81922bab2b96423e5de1de2cb791519384523393a3565b60029192955061266e816120af565b14908161267f575b50923880612377565b60ff915054161538612676565b815460ff169550612370565b865162461bcd60e51b815260048101899052603960248201527f496d70657266656374466f726d3a2052657761726420616c726561647920636c60448201527f61696d6564206f7220726566756e642070726f636573736564000000000000006064820152608490fd5b845162461bcd60e51b815260048101879052602a60248201527f496d70657266656374466f726d3a204e6f20766f746520666f756e6420666f72604482015269103a3434b9903ab9b2b960b11b6064820152608490fdfe496d70657266656374466f726d3a2050726564696374696f6e206973206e6f74a264697066735822122048cea881e06c8f42b1be3790052a1af5f37e0dcd3ad4aab442153dbb2c9499be64736f6c63430008130033496d70657266656374466f726d3a20496e697469616c20746f74616c20666565",
  "linkReferences": {},
  "deployedLinkReferences": {}
}