{
  "_format": "hh-sol-artifact-1",
  "contractName": "SweatEquityBot",
  "sourceName": "contracts/SweatEquityBot.sol",
  "abi": [
    {
      "inputs": [
        {
          "internalType": "address",
          "name": "_predictionMarket",
          "type": "address"
        }
      ],
      "stateMutability": "nonpayable",
      "type": "constructor"
    },
    {
      "inputs": [
        {
          "internalType": "address",
          "name": "sender",
          "type": "address"
        },
        {
          "internalType": "uint256",
          "name": "tokenId",
          "type": "uint256"
        },
        {
          "internalType": "address",
          "name": "owner",
          "type": "address"
        }
      ],
      "name": "ERC721IncorrectOwner",
      "type": "error"
    },
    {
      "inputs": [
        {
          "internalType": "address",
          "name": "operator",
          "type": "address"
        },
        {
          "internalType": "uint256",
          "name": "tokenId",
          "type": "uint256"
        }
      ],
      "name": "ERC721InsufficientApproval",
      "type": "error"
    },
    {
      "inputs": [
        {
          "internalType": "address",
          "name": "approver",
          "type": "address"
        }
      ],
      "name": "ERC721InvalidApprover",
      "type": "error"
    },
    {
      "inputs": [
        {
          "internalType": "address",
          "name": "operator",
          "type": "address"
        }
      ],
      "name": "ERC721InvalidOperator",
      "type": "error"
    },
    {
      "inputs": [
        {
          "internalType": "address",
          "name": "owner",
          "type": "address"
        }
      ],
      "name": "ERC721InvalidOwner",
      "type": "error"
    },
    {
      "inputs": [
        {
          "internalType": "address",
          "name": "receiver",
          "type": "address"
        }
      ],
      "name": "ERC721InvalidReceiver",
      "type": "error"
    },
    {
      "inputs": [
        {
          "internalType": "address",
          "name": "sender",
          "type": "address"
        }
      ],
      "name": "ERC721InvalidSender",
      "type": "error"
    },
    {
      "inputs": [
        {
          "internalType": "uint256",
          "name": "tokenId",
          "type": "uint256"
        }
      ],
      "name": "ERC721NonexistentToken",
      "type": "error"
    },
    {
      "inputs": [
        {
          "internalType": "address",
          "name": "owner",
          "type": "address"
        }
      ],
      "name": "OwnableInvalidOwner",
      "type": "error"
    },
    {
      "inputs": [
        {
          "internalType": "address",
          "name": "account",
          "type": "address"
        }
      ],
      "name": "OwnableUnauthorizedAccount",
      "type": "error"
    },
    {
      "inputs": [],
      "name": "ReentrancyGuardReentrantCall",
      "type": "error"
    },
    {
      "anonymous": false,
      "inputs": [
        {
          "indexed": true,
          "internalType": "address",
          "name": "owner",
          "type": "address"
        },
        {
          "indexed": true,
          "internalType": "address",
          "name": "approved",
          "type": "address"
        },
        {
          "indexed": true,
          "internalType": "uint256",
          "name": "tokenId",
          "type": "uint256"
        }
      ],
      "name": "Approval",
      "type": "event"
    },
    {
      "anonymous": false,
      "inputs": [
        {
          "indexed": true,
          "internalType": "address",
          "name": "owner",
          "type": "address"
        },
        {
          "indexed": true,
          "internalType": "address",
          "name": "operator",
          "type": "address"
        },
        {
          "indexed": false,
          "internalType": "bool",
          "name": "approved",
          "type": "bool"
        }
      ],
      "name": "ApprovalForAll",
      "type": "event"
    },
    {
      "anonymous": false,
      "inputs": [
        {
          "indexed": true,
          "internalType": "string",
          "name": "network",
          "type": "string"
        },
        {
          "indexed": false,
          "internalType": "address",
          "name": "contractAddress",
          "type": "address"
        }
      ],
      "name": "FitnessContractUpdated",
      "type": "event"
    },
    {
      "anonymous": false,
      "inputs": [
        {
          "indexed": true,
          "internalType": "address",
          "name": "previousOwner",
          "type": "address"
        },
        {
          "indexed": true,
          "internalType": "address",
          "name": "newOwner",
          "type": "address"
        }
      ],
      "name": "OwnershipTransferred",
      "type": "event"
    },
    {
      "anonymous": false,
      "inputs": [
        {
          "indexed": true,
          "internalType": "uint256",
          "name": "challengeId",
          "type": "uint256"
        },
        {
          "indexed": true,
          "internalType": "uint256",
          "name": "predictionId",
          "type": "uint256"
        },
        {
          "indexed": true,
          "internalType": "address",
          "name": "user",
          "type": "address"
        },
        {
          "indexed": false,
          "internalType": "uint256",
          "name": "recoverableAmount",
          "type": "uint256"
        },
        {
          "indexed": false,
          "internalType": "uint8",
          "name": "exerciseType",
          "type": "uint8"
        },
        {
          "indexed": false,
          "internalType": "uint256",
          "name": "targetAmount",
          "type": "uint256"
        },
        {
          "indexed": false,
          "internalType": "uint256",
          "name": "baselineAmount",
          "type": "uint256"
        }
      ],
      "name": "SweatEquityChallengeCreated",
      "type": "event"
    },
    {
      "anonymous": false,
      "inputs": [
        {
          "indexed": true,
          "internalType": "uint256",
          "name": "challengeId",
          "type": "uint256"
        },
        {
          "indexed": true,
          "internalType": "address",
          "name": "user",
          "type": "address"
        },
        {
          "indexed": false,
          "internalType": "uint256",
          "name": "amount",
          "type": "uint256"
        }
      ],
      "name": "SweatEquityClaimed",
      "type": "event"
    },
    {
      "anonymous": false,
      "inputs": [
        {
          "indexed": true,
          "internalType": "uint256",
          "name": "challengeId",
          "type": "uint256"
        },
        {
          "indexed": true,
          "internalType": "address",
          "name": "user",
          "type": "address"
        },
        {
          "indexed": false,
          "internalType": "uint256",
          "name": "finalExerciseCount",
          "type": "uint256"
        },
        {
          "indexed": false,
          "internalType": "uint256",
          "name": "timestamp",
          "type": "uint256"
        }
      ],
      "name": "SweatEquityCompleted",
      "type": "event"
    },
    {
      "anonymous": false,
      "inputs": [
        {
          "indexed": true,
          "internalType": "address",
          "name": "from",
          "type": "address"
        },
        {
          "indexed": true,
          "internalType": "address",
          "name": "to",
          "type": "address"
        },
        {
          "indexed": true,
          "internalType": "uint256",
          "name": "tokenId",
          "type": "uint256"
        }
      ],
      "name": "Transfer",
      "type": "event"
    },
    {
      "stateMutability": "payable",
      "type": "fallback"
    },
    {
      "inputs": [],
      "name": "CHARITY_FEE_PERCENT",
      "outputs": [
        {
          "internalType": "uint256",
          "name": "",
          "type": "uint256"
        }
      ],
      "stateMutability": "view",
      "type": "function"
    },
    {
      "inputs": [],
      "name": "MAINTENANCE_FEE_PERCENT",
      "outputs": [
        {
          "internalType": "uint256",
          "name": "",
          "type": "uint256"
        }
      ],
      "stateMutability": "view",
      "type": "function"
    },
    {
      "inputs": [],
      "name": "RECOVERABLE_PERCENT",
      "outputs": [
        {
          "internalType": "uint256",
          "name": "",
          "type": "uint256"
        }
      ],
      "stateMutability": "view",
      "type": "function"
    },
    {
      "inputs": [],
      "name": "SWEAT_EQUITY_WINDOW",
      "outputs": [
        {
          "internalType": "uint256",
          "name": "",
          "type": "uint256"
        }
      ],
      "stateMutability": "view",
      "type": "function"
    },
    {
      "inputs": [
        {
          "internalType": "address",
          "name": "to",
          "type": "address"
        },
        {
          "internalType": "uint256",
          "name": "tokenId",
          "type": "uint256"
        }
      ],
      "name": "approve",
      "outputs": [],
      "stateMutability": "nonpayable",
      "type": "function"
    },
    {
      "inputs": [
        {
          "internalType": "address",
          "name": "owner",
          "type": "address"
        }
      ],
      "name": "balanceOf",
      "outputs": [
        {
          "internalType": "uint256",
          "name": "",
          "type": "uint256"
        }
      ],
      "stateMutability": "view",
      "type": "function"
    },
    {
      "inputs": [
        {
          "internalType": "uint256",
          "name": "challengeId",
          "type": "uint256"
        }
      ],
      "name": "canCompleteChallenge",
      "outputs": [
        {
          "internalType": "bool",
          "name": "",
          "type": "bool"
        }
      ],
      "stateMutability": "view",
      "type": "function"
    },
    {
      "inputs": [
        {
          "internalType": "uint256",
          "name": "predictionId",
          "type": "uint256"
        },
        {
          "internalType": "address",
          "name": "user",
          "type": "address"
        }
      ],
      "name": "canCreateSweatEquity",
      "outputs": [
        {
          "internalType": "bool",
          "name": "",
          "type": "bool"
        }
      ],
      "stateMutability": "view",
      "type": "function"
    },
    {
      "inputs": [
        {
          "internalType": "uint256",
          "name": "challengeId",
          "type": "uint256"
        }
      ],
      "name": "claimSweatEquity",
      "outputs": [],
      "stateMutability": "nonpayable",
      "type": "function"
    },
    {
      "inputs": [
        {
          "internalType": "uint256",
          "name": "predictionId",
          "type": "uint256"
        },
        {
          "internalType": "uint8",
          "name": "exerciseType",
          "type": "uint8"
        },
        {
          "internalType": "uint256",
          "name": "targetAmount",
          "type": "uint256"
        }
      ],
      "name": "createSweatEquityChallenge",
      "outputs": [],
      "stateMutability": "nonpayable",
      "type": "function"
    },
    {
      "inputs": [],
      "name": "emergencyWithdraw",
      "outputs": [],
      "stateMutability": "nonpayable",
      "type": "function"
    },
    {
      "inputs": [
        {
          "internalType": "string",
          "name": "",
          "type": "string"
        }
      ],
      "name": "fitnessContracts",
      "outputs": [
        {
          "internalType": "address",
          "name": "",
          "type": "address"
        }
      ],
      "stateMutability": "view",
      "type": "function"
    },
    {
      "inputs": [
        {
          "internalType": "uint256",
          "name": "tokenId",
          "type": "uint256"
        }
      ],
      "name": "getApproved",
      "outputs": [
        {
          "internalType": "address",
          "name": "",
          "type": "address"
        }
      ],
      "stateMutability": "view",
      "type": "function"
    },
    {
      "inputs": [
        {
          "internalType": "uint256",
          "name": "challengeId",
          "type": "uint256"
        }
      ],
      "name": "getChallenge",
      "outputs": [
        {
          "components": [
            {
              "internalType": "uint256",
              "name": "predictionId",
              "type": "uint256"
            },
            {
              "internalType": "address",
              "name": "user",
              "type": "address"
            },
            {
              "internalType": "uint256",
              "name": "recoverableAmount",
              "type": "uint256"
            },
            {
              "internalType": "uint256",
              "name": "deadline",
              "type": "uint256"
            },
            {
              "internalType": "bool",
              "name": "completed",
              "type": "bool"
            },
            {
              "internalType": "bool",
              "name": "claimed",
              "type": "bool"
            },
            {
              "internalType": "uint8",
              "name": "exerciseType",
              "type": "uint8"
            },
            {
              "internalType": "uint256",
              "name": "targetAmount",
              "type": "uint256"
            },
            {
              "internalType": "uint256",
              "name": "baselineAmount",
              "type": "uint256"
            },
            {
              "internalType": "uint256",
              "name": "createdAt",
              "type": "uint256"
            }
          ],
          "internalType": "struct SweatEquityBot.SweatEquityChallenge",
          "name": "",
          "type": "tuple"
        }
      ],
      "stateMutability": "view",
      "type": "function"
    },
    {
      "inputs": [
        {
          "internalType": "address",
          "name": "user",
          "type": "address"
        }
      ],
      "name": "getUserChallenges",
      "outputs": [
        {
          "internalType": "uint256[]",
          "name": "",
          "type": "uint256[]"
        }
      ],
      "stateMutability": "view",
      "type": "function"
    },
    {
      "inputs": [
        {
          "internalType": "address",
          "name": "user",
          "type": "address"
        },
        {
          "internalType": "uint8",
          "name": "exerciseType",
          "type": "uint8"
        }
      ],
      "name": "getUserCurrentExerciseCount",
      "outputs": [
        {
          "internalType": "uint256",
          "name": "",
          "type": "uint256"
        }
      ],
      "stateMutability": "view",
      "type": "function"
    },
    {
      "inputs": [
        {
          "internalType": "address",
          "name": "owner",
          "type": "address"
        },
        {
          "internalType": "address",
          "name": "operator",
          "type": "address"
        }
      ],
      "name": "isApprovedForAll",
      "outputs": [
        {
          "internalType": "bool",
          "name": "",
          "type": "bool"
        }
      ],
      "stateMutability": "view",
      "type": "function"
    },
    {
      "inputs": [],
      "name": "name",
      "outputs": [
        {
          "internalType": "string",
          "name": "",
          "type": "string"
        }
      ],
      "stateMutability": "view",
      "type": "function"
    },
    {
      "inputs": [],
      "name": "owner",
      "outputs": [
        {
          "internalType": "address",
          "name": "",
          "type": "address"
        }
      ],
      "stateMutability": "view",
      "type": "function"
    },
    {
      "inputs": [
        {
          "internalType": "uint256",
          "name": "tokenId",
          "type": "uint256"
        }
      ],
      "name": "ownerOf",
      "outputs": [
        {
          "internalType": "address",
          "name": "",
          "type": "address"
        }
      ],
      "stateMutability": "view",
      "type": "function"
    },
    {
      "inputs": [],
      "name": "predictionMarket",
      "outputs": [
        {
          "internalType": "contract IPredictionMarket",
          "name": "",
          "type": "address"
        }
      ],
      "stateMutability": "view",
      "type": "function"
    },
    {
      "inputs": [],
      "name": "renounceOwnership",
      "outputs": [],
      "stateMutability": "nonpayable",
      "type": "function"
    },
    {
      "inputs": [
        {
          "internalType": "address",
          "name": "from",
          "type": "address"
        },
        {
          "internalType": "address",
          "name": "to",
          "type": "address"
        },
        {
          "internalType": "uint256",
          "name": "tokenId",
          "type": "uint256"
        }
      ],
      "name": "safeTransferFrom",
      "outputs": [],
      "stateMutability": "nonpayable",
      "type": "function"
    },
    {
      "inputs": [
        {
          "internalType": "address",
          "name": "from",
          "type": "address"
        },
        {
          "internalType": "address",
          "name": "to",
          "type": "address"
        },
        {
          "internalType": "uint256",
          "name": "tokenId",
          "type": "uint256"
        },
        {
          "internalType": "bytes",
          "name": "data",
          "type": "bytes"
        }
      ],
      "name": "safeTransferFrom",
      "outputs": [],
      "stateMutability": "nonpayable",
      "type": "function"
    },
    {
      "inputs": [
        {
          "internalType": "address",
          "name": "operator",
          "type": "address"
        },
        {
          "internalType": "bool",
          "name": "approved",
          "type": "bool"
        }
      ],
      "name": "setApprovalForAll",
      "outputs": [],
      "stateMutability": "nonpayable",
      "type": "function"
    },
    {
      "inputs": [
        {
          "internalType": "string",
          "name": "network",
          "type": "string"
        },
        {
          "internalType": "address",
          "name": "contractAddress",
          "type": "address"
        }
      ],
      "name": "setFitnessContract",
      "outputs": [],
      "stateMutability": "nonpayable",
      "type": "function"
    },
    {
      "inputs": [
        {
          "internalType": "address",
          "name": "",
          "type": "address"
        }
      ],
      "name": "streakCount",
      "outputs": [
        {
          "internalType": "uint256",
          "name": "",
          "type": "uint256"
        }
      ],
      "stateMutability": "view",
      "type": "function"
    },
    {
      "inputs": [
        {
          "internalType": "bytes4",
          "name": "interfaceId",
          "type": "bytes4"
        }
      ],
      "name": "supportsInterface",
      "outputs": [
        {
          "internalType": "bool",
          "name": "",
          "type": "bool"
        }
      ],
      "stateMutability": "view",
      "type": "function"
    },
    {
      "inputs": [
        {
          "internalType": "uint256",
          "name": "",
          "type": "uint256"
        }
      ],
      "name": "sweatEquityChallenges",
      "outputs": [
        {
          "internalType": "uint256",
          "name": "predictionId",
          "type": "uint256"
        },
        {
          "internalType": "address",
          "name": "user",
          "type": "address"
        },
        {
          "internalType": "uint256",
          "name": "recoverableAmount",
          "type": "uint256"
        },
        {
          "internalType": "uint256",
          "name": "deadline",
          "type": "uint256"
        },
        {
          "internalType": "bool",
          "name": "completed",
          "type": "bool"
        },
        {
          "internalType": "bool",
          "name": "claimed",
          "type": "bool"
        },
        {
          "internalType": "uint8",
          "name": "exerciseType",
          "type": "uint8"
        },
        {
          "internalType": "uint256",
          "name": "targetAmount",
          "type": "uint256"
        },
        {
          "internalType": "uint256",
          "name": "baselineAmount",
          "type": "uint256"
        },
        {
          "internalType": "uint256",
          "name": "createdAt",
          "type": "uint256"
        }
      ],
      "stateMutability": "view",
      "type": "function"
    },
    {
      "inputs": [
        {
          "internalType": "address",
          "name": "",
          "type": "address"
        }
      ],
      "name": "sweatEquityScore",
      "outputs": [
        {
          "internalType": "uint256",
          "name": "",
          "type": "uint256"
        }
      ],
      "stateMutability": "view",
      "type": "function"
    },
    {
      "inputs": [],
      "name": "symbol",
      "outputs": [
        {
          "internalType": "string",
          "name": "",
          "type": "string"
        }
      ],
      "stateMutability": "view",
      "type": "function"
    },
    {
      "inputs": [
        {
          "internalType": "uint256",
          "name": "tokenId",
          "type": "uint256"
        }
      ],
      "name": "tokenURI",
      "outputs": [
        {
          "internalType": "string",
          "name": "",
          "type": "string"
        }
      ],
      "stateMutability": "view",
      "type": "function"
    },
    {
      "inputs": [
        {
          "internalType": "address",
          "name": "from",
          "type": "address"
        },
        {
          "internalType": "address",
          "name": "to",
          "type": "address"
        },
        {
          "internalType": "uint256",
          "name": "tokenId",
          "type": "uint256"
        }
      ],
      "name": "transferFrom",
      "outputs": [],
      "stateMutability": "nonpayable",
      "type": "function"
    },
    {
      "inputs": [
        {
          "internalType": "address",
          "name": "newOwner",
          "type": "address"
        }
      ],
      "name": "transferOwnership",
      "outputs": [],
      "stateMutability": "nonpayable",
      "type": "function"
    },
    {
      "inputs": [
        {
          "internalType": "address",
          "name": "",
          "type": "address"
        },
        {
          "internalType": "uint256",
          "name": "",
          "type": "uint256"
        }
      ],
      "name": "userChallenges",
      "outputs": [
        {
          "internalType": "uint256",
          "name": "",
          "type": "uint256"
        }
      ],
      "stateMutability": "view",
      "type": "function"
    },
    {
      "inputs": [
        {
          "internalType": "uint256",
          "name": "",
          "type": "uint256"
        }
      ],
      "name": "verificationStatus",
      "outputs": [
        {
          "internalType": "enum SweatEquityBot.VerificationStatus",
          "name": "",
          "type": "uint8"
        }
      ],
      "stateMutability": "view",
      "type": "function"
    },
    {
      "inputs": [
        {
          "internalType": "uint256",
          "name": "challengeId",
          "type": "uint256"
        }
      ],
      "name": "verifyAndApprove",
      "outputs": [],
      "stateMutability": "nonpayable",
      "type": "function"
    },
    {
      "stateMutability": "payable",
      "type": "receive"
    }
  ],
  "bytecode": "0x608034620003c857601f906001600160401b0390601f199062002b93388190038581018416830185811184821017620003b257839282916040528339602092839181010312620003c857516001600160a01b03948582169491859003620003c8576200006a620003cd565b92600e84526d14ddd9585d115c5d5a5d1e53919560921b818501526200008f620003cd565b90600582526414d153919560da1b81830152845195848711620003b2576000968754966001978881811c91168015620003a7575b85821014620003935790818784931162000340575b508490878311600114620002df578a92620002d3575b5050600019600383901b1c191690871b1787555b8251948511620002bf5785548681811c91168015620002b4575b83821014620002a05790818587969594931162000247575b5081938511600114620001e25750508592620001d6575b5050600019600383901b1c191690821b1781555b3315620001bd5760065460018060a01b03199233848316176006557f8be0079c531659141344cd1fd0a4f28419497f9722a3daafe3b4186f6b6457e0604051963393169180a360075560095416176009556127a59081620003ee8239f35b604051631e4fbdf760e01b815260048101839052602490fd5b0151905038806200014b565b869593929193168588528388209388905b8282106200022d575050841162000213575b505050811b0181556200015f565b015160001960f88460031b161c1916905538808062000205565b8484015186558897909501949384019390810190620001f3565b9091929394508688528288208580880160051c82019285891062000296575b9188978a9297969594930160051c01915b8281106200028757505062000134565b8a815588975089910162000277565b9250819262000266565b634e487b7160e01b88526022600452602488fd5b90607f16906200011c565b634e487b7160e01b87526041600452602487fd5b015190503880620000ee565b90848a9416918b8052868c20928c5b888282106200032957505084116200030f575b505050811b01875562000102565b015160001960f88460031b161c1916905538808062000301565b8385015186558d97909501949384019301620002ee565b909150898052848a208780850160051c82019287861062000389575b918b91869594930160051c01915b8281106200037a575050620000d8565b8c81558594508b91016200036a565b925081926200035c565b634e487b7160e01b8a52602260045260248afd5b90607f1690620000c3565b634e487b7160e01b600052604160045260246000fd5b600080fd5b60408051919082016001600160401b03811183821017620003b25760405256fe608080604052600436101561001a575b50361561001857005b005b600090813560e01c90816301ffc9a714611b6a5750806306fdde0314611aaa578063081812fc14611a6d57806309580bef14611a20578063095ea7b31461193d5780630ca64f2f1461191f57806311da8e54146118715780631bdd4b741461172e5780632293e7561461168f57806323b872dd146116775780632d3e1cdf14611658578063374dd7c51461140357806342842e0e146113d557806348c77be6146113b95780634d4c277d1461139d5780636352211e1461136c57806370a0823114611314578063715018a6146112b65780638da5cb5b1461128d57806395d89b411461119557806398f2cc9614611160578063a22cb465146110ae578063a49613b414610cdf578063a5e65e7714610ca6578063a5ff0a1314610c50578063b03381bc14610c17578063b88d4fde14610ba3578063bc220ccf14610b72578063c87b56dd1461095f578063d255e2d6146108f5578063d4ed2c13146108d9578063d55c62f11461041e578063db2e21bc14610398578063def114b61461036f578063e985e9c51461031b578063f2fde38b1461028b5763fa89fc410361000f57346102885760403660031901126102885760043567ffffffffffffffff8111610284576101eb903690600401611dc3565b7f36d7f8efcd1c355e669cf3684d797615d57d7a24176ff79d29c3237a895c79336020610274610219611c3e565b93610222611de1565b6040519080519184818184019461023a818388611bdb565b600a9082019081520301902080546001600160a01b0319166001600160a01b03909716968717905560405190519092839282908490611bdb565b810103902092604051908152a280f35b5080fd5b80fd5b5034610288576020366003190112610288576102a5611c23565b6102ad611de1565b6001600160a01b0390811690811561030257600654826bffffffffffffffffffffffff60a01b821617600655167f8be0079c531659141344cd1fd0a4f28419497f9722a3daafe3b4186f6b6457e0600080a380f35b604051631e4fbdf760e01b815260048101849052602490fd5b503461028857604036600319011261028857610335611c23565b604061033f611c3e565b9260018060a01b0380931681526005602052209116600052602052602060ff604060002054166040519015158152f35b50346102885780600319360112610288576009546040516001600160a01b039091168152602090f35b50346102885780600319360112610288576103b1611de1565b4780156103e25760065482918291829182916001600160a01b031682f1156103d65780f35b604051903d90823e3d90fd5b60405162461bcd60e51b81526020600482015260146024820152734e6f2066756e647320746f20776974686472617760601b6044820152606490fd5b503461028857606036600319011261028857610438611c89565b60443590610444612331565b600160ff82161161089c57600954604080516309626a2360e41b815260048035908201523360248201526001600160a01b03909216939082604481875afa8015610891578592869161086c575b5080610863575b1561081e57604051637f41df6760e11b815260048035908201526024949086818781855afa8015610813576101a060ff916001938a916107f1575b50015116036107ad57604080516309626a2360e41b8152600480359082015233602482015291829060449082905afa9081156107a25786908792610770575b5081610766575b501561072b576105298333612375565b9160508102908082046050149015171561071857606490049261054d6008546122ff565b94856008556201518042018042116107055760078786868b87604051809761057482611cc7565b60043582528d6020830133815260408401918252606084019283526040608085019680885260ff60c060a0880197838952019716875260e08d019889526101008d01998a526101208d019a428c528152600b602052209a518b5560018b019060018060a01b039051166bffffffffffffffffffffffff60a01b8254161790555160028a015551600389015561061c6004890193511515849060ff801983541691151516179055565b5115159061ff0062ff00008454925160101b169260081b169062ffff0019161717905551600585015551600684015551910155338752600c60205260408720805491680100000000000000008310156106f357508161068391600160ff9594018155611c99565b81549060031b9088821b91600019901b1916179055858752600d60205260408720821981541690556040519485521660208401526040830152606082015233917fec115e970931c4684f8d813a45f54c5ddd93a33803ad78309520b9b9fda2052d608060043593a4600160075580f35b634e487b7160e01b8952604160045288fd5b50634e487b7160e01b8752601160045286fd5b634e487b7160e01b865260116004528486fd5b60405162461bcd60e51b81526020600482015260148186015273139bc81d985b1a59081cdd185ad948199bdd5b9960621b6044820152606490fd5b9050151538610519565b9050610794915060403d60401161079b575b61078c8183611d4e565b810190612121565b9038610512565b503d610782565b6040513d88823e3d90fd5b60405162461bcd60e51b8152602060048201526017818701527f50726564696374696f6e206e6f74207265736f6c7665640000000000000000006044820152606490fd5b61080d91503d808c833e6108058183611d4e565b81019061219f565b386104d3565b6040513d89823e3d90fd5b60405162461bcd60e51b815260206004820152601b60248201527f4e6f207374616b6520696e20746869732070726564696374696f6e00000000006044820152606490fd5b50811515610498565b905061088891925060403d60401161079b5761078c8183611d4e565b91909138610491565b6040513d87823e3d90fd5b60405162461bcd60e51b8152602060048201526015602482015274496e76616c6964206578657263697365207479706560581b6044820152606490fd5b5034610288578060031936011261028857602060405160508152f35b5034610288576020366003190112610288576004359067ffffffffffffffff82116102885760206109293660048501611dc3565b8161093d6040519283815193849201611bdb565b600a90820190815281900382019020546040516001600160a01b039091168152f35b5034610288576020908160031936011261028857816004359161098183611fac565b506040519261098f84611d16565b8184528115610b58578190807a184f03e93ff9f4daa797ed6e38ed64bf6a1f0100000000000000008181811015610b4a575b5050846d04ee2d6d415b85acef810000000080841015610b3c575b5050662386f26fc1000080831015610b2d575b506305f5e10080831015610b1e575b5061271080831015610b0f575b506064821015610aff575b600a80921015610af5575b60019081602181860195610a4d610a3788611d70565b97610a45604051998a611d4e565b808952611d70565b878a019890601f1901368a3750860101905b610abf575b5050505092610aa59291610a99946040519583610a8a8895518092888089019101611bdb565b84019151809386840190611bdb565b01038084520182611d4e565b905b610abb604051928284938452830190611bfe565b0390f35b600019019083906f181899199a1a9b1b9c1cb0b131b232b360811b8282061a835304918215610af057919082610a5f565b610a64565b9160010191610a21565b9190606460029104910191610a16565b60049193920491019138610a0b565b600891939204910191386109fe565b601091939204910191386109ef565b9301929091049084386109dc565b6040945004915038806109c1565b50505050604051610b6881611d16565b6000815290610aa7565b5034610288576040366003190112610288576020610b99610b91611c3e565b600435612620565b6040519015158152f35b503461028857608036600319011261028857610bbd611c23565b610bc5611c3e565b906044356064359267ffffffffffffffff8411610c135736602385011215610c1357610bfe610c10943690602481600401359101611d8c565b92610c0a838383611e0d565b33611fe7565b80f35b8480fd5b5034610288576020366003190112610288576020906040906001600160a01b03610c3f611c23565b168152600f83522054604051908152f35b503461028857604036600319011261028857610c6a611c23565b6001600160a01b03168152600c6020526040812080546024359290831015610288576020610c988484611c99565b90546040519160031b1c8152f35b5034610288576020366003190112610288576020906040906001600160a01b03610cce611c23565b168152600e83522054604051908152f35b503461028857602090816003193601126102885760043591828252600b81526040822092600384015442116110755760048401805460ff811661103c57600186019560018060a01b0391610d3d8389541660ff8360101c1690612375565b936005610d4e600685015487612354565b93019283541161100257600160ff19809316179055848752600d86526001604088209182541617905554818754168652600e8552610d9160408720918254612324565b9055808654168552600f845260408520610dab81546122ff565b9055808654169560405196610dbf88611d16565b8688528015610fe9578460005260028652826040600020541685828215159283610fb6575b600082815260038b5260408082208054600101905584825260028c52812080546001600160a01b031916841790557fddf252ad1be2c89b69c2b068fc378daa952ba7f163c4a11628f55a4df523b3ef9080a4610f9d57803b610e79575b50916040917f4de541293cd105ad674ba860bc58a068cb3d97a522193172c5c1de6417f4d9eb9354169482519182524290820152a380f35b959496604051888180610eb5630a85bd0160e11b95868352336004840152600060248401528a6044840152608060648401526084830190611bfe565b038160008c5af18091600091610f5f575b5090610f235788883d15610f1c573d610ede81611d70565b90610eec6040519283611d4e565b81523d60008483013e5b80519283610f1757604051633250574960e11b815260048101849052602490fd5b019050fd5b6060610ef6565b63ffffffff60e099989394959697991b1603610f4757508594939291906040610e41565b60249060405190633250574960e11b82526004820152fd5b8a81813d8311610f96575b610f748183611d4e565b810103126102845751906001600160e01b031982168203610288575038610ec6565b503d610f6a565b6040516339e3563760e11b815260048101889052602490fd5b60008381526004602052604080822080546001600160a01b031916905582825260038c5290208054600019019055610de4565b604051633250574960e11b815260048101889052602490fd5b60405162461bcd60e51b815260048101889052601260248201527115185c99d95d081b9bdd081c995858da195960721b6044820152606490fd5b60405162461bcd60e51b8152600481018590526011602482015270105b1c9958591e4818dbdb5c1b195d1959607a1b6044820152606490fd5b60405162461bcd60e51b815260048101839052601160248201527010da185b1b195b99d948195e1c1a5c9959607a1b6044820152606490fd5b5034610288576040366003190112610288576110c8611c23565b602435908115159081830361115c576001600160a01b031691821561114357611114903385526005602052604085208460005260205260406000209060ff801983541691151516179055565b6040519081527f17307eab39ab6107e8899845ad3d59bd9653f200f220920489ca2b5937696c3160203392a380f35b604051630b61174360e31b815260048101849052602490fd5b8380fd5b503461028857604036600319011261028857602061118d61117f611c23565b611187611c89565b90612375565b604051908152f35b5034610288578060031936011261028857604051908060019182549283811c92818516948515611283575b602095868610811461126f5785885287949392918790821561124d5750506001146111f4575b5050610aa792500383611d4e565b908592508082527fb10e2d527612073b26eecdfd717e6a320cf44b4afac2b0732d9fcbe2b7fa0cf65b858310611235575050610aa7935082010138806111e6565b8054838901850152879450869390920191810161121d565b9250935050610aa794915060ff191682840152151560051b82010138806111e6565b634e487b7160e01b83526022600452602483fd5b93607f16936111c0565b50346102885780600319360112610288576006546040516001600160a01b039091168152602090f35b50346102885780600319360112610288576112cf611de1565b600680546001600160a01b031981169091556000906001600160a01b03167f8be0079c531659141344cd1fd0a4f28419497f9722a3daafe3b4186f6b6457e08280a380f35b5034610288576020366003190112610288576001600160a01b03611336611c23565b168015611353578160409160209352600383522054604051908152f35b6040516322718ad960e21b815260048101839052602490fd5b503461028857602036600319011261028857602061138b600435611fac565b6040516001600160a01b039091168152f35b5034610288578060031936011261028857602060405160058152f35b50346102885780600319360112610288576020604051600f8152f35b503461028857610c106113e736611c54565b90604051926113f584611d16565b858452610c0a838383611e0d565b50346102885760208060031936011261028457600435611421612331565b808352600b82526040832060018101546001600160a01b03908116919033830361161e5760048201805460ff8116156115d95760ff8160081c166115a257858852600d875260ff604089205416600381101561158e5760010361155a579061010088939261ff001916179055600954169260028354930193845493813b1561115c5783606492604051968795869463fe678c2160e01b86526004860152602485015260448401525af180156108915761150a575b505460405190815233927fa295aacbce04e897538bdd3b31a3d751727909b6b500e52ca76863d4716a554e91a3600160075580f35b67ffffffffffffffff819592951161154657604052927fa295aacbce04e897538bdd3b31a3d751727909b6b500e52ca76863d4716a554e6114d5565b634e487b7160e01b82526041600452602482fd5b60405162461bcd60e51b815260048101889052600c60248201526b139bdd08185c1c1c9bdd995960a21b6044820152606490fd5b634e487b7160e01b89526021600452602489fd5b60405162461bcd60e51b815260048101889052600f60248201526e105b1c9958591e4818db185a5b5959608a1b6044820152606490fd5b60405162461bcd60e51b815260048101889052601760248201527f4368616c6c656e6765206e6f7420636f6d706c657465640000000000000000006044820152606490fd5b60405162461bcd60e51b81526004810186905260126024820152714e6f7420796f7572206368616c6c656e676560701b6044820152606490fd5b5034610288576020366003190112610288576020610b99600435612709565b503461028857610c1061168936611c54565b91611e0d565b5034610288576020366003190112610288576040610140916004358152600b6020522080549060018060a01b0360018201541690600281015460ff6003830154600484015490600585015493600760068701549601549660405198895260208901526040880152606087015281811615156080870152818160081c16151560a087015260101c1660c085015260e0840152610100830152610120820152f35b5034610288576020366003190112610288576101409060405161175081611cc7565b8181528160208201528160408201528160608201528160808201528160a08201528160c08201528160e0820152604061010092808484015280610120809401526004358152600b6020522091604051906117a982611cc7565b8184549485825260ff60018060a01b0380600184015416602085019081526002840154916040860192835260038501546060870190815260048601549360808801928686161515845260a0890194878760081c16151586528760c08b019760101c1687528c600760058b01549a60e08d019b8c528d60068201549d019c8d5201549c019b8c526040519d8e52511660208d01525160408c01525160608b015251151560808a015251151560a0890152511660c08701525160e086015251908401525190820152f35b503461028857602080600319360112610284576001600160a01b03611894611c23565b168252600c81526040822060405192838383549182815201908193835284832090835b81811061190b57505050846118cd910385611d4e565b60405193838594850191818652518092526040850193925b8281106118f457505050500390f35b8351855286955093810193928101926001016118e5565b8254845292860192600192830192016118b7565b50346102885780600319360112610288576020604051620151808152f35b503461028857604036600319011261028857611957611c23565b60243561196381611fac565b33151580611a0d575b806119e2575b6119ca576001600160a01b039283169282918491167f8c5be1e5ebec7d5bd14f71427d1e84f3dd0314c0f7b2291e5b200ac8c7c3b9258680a4825260046020526040822080546001600160a01b031916909117905580f35b60405163a9fbf51f60e01b8152336004820152602490fd5b506001600160a01b038116845260056020908152604080862033875290915284205460ff1615611972565b506001600160a01b03811633141561196c565b5034610288576020366003190112610288576004358152600d60205260ff604082205416604051906003811015611a5957602092508152f35b634e487b7160e01b83526021600452602483fd5b503461028857602036600319011261028857602090600435611a8e81611fac565b50815260048252604060018060a01b0391205416604051908152f35b50346102885780600319360112610288576040519080805491600183811c92818516948515611b60575b602095868610811461126f5785885287949392918790821561124d575050600114611b07575050610aa792500383611d4e565b908592508180527f290decd9548b62a8d60345a988386fc84ba6bc95484008f6362f93160ef3e5635b858310611b48575050610aa7935082010138806111e6565b80548389018501528794508693909201918101611b30565b93607f1693611ad4565b9050346102845760203660031901126102845760043563ffffffff60e01b8116809103611bd757602092506380ac58cd60e01b8114908115611bc6575b8115611bb5575b5015158152f35b6301ffc9a760e01b14905038611bae565b635b5e139f60e01b81149150611ba7565b8280fd5b60005b838110611bee5750506000910152565b8181015183820152602001611bde565b90602091611c1781518092818552858086019101611bdb565b601f01601f1916010190565b600435906001600160a01b0382168203611c3957565b600080fd5b602435906001600160a01b0382168203611c3957565b6060906003190112611c39576001600160a01b03906004358281168103611c3957916024359081168103611c39579060443590565b6024359060ff82168203611c3957565b8054821015611cb15760005260206000200190600090565b634e487b7160e01b600052603260045260246000fd5b610140810190811067ffffffffffffffff821117611ce457604052565b634e487b7160e01b600052604160045260246000fd5b6080810190811067ffffffffffffffff821117611ce457604052565b6020810190811067ffffffffffffffff821117611ce457604052565b6040810190811067ffffffffffffffff821117611ce457604052565b90601f8019910116810190811067ffffffffffffffff821117611ce457604052565b67ffffffffffffffff8111611ce457601f01601f191660200190565b929192611d9882611d70565b91611da66040519384611d4e565b829481845281830111611c39578281602093846000960137010152565b9080601f83011215611c3957816020611dde93359101611d8c565b90565b6006546001600160a01b03163303611df557565b60405163118cdaa760e01b8152336004820152602490fd5b6001600160a01b039182169290918315611f9357600092828452826020956002875260409684888820541696879133151580611efd575b509060027fddf252ad1be2c89b69c2b068fc378daa952ba7f163c4a11628f55a4df523b3ef9284611eca575b858352600381528b8320805460010190558683525289812080546001600160a01b0319168517905580a41692838303611ea95750505050565b6064945051926364283d7b60e01b8452600484015260248301526044820152fd5b600087815260046020526040902080546001600160a01b0319169055848352600381528b83208054600019019055611e70565b91939450915080611f52575b15611f1957859291879138611e44565b878688611f36576024915190637e27328960e01b82526004820152fd5b604491519063177e802f60e01b82523360048301526024820152fd5b503387148015611f77575b80611f095750858252600481523385898420541614611f09565b5086825260058152878220338352815260ff8883205416611f5d565b604051633250574960e11b815260006004820152602490fd5b6000818152600260205260409020546001600160a01b0316908115611fcf575090565b60249060405190637e27328960e01b82526004820152fd5b909192833b611ff8575b5050505050565b604051630a85bd0160e11b8082526001600160a01b039384166004830152938316602482015260448101919091526080606482015260209591909316939091908390612048906084830190611bfe565b039285816000958187895af18491816120d4575b506120b6575050503d6000146120ae573d61207681611d70565b906120846040519283611d4e565b81528091843d92013e80519283610f1757604051633250574960e11b815260048101849052602490fd5b506060610ef6565b919450915063ffffffff60e01b1603610f4757503880808080611ff1565b9091508681813d831161210d575b6120ec8183611d4e565b81010312610c1357516001600160e01b031981168103610c1357903861205c565b503d6120e2565b51908115158203611c3957565b9190826040910312611c3957611dde602083519301612114565b51906001600160a01b0382168203611c3957565b81601f82011215611c3957805161216581611d70565b926121736040519485611d4e565b81845260208284010111611c3957611dde9160208085019101611bdb565b519060ff82168203611c3957565b90602082820312611c3957815167ffffffffffffffff92838211611c39570190610220928383830312611c395760405193840184811082821117611ce457604052825184526121f06020840161213b565b60208501526040830151818111611c39578261220d91850161214f565b60408501526060830151818111611c39578261222a91850161214f565b60608501526080830151608085015260a083015160a085015260c083015160c085015261225960e08401612191565b60e085015261010080840151828111611c39578361227891860161214f565b908501526101209182840151918211611c395761229691840161214f565b908301526101408082015190830152610160808201519083015261018080820151908301526101a06122c9818301612191565b908301526101c06122db818301612191565b908301526101e080820151908301526122f8610200809201612114565b9082015290565b600019811461230e5760010190565b634e487b7160e01b600052601160045260246000fd5b9190820180921161230e57565b600260075414612342576002600755565b604051633ee5aeb560e01b8152600490fd5b9190820391821161230e57565b8051821015611cb15760209160051b010190565b60405160009261238482611cfa565b60405161239081611d32565b60048152636261736560e01b602082015282526040516123af81611d32565b600481526363656c6f60e01b602082015260208301526040516123d181611d32565b60078152663837b63cb3b7b760c91b60208201526040830152604051906123f782611d32565b600591828152641b5bdb985960da1b60208201526060840152845b6004811061242257505050505090565b80831b840151602061243d6040519283815193849201611bdb565b600a9082019081528190036020019020546001600160a01b03168061246c575b50612467906122ff565b612412565b6000600491604051928380926336bb1d3760e11b82525afa60009181612537575b5061249c5750612467906122ff565b93600097919695979392935b8551811015612525576001600160a01b036124c38288612361565b5151166001600160a01b038a16146124e3576124de906122ff565b6124a8565b919795909492939261246792612511929160ff86166125195760209161250891612361565b51015190612324565b955b9061245d565b60409161250891612361565b50935095939461246790929192612513565b90913d908181843e6125498284611d4e565b60208383810103126102885782519067ffffffffffffffff9182811161028457840192808501601f8501121561028457835192831161154657604051946125956020858c1b0187611d4e565b838652602086019482820160208660071b8301011161115c5760208101955b60208660071b83010187106125d15750505050505050903861248d565b6080878585010312610c135760206080916040516125ee81611cfa565b6125f78a61213b565b8152828a01518382015260408a0151604082015260608a015160608201528152019601956125b4565b600954604080516309626a2360e41b8152600481018490526001600160a01b03948516602482015293909116929081604481865afa8060009283926126e6575b5061266e5750505050600090565b159081156126dd575b506126d657600090602460405180948193637f41df6760e11b835260048301525afa600091816126bb575b506126ad5750600090565b6101a0015160ff1660011490565b6126cf91923d8091833e6108058183611d4e565b90386126a2565b5050600090565b90501538612677565b909250612701915060403d811161079b5761078c8183611d4e565b909138612660565b600052600b6020526040600020600481015460ff81168015612762575b6126d657600182015460059161275a9161274f9160101c60ff16906001600160a01b0316612375565b600684015490612354565b910154111590565b506003820154421161272656fea264697066735822122094e8bd13f7b1dd768d54a54adaaf76203ecf6fdc0d59f512cabd392ae4c00bf864736f6c63430008140033",
  "linkReferences": {},
  "deployedLinkReferences": {}
}